{
	"contracts/三W高级合约交互/Call.sol": {
		"TestCall": {
			"abi": [
				{
					"anonymous": false,
					"inputs": [
						{
							"indexed": false,
							"internalType": "address",
							"name": "sender",
							"type": "address"
						},
						{
							"indexed": false,
							"internalType": "uint256",
							"name": "amount",
							"type": "uint256"
						},
						{
							"indexed": false,
							"internalType": "string",
							"name": "message",
							"type": "string"
						}
					],
					"name": "Log",
					"type": "event"
				},
				{
					"stateMutability": "payable",
					"type": "fallback"
				},
				{
					"inputs": [
						{
							"internalType": "uint256",
							"name": "_x",
							"type": "uint256"
						},
						{
							"internalType": "string",
							"name": "_message",
							"type": "string"
						}
					],
					"name": "foo",
					"outputs": [
						{
							"internalType": "bool",
							"name": "",
							"type": "bool"
						},
						{
							"internalType": "uint256",
							"name": "",
							"type": "uint256"
						}
					],
					"stateMutability": "payable",
					"type": "function"
				},
				{
					"inputs": [],
					"name": "message",
					"outputs": [
						{
							"internalType": "string",
							"name": "",
							"type": "string"
						}
					],
					"stateMutability": "view",
					"type": "function"
				},
				{
					"inputs": [],
					"name": "x",
					"outputs": [
						{
							"internalType": "uint256",
							"name": "",
							"type": "uint256"
						}
					],
					"stateMutability": "view",
					"type": "function"
				},
				{
					"stateMutability": "payable",
					"type": "receive"
				}
			],
			"devdoc": {
				"kind": "dev",
				"methods": {},
				"version": 1
			},
			"evm": {
				"assembly": "    /* \"contracts/\\xe4\\xb8\\x89W\\xe9\\xab\\x98\\xe7\\xba\\xa7\\xe5\\x90\\x88\\xe7\\xba\\xa6\\xe4\\xba\\xa4\\xe4\\xba\\x92/Call.sol\":57:576  contract TestCall {... */\n  mstore(0x40, 0x80)\n  callvalue\n  dup1\n  iszero\n  tag_1\n  jumpi\n  0x00\n  dup1\n  revert\ntag_1:\n  pop\n  dataSize(sub_0)\n  dup1\n  dataOffset(sub_0)\n  0x00\n  codecopy\n  0x00\n  return\nstop\n\nsub_0: assembly {\n        /* \"contracts/\\xe4\\xb8\\x89W\\xe9\\xab\\x98\\xe7\\xba\\xa7\\xe5\\x90\\x88\\xe7\\xba\\xa6\\xe4\\xba\\xa4\\xe4\\xba\\x92/Call.sol\":57:576  contract TestCall {... */\n      mstore(0x40, 0x80)\n      jumpi(tag_1, lt(calldatasize, 0x04))\n      shr(0xe0, calldataload(0x00))\n      dup1\n      0x0c55699c\n      eq\n      tag_3\n      jumpi\n      dup1\n      0xc5d1c995\n      eq\n      tag_4\n      jumpi\n      dup1\n      0xe21f37ce\n      eq\n      tag_5\n      jumpi\n      jump(tag_2)\n    tag_1:\n      jumpi(tag_2, calldatasize)\n      stop\n    tag_2:\n        /* \"contracts/\\xe4\\xb8\\x89W\\xe9\\xab\\x98\\xe7\\xba\\xa7\\xe5\\x90\\x88\\xe7\\xba\\xa6\\xe4\\xba\\xa4\\xe4\\xba\\x92/Call.sol\":270:319  Log(msg.sender, msg.value, \"fallback was called\") */\n      0x4e3358e5bdb38f499a83fbcd33d16343569f3b6fe53021022dede6364017b4a8\n        /* \"contracts/\\xe4\\xb8\\x89W\\xe9\\xab\\x98\\xe7\\xba\\xa7\\xe5\\x90\\x88\\xe7\\xba\\xa6\\xe4\\xba\\xa4\\xe4\\xba\\x92/Call.sol\":274:284  msg.sender */\n      caller\n        /* \"contracts/\\xe4\\xb8\\x89W\\xe9\\xab\\x98\\xe7\\xba\\xa7\\xe5\\x90\\x88\\xe7\\xba\\xa6\\xe4\\xba\\xa4\\xe4\\xba\\x92/Call.sol\":286:295  msg.value */\n      callvalue\n        /* \"contracts/\\xe4\\xb8\\x89W\\xe9\\xab\\x98\\xe7\\xba\\xa7\\xe5\\x90\\x88\\xe7\\xba\\xa6\\xe4\\xba\\xa4\\xe4\\xba\\x92/Call.sol\":270:319  Log(msg.sender, msg.value, \"fallback was called\") */\n      mload(0x40)\n      tag_10\n      swap3\n      swap2\n      swap1\n      tag_11\n      jump\t// in\n    tag_10:\n      mload(0x40)\n      dup1\n      swap2\n      sub\n      swap1\n      log1\n        /* \"contracts/\\xe4\\xb8\\x89W\\xe9\\xab\\x98\\xe7\\xba\\xa7\\xe5\\x90\\x88\\xe7\\xba\\xa6\\xe4\\xba\\xa4\\xe4\\xba\\x92/Call.sol\":57:576  contract TestCall {... */\n      stop\n        /* \"contracts/\\xe4\\xb8\\x89W\\xe9\\xab\\x98\\xe7\\xba\\xa7\\xe5\\x90\\x88\\xe7\\xba\\xa6\\xe4\\xba\\xa4\\xe4\\xba\\x92/Call.sol\":108:121  uint public x */\n    tag_3:\n      callvalue\n      dup1\n      iszero\n      tag_12\n      jumpi\n      0x00\n      dup1\n      revert\n    tag_12:\n      pop\n      tag_13\n      tag_14\n      jump\t// in\n    tag_13:\n      mload(0x40)\n      tag_15\n      swap2\n      swap1\n      tag_16\n      jump\t// in\n    tag_15:\n      mload(0x40)\n      dup1\n      swap2\n      sub\n      swap1\n      return\n        /* \"contracts/\\xe4\\xb8\\x89W\\xe9\\xab\\x98\\xe7\\xba\\xa7\\xe5\\x90\\x88\\xe7\\xba\\xa6\\xe4\\xba\\xa4\\xe4\\xba\\x92/Call.sol\":332:574  function foo(... */\n    tag_4:\n      tag_17\n      0x04\n      dup1\n      calldatasize\n      sub\n      dup2\n      add\n      swap1\n      tag_18\n      swap2\n      swap1\n      tag_19\n      jump\t// in\n    tag_18:\n      tag_20\n      jump\t// in\n    tag_17:\n      mload(0x40)\n      tag_21\n      swap3\n      swap2\n      swap1\n      tag_22\n      jump\t// in\n    tag_21:\n      mload(0x40)\n      dup1\n      swap2\n      sub\n      swap1\n      return\n        /* \"contracts/\\xe4\\xb8\\x89W\\xe9\\xab\\x98\\xe7\\xba\\xa7\\xe5\\x90\\x88\\xe7\\xba\\xa6\\xe4\\xba\\xa4\\xe4\\xba\\x92/Call.sol\":81:102  string public message */\n    tag_5:\n      callvalue\n      dup1\n      iszero\n      tag_23\n      jumpi\n      0x00\n      dup1\n      revert\n    tag_23:\n      pop\n      tag_24\n      tag_25\n      jump\t// in\n    tag_24:\n      mload(0x40)\n      tag_26\n      swap2\n      swap1\n      tag_27\n      jump\t// in\n    tag_26:\n      mload(0x40)\n      dup1\n      swap2\n      sub\n      swap1\n      return\n        /* \"contracts/\\xe4\\xb8\\x89W\\xe9\\xab\\x98\\xe7\\xba\\xa7\\xe5\\x90\\x88\\xe7\\xba\\xa6\\xe4\\xba\\xa4\\xe4\\xba\\x92/Call.sol\":108:121  uint public x */\n    tag_14:\n      sload(0x01)\n      dup2\n      jump\t// out\n        /* \"contracts/\\xe4\\xb8\\x89W\\xe9\\xab\\x98\\xe7\\xba\\xa7\\xe5\\x90\\x88\\xe7\\xba\\xa6\\xe4\\xba\\xa4\\xe4\\xba\\x92/Call.sol\":332:574  function foo(... */\n    tag_20:\n        /* \"contracts/\\xe4\\xb8\\x89W\\xe9\\xab\\x98\\xe7\\xba\\xa7\\xe5\\x90\\x88\\xe7\\xba\\xa6\\xe4\\xba\\xa4\\xe4\\xba\\x92/Call.sol\":429:433  bool */\n      0x00\n        /* \"contracts/\\xe4\\xb8\\x89W\\xe9\\xab\\x98\\xe7\\xba\\xa7\\xe5\\x90\\x88\\xe7\\xba\\xa6\\xe4\\xba\\xa4\\xe4\\xba\\x92/Call.sol\":435:439  uint */\n      dup1\n        /* \"contracts/\\xe4\\xb8\\x89W\\xe9\\xab\\x98\\xe7\\xba\\xa7\\xe5\\x90\\x88\\xe7\\xba\\xa6\\xe4\\xba\\xa4\\xe4\\xba\\x92/Call.sol\":511:513  _x */\n      dup4\n        /* \"contracts/\\xe4\\xb8\\x89W\\xe9\\xab\\x98\\xe7\\xba\\xa7\\xe5\\x90\\x88\\xe7\\xba\\xa6\\xe4\\xba\\xa4\\xe4\\xba\\x92/Call.sol\":507:508  x */\n      0x01\n        /* \"contracts/\\xe4\\xb8\\x89W\\xe9\\xab\\x98\\xe7\\xba\\xa7\\xe5\\x90\\x88\\xe7\\xba\\xa6\\xe4\\xba\\xa4\\xe4\\xba\\x92/Call.sol\":507:513  x = _x */\n      dup2\n      swap1\n      sstore\n      pop\n        /* \"contracts/\\xe4\\xb8\\x89W\\xe9\\xab\\x98\\xe7\\xba\\xa7\\xe5\\x90\\x88\\xe7\\xba\\xa6\\xe4\\xba\\xa4\\xe4\\xba\\x92/Call.sol\":533:541  _message */\n      dup3\n        /* \"contracts/\\xe4\\xb8\\x89W\\xe9\\xab\\x98\\xe7\\xba\\xa7\\xe5\\x90\\x88\\xe7\\xba\\xa6\\xe4\\xba\\xa4\\xe4\\xba\\x92/Call.sol\":523:530  message */\n      0x00\n        /* \"contracts/\\xe4\\xb8\\x89W\\xe9\\xab\\x98\\xe7\\xba\\xa7\\xe5\\x90\\x88\\xe7\\xba\\xa6\\xe4\\xba\\xa4\\xe4\\xba\\x92/Call.sol\":523:541  message = _message */\n      swap1\n      dup2\n      tag_29\n      swap2\n      swap1\n      tag_30\n      jump\t// in\n    tag_29:\n      pop\n        /* \"contracts/\\xe4\\xb8\\x89W\\xe9\\xab\\x98\\xe7\\xba\\xa7\\xe5\\x90\\x88\\xe7\\xba\\xa6\\xe4\\xba\\xa4\\xe4\\xba\\x92/Call.sol\":559:563  true */\n      0x01\n        /* \"contracts/\\xe4\\xb8\\x89W\\xe9\\xab\\x98\\xe7\\xba\\xa7\\xe5\\x90\\x88\\xe7\\xba\\xa6\\xe4\\xba\\xa4\\xe4\\xba\\x92/Call.sol\":565:566  1 */\n      dup1\n        /* \"contracts/\\xe4\\xb8\\x89W\\xe9\\xab\\x98\\xe7\\xba\\xa7\\xe5\\x90\\x88\\xe7\\xba\\xa6\\xe4\\xba\\xa4\\xe4\\xba\\x92/Call.sol\":551:567  return (true, 1) */\n      swap2\n      pop\n      swap2\n      pop\n        /* \"contracts/\\xe4\\xb8\\x89W\\xe9\\xab\\x98\\xe7\\xba\\xa7\\xe5\\x90\\x88\\xe7\\xba\\xa6\\xe4\\xba\\xa4\\xe4\\xba\\x92/Call.sol\":332:574  function foo(... */\n      swap3\n      pop\n      swap3\n      swap1\n      pop\n      jump\t// out\n        /* \"contracts/\\xe4\\xb8\\x89W\\xe9\\xab\\x98\\xe7\\xba\\xa7\\xe5\\x90\\x88\\xe7\\xba\\xa6\\xe4\\xba\\xa4\\xe4\\xba\\x92/Call.sol\":81:102  string public message */\n    tag_25:\n      0x00\n      dup1\n      sload\n      tag_31\n      swap1\n      tag_32\n      jump\t// in\n    tag_31:\n      dup1\n      0x1f\n      add\n      0x20\n      dup1\n      swap2\n      div\n      mul\n      0x20\n      add\n      mload(0x40)\n      swap1\n      dup2\n      add\n      0x40\n      mstore\n      dup1\n      swap3\n      swap2\n      swap1\n      dup2\n      dup2\n      mstore\n      0x20\n      add\n      dup3\n      dup1\n      sload\n      tag_33\n      swap1\n      tag_32\n      jump\t// in\n    tag_33:\n      dup1\n      iszero\n      tag_34\n      jumpi\n      dup1\n      0x1f\n      lt\n      tag_35\n      jumpi\n      0x0100\n      dup1\n      dup4\n      sload\n      div\n      mul\n      dup4\n      mstore\n      swap2\n      0x20\n      add\n      swap2\n      jump(tag_34)\n    tag_35:\n      dup3\n      add\n      swap2\n      swap1\n      0x00\n      mstore\n      keccak256(0x00, 0x20)\n      swap1\n    tag_36:\n      dup2\n      sload\n      dup2\n      mstore\n      swap1\n      0x01\n      add\n      swap1\n      0x20\n      add\n      dup1\n      dup4\n      gt\n      tag_36\n      jumpi\n      dup3\n      swap1\n      sub\n      0x1f\n      and\n      dup3\n      add\n      swap2\n    tag_34:\n      pop\n      pop\n      pop\n      pop\n      pop\n      dup2\n      jump\t// out\n        /* \"#utility.yul\":7:133   */\n    tag_37:\n        /* \"#utility.yul\":44:51   */\n      0x00\n        /* \"#utility.yul\":84:126   */\n      0xffffffffffffffffffffffffffffffffffffffff\n        /* \"#utility.yul\":77:82   */\n      dup3\n        /* \"#utility.yul\":73:127   */\n      and\n        /* \"#utility.yul\":62:127   */\n      swap1\n      pop\n        /* \"#utility.yul\":7:133   */\n      swap2\n      swap1\n      pop\n      jump\t// out\n        /* \"#utility.yul\":139:235   */\n    tag_38:\n        /* \"#utility.yul\":176:183   */\n      0x00\n        /* \"#utility.yul\":205:229   */\n      tag_84\n        /* \"#utility.yul\":223:228   */\n      dup3\n        /* \"#utility.yul\":205:229   */\n      tag_37\n      jump\t// in\n    tag_84:\n        /* \"#utility.yul\":194:229   */\n      swap1\n      pop\n        /* \"#utility.yul\":139:235   */\n      swap2\n      swap1\n      pop\n      jump\t// out\n        /* \"#utility.yul\":241:359   */\n    tag_39:\n        /* \"#utility.yul\":328:352   */\n      tag_86\n        /* \"#utility.yul\":346:351   */\n      dup2\n        /* \"#utility.yul\":328:352   */\n      tag_38\n      jump\t// in\n    tag_86:\n        /* \"#utility.yul\":323:326   */\n      dup3\n        /* \"#utility.yul\":316:353   */\n      mstore\n        /* \"#utility.yul\":241:359   */\n      pop\n      pop\n      jump\t// out\n        /* \"#utility.yul\":365:442   */\n    tag_40:\n        /* \"#utility.yul\":402:409   */\n      0x00\n        /* \"#utility.yul\":431:436   */\n      dup2\n        /* \"#utility.yul\":420:436   */\n      swap1\n      pop\n        /* \"#utility.yul\":365:442   */\n      swap2\n      swap1\n      pop\n      jump\t// out\n        /* \"#utility.yul\":448:566   */\n    tag_41:\n        /* \"#utility.yul\":535:559   */\n      tag_89\n        /* \"#utility.yul\":553:558   */\n      dup2\n        /* \"#utility.yul\":535:559   */\n      tag_40\n      jump\t// in\n    tag_89:\n        /* \"#utility.yul\":530:533   */\n      dup3\n        /* \"#utility.yul\":523:560   */\n      mstore\n        /* \"#utility.yul\":448:566   */\n      pop\n      pop\n      jump\t// out\n        /* \"#utility.yul\":572:741   */\n    tag_42:\n        /* \"#utility.yul\":656:667   */\n      0x00\n        /* \"#utility.yul\":690:696   */\n      dup3\n        /* \"#utility.yul\":685:688   */\n      dup3\n        /* \"#utility.yul\":678:697   */\n      mstore\n        /* \"#utility.yul\":730:734   */\n      0x20\n        /* \"#utility.yul\":725:728   */\n      dup3\n        /* \"#utility.yul\":721:735   */\n      add\n        /* \"#utility.yul\":706:735   */\n      swap1\n      pop\n        /* \"#utility.yul\":572:741   */\n      swap3\n      swap2\n      pop\n      pop\n      jump\t// out\n        /* \"#utility.yul\":747:916   */\n    tag_43:\n        /* \"#utility.yul\":887:908   */\n      0x66616c6c6261636b207761732063616c6c656400000000000000000000000000\n        /* \"#utility.yul\":883:884   */\n      0x00\n        /* \"#utility.yul\":875:881   */\n      dup3\n        /* \"#utility.yul\":871:885   */\n      add\n        /* \"#utility.yul\":864:909   */\n      mstore\n        /* \"#utility.yul\":747:916   */\n      pop\n      jump\t// out\n        /* \"#utility.yul\":922:1288   */\n    tag_44:\n        /* \"#utility.yul\":1064:1067   */\n      0x00\n        /* \"#utility.yul\":1085:1152   */\n      tag_93\n        /* \"#utility.yul\":1149:1151   */\n      0x13\n        /* \"#utility.yul\":1144:1147   */\n      dup4\n        /* \"#utility.yul\":1085:1152   */\n      tag_42\n      jump\t// in\n    tag_93:\n        /* \"#utility.yul\":1078:1152   */\n      swap2\n      pop\n        /* \"#utility.yul\":1161:1254   */\n      tag_94\n        /* \"#utility.yul\":1250:1253   */\n      dup3\n        /* \"#utility.yul\":1161:1254   */\n      tag_43\n      jump\t// in\n    tag_94:\n        /* \"#utility.yul\":1279:1281   */\n      0x20\n        /* \"#utility.yul\":1274:1277   */\n      dup3\n        /* \"#utility.yul\":1270:1282   */\n      add\n        /* \"#utility.yul\":1263:1282   */\n      swap1\n      pop\n        /* \"#utility.yul\":922:1288   */\n      swap2\n      swap1\n      pop\n      jump\t// out\n        /* \"#utility.yul\":1294:1933   */\n    tag_11:\n        /* \"#utility.yul\":1516:1520   */\n      0x00\n        /* \"#utility.yul\":1554:1556   */\n      0x60\n        /* \"#utility.yul\":1543:1552   */\n      dup3\n        /* \"#utility.yul\":1539:1557   */\n      add\n        /* \"#utility.yul\":1531:1557   */\n      swap1\n      pop\n        /* \"#utility.yul\":1567:1638   */\n      tag_96\n        /* \"#utility.yul\":1635:1636   */\n      0x00\n        /* \"#utility.yul\":1624:1633   */\n      dup4\n        /* \"#utility.yul\":1620:1637   */\n      add\n        /* \"#utility.yul\":1611:1617   */\n      dup6\n        /* \"#utility.yul\":1567:1638   */\n      tag_39\n      jump\t// in\n    tag_96:\n        /* \"#utility.yul\":1648:1720   */\n      tag_97\n        /* \"#utility.yul\":1716:1718   */\n      0x20\n        /* \"#utility.yul\":1705:1714   */\n      dup4\n        /* \"#utility.yul\":1701:1719   */\n      add\n        /* \"#utility.yul\":1692:1698   */\n      dup5\n        /* \"#utility.yul\":1648:1720   */\n      tag_41\n      jump\t// in\n    tag_97:\n        /* \"#utility.yul\":1767:1776   */\n      dup2\n        /* \"#utility.yul\":1761:1765   */\n      dup2\n        /* \"#utility.yul\":1757:1777   */\n      sub\n        /* \"#utility.yul\":1752:1754   */\n      0x40\n        /* \"#utility.yul\":1741:1750   */\n      dup4\n        /* \"#utility.yul\":1737:1755   */\n      add\n        /* \"#utility.yul\":1730:1778   */\n      mstore\n        /* \"#utility.yul\":1795:1926   */\n      tag_98\n        /* \"#utility.yul\":1921:1925   */\n      dup2\n        /* \"#utility.yul\":1795:1926   */\n      tag_44\n      jump\t// in\n    tag_98:\n        /* \"#utility.yul\":1787:1926   */\n      swap1\n      pop\n        /* \"#utility.yul\":1294:1933   */\n      swap4\n      swap3\n      pop\n      pop\n      pop\n      jump\t// out\n        /* \"#utility.yul\":1939:2161   */\n    tag_16:\n        /* \"#utility.yul\":2032:2036   */\n      0x00\n        /* \"#utility.yul\":2070:2072   */\n      0x20\n        /* \"#utility.yul\":2059:2068   */\n      dup3\n        /* \"#utility.yul\":2055:2073   */\n      add\n        /* \"#utility.yul\":2047:2073   */\n      swap1\n      pop\n        /* \"#utility.yul\":2083:2154   */\n      tag_100\n        /* \"#utility.yul\":2151:2152   */\n      0x00\n        /* \"#utility.yul\":2140:2149   */\n      dup4\n        /* \"#utility.yul\":2136:2153   */\n      add\n        /* \"#utility.yul\":2127:2133   */\n      dup5\n        /* \"#utility.yul\":2083:2154   */\n      tag_41\n      jump\t// in\n    tag_100:\n        /* \"#utility.yul\":1939:2161   */\n      swap3\n      swap2\n      pop\n      pop\n      jump\t// out\n        /* \"#utility.yul\":2167:2242   */\n    tag_45:\n        /* \"#utility.yul\":2200:2206   */\n      0x00\n        /* \"#utility.yul\":2233:2235   */\n      0x40\n        /* \"#utility.yul\":2227:2236   */\n      mload\n        /* \"#utility.yul\":2217:2236   */\n      swap1\n      pop\n        /* \"#utility.yul\":2167:2242   */\n      swap1\n      jump\t// out\n        /* \"#utility.yul\":2248:2365   */\n    tag_46:\n        /* \"#utility.yul\":2357:2358   */\n      0x00\n        /* \"#utility.yul\":2354:2355   */\n      dup1\n        /* \"#utility.yul\":2347:2359   */\n      revert\n        /* \"#utility.yul\":2371:2488   */\n    tag_47:\n        /* \"#utility.yul\":2480:2481   */\n      0x00\n        /* \"#utility.yul\":2477:2478   */\n      dup1\n        /* \"#utility.yul\":2470:2482   */\n      revert\n        /* \"#utility.yul\":2494:2616   */\n    tag_48:\n        /* \"#utility.yul\":2567:2591   */\n      tag_105\n        /* \"#utility.yul\":2585:2590   */\n      dup2\n        /* \"#utility.yul\":2567:2591   */\n      tag_40\n      jump\t// in\n    tag_105:\n        /* \"#utility.yul\":2560:2565   */\n      dup2\n        /* \"#utility.yul\":2557:2592   */\n      eq\n        /* \"#utility.yul\":2547:2610   */\n      tag_106\n      jumpi\n        /* \"#utility.yul\":2606:2607   */\n      0x00\n        /* \"#utility.yul\":2603:2604   */\n      dup1\n        /* \"#utility.yul\":2596:2608   */\n      revert\n        /* \"#utility.yul\":2547:2610   */\n    tag_106:\n        /* \"#utility.yul\":2494:2616   */\n      pop\n      jump\t// out\n        /* \"#utility.yul\":2622:2761   */\n    tag_49:\n        /* \"#utility.yul\":2668:2673   */\n      0x00\n        /* \"#utility.yul\":2706:2712   */\n      dup2\n        /* \"#utility.yul\":2693:2713   */\n      calldataload\n        /* \"#utility.yul\":2684:2713   */\n      swap1\n      pop\n        /* \"#utility.yul\":2722:2755   */\n      tag_108\n        /* \"#utility.yul\":2749:2754   */\n      dup2\n        /* \"#utility.yul\":2722:2755   */\n      tag_48\n      jump\t// in\n    tag_108:\n        /* \"#utility.yul\":2622:2761   */\n      swap3\n      swap2\n      pop\n      pop\n      jump\t// out\n        /* \"#utility.yul\":2767:2884   */\n    tag_50:\n        /* \"#utility.yul\":2876:2877   */\n      0x00\n        /* \"#utility.yul\":2873:2874   */\n      dup1\n        /* \"#utility.yul\":2866:2878   */\n      revert\n        /* \"#utility.yul\":2890:3007   */\n    tag_51:\n        /* \"#utility.yul\":2999:3000   */\n      0x00\n        /* \"#utility.yul\":2996:2997   */\n      dup1\n        /* \"#utility.yul\":2989:3001   */\n      revert\n        /* \"#utility.yul\":3013:3115   */\n    tag_52:\n        /* \"#utility.yul\":3054:3060   */\n      0x00\n        /* \"#utility.yul\":3105:3107   */\n      0x1f\n        /* \"#utility.yul\":3101:3108   */\n      not\n        /* \"#utility.yul\":3096:3098   */\n      0x1f\n        /* \"#utility.yul\":3089:3094   */\n      dup4\n        /* \"#utility.yul\":3085:3099   */\n      add\n        /* \"#utility.yul\":3081:3109   */\n      and\n        /* \"#utility.yul\":3071:3109   */\n      swap1\n      pop\n        /* \"#utility.yul\":3013:3115   */\n      swap2\n      swap1\n      pop\n      jump\t// out\n        /* \"#utility.yul\":3121:3301   */\n    tag_53:\n        /* \"#utility.yul\":3169:3246   */\n      0x4e487b7100000000000000000000000000000000000000000000000000000000\n        /* \"#utility.yul\":3166:3167   */\n      0x00\n        /* \"#utility.yul\":3159:3247   */\n      mstore\n        /* \"#utility.yul\":3266:3270   */\n      0x41\n        /* \"#utility.yul\":3263:3264   */\n      0x04\n        /* \"#utility.yul\":3256:3271   */\n      mstore\n        /* \"#utility.yul\":3290:3294   */\n      0x24\n        /* \"#utility.yul\":3287:3288   */\n      0x00\n        /* \"#utility.yul\":3280:3295   */\n      revert\n        /* \"#utility.yul\":3307:3588   */\n    tag_54:\n        /* \"#utility.yul\":3390:3417   */\n      tag_114\n        /* \"#utility.yul\":3412:3416   */\n      dup3\n        /* \"#utility.yul\":3390:3417   */\n      tag_52\n      jump\t// in\n    tag_114:\n        /* \"#utility.yul\":3382:3388   */\n      dup2\n        /* \"#utility.yul\":3378:3418   */\n      add\n        /* \"#utility.yul\":3520:3526   */\n      dup2\n        /* \"#utility.yul\":3508:3518   */\n      dup2\n        /* \"#utility.yul\":3505:3527   */\n      lt\n        /* \"#utility.yul\":3484:3502   */\n      0xffffffffffffffff\n        /* \"#utility.yul\":3472:3482   */\n      dup3\n        /* \"#utility.yul\":3469:3503   */\n      gt\n        /* \"#utility.yul\":3466:3528   */\n      or\n        /* \"#utility.yul\":3463:3551   */\n      iszero\n      tag_115\n      jumpi\n        /* \"#utility.yul\":3531:3549   */\n      tag_116\n      tag_53\n      jump\t// in\n    tag_116:\n        /* \"#utility.yul\":3463:3551   */\n    tag_115:\n        /* \"#utility.yul\":3571:3581   */\n      dup1\n        /* \"#utility.yul\":3567:3569   */\n      0x40\n        /* \"#utility.yul\":3560:3582   */\n      mstore\n        /* \"#utility.yul\":3350:3588   */\n      pop\n        /* \"#utility.yul\":3307:3588   */\n      pop\n      pop\n      jump\t// out\n        /* \"#utility.yul\":3594:3723   */\n    tag_55:\n        /* \"#utility.yul\":3628:3634   */\n      0x00\n        /* \"#utility.yul\":3655:3675   */\n      tag_118\n      tag_45\n      jump\t// in\n    tag_118:\n        /* \"#utility.yul\":3645:3675   */\n      swap1\n      pop\n        /* \"#utility.yul\":3684:3717   */\n      tag_119\n        /* \"#utility.yul\":3712:3716   */\n      dup3\n        /* \"#utility.yul\":3704:3710   */\n      dup3\n        /* \"#utility.yul\":3684:3717   */\n      tag_54\n      jump\t// in\n    tag_119:\n        /* \"#utility.yul\":3594:3723   */\n      swap2\n      swap1\n      pop\n      jump\t// out\n        /* \"#utility.yul\":3729:4037   */\n    tag_56:\n        /* \"#utility.yul\":3791:3795   */\n      0x00\n        /* \"#utility.yul\":3881:3899   */\n      0xffffffffffffffff\n        /* \"#utility.yul\":3873:3879   */\n      dup3\n        /* \"#utility.yul\":3870:3900   */\n      gt\n        /* \"#utility.yul\":3867:3923   */\n      iszero\n      tag_121\n      jumpi\n        /* \"#utility.yul\":3903:3921   */\n      tag_122\n      tag_53\n      jump\t// in\n    tag_122:\n        /* \"#utility.yul\":3867:3923   */\n    tag_121:\n        /* \"#utility.yul\":3941:3970   */\n      tag_123\n        /* \"#utility.yul\":3963:3969   */\n      dup3\n        /* \"#utility.yul\":3941:3970   */\n      tag_52\n      jump\t// in\n    tag_123:\n        /* \"#utility.yul\":3933:3970   */\n      swap1\n      pop\n        /* \"#utility.yul\":4025:4029   */\n      0x20\n        /* \"#utility.yul\":4019:4023   */\n      dup2\n        /* \"#utility.yul\":4015:4030   */\n      add\n        /* \"#utility.yul\":4007:4030   */\n      swap1\n      pop\n        /* \"#utility.yul\":3729:4037   */\n      swap2\n      swap1\n      pop\n      jump\t// out\n        /* \"#utility.yul\":4043:4189   */\n    tag_57:\n        /* \"#utility.yul\":4140:4146   */\n      dup3\n        /* \"#utility.yul\":4135:4138   */\n      dup2\n        /* \"#utility.yul\":4130:4133   */\n      dup4\n        /* \"#utility.yul\":4117:4147   */\n      calldatacopy\n        /* \"#utility.yul\":4181:4182   */\n      0x00\n        /* \"#utility.yul\":4172:4178   */\n      dup4\n        /* \"#utility.yul\":4167:4170   */\n      dup4\n        /* \"#utility.yul\":4163:4179   */\n      add\n        /* \"#utility.yul\":4156:4183   */\n      mstore\n        /* \"#utility.yul\":4043:4189   */\n      pop\n      pop\n      pop\n      jump\t// out\n        /* \"#utility.yul\":4195:4620   */\n    tag_58:\n        /* \"#utility.yul\":4273:4278   */\n      0x00\n        /* \"#utility.yul\":4298:4364   */\n      tag_126\n        /* \"#utility.yul\":4314:4363   */\n      tag_127\n        /* \"#utility.yul\":4356:4362   */\n      dup5\n        /* \"#utility.yul\":4314:4363   */\n      tag_56\n      jump\t// in\n    tag_127:\n        /* \"#utility.yul\":4298:4364   */\n      tag_55\n      jump\t// in\n    tag_126:\n        /* \"#utility.yul\":4289:4364   */\n      swap1\n      pop\n        /* \"#utility.yul\":4387:4393   */\n      dup3\n        /* \"#utility.yul\":4380:4385   */\n      dup2\n        /* \"#utility.yul\":4373:4394   */\n      mstore\n        /* \"#utility.yul\":4425:4429   */\n      0x20\n        /* \"#utility.yul\":4418:4423   */\n      dup2\n        /* \"#utility.yul\":4414:4430   */\n      add\n        /* \"#utility.yul\":4463:4466   */\n      dup5\n        /* \"#utility.yul\":4454:4460   */\n      dup5\n        /* \"#utility.yul\":4449:4452   */\n      dup5\n        /* \"#utility.yul\":4445:4461   */\n      add\n        /* \"#utility.yul\":4442:4467   */\n      gt\n        /* \"#utility.yul\":4439:4551   */\n      iszero\n      tag_128\n      jumpi\n        /* \"#utility.yul\":4470:4549   */\n      tag_129\n      tag_51\n      jump\t// in\n    tag_129:\n        /* \"#utility.yul\":4439:4551   */\n    tag_128:\n        /* \"#utility.yul\":4560:4614   */\n      tag_130\n        /* \"#utility.yul\":4607:4613   */\n      dup5\n        /* \"#utility.yul\":4602:4605   */\n      dup3\n        /* \"#utility.yul\":4597:4600   */\n      dup6\n        /* \"#utility.yul\":4560:4614   */\n      tag_57\n      jump\t// in\n    tag_130:\n        /* \"#utility.yul\":4279:4620   */\n      pop\n        /* \"#utility.yul\":4195:4620   */\n      swap4\n      swap3\n      pop\n      pop\n      pop\n      jump\t// out\n        /* \"#utility.yul\":4640:4980   */\n    tag_59:\n        /* \"#utility.yul\":4696:4701   */\n      0x00\n        /* \"#utility.yul\":4745:4748   */\n      dup3\n        /* \"#utility.yul\":4738:4742   */\n      0x1f\n        /* \"#utility.yul\":4730:4736   */\n      dup4\n        /* \"#utility.yul\":4726:4743   */\n      add\n        /* \"#utility.yul\":4722:4749   */\n      slt\n        /* \"#utility.yul\":4712:4834   */\n      tag_132\n      jumpi\n        /* \"#utility.yul\":4753:4832   */\n      tag_133\n      tag_50\n      jump\t// in\n    tag_133:\n        /* \"#utility.yul\":4712:4834   */\n    tag_132:\n        /* \"#utility.yul\":4870:4876   */\n      dup2\n        /* \"#utility.yul\":4857:4877   */\n      calldataload\n        /* \"#utility.yul\":4895:4974   */\n      tag_134\n        /* \"#utility.yul\":4970:4973   */\n      dup5\n        /* \"#utility.yul\":4962:4968   */\n      dup3\n        /* \"#utility.yul\":4955:4959   */\n      0x20\n        /* \"#utility.yul\":4947:4953   */\n      dup7\n        /* \"#utility.yul\":4943:4960   */\n      add\n        /* \"#utility.yul\":4895:4974   */\n      tag_58\n      jump\t// in\n    tag_134:\n        /* \"#utility.yul\":4886:4974   */\n      swap2\n      pop\n        /* \"#utility.yul\":4702:4980   */\n      pop\n        /* \"#utility.yul\":4640:4980   */\n      swap3\n      swap2\n      pop\n      pop\n      jump\t// out\n        /* \"#utility.yul\":4986:5640   */\n    tag_19:\n        /* \"#utility.yul\":5064:5070   */\n      0x00\n        /* \"#utility.yul\":5072:5078   */\n      dup1\n        /* \"#utility.yul\":5121:5123   */\n      0x40\n        /* \"#utility.yul\":5109:5118   */\n      dup4\n        /* \"#utility.yul\":5100:5107   */\n      dup6\n        /* \"#utility.yul\":5096:5119   */\n      sub\n        /* \"#utility.yul\":5092:5124   */\n      slt\n        /* \"#utility.yul\":5089:5208   */\n      iszero\n      tag_136\n      jumpi\n        /* \"#utility.yul\":5127:5206   */\n      tag_137\n      tag_46\n      jump\t// in\n    tag_137:\n        /* \"#utility.yul\":5089:5208   */\n    tag_136:\n        /* \"#utility.yul\":5247:5248   */\n      0x00\n        /* \"#utility.yul\":5272:5325   */\n      tag_138\n        /* \"#utility.yul\":5317:5324   */\n      dup6\n        /* \"#utility.yul\":5308:5314   */\n      dup3\n        /* \"#utility.yul\":5297:5306   */\n      dup7\n        /* \"#utility.yul\":5293:5315   */\n      add\n        /* \"#utility.yul\":5272:5325   */\n      tag_49\n      jump\t// in\n    tag_138:\n        /* \"#utility.yul\":5262:5325   */\n      swap3\n      pop\n        /* \"#utility.yul\":5218:5335   */\n      pop\n        /* \"#utility.yul\":5402:5404   */\n      0x20\n        /* \"#utility.yul\":5391:5400   */\n      dup4\n        /* \"#utility.yul\":5387:5405   */\n      add\n        /* \"#utility.yul\":5374:5406   */\n      calldataload\n        /* \"#utility.yul\":5433:5451   */\n      0xffffffffffffffff\n        /* \"#utility.yul\":5425:5431   */\n      dup2\n        /* \"#utility.yul\":5422:5452   */\n      gt\n        /* \"#utility.yul\":5419:5536   */\n      iszero\n      tag_139\n      jumpi\n        /* \"#utility.yul\":5455:5534   */\n      tag_140\n      tag_47\n      jump\t// in\n    tag_140:\n        /* \"#utility.yul\":5419:5536   */\n    tag_139:\n        /* \"#utility.yul\":5560:5623   */\n      tag_141\n        /* \"#utility.yul\":5615:5622   */\n      dup6\n        /* \"#utility.yul\":5606:5612   */\n      dup3\n        /* \"#utility.yul\":5595:5604   */\n      dup7\n        /* \"#utility.yul\":5591:5613   */\n      add\n        /* \"#utility.yul\":5560:5623   */\n      tag_59\n      jump\t// in\n    tag_141:\n        /* \"#utility.yul\":5550:5623   */\n      swap2\n      pop\n        /* \"#utility.yul\":5345:5633   */\n      pop\n        /* \"#utility.yul\":4986:5640   */\n      swap3\n      pop\n      swap3\n      swap1\n      pop\n      jump\t// out\n        /* \"#utility.yul\":5646:5736   */\n    tag_60:\n        /* \"#utility.yul\":5680:5687   */\n      0x00\n        /* \"#utility.yul\":5723:5728   */\n      dup2\n        /* \"#utility.yul\":5716:5729   */\n      iszero\n        /* \"#utility.yul\":5709:5730   */\n      iszero\n        /* \"#utility.yul\":5698:5730   */\n      swap1\n      pop\n        /* \"#utility.yul\":5646:5736   */\n      swap2\n      swap1\n      pop\n      jump\t// out\n        /* \"#utility.yul\":5742:5851   */\n    tag_61:\n        /* \"#utility.yul\":5823:5844   */\n      tag_144\n        /* \"#utility.yul\":5838:5843   */\n      dup2\n        /* \"#utility.yul\":5823:5844   */\n      tag_60\n      jump\t// in\n    tag_144:\n        /* \"#utility.yul\":5818:5821   */\n      dup3\n        /* \"#utility.yul\":5811:5845   */\n      mstore\n        /* \"#utility.yul\":5742:5851   */\n      pop\n      pop\n      jump\t// out\n        /* \"#utility.yul\":5857:6177   */\n    tag_22:\n        /* \"#utility.yul\":5972:5976   */\n      0x00\n        /* \"#utility.yul\":6010:6012   */\n      0x40\n        /* \"#utility.yul\":5999:6008   */\n      dup3\n        /* \"#utility.yul\":5995:6013   */\n      add\n        /* \"#utility.yul\":5987:6013   */\n      swap1\n      pop\n        /* \"#utility.yul\":6023:6088   */\n      tag_146\n        /* \"#utility.yul\":6085:6086   */\n      0x00\n        /* \"#utility.yul\":6074:6083   */\n      dup4\n        /* \"#utility.yul\":6070:6087   */\n      add\n        /* \"#utility.yul\":6061:6067   */\n      dup6\n        /* \"#utility.yul\":6023:6088   */\n      tag_61\n      jump\t// in\n    tag_146:\n        /* \"#utility.yul\":6098:6170   */\n      tag_147\n        /* \"#utility.yul\":6166:6168   */\n      0x20\n        /* \"#utility.yul\":6155:6164   */\n      dup4\n        /* \"#utility.yul\":6151:6169   */\n      add\n        /* \"#utility.yul\":6142:6148   */\n      dup5\n        /* \"#utility.yul\":6098:6170   */\n      tag_41\n      jump\t// in\n    tag_147:\n        /* \"#utility.yul\":5857:6177   */\n      swap4\n      swap3\n      pop\n      pop\n      pop\n      jump\t// out\n        /* \"#utility.yul\":6183:6282   */\n    tag_62:\n        /* \"#utility.yul\":6235:6241   */\n      0x00\n        /* \"#utility.yul\":6269:6274   */\n      dup2\n        /* \"#utility.yul\":6263:6275   */\n      mload\n        /* \"#utility.yul\":6253:6275   */\n      swap1\n      pop\n        /* \"#utility.yul\":6183:6282   */\n      swap2\n      swap1\n      pop\n      jump\t// out\n        /* \"#utility.yul\":6288:6534   */\n    tag_63:\n        /* \"#utility.yul\":6369:6370   */\n      0x00\n        /* \"#utility.yul\":6379:6492   */\n    tag_150:\n        /* \"#utility.yul\":6393:6399   */\n      dup4\n        /* \"#utility.yul\":6390:6391   */\n      dup2\n        /* \"#utility.yul\":6387:6400   */\n      lt\n        /* \"#utility.yul\":6379:6492   */\n      iszero\n      tag_152\n      jumpi\n        /* \"#utility.yul\":6478:6479   */\n      dup1\n        /* \"#utility.yul\":6473:6476   */\n      dup3\n        /* \"#utility.yul\":6469:6480   */\n      add\n        /* \"#utility.yul\":6463:6481   */\n      mload\n        /* \"#utility.yul\":6459:6460   */\n      dup2\n        /* \"#utility.yul\":6454:6457   */\n      dup5\n        /* \"#utility.yul\":6450:6461   */\n      add\n        /* \"#utility.yul\":6443:6482   */\n      mstore\n        /* \"#utility.yul\":6415:6417   */\n      0x20\n        /* \"#utility.yul\":6412:6413   */\n      dup2\n        /* \"#utility.yul\":6408:6418   */\n      add\n        /* \"#utility.yul\":6403:6418   */\n      swap1\n      pop\n        /* \"#utility.yul\":6379:6492   */\n      jump(tag_150)\n    tag_152:\n        /* \"#utility.yul\":6526:6527   */\n      0x00\n        /* \"#utility.yul\":6517:6523   */\n      dup5\n        /* \"#utility.yul\":6512:6515   */\n      dup5\n        /* \"#utility.yul\":6508:6524   */\n      add\n        /* \"#utility.yul\":6501:6528   */\n      mstore\n        /* \"#utility.yul\":6350:6534   */\n      pop\n        /* \"#utility.yul\":6288:6534   */\n      pop\n      pop\n      pop\n      jump\t// out\n        /* \"#utility.yul\":6540:6917   */\n    tag_64:\n        /* \"#utility.yul\":6628:6631   */\n      0x00\n        /* \"#utility.yul\":6656:6695   */\n      tag_154\n        /* \"#utility.yul\":6689:6694   */\n      dup3\n        /* \"#utility.yul\":6656:6695   */\n      tag_62\n      jump\t// in\n    tag_154:\n        /* \"#utility.yul\":6711:6782   */\n      tag_155\n        /* \"#utility.yul\":6775:6781   */\n      dup2\n        /* \"#utility.yul\":6770:6773   */\n      dup6\n        /* \"#utility.yul\":6711:6782   */\n      tag_42\n      jump\t// in\n    tag_155:\n        /* \"#utility.yul\":6704:6782   */\n      swap4\n      pop\n        /* \"#utility.yul\":6791:6856   */\n      tag_156\n        /* \"#utility.yul\":6849:6855   */\n      dup2\n        /* \"#utility.yul\":6844:6847   */\n      dup6\n        /* \"#utility.yul\":6837:6841   */\n      0x20\n        /* \"#utility.yul\":6830:6835   */\n      dup7\n        /* \"#utility.yul\":6826:6842   */\n      add\n        /* \"#utility.yul\":6791:6856   */\n      tag_63\n      jump\t// in\n    tag_156:\n        /* \"#utility.yul\":6881:6910   */\n      tag_157\n        /* \"#utility.yul\":6903:6909   */\n      dup2\n        /* \"#utility.yul\":6881:6910   */\n      tag_52\n      jump\t// in\n    tag_157:\n        /* \"#utility.yul\":6876:6879   */\n      dup5\n        /* \"#utility.yul\":6872:6911   */\n      add\n        /* \"#utility.yul\":6865:6911   */\n      swap2\n      pop\n        /* \"#utility.yul\":6632:6917   */\n      pop\n        /* \"#utility.yul\":6540:6917   */\n      swap3\n      swap2\n      pop\n      pop\n      jump\t// out\n        /* \"#utility.yul\":6923:7236   */\n    tag_27:\n        /* \"#utility.yul\":7036:7040   */\n      0x00\n        /* \"#utility.yul\":7074:7076   */\n      0x20\n        /* \"#utility.yul\":7063:7072   */\n      dup3\n        /* \"#utility.yul\":7059:7077   */\n      add\n        /* \"#utility.yul\":7051:7077   */\n      swap1\n      pop\n        /* \"#utility.yul\":7123:7132   */\n      dup2\n        /* \"#utility.yul\":7117:7121   */\n      dup2\n        /* \"#utility.yul\":7113:7133   */\n      sub\n        /* \"#utility.yul\":7109:7110   */\n      0x00\n        /* \"#utility.yul\":7098:7107   */\n      dup4\n        /* \"#utility.yul\":7094:7111   */\n      add\n        /* \"#utility.yul\":7087:7134   */\n      mstore\n        /* \"#utility.yul\":7151:7229   */\n      tag_159\n        /* \"#utility.yul\":7224:7228   */\n      dup2\n        /* \"#utility.yul\":7215:7221   */\n      dup5\n        /* \"#utility.yul\":7151:7229   */\n      tag_64\n      jump\t// in\n    tag_159:\n        /* \"#utility.yul\":7143:7229   */\n      swap1\n      pop\n        /* \"#utility.yul\":6923:7236   */\n      swap3\n      swap2\n      pop\n      pop\n      jump\t// out\n        /* \"#utility.yul\":7242:7422   */\n    tag_65:\n        /* \"#utility.yul\":7290:7367   */\n      0x4e487b7100000000000000000000000000000000000000000000000000000000\n        /* \"#utility.yul\":7287:7288   */\n      0x00\n        /* \"#utility.yul\":7280:7368   */\n      mstore\n        /* \"#utility.yul\":7387:7391   */\n      0x22\n        /* \"#utility.yul\":7384:7385   */\n      0x04\n        /* \"#utility.yul\":7377:7392   */\n      mstore\n        /* \"#utility.yul\":7411:7415   */\n      0x24\n        /* \"#utility.yul\":7408:7409   */\n      0x00\n        /* \"#utility.yul\":7401:7416   */\n      revert\n        /* \"#utility.yul\":7428:7748   */\n    tag_32:\n        /* \"#utility.yul\":7472:7478   */\n      0x00\n        /* \"#utility.yul\":7509:7510   */\n      0x02\n        /* \"#utility.yul\":7503:7507   */\n      dup3\n        /* \"#utility.yul\":7499:7511   */\n      div\n        /* \"#utility.yul\":7489:7511   */\n      swap1\n      pop\n        /* \"#utility.yul\":7556:7557   */\n      0x01\n        /* \"#utility.yul\":7550:7554   */\n      dup3\n        /* \"#utility.yul\":7546:7558   */\n      and\n        /* \"#utility.yul\":7577:7595   */\n      dup1\n        /* \"#utility.yul\":7567:7648   */\n      tag_162\n      jumpi\n        /* \"#utility.yul\":7633:7637   */\n      0x7f\n        /* \"#utility.yul\":7625:7631   */\n      dup3\n        /* \"#utility.yul\":7621:7638   */\n      and\n        /* \"#utility.yul\":7611:7638   */\n      swap2\n      pop\n        /* \"#utility.yul\":7567:7648   */\n    tag_162:\n        /* \"#utility.yul\":7695:7697   */\n      0x20\n        /* \"#utility.yul\":7687:7693   */\n      dup3\n        /* \"#utility.yul\":7684:7698   */\n      lt\n        /* \"#utility.yul\":7664:7682   */\n      dup2\n        /* \"#utility.yul\":7661:7699   */\n      sub\n        /* \"#utility.yul\":7658:7742   */\n      tag_163\n      jumpi\n        /* \"#utility.yul\":7714:7732   */\n      tag_164\n      tag_65\n      jump\t// in\n    tag_164:\n        /* \"#utility.yul\":7658:7742   */\n    tag_163:\n        /* \"#utility.yul\":7479:7748   */\n      pop\n        /* \"#utility.yul\":7428:7748   */\n      swap2\n      swap1\n      pop\n      jump\t// out\n        /* \"#utility.yul\":7754:7895   */\n    tag_66:\n        /* \"#utility.yul\":7803:7807   */\n      0x00\n        /* \"#utility.yul\":7826:7829   */\n      dup2\n        /* \"#utility.yul\":7818:7829   */\n      swap1\n      pop\n        /* \"#utility.yul\":7849:7852   */\n      dup2\n        /* \"#utility.yul\":7846:7847   */\n      0x00\n        /* \"#utility.yul\":7839:7853   */\n      mstore\n        /* \"#utility.yul\":7883:7887   */\n      0x20\n        /* \"#utility.yul\":7880:7881   */\n      0x00\n        /* \"#utility.yul\":7870:7888   */\n      keccak256\n        /* \"#utility.yul\":7862:7888   */\n      swap1\n      pop\n        /* \"#utility.yul\":7754:7895   */\n      swap2\n      swap1\n      pop\n      jump\t// out\n        /* \"#utility.yul\":7901:7994   */\n    tag_67:\n        /* \"#utility.yul\":7938:7944   */\n      0x00\n        /* \"#utility.yul\":7985:7987   */\n      0x20\n        /* \"#utility.yul\":7980:7982   */\n      0x1f\n        /* \"#utility.yul\":7973:7978   */\n      dup4\n        /* \"#utility.yul\":7969:7983   */\n      add\n        /* \"#utility.yul\":7965:7988   */\n      div\n        /* \"#utility.yul\":7955:7988   */\n      swap1\n      pop\n        /* \"#utility.yul\":7901:7994   */\n      swap2\n      swap1\n      pop\n      jump\t// out\n        /* \"#utility.yul\":8000:8107   */\n    tag_68:\n        /* \"#utility.yul\":8044:8052   */\n      0x00\n        /* \"#utility.yul\":8094:8099   */\n      dup3\n        /* \"#utility.yul\":8088:8092   */\n      dup3\n        /* \"#utility.yul\":8084:8100   */\n      shl\n        /* \"#utility.yul\":8063:8100   */\n      swap1\n      pop\n        /* \"#utility.yul\":8000:8107   */\n      swap3\n      swap2\n      pop\n      pop\n      jump\t// out\n        /* \"#utility.yul\":8113:8506   */\n    tag_69:\n        /* \"#utility.yul\":8182:8188   */\n      0x00\n        /* \"#utility.yul\":8232:8233   */\n      0x08\n        /* \"#utility.yul\":8220:8230   */\n      dup4\n        /* \"#utility.yul\":8216:8234   */\n      mul\n        /* \"#utility.yul\":8255:8352   */\n      tag_169\n        /* \"#utility.yul\":8285:8351   */\n      0xffffffffffffffffffffffffffffffffffffffffffffffffffffffffffffffff\n        /* \"#utility.yul\":8274:8283   */\n      dup3\n        /* \"#utility.yul\":8255:8352   */\n      tag_68\n      jump\t// in\n    tag_169:\n        /* \"#utility.yul\":8373:8412   */\n      tag_170\n        /* \"#utility.yul\":8403:8411   */\n      dup7\n        /* \"#utility.yul\":8392:8401   */\n      dup4\n        /* \"#utility.yul\":8373:8412   */\n      tag_68\n      jump\t// in\n    tag_170:\n        /* \"#utility.yul\":8361:8412   */\n      swap6\n      pop\n        /* \"#utility.yul\":8445:8449   */\n      dup1\n        /* \"#utility.yul\":8441:8450   */\n      not\n        /* \"#utility.yul\":8434:8439   */\n      dup5\n        /* \"#utility.yul\":8430:8451   */\n      and\n        /* \"#utility.yul\":8421:8451   */\n      swap4\n      pop\n        /* \"#utility.yul\":8494:8498   */\n      dup1\n        /* \"#utility.yul\":8484:8492   */\n      dup7\n        /* \"#utility.yul\":8480:8499   */\n      and\n        /* \"#utility.yul\":8473:8478   */\n      dup5\n        /* \"#utility.yul\":8470:8500   */\n      or\n        /* \"#utility.yul\":8460:8500   */\n      swap3\n      pop\n        /* \"#utility.yul\":8189:8506   */\n      pop\n      pop\n        /* \"#utility.yul\":8113:8506   */\n      swap4\n      swap3\n      pop\n      pop\n      pop\n      jump\t// out\n        /* \"#utility.yul\":8512:8572   */\n    tag_70:\n        /* \"#utility.yul\":8540:8543   */\n      0x00\n        /* \"#utility.yul\":8561:8566   */\n      dup2\n        /* \"#utility.yul\":8554:8566   */\n      swap1\n      pop\n        /* \"#utility.yul\":8512:8572   */\n      swap2\n      swap1\n      pop\n      jump\t// out\n        /* \"#utility.yul\":8578:8720   */\n    tag_71:\n        /* \"#utility.yul\":8628:8637   */\n      0x00\n        /* \"#utility.yul\":8661:8714   */\n      tag_173\n        /* \"#utility.yul\":8679:8713   */\n      tag_174\n        /* \"#utility.yul\":8688:8712   */\n      tag_175\n        /* \"#utility.yul\":8706:8711   */\n      dup5\n        /* \"#utility.yul\":8688:8712   */\n      tag_40\n      jump\t// in\n    tag_175:\n        /* \"#utility.yul\":8679:8713   */\n      tag_70\n      jump\t// in\n    tag_174:\n        /* \"#utility.yul\":8661:8714   */\n      tag_40\n      jump\t// in\n    tag_173:\n        /* \"#utility.yul\":8648:8714   */\n      swap1\n      pop\n        /* \"#utility.yul\":8578:8720   */\n      swap2\n      swap1\n      pop\n      jump\t// out\n        /* \"#utility.yul\":8726:8801   */\n    tag_72:\n        /* \"#utility.yul\":8769:8772   */\n      0x00\n        /* \"#utility.yul\":8790:8795   */\n      dup2\n        /* \"#utility.yul\":8783:8795   */\n      swap1\n      pop\n        /* \"#utility.yul\":8726:8801   */\n      swap2\n      swap1\n      pop\n      jump\t// out\n        /* \"#utility.yul\":8807:9076   */\n    tag_73:\n        /* \"#utility.yul\":8917:8956   */\n      tag_178\n        /* \"#utility.yul\":8948:8955   */\n      dup4\n        /* \"#utility.yul\":8917:8956   */\n      tag_71\n      jump\t// in\n    tag_178:\n        /* \"#utility.yul\":8978:9069   */\n      tag_179\n        /* \"#utility.yul\":9027:9068   */\n      tag_180\n        /* \"#utility.yul\":9051:9067   */\n      dup3\n        /* \"#utility.yul\":9027:9068   */\n      tag_72\n      jump\t// in\n    tag_180:\n        /* \"#utility.yul\":9019:9025   */\n      dup5\n        /* \"#utility.yul\":9012:9016   */\n      dup5\n        /* \"#utility.yul\":9006:9017   */\n      sload\n        /* \"#utility.yul\":8978:9069   */\n      tag_69\n      jump\t// in\n    tag_179:\n        /* \"#utility.yul\":8972:8976   */\n      dup3\n        /* \"#utility.yul\":8965:9070   */\n      sstore\n        /* \"#utility.yul\":8883:9076   */\n      pop\n        /* \"#utility.yul\":8807:9076   */\n      pop\n      pop\n      pop\n      jump\t// out\n        /* \"#utility.yul\":9082:9155   */\n    tag_74:\n        /* \"#utility.yul\":9127:9130   */\n      0x00\n        /* \"#utility.yul\":9082:9155   */\n      swap1\n      jump\t// out\n        /* \"#utility.yul\":9161:9350   */\n    tag_75:\n        /* \"#utility.yul\":9238:9270   */\n      tag_183\n      tag_74\n      jump\t// in\n    tag_183:\n        /* \"#utility.yul\":9279:9344   */\n      tag_184\n        /* \"#utility.yul\":9337:9343   */\n      dup2\n        /* \"#utility.yul\":9329:9335   */\n      dup5\n        /* \"#utility.yul\":9323:9327   */\n      dup5\n        /* \"#utility.yul\":9279:9344   */\n      tag_73\n      jump\t// in\n    tag_184:\n        /* \"#utility.yul\":9214:9350   */\n      pop\n        /* \"#utility.yul\":9161:9350   */\n      pop\n      pop\n      jump\t// out\n        /* \"#utility.yul\":9356:9542   */\n    tag_76:\n        /* \"#utility.yul\":9416:9536   */\n    tag_186:\n        /* \"#utility.yul\":9433:9436   */\n      dup2\n        /* \"#utility.yul\":9426:9431   */\n      dup2\n        /* \"#utility.yul\":9423:9437   */\n      lt\n        /* \"#utility.yul\":9416:9536   */\n      iszero\n      tag_188\n      jumpi\n        /* \"#utility.yul\":9487:9526   */\n      tag_189\n        /* \"#utility.yul\":9524:9525   */\n      0x00\n        /* \"#utility.yul\":9517:9522   */\n      dup3\n        /* \"#utility.yul\":9487:9526   */\n      tag_75\n      jump\t// in\n    tag_189:\n        /* \"#utility.yul\":9460:9461   */\n      0x01\n        /* \"#utility.yul\":9453:9458   */\n      dup2\n        /* \"#utility.yul\":9449:9462   */\n      add\n        /* \"#utility.yul\":9440:9462   */\n      swap1\n      pop\n        /* \"#utility.yul\":9416:9536   */\n      jump(tag_186)\n    tag_188:\n        /* \"#utility.yul\":9356:9542   */\n      pop\n      pop\n      jump\t// out\n        /* \"#utility.yul\":9548:10091   */\n    tag_77:\n        /* \"#utility.yul\":9649:9651   */\n      0x1f\n        /* \"#utility.yul\":9644:9647   */\n      dup3\n        /* \"#utility.yul\":9641:9652   */\n      gt\n        /* \"#utility.yul\":9638:10084   */\n      iszero\n      tag_191\n      jumpi\n        /* \"#utility.yul\":9683:9721   */\n      tag_192\n        /* \"#utility.yul\":9715:9720   */\n      dup2\n        /* \"#utility.yul\":9683:9721   */\n      tag_66\n      jump\t// in\n    tag_192:\n        /* \"#utility.yul\":9767:9796   */\n      tag_193\n        /* \"#utility.yul\":9785:9795   */\n      dup5\n        /* \"#utility.yul\":9767:9796   */\n      tag_67\n      jump\t// in\n    tag_193:\n        /* \"#utility.yul\":9757:9765   */\n      dup2\n        /* \"#utility.yul\":9753:9797   */\n      add\n        /* \"#utility.yul\":9950:9952   */\n      0x20\n        /* \"#utility.yul\":9938:9948   */\n      dup6\n        /* \"#utility.yul\":9935:9953   */\n      lt\n        /* \"#utility.yul\":9932:9981   */\n      iszero\n      tag_194\n      jumpi\n        /* \"#utility.yul\":9971:9979   */\n      dup2\n        /* \"#utility.yul\":9956:9979   */\n      swap1\n      pop\n        /* \"#utility.yul\":9932:9981   */\n    tag_194:\n        /* \"#utility.yul\":9994:10074   */\n      tag_195\n        /* \"#utility.yul\":10050:10072   */\n      tag_196\n        /* \"#utility.yul\":10068:10071   */\n      dup6\n        /* \"#utility.yul\":10050:10072   */\n      tag_67\n      jump\t// in\n    tag_196:\n        /* \"#utility.yul\":10040:10048   */\n      dup4\n        /* \"#utility.yul\":10036:10073   */\n      add\n        /* \"#utility.yul\":10023:10034   */\n      dup3\n        /* \"#utility.yul\":9994:10074   */\n      tag_76\n      jump\t// in\n    tag_195:\n        /* \"#utility.yul\":9653:10084   */\n      pop\n      pop\n        /* \"#utility.yul\":9638:10084   */\n    tag_191:\n        /* \"#utility.yul\":9548:10091   */\n      pop\n      pop\n      pop\n      jump\t// out\n        /* \"#utility.yul\":10097:10214   */\n    tag_78:\n        /* \"#utility.yul\":10151:10159   */\n      0x00\n        /* \"#utility.yul\":10201:10206   */\n      dup3\n        /* \"#utility.yul\":10195:10199   */\n      dup3\n        /* \"#utility.yul\":10191:10207   */\n      shr\n        /* \"#utility.yul\":10170:10207   */\n      swap1\n      pop\n        /* \"#utility.yul\":10097:10214   */\n      swap3\n      swap2\n      pop\n      pop\n      jump\t// out\n        /* \"#utility.yul\":10220:10389   */\n    tag_79:\n        /* \"#utility.yul\":10264:10270   */\n      0x00\n        /* \"#utility.yul\":10297:10348   */\n      tag_199\n        /* \"#utility.yul\":10345:10346   */\n      0x00\n        /* \"#utility.yul\":10341:10347   */\n      not\n        /* \"#utility.yul\":10333:10338   */\n      dup5\n        /* \"#utility.yul\":10330:10331   */\n      0x08\n        /* \"#utility.yul\":10326:10339   */\n      mul\n        /* \"#utility.yul\":10297:10348   */\n      tag_78\n      jump\t// in\n    tag_199:\n        /* \"#utility.yul\":10293:10349   */\n      not\n        /* \"#utility.yul\":10378:10382   */\n      dup1\n        /* \"#utility.yul\":10372:10376   */\n      dup4\n        /* \"#utility.yul\":10368:10383   */\n      and\n        /* \"#utility.yul\":10358:10383   */\n      swap2\n      pop\n        /* \"#utility.yul\":10271:10389   */\n      pop\n        /* \"#utility.yul\":10220:10389   */\n      swap3\n      swap2\n      pop\n      pop\n      jump\t// out\n        /* \"#utility.yul\":10394:10689   */\n    tag_80:\n        /* \"#utility.yul\":10470:10474   */\n      0x00\n        /* \"#utility.yul\":10616:10645   */\n      tag_201\n        /* \"#utility.yul\":10641:10644   */\n      dup4\n        /* \"#utility.yul\":10635:10639   */\n      dup4\n        /* \"#utility.yul\":10616:10645   */\n      tag_79\n      jump\t// in\n    tag_201:\n        /* \"#utility.yul\":10608:10645   */\n      swap2\n      pop\n        /* \"#utility.yul\":10678:10681   */\n      dup3\n        /* \"#utility.yul\":10675:10676   */\n      0x02\n        /* \"#utility.yul\":10671:10682   */\n      mul\n        /* \"#utility.yul\":10665:10669   */\n      dup3\n        /* \"#utility.yul\":10662:10683   */\n      or\n        /* \"#utility.yul\":10654:10683   */\n      swap1\n      pop\n        /* \"#utility.yul\":10394:10689   */\n      swap3\n      swap2\n      pop\n      pop\n      jump\t// out\n        /* \"#utility.yul\":10694:12089   */\n    tag_30:\n        /* \"#utility.yul\":10811:10848   */\n      tag_203\n        /* \"#utility.yul\":10844:10847   */\n      dup3\n        /* \"#utility.yul\":10811:10848   */\n      tag_62\n      jump\t// in\n    tag_203:\n        /* \"#utility.yul\":10913:10931   */\n      0xffffffffffffffff\n        /* \"#utility.yul\":10905:10911   */\n      dup2\n        /* \"#utility.yul\":10902:10932   */\n      gt\n        /* \"#utility.yul\":10899:10955   */\n      iszero\n      tag_204\n      jumpi\n        /* \"#utility.yul\":10935:10953   */\n      tag_205\n      tag_53\n      jump\t// in\n    tag_205:\n        /* \"#utility.yul\":10899:10955   */\n    tag_204:\n        /* \"#utility.yul\":10979:11017   */\n      tag_206\n        /* \"#utility.yul\":11011:11015   */\n      dup3\n        /* \"#utility.yul\":11005:11016   */\n      sload\n        /* \"#utility.yul\":10979:11017   */\n      tag_32\n      jump\t// in\n    tag_206:\n        /* \"#utility.yul\":11064:11131   */\n      tag_207\n        /* \"#utility.yul\":11124:11130   */\n      dup3\n        /* \"#utility.yul\":11116:11122   */\n      dup3\n        /* \"#utility.yul\":11110:11114   */\n      dup6\n        /* \"#utility.yul\":11064:11131   */\n      tag_77\n      jump\t// in\n    tag_207:\n        /* \"#utility.yul\":11158:11159   */\n      0x00\n        /* \"#utility.yul\":11182:11186   */\n      0x20\n        /* \"#utility.yul\":11169:11186   */\n      swap1\n      pop\n        /* \"#utility.yul\":11214:11216   */\n      0x1f\n        /* \"#utility.yul\":11206:11212   */\n      dup4\n        /* \"#utility.yul\":11203:11217   */\n      gt\n        /* \"#utility.yul\":11231:11232   */\n      0x01\n        /* \"#utility.yul\":11226:11844   */\n      dup2\n      eq\n      tag_209\n      jumpi\n        /* \"#utility.yul\":11888:11889   */\n      0x00\n        /* \"#utility.yul\":11905:11911   */\n      dup5\n        /* \"#utility.yul\":11902:11979   */\n      iszero\n      tag_210\n      jumpi\n        /* \"#utility.yul\":11954:11963   */\n      dup3\n        /* \"#utility.yul\":11949:11952   */\n      dup8\n        /* \"#utility.yul\":11945:11964   */\n      add\n        /* \"#utility.yul\":11939:11965   */\n      mload\n        /* \"#utility.yul\":11930:11965   */\n      swap1\n      pop\n        /* \"#utility.yul\":11902:11979   */\n    tag_210:\n        /* \"#utility.yul\":12005:12072   */\n      tag_211\n        /* \"#utility.yul\":12065:12071   */\n      dup6\n        /* \"#utility.yul\":12058:12063   */\n      dup3\n        /* \"#utility.yul\":12005:12072   */\n      tag_80\n      jump\t// in\n    tag_211:\n        /* \"#utility.yul\":11999:12003   */\n      dup7\n        /* \"#utility.yul\":11992:12073   */\n      sstore\n        /* \"#utility.yul\":11861:12083   */\n      pop\n        /* \"#utility.yul\":11196:12083   */\n      jump(tag_208)\n        /* \"#utility.yul\":11226:11844   */\n    tag_209:\n        /* \"#utility.yul\":11278:11282   */\n      0x1f\n        /* \"#utility.yul\":11274:11283   */\n      not\n        /* \"#utility.yul\":11266:11272   */\n      dup5\n        /* \"#utility.yul\":11262:11284   */\n      and\n        /* \"#utility.yul\":11312:11349   */\n      tag_212\n        /* \"#utility.yul\":11344:11348   */\n      dup7\n        /* \"#utility.yul\":11312:11349   */\n      tag_66\n      jump\t// in\n    tag_212:\n        /* \"#utility.yul\":11371:11372   */\n      0x00\n        /* \"#utility.yul\":11385:11593   */\n    tag_213:\n        /* \"#utility.yul\":11399:11406   */\n      dup3\n        /* \"#utility.yul\":11396:11397   */\n      dup2\n        /* \"#utility.yul\":11393:11407   */\n      lt\n        /* \"#utility.yul\":11385:11593   */\n      iszero\n      tag_215\n      jumpi\n        /* \"#utility.yul\":11478:11487   */\n      dup5\n        /* \"#utility.yul\":11473:11476   */\n      dup10\n        /* \"#utility.yul\":11469:11488   */\n      add\n        /* \"#utility.yul\":11463:11489   */\n      mload\n        /* \"#utility.yul\":11455:11461   */\n      dup3\n        /* \"#utility.yul\":11448:11490   */\n      sstore\n        /* \"#utility.yul\":11529:11530   */\n      0x01\n        /* \"#utility.yul\":11521:11527   */\n      dup3\n        /* \"#utility.yul\":11517:11531   */\n      add\n        /* \"#utility.yul\":11507:11531   */\n      swap2\n      pop\n        /* \"#utility.yul\":11576:11578   */\n      0x20\n        /* \"#utility.yul\":11565:11574   */\n      dup6\n        /* \"#utility.yul\":11561:11579   */\n      add\n        /* \"#utility.yul\":11548:11579   */\n      swap5\n      pop\n        /* \"#utility.yul\":11422:11426   */\n      0x20\n        /* \"#utility.yul\":11419:11420   */\n      dup2\n        /* \"#utility.yul\":11415:11427   */\n      add\n        /* \"#utility.yul\":11410:11427   */\n      swap1\n      pop\n        /* \"#utility.yul\":11385:11593   */\n      jump(tag_213)\n    tag_215:\n        /* \"#utility.yul\":11621:11627   */\n      dup7\n        /* \"#utility.yul\":11612:11619   */\n      dup4\n        /* \"#utility.yul\":11609:11628   */\n      lt\n        /* \"#utility.yul\":11606:11785   */\n      iszero\n      tag_216\n      jumpi\n        /* \"#utility.yul\":11679:11688   */\n      dup5\n        /* \"#utility.yul\":11674:11677   */\n      dup10\n        /* \"#utility.yul\":11670:11689   */\n      add\n        /* \"#utility.yul\":11664:11690   */\n      mload\n        /* \"#utility.yul\":11722:11770   */\n      tag_217\n        /* \"#utility.yul\":11764:11768   */\n      0x1f\n        /* \"#utility.yul\":11756:11762   */\n      dup10\n        /* \"#utility.yul\":11752:11769   */\n      and\n        /* \"#utility.yul\":11741:11750   */\n      dup3\n        /* \"#utility.yul\":11722:11770   */\n      tag_79\n      jump\t// in\n    tag_217:\n        /* \"#utility.yul\":11714:11720   */\n      dup4\n        /* \"#utility.yul\":11707:11771   */\n      sstore\n        /* \"#utility.yul\":11629:11785   */\n      pop\n        /* \"#utility.yul\":11606:11785   */\n    tag_216:\n        /* \"#utility.yul\":11831:11832   */\n      0x01\n        /* \"#utility.yul\":11827:11828   */\n      0x02\n        /* \"#utility.yul\":11819:11825   */\n      dup9\n        /* \"#utility.yul\":11815:11829   */\n      mul\n        /* \"#utility.yul\":11811:11833   */\n      add\n        /* \"#utility.yul\":11805:11809   */\n      dup9\n        /* \"#utility.yul\":11798:11834   */\n      sstore\n        /* \"#utility.yul\":11233:11844   */\n      pop\n      pop\n      pop\n        /* \"#utility.yul\":11196:12083   */\n    tag_208:\n      pop\n        /* \"#utility.yul\":10786:12089   */\n      pop\n      pop\n      pop\n        /* \"#utility.yul\":10694:12089   */\n      pop\n      pop\n      jump\t// out\n\n    auxdata: 0xa2646970667358221220555f01545f1660b21ab51f1338578a3bbc39eba70e2e5cb269a2ae806f4fb2e564736f6c63430008170033\n}\n",
				"bytecode": {
					"linkReferences": {},
					"object": "608060405234801561000f575f80fd5b506108548061001d5f395ff3fe608060405260043610610037575f3560e01c80630c55699c14610079578063c5d1c995146100a3578063e21f37ce146100d45761003e565b3661003e57005b7f4e3358e5bdb38f499a83fbcd33d16343569f3b6fe53021022dede6364017b4a8333460405161006f929190610266565b60405180910390a1005b348015610084575f80fd5b5061008d6100fe565b60405161009a91906102a0565b60405180910390f35b6100bd60048036038101906100b89190610430565b610104565b6040516100cb9291906104a4565b60405180910390f35b3480156100df575f80fd5b506100e861012a565b6040516100f59190610535565b60405180910390f35b60015481565b5f8083600181905550825f908161011b919061074f565b50600180915091509250929050565b5f805461013690610582565b80601f016020809104026020016040519081016040528092919081815260200182805461016290610582565b80156101ad5780601f10610184576101008083540402835291602001916101ad565b820191905f5260205f20905b81548152906001019060200180831161019057829003601f168201915b505050505081565b5f73ffffffffffffffffffffffffffffffffffffffff82169050919050565b5f6101de826101b5565b9050919050565b6101ee816101d4565b82525050565b5f819050919050565b610206816101f4565b82525050565b5f82825260208201905092915050565b7f66616c6c6261636b207761732063616c6c6564000000000000000000000000005f82015250565b5f61025060138361020c565b915061025b8261021c565b602082019050919050565b5f6060820190506102795f8301856101e5565b61028660208301846101fd565b818103604083015261029781610244565b90509392505050565b5f6020820190506102b35f8301846101fd565b92915050565b5f604051905090565b5f80fd5b5f80fd5b6102d3816101f4565b81146102dd575f80fd5b50565b5f813590506102ee816102ca565b92915050565b5f80fd5b5f80fd5b5f601f19601f8301169050919050565b7f4e487b71000000000000000000000000000000000000000000000000000000005f52604160045260245ffd5b610342826102fc565b810181811067ffffffffffffffff821117156103615761036061030c565b5b80604052505050565b5f6103736102b9565b905061037f8282610339565b919050565b5f67ffffffffffffffff82111561039e5761039d61030c565b5b6103a7826102fc565b9050602081019050919050565b828183375f83830152505050565b5f6103d46103cf84610384565b61036a565b9050828152602081018484840111156103f0576103ef6102f8565b5b6103fb8482856103b4565b509392505050565b5f82601f830112610417576104166102f4565b5b81356104278482602086016103c2565b91505092915050565b5f8060408385031215610446576104456102c2565b5b5f610453858286016102e0565b925050602083013567ffffffffffffffff811115610474576104736102c6565b5b61048085828601610403565b9150509250929050565b5f8115159050919050565b61049e8161048a565b82525050565b5f6040820190506104b75f830185610495565b6104c460208301846101fd565b9392505050565b5f81519050919050565b5f5b838110156104f25780820151818401526020810190506104d7565b5f8484015250505050565b5f610507826104cb565b610511818561020c565b93506105218185602086016104d5565b61052a816102fc565b840191505092915050565b5f6020820190508181035f83015261054d81846104fd565b905092915050565b7f4e487b71000000000000000000000000000000000000000000000000000000005f52602260045260245ffd5b5f600282049050600182168061059957607f821691505b6020821081036105ac576105ab610555565b5b50919050565b5f819050815f5260205f209050919050565b5f6020601f8301049050919050565b5f82821b905092915050565b5f6008830261060e7fffffffffffffffffffffffffffffffffffffffffffffffffffffffffffffffff826105d3565b61061886836105d3565b95508019841693508086168417925050509392505050565b5f819050919050565b5f61065361064e610649846101f4565b610630565b6101f4565b9050919050565b5f819050919050565b61066c83610639565b6106806106788261065a565b8484546105df565b825550505050565b5f90565b610694610688565b61069f818484610663565b505050565b5b818110156106c2576106b75f8261068c565b6001810190506106a5565b5050565b601f821115610707576106d8816105b2565b6106e1846105c4565b810160208510156106f0578190505b6107046106fc856105c4565b8301826106a4565b50505b505050565b5f82821c905092915050565b5f6107275f198460080261070c565b1980831691505092915050565b5f61073f8383610718565b9150826002028217905092915050565b610758826104cb565b67ffffffffffffffff8111156107715761077061030c565b5b61077b8254610582565b6107868282856106c6565b5f60209050601f8311600181146107b7575f84156107a5578287015190505b6107af8582610734565b865550610816565b601f1984166107c5866105b2565b5f5b828110156107ec578489015182556001820191506020850194506020810190506107c7565b868310156108095784890151610805601f891682610718565b8355505b6001600288020188555050505b50505050505056fea2646970667358221220555f01545f1660b21ab51f1338578a3bbc39eba70e2e5cb269a2ae806f4fb2e564736f6c63430008170033",
					"opcodes": "PUSH1 0x80 PUSH1 0x40 MSTORE CALLVALUE DUP1 ISZERO PUSH2 0xF JUMPI PUSH0 DUP1 REVERT JUMPDEST POP PUSH2 0x854 DUP1 PUSH2 0x1D PUSH0 CODECOPY PUSH0 RETURN INVALID PUSH1 0x80 PUSH1 0x40 MSTORE PUSH1 0x4 CALLDATASIZE LT PUSH2 0x37 JUMPI PUSH0 CALLDATALOAD PUSH1 0xE0 SHR DUP1 PUSH4 0xC55699C EQ PUSH2 0x79 JUMPI DUP1 PUSH4 0xC5D1C995 EQ PUSH2 0xA3 JUMPI DUP1 PUSH4 0xE21F37CE EQ PUSH2 0xD4 JUMPI PUSH2 0x3E JUMP JUMPDEST CALLDATASIZE PUSH2 0x3E JUMPI STOP JUMPDEST PUSH32 0x4E3358E5BDB38F499A83FBCD33D16343569F3B6FE53021022DEDE6364017B4A8 CALLER CALLVALUE PUSH1 0x40 MLOAD PUSH2 0x6F SWAP3 SWAP2 SWAP1 PUSH2 0x266 JUMP JUMPDEST PUSH1 0x40 MLOAD DUP1 SWAP2 SUB SWAP1 LOG1 STOP JUMPDEST CALLVALUE DUP1 ISZERO PUSH2 0x84 JUMPI PUSH0 DUP1 REVERT JUMPDEST POP PUSH2 0x8D PUSH2 0xFE JUMP JUMPDEST PUSH1 0x40 MLOAD PUSH2 0x9A SWAP2 SWAP1 PUSH2 0x2A0 JUMP JUMPDEST PUSH1 0x40 MLOAD DUP1 SWAP2 SUB SWAP1 RETURN JUMPDEST PUSH2 0xBD PUSH1 0x4 DUP1 CALLDATASIZE SUB DUP2 ADD SWAP1 PUSH2 0xB8 SWAP2 SWAP1 PUSH2 0x430 JUMP JUMPDEST PUSH2 0x104 JUMP JUMPDEST PUSH1 0x40 MLOAD PUSH2 0xCB SWAP3 SWAP2 SWAP1 PUSH2 0x4A4 JUMP JUMPDEST PUSH1 0x40 MLOAD DUP1 SWAP2 SUB SWAP1 RETURN JUMPDEST CALLVALUE DUP1 ISZERO PUSH2 0xDF JUMPI PUSH0 DUP1 REVERT JUMPDEST POP PUSH2 0xE8 PUSH2 0x12A JUMP JUMPDEST PUSH1 0x40 MLOAD PUSH2 0xF5 SWAP2 SWAP1 PUSH2 0x535 JUMP JUMPDEST PUSH1 0x40 MLOAD DUP1 SWAP2 SUB SWAP1 RETURN JUMPDEST PUSH1 0x1 SLOAD DUP2 JUMP JUMPDEST PUSH0 DUP1 DUP4 PUSH1 0x1 DUP2 SWAP1 SSTORE POP DUP3 PUSH0 SWAP1 DUP2 PUSH2 0x11B SWAP2 SWAP1 PUSH2 0x74F JUMP JUMPDEST POP PUSH1 0x1 DUP1 SWAP2 POP SWAP2 POP SWAP3 POP SWAP3 SWAP1 POP JUMP JUMPDEST PUSH0 DUP1 SLOAD PUSH2 0x136 SWAP1 PUSH2 0x582 JUMP JUMPDEST DUP1 PUSH1 0x1F ADD PUSH1 0x20 DUP1 SWAP2 DIV MUL PUSH1 0x20 ADD PUSH1 0x40 MLOAD SWAP1 DUP2 ADD PUSH1 0x40 MSTORE DUP1 SWAP3 SWAP2 SWAP1 DUP2 DUP2 MSTORE PUSH1 0x20 ADD DUP3 DUP1 SLOAD PUSH2 0x162 SWAP1 PUSH2 0x582 JUMP JUMPDEST DUP1 ISZERO PUSH2 0x1AD JUMPI DUP1 PUSH1 0x1F LT PUSH2 0x184 JUMPI PUSH2 0x100 DUP1 DUP4 SLOAD DIV MUL DUP4 MSTORE SWAP2 PUSH1 0x20 ADD SWAP2 PUSH2 0x1AD JUMP JUMPDEST DUP3 ADD SWAP2 SWAP1 PUSH0 MSTORE PUSH1 0x20 PUSH0 KECCAK256 SWAP1 JUMPDEST DUP2 SLOAD DUP2 MSTORE SWAP1 PUSH1 0x1 ADD SWAP1 PUSH1 0x20 ADD DUP1 DUP4 GT PUSH2 0x190 JUMPI DUP3 SWAP1 SUB PUSH1 0x1F AND DUP3 ADD SWAP2 JUMPDEST POP POP POP POP POP DUP2 JUMP JUMPDEST PUSH0 PUSH20 0xFFFFFFFFFFFFFFFFFFFFFFFFFFFFFFFFFFFFFFFF DUP3 AND SWAP1 POP SWAP2 SWAP1 POP JUMP JUMPDEST PUSH0 PUSH2 0x1DE DUP3 PUSH2 0x1B5 JUMP JUMPDEST SWAP1 POP SWAP2 SWAP1 POP JUMP JUMPDEST PUSH2 0x1EE DUP2 PUSH2 0x1D4 JUMP JUMPDEST DUP3 MSTORE POP POP JUMP JUMPDEST PUSH0 DUP2 SWAP1 POP SWAP2 SWAP1 POP JUMP JUMPDEST PUSH2 0x206 DUP2 PUSH2 0x1F4 JUMP JUMPDEST DUP3 MSTORE POP POP JUMP JUMPDEST PUSH0 DUP3 DUP3 MSTORE PUSH1 0x20 DUP3 ADD SWAP1 POP SWAP3 SWAP2 POP POP JUMP JUMPDEST PUSH32 0x66616C6C6261636B207761732063616C6C656400000000000000000000000000 PUSH0 DUP3 ADD MSTORE POP JUMP JUMPDEST PUSH0 PUSH2 0x250 PUSH1 0x13 DUP4 PUSH2 0x20C JUMP JUMPDEST SWAP2 POP PUSH2 0x25B DUP3 PUSH2 0x21C JUMP JUMPDEST PUSH1 0x20 DUP3 ADD SWAP1 POP SWAP2 SWAP1 POP JUMP JUMPDEST PUSH0 PUSH1 0x60 DUP3 ADD SWAP1 POP PUSH2 0x279 PUSH0 DUP4 ADD DUP6 PUSH2 0x1E5 JUMP JUMPDEST PUSH2 0x286 PUSH1 0x20 DUP4 ADD DUP5 PUSH2 0x1FD JUMP JUMPDEST DUP2 DUP2 SUB PUSH1 0x40 DUP4 ADD MSTORE PUSH2 0x297 DUP2 PUSH2 0x244 JUMP JUMPDEST SWAP1 POP SWAP4 SWAP3 POP POP POP JUMP JUMPDEST PUSH0 PUSH1 0x20 DUP3 ADD SWAP1 POP PUSH2 0x2B3 PUSH0 DUP4 ADD DUP5 PUSH2 0x1FD JUMP JUMPDEST SWAP3 SWAP2 POP POP JUMP JUMPDEST PUSH0 PUSH1 0x40 MLOAD SWAP1 POP SWAP1 JUMP JUMPDEST PUSH0 DUP1 REVERT JUMPDEST PUSH0 DUP1 REVERT JUMPDEST PUSH2 0x2D3 DUP2 PUSH2 0x1F4 JUMP JUMPDEST DUP2 EQ PUSH2 0x2DD JUMPI PUSH0 DUP1 REVERT JUMPDEST POP JUMP JUMPDEST PUSH0 DUP2 CALLDATALOAD SWAP1 POP PUSH2 0x2EE DUP2 PUSH2 0x2CA JUMP JUMPDEST SWAP3 SWAP2 POP POP JUMP JUMPDEST PUSH0 DUP1 REVERT JUMPDEST PUSH0 DUP1 REVERT JUMPDEST PUSH0 PUSH1 0x1F NOT PUSH1 0x1F DUP4 ADD AND SWAP1 POP SWAP2 SWAP1 POP JUMP JUMPDEST PUSH32 0x4E487B7100000000000000000000000000000000000000000000000000000000 PUSH0 MSTORE PUSH1 0x41 PUSH1 0x4 MSTORE PUSH1 0x24 PUSH0 REVERT JUMPDEST PUSH2 0x342 DUP3 PUSH2 0x2FC JUMP JUMPDEST DUP2 ADD DUP2 DUP2 LT PUSH8 0xFFFFFFFFFFFFFFFF DUP3 GT OR ISZERO PUSH2 0x361 JUMPI PUSH2 0x360 PUSH2 0x30C JUMP JUMPDEST JUMPDEST DUP1 PUSH1 0x40 MSTORE POP POP POP JUMP JUMPDEST PUSH0 PUSH2 0x373 PUSH2 0x2B9 JUMP JUMPDEST SWAP1 POP PUSH2 0x37F DUP3 DUP3 PUSH2 0x339 JUMP JUMPDEST SWAP2 SWAP1 POP JUMP JUMPDEST PUSH0 PUSH8 0xFFFFFFFFFFFFFFFF DUP3 GT ISZERO PUSH2 0x39E JUMPI PUSH2 0x39D PUSH2 0x30C JUMP JUMPDEST JUMPDEST PUSH2 0x3A7 DUP3 PUSH2 0x2FC JUMP JUMPDEST SWAP1 POP PUSH1 0x20 DUP2 ADD SWAP1 POP SWAP2 SWAP1 POP JUMP JUMPDEST DUP3 DUP2 DUP4 CALLDATACOPY PUSH0 DUP4 DUP4 ADD MSTORE POP POP POP JUMP JUMPDEST PUSH0 PUSH2 0x3D4 PUSH2 0x3CF DUP5 PUSH2 0x384 JUMP JUMPDEST PUSH2 0x36A JUMP JUMPDEST SWAP1 POP DUP3 DUP2 MSTORE PUSH1 0x20 DUP2 ADD DUP5 DUP5 DUP5 ADD GT ISZERO PUSH2 0x3F0 JUMPI PUSH2 0x3EF PUSH2 0x2F8 JUMP JUMPDEST JUMPDEST PUSH2 0x3FB DUP5 DUP3 DUP6 PUSH2 0x3B4 JUMP JUMPDEST POP SWAP4 SWAP3 POP POP POP JUMP JUMPDEST PUSH0 DUP3 PUSH1 0x1F DUP4 ADD SLT PUSH2 0x417 JUMPI PUSH2 0x416 PUSH2 0x2F4 JUMP JUMPDEST JUMPDEST DUP2 CALLDATALOAD PUSH2 0x427 DUP5 DUP3 PUSH1 0x20 DUP7 ADD PUSH2 0x3C2 JUMP JUMPDEST SWAP2 POP POP SWAP3 SWAP2 POP POP JUMP JUMPDEST PUSH0 DUP1 PUSH1 0x40 DUP4 DUP6 SUB SLT ISZERO PUSH2 0x446 JUMPI PUSH2 0x445 PUSH2 0x2C2 JUMP JUMPDEST JUMPDEST PUSH0 PUSH2 0x453 DUP6 DUP3 DUP7 ADD PUSH2 0x2E0 JUMP JUMPDEST SWAP3 POP POP PUSH1 0x20 DUP4 ADD CALLDATALOAD PUSH8 0xFFFFFFFFFFFFFFFF DUP2 GT ISZERO PUSH2 0x474 JUMPI PUSH2 0x473 PUSH2 0x2C6 JUMP JUMPDEST JUMPDEST PUSH2 0x480 DUP6 DUP3 DUP7 ADD PUSH2 0x403 JUMP JUMPDEST SWAP2 POP POP SWAP3 POP SWAP3 SWAP1 POP JUMP JUMPDEST PUSH0 DUP2 ISZERO ISZERO SWAP1 POP SWAP2 SWAP1 POP JUMP JUMPDEST PUSH2 0x49E DUP2 PUSH2 0x48A JUMP JUMPDEST DUP3 MSTORE POP POP JUMP JUMPDEST PUSH0 PUSH1 0x40 DUP3 ADD SWAP1 POP PUSH2 0x4B7 PUSH0 DUP4 ADD DUP6 PUSH2 0x495 JUMP JUMPDEST PUSH2 0x4C4 PUSH1 0x20 DUP4 ADD DUP5 PUSH2 0x1FD JUMP JUMPDEST SWAP4 SWAP3 POP POP POP JUMP JUMPDEST PUSH0 DUP2 MLOAD SWAP1 POP SWAP2 SWAP1 POP JUMP JUMPDEST PUSH0 JUMPDEST DUP4 DUP2 LT ISZERO PUSH2 0x4F2 JUMPI DUP1 DUP3 ADD MLOAD DUP2 DUP5 ADD MSTORE PUSH1 0x20 DUP2 ADD SWAP1 POP PUSH2 0x4D7 JUMP JUMPDEST PUSH0 DUP5 DUP5 ADD MSTORE POP POP POP POP JUMP JUMPDEST PUSH0 PUSH2 0x507 DUP3 PUSH2 0x4CB JUMP JUMPDEST PUSH2 0x511 DUP2 DUP6 PUSH2 0x20C JUMP JUMPDEST SWAP4 POP PUSH2 0x521 DUP2 DUP6 PUSH1 0x20 DUP7 ADD PUSH2 0x4D5 JUMP JUMPDEST PUSH2 0x52A DUP2 PUSH2 0x2FC JUMP JUMPDEST DUP5 ADD SWAP2 POP POP SWAP3 SWAP2 POP POP JUMP JUMPDEST PUSH0 PUSH1 0x20 DUP3 ADD SWAP1 POP DUP2 DUP2 SUB PUSH0 DUP4 ADD MSTORE PUSH2 0x54D DUP2 DUP5 PUSH2 0x4FD JUMP JUMPDEST SWAP1 POP SWAP3 SWAP2 POP POP JUMP JUMPDEST PUSH32 0x4E487B7100000000000000000000000000000000000000000000000000000000 PUSH0 MSTORE PUSH1 0x22 PUSH1 0x4 MSTORE PUSH1 0x24 PUSH0 REVERT JUMPDEST PUSH0 PUSH1 0x2 DUP3 DIV SWAP1 POP PUSH1 0x1 DUP3 AND DUP1 PUSH2 0x599 JUMPI PUSH1 0x7F DUP3 AND SWAP2 POP JUMPDEST PUSH1 0x20 DUP3 LT DUP2 SUB PUSH2 0x5AC JUMPI PUSH2 0x5AB PUSH2 0x555 JUMP JUMPDEST JUMPDEST POP SWAP2 SWAP1 POP JUMP JUMPDEST PUSH0 DUP2 SWAP1 POP DUP2 PUSH0 MSTORE PUSH1 0x20 PUSH0 KECCAK256 SWAP1 POP SWAP2 SWAP1 POP JUMP JUMPDEST PUSH0 PUSH1 0x20 PUSH1 0x1F DUP4 ADD DIV SWAP1 POP SWAP2 SWAP1 POP JUMP JUMPDEST PUSH0 DUP3 DUP3 SHL SWAP1 POP SWAP3 SWAP2 POP POP JUMP JUMPDEST PUSH0 PUSH1 0x8 DUP4 MUL PUSH2 0x60E PUSH32 0xFFFFFFFFFFFFFFFFFFFFFFFFFFFFFFFFFFFFFFFFFFFFFFFFFFFFFFFFFFFFFFFF DUP3 PUSH2 0x5D3 JUMP JUMPDEST PUSH2 0x618 DUP7 DUP4 PUSH2 0x5D3 JUMP JUMPDEST SWAP6 POP DUP1 NOT DUP5 AND SWAP4 POP DUP1 DUP7 AND DUP5 OR SWAP3 POP POP POP SWAP4 SWAP3 POP POP POP JUMP JUMPDEST PUSH0 DUP2 SWAP1 POP SWAP2 SWAP1 POP JUMP JUMPDEST PUSH0 PUSH2 0x653 PUSH2 0x64E PUSH2 0x649 DUP5 PUSH2 0x1F4 JUMP JUMPDEST PUSH2 0x630 JUMP JUMPDEST PUSH2 0x1F4 JUMP JUMPDEST SWAP1 POP SWAP2 SWAP1 POP JUMP JUMPDEST PUSH0 DUP2 SWAP1 POP SWAP2 SWAP1 POP JUMP JUMPDEST PUSH2 0x66C DUP4 PUSH2 0x639 JUMP JUMPDEST PUSH2 0x680 PUSH2 0x678 DUP3 PUSH2 0x65A JUMP JUMPDEST DUP5 DUP5 SLOAD PUSH2 0x5DF JUMP JUMPDEST DUP3 SSTORE POP POP POP POP JUMP JUMPDEST PUSH0 SWAP1 JUMP JUMPDEST PUSH2 0x694 PUSH2 0x688 JUMP JUMPDEST PUSH2 0x69F DUP2 DUP5 DUP5 PUSH2 0x663 JUMP JUMPDEST POP POP POP JUMP JUMPDEST JUMPDEST DUP2 DUP2 LT ISZERO PUSH2 0x6C2 JUMPI PUSH2 0x6B7 PUSH0 DUP3 PUSH2 0x68C JUMP JUMPDEST PUSH1 0x1 DUP2 ADD SWAP1 POP PUSH2 0x6A5 JUMP JUMPDEST POP POP JUMP JUMPDEST PUSH1 0x1F DUP3 GT ISZERO PUSH2 0x707 JUMPI PUSH2 0x6D8 DUP2 PUSH2 0x5B2 JUMP JUMPDEST PUSH2 0x6E1 DUP5 PUSH2 0x5C4 JUMP JUMPDEST DUP2 ADD PUSH1 0x20 DUP6 LT ISZERO PUSH2 0x6F0 JUMPI DUP2 SWAP1 POP JUMPDEST PUSH2 0x704 PUSH2 0x6FC DUP6 PUSH2 0x5C4 JUMP JUMPDEST DUP4 ADD DUP3 PUSH2 0x6A4 JUMP JUMPDEST POP POP JUMPDEST POP POP POP JUMP JUMPDEST PUSH0 DUP3 DUP3 SHR SWAP1 POP SWAP3 SWAP2 POP POP JUMP JUMPDEST PUSH0 PUSH2 0x727 PUSH0 NOT DUP5 PUSH1 0x8 MUL PUSH2 0x70C JUMP JUMPDEST NOT DUP1 DUP4 AND SWAP2 POP POP SWAP3 SWAP2 POP POP JUMP JUMPDEST PUSH0 PUSH2 0x73F DUP4 DUP4 PUSH2 0x718 JUMP JUMPDEST SWAP2 POP DUP3 PUSH1 0x2 MUL DUP3 OR SWAP1 POP SWAP3 SWAP2 POP POP JUMP JUMPDEST PUSH2 0x758 DUP3 PUSH2 0x4CB JUMP JUMPDEST PUSH8 0xFFFFFFFFFFFFFFFF DUP2 GT ISZERO PUSH2 0x771 JUMPI PUSH2 0x770 PUSH2 0x30C JUMP JUMPDEST JUMPDEST PUSH2 0x77B DUP3 SLOAD PUSH2 0x582 JUMP JUMPDEST PUSH2 0x786 DUP3 DUP3 DUP6 PUSH2 0x6C6 JUMP JUMPDEST PUSH0 PUSH1 0x20 SWAP1 POP PUSH1 0x1F DUP4 GT PUSH1 0x1 DUP2 EQ PUSH2 0x7B7 JUMPI PUSH0 DUP5 ISZERO PUSH2 0x7A5 JUMPI DUP3 DUP8 ADD MLOAD SWAP1 POP JUMPDEST PUSH2 0x7AF DUP6 DUP3 PUSH2 0x734 JUMP JUMPDEST DUP7 SSTORE POP PUSH2 0x816 JUMP JUMPDEST PUSH1 0x1F NOT DUP5 AND PUSH2 0x7C5 DUP7 PUSH2 0x5B2 JUMP JUMPDEST PUSH0 JUMPDEST DUP3 DUP2 LT ISZERO PUSH2 0x7EC JUMPI DUP5 DUP10 ADD MLOAD DUP3 SSTORE PUSH1 0x1 DUP3 ADD SWAP2 POP PUSH1 0x20 DUP6 ADD SWAP5 POP PUSH1 0x20 DUP2 ADD SWAP1 POP PUSH2 0x7C7 JUMP JUMPDEST DUP7 DUP4 LT ISZERO PUSH2 0x809 JUMPI DUP5 DUP10 ADD MLOAD PUSH2 0x805 PUSH1 0x1F DUP10 AND DUP3 PUSH2 0x718 JUMP JUMPDEST DUP4 SSTORE POP JUMPDEST PUSH1 0x1 PUSH1 0x2 DUP9 MUL ADD DUP9 SSTORE POP POP POP JUMPDEST POP POP POP POP POP POP JUMP INVALID LOG2 PUSH5 0x6970667358 0x22 SLT KECCAK256 SSTORE PUSH0 ADD SLOAD PUSH0 AND PUSH1 0xB2 BYTE 0xB5 0x1F SGT CODESIZE JUMPI DUP11 EXTCODESIZE 0xBC CODECOPY 0xEB 0xA7 0xE 0x2E 0x5C 0xB2 PUSH10 0xA2AE806F4FB2E564736F PUSH13 0x63430008170033000000000000 "
				},
				"gasEstimates": {
					"creation": {
						"codeDepositCost": "426400",
						"executionCost": "459",
						"totalCost": "426859"
					},
					"external": {
						"": "2687",
						"foo(uint256,string)": "infinite",
						"message()": "infinite",
						"x()": "2403"
					}
				},
				"methodIdentifiers": {
					"foo(uint256,string)": "c5d1c995",
					"message()": "e21f37ce",
					"x()": "0c55699c"
				}
			},
			"storageLayout": {
				"storage": [
					{
						"astId": 3,
						"contract": "contracts/三W高级合约交互/Call.sol:TestCall",
						"label": "message",
						"offset": 0,
						"slot": "0",
						"type": "t_string_storage"
					},
					{
						"astId": 5,
						"contract": "contracts/三W高级合约交互/Call.sol:TestCall",
						"label": "x",
						"offset": 0,
						"slot": "1",
						"type": "t_uint256"
					}
				],
				"types": {
					"t_string_storage": {
						"encoding": "bytes",
						"label": "string",
						"numberOfBytes": "32"
					},
					"t_uint256": {
						"encoding": "inplace",
						"label": "uint256",
						"numberOfBytes": "32"
					}
				}
			},
			"userdoc": {
				"kind": "user",
				"methods": {},
				"version": 1
			}
		}
	}
}