{
	"contracts/三W高级合约交互/Call.sol": {
		"Call": {
			"abi": [
				{
					"inputs": [
						{
							"internalType": "address",
							"name": "_target",
							"type": "address"
						}
					],
					"name": "callFoo",
					"outputs": [],
					"stateMutability": "payable",
					"type": "function"
				},
				{
					"inputs": [],
					"name": "i",
					"outputs": [
						{
							"internalType": "bytes",
							"name": "",
							"type": "bytes"
						}
					],
					"stateMutability": "view",
					"type": "function"
				}
			],
			"devdoc": {
				"kind": "dev",
				"methods": {},
				"version": 1
			},
			"evm": {
				"assembly": "    /* \"contracts/\\xe4\\xb8\\x89W\\xe9\\xab\\x98\\xe7\\xba\\xa7\\xe5\\x90\\x88\\xe7\\xba\\xa6\\xe4\\xba\\xa4\\xe4\\xba\\x92/Call.sol\":578:882  contract Call {... */\n  mstore(0x40, 0x80)\n  callvalue\n  dup1\n  iszero\n  tag_1\n  jumpi\n  0x00\n  dup1\n  revert\ntag_1:\n  pop\n  dataSize(sub_0)\n  dup1\n  dataOffset(sub_0)\n  0x00\n  codecopy\n  0x00\n  return\nstop\n\nsub_0: assembly {\n        /* \"contracts/\\xe4\\xb8\\x89W\\xe9\\xab\\x98\\xe7\\xba\\xa7\\xe5\\x90\\x88\\xe7\\xba\\xa6\\xe4\\xba\\xa4\\xe4\\xba\\x92/Call.sol\":578:882  contract Call {... */\n      mstore(0x40, 0x80)\n      jumpi(tag_1, lt(calldatasize, 0x04))\n      shr(0xe0, calldataload(0x00))\n      dup1\n      0xe5aa3d58\n      eq\n      tag_2\n      jumpi\n      dup1\n      0xedcbe76c\n      eq\n      tag_3\n      jumpi\n    tag_1:\n      0x00\n      dup1\n      revert\n        /* \"contracts/\\xe4\\xb8\\x89W\\xe9\\xab\\x98\\xe7\\xba\\xa7\\xe5\\x90\\x88\\xe7\\xba\\xa6\\xe4\\xba\\xa4\\xe4\\xba\\x92/Call.sol\":598:612  bytes public i */\n    tag_2:\n      callvalue\n      dup1\n      iszero\n      tag_4\n      jumpi\n      0x00\n      dup1\n      revert\n    tag_4:\n      pop\n      tag_5\n      tag_6\n      jump\t// in\n    tag_5:\n      mload(0x40)\n      tag_7\n      swap2\n      swap1\n      tag_8\n      jump\t// in\n    tag_7:\n      mload(0x40)\n      dup1\n      swap2\n      sub\n      swap1\n      return\n        /* \"contracts/\\xe4\\xb8\\x89W\\xe9\\xab\\x98\\xe7\\xba\\xa7\\xe5\\x90\\x88\\xe7\\xba\\xa6\\xe4\\xba\\xa4\\xe4\\xba\\x92/Call.sol\":618:880  function callFoo(address _target) external payable {... */\n    tag_3:\n      tag_9\n      0x04\n      dup1\n      calldatasize\n      sub\n      dup2\n      add\n      swap1\n      tag_10\n      swap2\n      swap1\n      tag_11\n      jump\t// in\n    tag_10:\n      tag_12\n      jump\t// in\n    tag_9:\n      stop\n        /* \"contracts/\\xe4\\xb8\\x89W\\xe9\\xab\\x98\\xe7\\xba\\xa7\\xe5\\x90\\x88\\xe7\\xba\\xa6\\xe4\\xba\\xa4\\xe4\\xba\\x92/Call.sol\":598:612  bytes public i */\n    tag_6:\n      0x00\n      dup1\n      sload\n      tag_13\n      swap1\n      tag_14\n      jump\t// in\n    tag_13:\n      dup1\n      0x1f\n      add\n      0x20\n      dup1\n      swap2\n      div\n      mul\n      0x20\n      add\n      mload(0x40)\n      swap1\n      dup2\n      add\n      0x40\n      mstore\n      dup1\n      swap3\n      swap2\n      swap1\n      dup2\n      dup2\n      mstore\n      0x20\n      add\n      dup3\n      dup1\n      sload\n      tag_15\n      swap1\n      tag_14\n      jump\t// in\n    tag_15:\n      dup1\n      iszero\n      tag_16\n      jumpi\n      dup1\n      0x1f\n      lt\n      tag_17\n      jumpi\n      0x0100\n      dup1\n      dup4\n      sload\n      div\n      mul\n      dup4\n      mstore\n      swap2\n      0x20\n      add\n      swap2\n      jump(tag_16)\n    tag_17:\n      dup3\n      add\n      swap2\n      swap1\n      0x00\n      mstore\n      keccak256(0x00, 0x20)\n      swap1\n    tag_18:\n      dup2\n      sload\n      dup2\n      mstore\n      swap1\n      0x01\n      add\n      swap1\n      0x20\n      add\n      dup1\n      dup4\n      gt\n      tag_18\n      jumpi\n      dup3\n      swap1\n      sub\n      0x1f\n      and\n      dup3\n      add\n      swap2\n    tag_16:\n      pop\n      pop\n      pop\n      pop\n      pop\n      dup2\n      jump\t// out\n        /* \"contracts/\\xe4\\xb8\\x89W\\xe9\\xab\\x98\\xe7\\xba\\xa7\\xe5\\x90\\x88\\xe7\\xba\\xa6\\xe4\\xba\\xa4\\xe4\\xba\\x92/Call.sol\":618:880  function callFoo(address _target) external payable {... */\n    tag_12:\n        /* \"contracts/\\xe4\\xb8\\x89W\\xe9\\xab\\x98\\xe7\\xba\\xa7\\xe5\\x90\\x88\\xe7\\xba\\xa6\\xe4\\xba\\xa4\\xe4\\xba\\x92/Call.sol\":680:686  bool b */\n      0x00\n        /* \"contracts/\\xe4\\xb8\\x89W\\xe9\\xab\\x98\\xe7\\xba\\xa7\\xe5\\x90\\x88\\xe7\\xba\\xa6\\xe4\\xba\\xa4\\xe4\\xba\\x92/Call.sol\":688:703  bytes memory _i */\n      dup1\n        /* \"contracts/\\xe4\\xb8\\x89W\\xe9\\xab\\x98\\xe7\\xba\\xa7\\xe5\\x90\\x88\\xe7\\xba\\xa6\\xe4\\xba\\xa4\\xe4\\xba\\x92/Call.sol\":707:714  _target */\n      dup3\n        /* \"contracts/\\xe4\\xb8\\x89W\\xe9\\xab\\x98\\xe7\\xba\\xa7\\xe5\\x90\\x88\\xe7\\xba\\xa6\\xe4\\xba\\xa4\\xe4\\xba\\x92/Call.sol\":707:719  _target.call */\n      0xffffffffffffffffffffffffffffffffffffffff\n      and\n        /* \"contracts/\\xe4\\xb8\\x89W\\xe9\\xab\\x98\\xe7\\xba\\xa7\\xe5\\x90\\x88\\xe7\\xba\\xa6\\xe4\\xba\\xa4\\xe4\\xba\\x92/Call.sol\":727:730  111 */\n      0x6f\n        /* \"contracts/\\xe4\\xb8\\x89W\\xe9\\xab\\x98\\xe7\\xba\\xa7\\xe5\\x90\\x88\\xe7\\xba\\xa6\\xe4\\xba\\xa4\\xe4\\xba\\x92/Call.sol\":792:795  123 */\n      0x7b\n        /* \"contracts/\\xe4\\xb8\\x89W\\xe9\\xab\\x98\\xe7\\xba\\xa7\\xe5\\x90\\x88\\xe7\\xba\\xa6\\xe4\\xba\\xa4\\xe4\\xba\\x92/Call.sol\":745:808  abi.encodeWithSignature(\"foo(uint256,string)\", 123, \"call foo\") */\n      add(0x24, mload(0x40))\n      tag_20\n      swap2\n      swap1\n      tag_21\n      jump\t// in\n    tag_20:\n      mload(0x40)\n      0x20\n      dup2\n      dup4\n      sub\n      sub\n      dup2\n      mstore\n      swap1\n      0x40\n      mstore\n      and(not(0xffffffffffffffffffffffffffffffffffffffffffffffffffffffff), 0xc5d1c99500000000000000000000000000000000000000000000000000000000)\n      0x20\n      dup3\n      add\n      dup1\n      mload\n      0xffffffffffffffffffffffffffffffffffffffffffffffffffffffff\n      dup4\n      dup2\n      dup4\n      and\n      or\n      dup4\n      mstore\n      pop\n      pop\n      pop\n      pop\n        /* \"contracts/\\xe4\\xb8\\x89W\\xe9\\xab\\x98\\xe7\\xba\\xa7\\xe5\\x90\\x88\\xe7\\xba\\xa6\\xe4\\xba\\xa4\\xe4\\xba\\x92/Call.sol\":707:818  _target.call{value: 111}(... */\n      mload(0x40)\n      tag_22\n      swap2\n      swap1\n      tag_23\n      jump\t// in\n    tag_22:\n      0x00\n      mload(0x40)\n      dup1\n      dup4\n      sub\n      dup2\n      dup6\n      dup8\n      gas\n      call\n      swap3\n      pop\n      pop\n      pop\n      returndatasize\n      dup1\n      0x00\n      dup2\n      eq\n      tag_26\n      jumpi\n      mload(0x40)\n      swap2\n      pop\n      and(add(returndatasize, 0x3f), not(0x1f))\n      dup3\n      add\n      0x40\n      mstore\n      returndatasize\n      dup3\n      mstore\n      returndatasize\n      0x00\n      0x20\n      dup5\n      add\n      returndatacopy\n      jump(tag_25)\n    tag_26:\n      0x60\n      swap2\n      pop\n    tag_25:\n      pop\n        /* \"contracts/\\xe4\\xb8\\x89W\\xe9\\xab\\x98\\xe7\\xba\\xa7\\xe5\\x90\\x88\\xe7\\xba\\xa6\\xe4\\xba\\xa4\\xe4\\xba\\x92/Call.sol\":679:818  (bool b, bytes memory _i) = _target.call{value: 111}(... */\n      swap2\n      pop\n      swap2\n      pop\n        /* \"contracts/\\xe4\\xb8\\x89W\\xe9\\xab\\x98\\xe7\\xba\\xa7\\xe5\\x90\\x88\\xe7\\xba\\xa6\\xe4\\xba\\xa4\\xe4\\xba\\x92/Call.sol\":836:837  b */\n      dup2\n        /* \"contracts/\\xe4\\xb8\\x89W\\xe9\\xab\\x98\\xe7\\xba\\xa7\\xe5\\x90\\x88\\xe7\\xba\\xa6\\xe4\\xba\\xa4\\xe4\\xba\\x92/Call.sol\":828:857  require(b, \"call foo failed\") */\n      tag_27\n      jumpi\n      mload(0x40)\n      0x08c379a000000000000000000000000000000000000000000000000000000000\n      dup2\n      mstore\n      0x04\n      add\n      tag_28\n      swap1\n      tag_29\n      jump\t// in\n    tag_28:\n      mload(0x40)\n      dup1\n      swap2\n      sub\n      swap1\n      revert\n    tag_27:\n        /* \"contracts/\\xe4\\xb8\\x89W\\xe9\\xab\\x98\\xe7\\xba\\xa7\\xe5\\x90\\x88\\xe7\\xba\\xa6\\xe4\\xba\\xa4\\xe4\\xba\\x92/Call.sol\":871:873  _i */\n      dup1\n        /* \"contracts/\\xe4\\xb8\\x89W\\xe9\\xab\\x98\\xe7\\xba\\xa7\\xe5\\x90\\x88\\xe7\\xba\\xa6\\xe4\\xba\\xa4\\xe4\\xba\\x92/Call.sol\":867:868  i */\n      0x00\n        /* \"contracts/\\xe4\\xb8\\x89W\\xe9\\xab\\x98\\xe7\\xba\\xa7\\xe5\\x90\\x88\\xe7\\xba\\xa6\\xe4\\xba\\xa4\\xe4\\xba\\x92/Call.sol\":867:873  i = _i */\n      swap1\n      dup2\n      tag_30\n      swap2\n      swap1\n      tag_31\n      jump\t// in\n    tag_30:\n      pop\n        /* \"contracts/\\xe4\\xb8\\x89W\\xe9\\xab\\x98\\xe7\\xba\\xa7\\xe5\\x90\\x88\\xe7\\xba\\xa6\\xe4\\xba\\xa4\\xe4\\xba\\x92/Call.sol\":669:880  {... */\n      pop\n      pop\n        /* \"contracts/\\xe4\\xb8\\x89W\\xe9\\xab\\x98\\xe7\\xba\\xa7\\xe5\\x90\\x88\\xe7\\xba\\xa6\\xe4\\xba\\xa4\\xe4\\xba\\x92/Call.sol\":618:880  function callFoo(address _target) external payable {... */\n      pop\n      jump\t// out\n        /* \"#utility.yul\":7:105   */\n    tag_32:\n        /* \"#utility.yul\":58:64   */\n      0x00\n        /* \"#utility.yul\":92:97   */\n      dup2\n        /* \"#utility.yul\":86:98   */\n      mload\n        /* \"#utility.yul\":76:98   */\n      swap1\n      pop\n        /* \"#utility.yul\":7:105   */\n      swap2\n      swap1\n      pop\n      jump\t// out\n        /* \"#utility.yul\":111:279   */\n    tag_33:\n        /* \"#utility.yul\":194:205   */\n      0x00\n        /* \"#utility.yul\":228:234   */\n      dup3\n        /* \"#utility.yul\":223:226   */\n      dup3\n        /* \"#utility.yul\":216:235   */\n      mstore\n        /* \"#utility.yul\":268:272   */\n      0x20\n        /* \"#utility.yul\":263:266   */\n      dup3\n        /* \"#utility.yul\":259:273   */\n      add\n        /* \"#utility.yul\":244:273   */\n      swap1\n      pop\n        /* \"#utility.yul\":111:279   */\n      swap3\n      swap2\n      pop\n      pop\n      jump\t// out\n        /* \"#utility.yul\":285:531   */\n    tag_34:\n        /* \"#utility.yul\":366:367   */\n      0x00\n        /* \"#utility.yul\":376:489   */\n    tag_77:\n        /* \"#utility.yul\":390:396   */\n      dup4\n        /* \"#utility.yul\":387:388   */\n      dup2\n        /* \"#utility.yul\":384:397   */\n      lt\n        /* \"#utility.yul\":376:489   */\n      iszero\n      tag_79\n      jumpi\n        /* \"#utility.yul\":475:476   */\n      dup1\n        /* \"#utility.yul\":470:473   */\n      dup3\n        /* \"#utility.yul\":466:477   */\n      add\n        /* \"#utility.yul\":460:478   */\n      mload\n        /* \"#utility.yul\":456:457   */\n      dup2\n        /* \"#utility.yul\":451:454   */\n      dup5\n        /* \"#utility.yul\":447:458   */\n      add\n        /* \"#utility.yul\":440:479   */\n      mstore\n        /* \"#utility.yul\":412:414   */\n      0x20\n        /* \"#utility.yul\":409:410   */\n      dup2\n        /* \"#utility.yul\":405:415   */\n      add\n        /* \"#utility.yul\":400:415   */\n      swap1\n      pop\n        /* \"#utility.yul\":376:489   */\n      jump(tag_77)\n    tag_79:\n        /* \"#utility.yul\":523:524   */\n      0x00\n        /* \"#utility.yul\":514:520   */\n      dup5\n        /* \"#utility.yul\":509:512   */\n      dup5\n        /* \"#utility.yul\":505:521   */\n      add\n        /* \"#utility.yul\":498:525   */\n      mstore\n        /* \"#utility.yul\":347:531   */\n      pop\n        /* \"#utility.yul\":285:531   */\n      pop\n      pop\n      pop\n      jump\t// out\n        /* \"#utility.yul\":537:639   */\n    tag_35:\n        /* \"#utility.yul\":578:584   */\n      0x00\n        /* \"#utility.yul\":629:631   */\n      0x1f\n        /* \"#utility.yul\":625:632   */\n      not\n        /* \"#utility.yul\":620:622   */\n      0x1f\n        /* \"#utility.yul\":613:618   */\n      dup4\n        /* \"#utility.yul\":609:623   */\n      add\n        /* \"#utility.yul\":605:633   */\n      and\n        /* \"#utility.yul\":595:633   */\n      swap1\n      pop\n        /* \"#utility.yul\":537:639   */\n      swap2\n      swap1\n      pop\n      jump\t// out\n        /* \"#utility.yul\":645:1018   */\n    tag_36:\n        /* \"#utility.yul\":731:734   */\n      0x00\n        /* \"#utility.yul\":759:797   */\n      tag_82\n        /* \"#utility.yul\":791:796   */\n      dup3\n        /* \"#utility.yul\":759:797   */\n      tag_32\n      jump\t// in\n    tag_82:\n        /* \"#utility.yul\":813:883   */\n      tag_83\n        /* \"#utility.yul\":876:882   */\n      dup2\n        /* \"#utility.yul\":871:874   */\n      dup6\n        /* \"#utility.yul\":813:883   */\n      tag_33\n      jump\t// in\n    tag_83:\n        /* \"#utility.yul\":806:883   */\n      swap4\n      pop\n        /* \"#utility.yul\":892:957   */\n      tag_84\n        /* \"#utility.yul\":950:956   */\n      dup2\n        /* \"#utility.yul\":945:948   */\n      dup6\n        /* \"#utility.yul\":938:942   */\n      0x20\n        /* \"#utility.yul\":931:936   */\n      dup7\n        /* \"#utility.yul\":927:943   */\n      add\n        /* \"#utility.yul\":892:957   */\n      tag_34\n      jump\t// in\n    tag_84:\n        /* \"#utility.yul\":982:1011   */\n      tag_85\n        /* \"#utility.yul\":1004:1010   */\n      dup2\n        /* \"#utility.yul\":982:1011   */\n      tag_35\n      jump\t// in\n    tag_85:\n        /* \"#utility.yul\":977:980   */\n      dup5\n        /* \"#utility.yul\":973:1012   */\n      add\n        /* \"#utility.yul\":966:1012   */\n      swap2\n      pop\n        /* \"#utility.yul\":735:1018   */\n      pop\n        /* \"#utility.yul\":645:1018   */\n      swap3\n      swap2\n      pop\n      pop\n      jump\t// out\n        /* \"#utility.yul\":1024:1333   */\n    tag_8:\n        /* \"#utility.yul\":1135:1139   */\n      0x00\n        /* \"#utility.yul\":1173:1175   */\n      0x20\n        /* \"#utility.yul\":1162:1171   */\n      dup3\n        /* \"#utility.yul\":1158:1176   */\n      add\n        /* \"#utility.yul\":1150:1176   */\n      swap1\n      pop\n        /* \"#utility.yul\":1222:1231   */\n      dup2\n        /* \"#utility.yul\":1216:1220   */\n      dup2\n        /* \"#utility.yul\":1212:1232   */\n      sub\n        /* \"#utility.yul\":1208:1209   */\n      0x00\n        /* \"#utility.yul\":1197:1206   */\n      dup4\n        /* \"#utility.yul\":1193:1210   */\n      add\n        /* \"#utility.yul\":1186:1233   */\n      mstore\n        /* \"#utility.yul\":1250:1326   */\n      tag_87\n        /* \"#utility.yul\":1321:1325   */\n      dup2\n        /* \"#utility.yul\":1312:1318   */\n      dup5\n        /* \"#utility.yul\":1250:1326   */\n      tag_36\n      jump\t// in\n    tag_87:\n        /* \"#utility.yul\":1242:1326   */\n      swap1\n      pop\n        /* \"#utility.yul\":1024:1333   */\n      swap3\n      swap2\n      pop\n      pop\n      jump\t// out\n        /* \"#utility.yul\":1420:1537   */\n    tag_38:\n        /* \"#utility.yul\":1529:1530   */\n      0x00\n        /* \"#utility.yul\":1526:1527   */\n      dup1\n        /* \"#utility.yul\":1519:1531   */\n      revert\n        /* \"#utility.yul\":1666:1792   */\n    tag_40:\n        /* \"#utility.yul\":1703:1710   */\n      0x00\n        /* \"#utility.yul\":1743:1785   */\n      0xffffffffffffffffffffffffffffffffffffffff\n        /* \"#utility.yul\":1736:1741   */\n      dup3\n        /* \"#utility.yul\":1732:1786   */\n      and\n        /* \"#utility.yul\":1721:1786   */\n      swap1\n      pop\n        /* \"#utility.yul\":1666:1792   */\n      swap2\n      swap1\n      pop\n      jump\t// out\n        /* \"#utility.yul\":1798:1894   */\n    tag_41:\n        /* \"#utility.yul\":1835:1842   */\n      0x00\n        /* \"#utility.yul\":1864:1888   */\n      tag_93\n        /* \"#utility.yul\":1882:1887   */\n      dup3\n        /* \"#utility.yul\":1864:1888   */\n      tag_40\n      jump\t// in\n    tag_93:\n        /* \"#utility.yul\":1853:1888   */\n      swap1\n      pop\n        /* \"#utility.yul\":1798:1894   */\n      swap2\n      swap1\n      pop\n      jump\t// out\n        /* \"#utility.yul\":1900:2022   */\n    tag_42:\n        /* \"#utility.yul\":1973:1997   */\n      tag_95\n        /* \"#utility.yul\":1991:1996   */\n      dup2\n        /* \"#utility.yul\":1973:1997   */\n      tag_41\n      jump\t// in\n    tag_95:\n        /* \"#utility.yul\":1966:1971   */\n      dup2\n        /* \"#utility.yul\":1963:1998   */\n      eq\n        /* \"#utility.yul\":1953:2016   */\n      tag_96\n      jumpi\n        /* \"#utility.yul\":2012:2013   */\n      0x00\n        /* \"#utility.yul\":2009:2010   */\n      dup1\n        /* \"#utility.yul\":2002:2014   */\n      revert\n        /* \"#utility.yul\":1953:2016   */\n    tag_96:\n        /* \"#utility.yul\":1900:2022   */\n      pop\n      jump\t// out\n        /* \"#utility.yul\":2028:2167   */\n    tag_43:\n        /* \"#utility.yul\":2074:2079   */\n      0x00\n        /* \"#utility.yul\":2112:2118   */\n      dup2\n        /* \"#utility.yul\":2099:2119   */\n      calldataload\n        /* \"#utility.yul\":2090:2119   */\n      swap1\n      pop\n        /* \"#utility.yul\":2128:2161   */\n      tag_98\n        /* \"#utility.yul\":2155:2160   */\n      dup2\n        /* \"#utility.yul\":2128:2161   */\n      tag_42\n      jump\t// in\n    tag_98:\n        /* \"#utility.yul\":2028:2167   */\n      swap3\n      swap2\n      pop\n      pop\n      jump\t// out\n        /* \"#utility.yul\":2173:2502   */\n    tag_11:\n        /* \"#utility.yul\":2232:2238   */\n      0x00\n        /* \"#utility.yul\":2281:2283   */\n      0x20\n        /* \"#utility.yul\":2269:2278   */\n      dup3\n        /* \"#utility.yul\":2260:2267   */\n      dup5\n        /* \"#utility.yul\":2256:2279   */\n      sub\n        /* \"#utility.yul\":2252:2284   */\n      slt\n        /* \"#utility.yul\":2249:2368   */\n      iszero\n      tag_100\n      jumpi\n        /* \"#utility.yul\":2287:2366   */\n      tag_101\n      tag_38\n      jump\t// in\n    tag_101:\n        /* \"#utility.yul\":2249:2368   */\n    tag_100:\n        /* \"#utility.yul\":2407:2408   */\n      0x00\n        /* \"#utility.yul\":2432:2485   */\n      tag_102\n        /* \"#utility.yul\":2477:2484   */\n      dup5\n        /* \"#utility.yul\":2468:2474   */\n      dup3\n        /* \"#utility.yul\":2457:2466   */\n      dup6\n        /* \"#utility.yul\":2453:2475   */\n      add\n        /* \"#utility.yul\":2432:2485   */\n      tag_43\n      jump\t// in\n    tag_102:\n        /* \"#utility.yul\":2422:2485   */\n      swap2\n      pop\n        /* \"#utility.yul\":2378:2495   */\n      pop\n        /* \"#utility.yul\":2173:2502   */\n      swap3\n      swap2\n      pop\n      pop\n      jump\t// out\n        /* \"#utility.yul\":2508:2688   */\n    tag_44:\n        /* \"#utility.yul\":2556:2633   */\n      0x4e487b7100000000000000000000000000000000000000000000000000000000\n        /* \"#utility.yul\":2553:2554   */\n      0x00\n        /* \"#utility.yul\":2546:2634   */\n      mstore\n        /* \"#utility.yul\":2653:2657   */\n      0x22\n        /* \"#utility.yul\":2650:2651   */\n      0x04\n        /* \"#utility.yul\":2643:2658   */\n      mstore\n        /* \"#utility.yul\":2677:2681   */\n      0x24\n        /* \"#utility.yul\":2674:2675   */\n      0x00\n        /* \"#utility.yul\":2667:2682   */\n      revert\n        /* \"#utility.yul\":2694:3014   */\n    tag_14:\n        /* \"#utility.yul\":2738:2744   */\n      0x00\n        /* \"#utility.yul\":2775:2776   */\n      0x02\n        /* \"#utility.yul\":2769:2773   */\n      dup3\n        /* \"#utility.yul\":2765:2777   */\n      div\n        /* \"#utility.yul\":2755:2777   */\n      swap1\n      pop\n        /* \"#utility.yul\":2822:2823   */\n      0x01\n        /* \"#utility.yul\":2816:2820   */\n      dup3\n        /* \"#utility.yul\":2812:2824   */\n      and\n        /* \"#utility.yul\":2843:2861   */\n      dup1\n        /* \"#utility.yul\":2833:2914   */\n      tag_105\n      jumpi\n        /* \"#utility.yul\":2899:2903   */\n      0x7f\n        /* \"#utility.yul\":2891:2897   */\n      dup3\n        /* \"#utility.yul\":2887:2904   */\n      and\n        /* \"#utility.yul\":2877:2904   */\n      swap2\n      pop\n        /* \"#utility.yul\":2833:2914   */\n    tag_105:\n        /* \"#utility.yul\":2961:2963   */\n      0x20\n        /* \"#utility.yul\":2953:2959   */\n      dup3\n        /* \"#utility.yul\":2950:2964   */\n      lt\n        /* \"#utility.yul\":2930:2948   */\n      dup2\n        /* \"#utility.yul\":2927:2965   */\n      sub\n        /* \"#utility.yul\":2924:3008   */\n      tag_106\n      jumpi\n        /* \"#utility.yul\":2980:2998   */\n      tag_107\n      tag_44\n      jump\t// in\n    tag_107:\n        /* \"#utility.yul\":2924:3008   */\n    tag_106:\n        /* \"#utility.yul\":2745:3014   */\n      pop\n        /* \"#utility.yul\":2694:3014   */\n      swap2\n      swap1\n      pop\n      jump\t// out\n        /* \"#utility.yul\":3020:3107   */\n    tag_45:\n        /* \"#utility.yul\":3067:3074   */\n      0x00\n        /* \"#utility.yul\":3096:3101   */\n      dup2\n        /* \"#utility.yul\":3085:3101   */\n      swap1\n      pop\n        /* \"#utility.yul\":3020:3107   */\n      swap2\n      swap1\n      pop\n      jump\t// out\n        /* \"#utility.yul\":3113:3199   */\n    tag_46:\n        /* \"#utility.yul\":3148:3155   */\n      0x00\n        /* \"#utility.yul\":3188:3192   */\n      0xff\n        /* \"#utility.yul\":3181:3186   */\n      dup3\n        /* \"#utility.yul\":3177:3193   */\n      and\n        /* \"#utility.yul\":3166:3193   */\n      swap1\n      pop\n        /* \"#utility.yul\":3113:3199   */\n      swap2\n      swap1\n      pop\n      jump\t// out\n        /* \"#utility.yul\":3205:3265   */\n    tag_47:\n        /* \"#utility.yul\":3233:3236   */\n      0x00\n        /* \"#utility.yul\":3254:3259   */\n      dup2\n        /* \"#utility.yul\":3247:3259   */\n      swap1\n      pop\n        /* \"#utility.yul\":3205:3265   */\n      swap2\n      swap1\n      pop\n      jump\t// out\n        /* \"#utility.yul\":3271:3429   */\n    tag_48:\n        /* \"#utility.yul\":3329:3338   */\n      0x00\n        /* \"#utility.yul\":3362:3423   */\n      tag_112\n        /* \"#utility.yul\":3378:3422   */\n      tag_113\n        /* \"#utility.yul\":3387:3421   */\n      tag_114\n        /* \"#utility.yul\":3415:3420   */\n      dup5\n        /* \"#utility.yul\":3387:3421   */\n      tag_45\n      jump\t// in\n    tag_114:\n        /* \"#utility.yul\":3378:3422   */\n      tag_47\n      jump\t// in\n    tag_113:\n        /* \"#utility.yul\":3362:3423   */\n      tag_46\n      jump\t// in\n    tag_112:\n        /* \"#utility.yul\":3349:3423   */\n      swap1\n      pop\n        /* \"#utility.yul\":3271:3429   */\n      swap2\n      swap1\n      pop\n      jump\t// out\n        /* \"#utility.yul\":3435:3582   */\n    tag_49:\n        /* \"#utility.yul\":3530:3575   */\n      tag_116\n        /* \"#utility.yul\":3569:3574   */\n      dup2\n        /* \"#utility.yul\":3530:3575   */\n      tag_48\n      jump\t// in\n    tag_116:\n        /* \"#utility.yul\":3525:3528   */\n      dup3\n        /* \"#utility.yul\":3518:3576   */\n      mstore\n        /* \"#utility.yul\":3435:3582   */\n      pop\n      pop\n      jump\t// out\n        /* \"#utility.yul\":3588:3757   */\n    tag_50:\n        /* \"#utility.yul\":3672:3683   */\n      0x00\n        /* \"#utility.yul\":3706:3712   */\n      dup3\n        /* \"#utility.yul\":3701:3704   */\n      dup3\n        /* \"#utility.yul\":3694:3713   */\n      mstore\n        /* \"#utility.yul\":3746:3750   */\n      0x20\n        /* \"#utility.yul\":3741:3744   */\n      dup3\n        /* \"#utility.yul\":3737:3751   */\n      add\n        /* \"#utility.yul\":3722:3751   */\n      swap1\n      pop\n        /* \"#utility.yul\":3588:3757   */\n      swap3\n      swap2\n      pop\n      pop\n      jump\t// out\n        /* \"#utility.yul\":3763:3921   */\n    tag_51:\n        /* \"#utility.yul\":3903:3913   */\n      0x63616c6c20666f6f000000000000000000000000000000000000000000000000\n        /* \"#utility.yul\":3899:3900   */\n      0x00\n        /* \"#utility.yul\":3891:3897   */\n      dup3\n        /* \"#utility.yul\":3887:3901   */\n      add\n        /* \"#utility.yul\":3880:3914   */\n      mstore\n        /* \"#utility.yul\":3763:3921   */\n      pop\n      jump\t// out\n        /* \"#utility.yul\":3927:4292   */\n    tag_52:\n        /* \"#utility.yul\":4069:4072   */\n      0x00\n        /* \"#utility.yul\":4090:4156   */\n      tag_120\n        /* \"#utility.yul\":4154:4155   */\n      0x08\n        /* \"#utility.yul\":4149:4152   */\n      dup4\n        /* \"#utility.yul\":4090:4156   */\n      tag_50\n      jump\t// in\n    tag_120:\n        /* \"#utility.yul\":4083:4156   */\n      swap2\n      pop\n        /* \"#utility.yul\":4165:4258   */\n      tag_121\n        /* \"#utility.yul\":4254:4257   */\n      dup3\n        /* \"#utility.yul\":4165:4258   */\n      tag_51\n      jump\t// in\n    tag_121:\n        /* \"#utility.yul\":4283:4285   */\n      0x20\n        /* \"#utility.yul\":4278:4281   */\n      dup3\n        /* \"#utility.yul\":4274:4286   */\n      add\n        /* \"#utility.yul\":4267:4286   */\n      swap1\n      pop\n        /* \"#utility.yul\":3927:4292   */\n      swap2\n      swap1\n      pop\n      jump\t// out\n        /* \"#utility.yul\":4298:4843   */\n    tag_21:\n        /* \"#utility.yul\":4500:4504   */\n      0x00\n        /* \"#utility.yul\":4538:4540   */\n      0x40\n        /* \"#utility.yul\":4527:4536   */\n      dup3\n        /* \"#utility.yul\":4523:4541   */\n      add\n        /* \"#utility.yul\":4515:4541   */\n      swap1\n      pop\n        /* \"#utility.yul\":4551:4630   */\n      tag_123\n        /* \"#utility.yul\":4627:4628   */\n      0x00\n        /* \"#utility.yul\":4616:4625   */\n      dup4\n        /* \"#utility.yul\":4612:4629   */\n      add\n        /* \"#utility.yul\":4603:4609   */\n      dup5\n        /* \"#utility.yul\":4551:4630   */\n      tag_49\n      jump\t// in\n    tag_123:\n        /* \"#utility.yul\":4677:4686   */\n      dup2\n        /* \"#utility.yul\":4671:4675   */\n      dup2\n        /* \"#utility.yul\":4667:4687   */\n      sub\n        /* \"#utility.yul\":4662:4664   */\n      0x20\n        /* \"#utility.yul\":4651:4660   */\n      dup4\n        /* \"#utility.yul\":4647:4665   */\n      add\n        /* \"#utility.yul\":4640:4688   */\n      mstore\n        /* \"#utility.yul\":4705:4836   */\n      tag_124\n        /* \"#utility.yul\":4831:4835   */\n      dup2\n        /* \"#utility.yul\":4705:4836   */\n      tag_52\n      jump\t// in\n    tag_124:\n        /* \"#utility.yul\":4697:4836   */\n      swap1\n      pop\n        /* \"#utility.yul\":4298:4843   */\n      swap3\n      swap2\n      pop\n      pop\n      jump\t// out\n        /* \"#utility.yul\":4849:4996   */\n    tag_53:\n        /* \"#utility.yul\":4950:4961   */\n      0x00\n        /* \"#utility.yul\":4987:4990   */\n      dup2\n        /* \"#utility.yul\":4972:4990   */\n      swap1\n      pop\n        /* \"#utility.yul\":4849:4996   */\n      swap3\n      swap2\n      pop\n      pop\n      jump\t// out\n        /* \"#utility.yul\":5002:5388   */\n    tag_54:\n        /* \"#utility.yul\":5106:5109   */\n      0x00\n        /* \"#utility.yul\":5134:5172   */\n      tag_127\n        /* \"#utility.yul\":5166:5171   */\n      dup3\n        /* \"#utility.yul\":5134:5172   */\n      tag_32\n      jump\t// in\n    tag_127:\n        /* \"#utility.yul\":5188:5276   */\n      tag_128\n        /* \"#utility.yul\":5269:5275   */\n      dup2\n        /* \"#utility.yul\":5264:5267   */\n      dup6\n        /* \"#utility.yul\":5188:5276   */\n      tag_53\n      jump\t// in\n    tag_128:\n        /* \"#utility.yul\":5181:5276   */\n      swap4\n      pop\n        /* \"#utility.yul\":5285:5350   */\n      tag_129\n        /* \"#utility.yul\":5343:5349   */\n      dup2\n        /* \"#utility.yul\":5338:5341   */\n      dup6\n        /* \"#utility.yul\":5331:5335   */\n      0x20\n        /* \"#utility.yul\":5324:5329   */\n      dup7\n        /* \"#utility.yul\":5320:5336   */\n      add\n        /* \"#utility.yul\":5285:5350   */\n      tag_34\n      jump\t// in\n    tag_129:\n        /* \"#utility.yul\":5375:5381   */\n      dup1\n        /* \"#utility.yul\":5370:5373   */\n      dup5\n        /* \"#utility.yul\":5366:5382   */\n      add\n        /* \"#utility.yul\":5359:5382   */\n      swap2\n      pop\n        /* \"#utility.yul\":5110:5388   */\n      pop\n        /* \"#utility.yul\":5002:5388   */\n      swap3\n      swap2\n      pop\n      pop\n      jump\t// out\n        /* \"#utility.yul\":5394:5665   */\n    tag_23:\n        /* \"#utility.yul\":5524:5527   */\n      0x00\n        /* \"#utility.yul\":5546:5639   */\n      tag_131\n        /* \"#utility.yul\":5635:5638   */\n      dup3\n        /* \"#utility.yul\":5626:5632   */\n      dup5\n        /* \"#utility.yul\":5546:5639   */\n      tag_54\n      jump\t// in\n    tag_131:\n        /* \"#utility.yul\":5539:5639   */\n      swap2\n      pop\n        /* \"#utility.yul\":5656:5659   */\n      dup2\n        /* \"#utility.yul\":5649:5659   */\n      swap1\n      pop\n        /* \"#utility.yul\":5394:5665   */\n      swap3\n      swap2\n      pop\n      pop\n      jump\t// out\n        /* \"#utility.yul\":5671:5836   */\n    tag_55:\n        /* \"#utility.yul\":5811:5828   */\n      0x63616c6c20666f6f206661696c65640000000000000000000000000000000000\n        /* \"#utility.yul\":5807:5808   */\n      0x00\n        /* \"#utility.yul\":5799:5805   */\n      dup3\n        /* \"#utility.yul\":5795:5809   */\n      add\n        /* \"#utility.yul\":5788:5829   */\n      mstore\n        /* \"#utility.yul\":5671:5836   */\n      pop\n      jump\t// out\n        /* \"#utility.yul\":5842:6208   */\n    tag_56:\n        /* \"#utility.yul\":5984:5987   */\n      0x00\n        /* \"#utility.yul\":6005:6072   */\n      tag_134\n        /* \"#utility.yul\":6069:6071   */\n      0x0f\n        /* \"#utility.yul\":6064:6067   */\n      dup4\n        /* \"#utility.yul\":6005:6072   */\n      tag_50\n      jump\t// in\n    tag_134:\n        /* \"#utility.yul\":5998:6072   */\n      swap2\n      pop\n        /* \"#utility.yul\":6081:6174   */\n      tag_135\n        /* \"#utility.yul\":6170:6173   */\n      dup3\n        /* \"#utility.yul\":6081:6174   */\n      tag_55\n      jump\t// in\n    tag_135:\n        /* \"#utility.yul\":6199:6201   */\n      0x20\n        /* \"#utility.yul\":6194:6197   */\n      dup3\n        /* \"#utility.yul\":6190:6202   */\n      add\n        /* \"#utility.yul\":6183:6202   */\n      swap1\n      pop\n        /* \"#utility.yul\":5842:6208   */\n      swap2\n      swap1\n      pop\n      jump\t// out\n        /* \"#utility.yul\":6214:6633   */\n    tag_29:\n        /* \"#utility.yul\":6380:6384   */\n      0x00\n        /* \"#utility.yul\":6418:6420   */\n      0x20\n        /* \"#utility.yul\":6407:6416   */\n      dup3\n        /* \"#utility.yul\":6403:6421   */\n      add\n        /* \"#utility.yul\":6395:6421   */\n      swap1\n      pop\n        /* \"#utility.yul\":6467:6476   */\n      dup2\n        /* \"#utility.yul\":6461:6465   */\n      dup2\n        /* \"#utility.yul\":6457:6477   */\n      sub\n        /* \"#utility.yul\":6453:6454   */\n      0x00\n        /* \"#utility.yul\":6442:6451   */\n      dup4\n        /* \"#utility.yul\":6438:6455   */\n      add\n        /* \"#utility.yul\":6431:6478   */\n      mstore\n        /* \"#utility.yul\":6495:6626   */\n      tag_137\n        /* \"#utility.yul\":6621:6625   */\n      dup2\n        /* \"#utility.yul\":6495:6626   */\n      tag_56\n      jump\t// in\n    tag_137:\n        /* \"#utility.yul\":6487:6626   */\n      swap1\n      pop\n        /* \"#utility.yul\":6214:6633   */\n      swap2\n      swap1\n      pop\n      jump\t// out\n        /* \"#utility.yul\":6639:6819   */\n    tag_57:\n        /* \"#utility.yul\":6687:6764   */\n      0x4e487b7100000000000000000000000000000000000000000000000000000000\n        /* \"#utility.yul\":6684:6685   */\n      0x00\n        /* \"#utility.yul\":6677:6765   */\n      mstore\n        /* \"#utility.yul\":6784:6788   */\n      0x41\n        /* \"#utility.yul\":6781:6782   */\n      0x04\n        /* \"#utility.yul\":6774:6789   */\n      mstore\n        /* \"#utility.yul\":6808:6812   */\n      0x24\n        /* \"#utility.yul\":6805:6806   */\n      0x00\n        /* \"#utility.yul\":6798:6813   */\n      revert\n        /* \"#utility.yul\":6825:6965   */\n    tag_58:\n        /* \"#utility.yul\":6873:6877   */\n      0x00\n        /* \"#utility.yul\":6896:6899   */\n      dup2\n        /* \"#utility.yul\":6888:6899   */\n      swap1\n      pop\n        /* \"#utility.yul\":6919:6922   */\n      dup2\n        /* \"#utility.yul\":6916:6917   */\n      0x00\n        /* \"#utility.yul\":6909:6923   */\n      mstore\n        /* \"#utility.yul\":6953:6957   */\n      0x20\n        /* \"#utility.yul\":6950:6951   */\n      0x00\n        /* \"#utility.yul\":6940:6958   */\n      keccak256\n        /* \"#utility.yul\":6932:6958   */\n      swap1\n      pop\n        /* \"#utility.yul\":6825:6965   */\n      swap2\n      swap1\n      pop\n      jump\t// out\n        /* \"#utility.yul\":6971:7064   */\n    tag_59:\n        /* \"#utility.yul\":7008:7014   */\n      0x00\n        /* \"#utility.yul\":7055:7057   */\n      0x20\n        /* \"#utility.yul\":7050:7052   */\n      0x1f\n        /* \"#utility.yul\":7043:7048   */\n      dup4\n        /* \"#utility.yul\":7039:7053   */\n      add\n        /* \"#utility.yul\":7035:7058   */\n      div\n        /* \"#utility.yul\":7025:7058   */\n      swap1\n      pop\n        /* \"#utility.yul\":6971:7064   */\n      swap2\n      swap1\n      pop\n      jump\t// out\n        /* \"#utility.yul\":7070:7177   */\n    tag_60:\n        /* \"#utility.yul\":7114:7122   */\n      0x00\n        /* \"#utility.yul\":7164:7169   */\n      dup3\n        /* \"#utility.yul\":7158:7162   */\n      dup3\n        /* \"#utility.yul\":7154:7170   */\n      shl\n        /* \"#utility.yul\":7133:7170   */\n      swap1\n      pop\n        /* \"#utility.yul\":7070:7177   */\n      swap3\n      swap2\n      pop\n      pop\n      jump\t// out\n        /* \"#utility.yul\":7183:7576   */\n    tag_61:\n        /* \"#utility.yul\":7252:7258   */\n      0x00\n        /* \"#utility.yul\":7302:7303   */\n      0x08\n        /* \"#utility.yul\":7290:7300   */\n      dup4\n        /* \"#utility.yul\":7286:7304   */\n      mul\n        /* \"#utility.yul\":7325:7422   */\n      tag_143\n        /* \"#utility.yul\":7355:7421   */\n      0xffffffffffffffffffffffffffffffffffffffffffffffffffffffffffffffff\n        /* \"#utility.yul\":7344:7353   */\n      dup3\n        /* \"#utility.yul\":7325:7422   */\n      tag_60\n      jump\t// in\n    tag_143:\n        /* \"#utility.yul\":7443:7482   */\n      tag_144\n        /* \"#utility.yul\":7473:7481   */\n      dup7\n        /* \"#utility.yul\":7462:7471   */\n      dup4\n        /* \"#utility.yul\":7443:7482   */\n      tag_60\n      jump\t// in\n    tag_144:\n        /* \"#utility.yul\":7431:7482   */\n      swap6\n      pop\n        /* \"#utility.yul\":7515:7519   */\n      dup1\n        /* \"#utility.yul\":7511:7520   */\n      not\n        /* \"#utility.yul\":7504:7509   */\n      dup5\n        /* \"#utility.yul\":7500:7521   */\n      and\n        /* \"#utility.yul\":7491:7521   */\n      swap4\n      pop\n        /* \"#utility.yul\":7564:7568   */\n      dup1\n        /* \"#utility.yul\":7554:7562   */\n      dup7\n        /* \"#utility.yul\":7550:7569   */\n      and\n        /* \"#utility.yul\":7543:7548   */\n      dup5\n        /* \"#utility.yul\":7540:7570   */\n      or\n        /* \"#utility.yul\":7530:7570   */\n      swap3\n      pop\n        /* \"#utility.yul\":7259:7576   */\n      pop\n      pop\n        /* \"#utility.yul\":7183:7576   */\n      swap4\n      swap3\n      pop\n      pop\n      pop\n      jump\t// out\n        /* \"#utility.yul\":7582:7659   */\n    tag_62:\n        /* \"#utility.yul\":7619:7626   */\n      0x00\n        /* \"#utility.yul\":7648:7653   */\n      dup2\n        /* \"#utility.yul\":7637:7653   */\n      swap1\n      pop\n        /* \"#utility.yul\":7582:7659   */\n      swap2\n      swap1\n      pop\n      jump\t// out\n        /* \"#utility.yul\":7665:7807   */\n    tag_63:\n        /* \"#utility.yul\":7715:7724   */\n      0x00\n        /* \"#utility.yul\":7748:7801   */\n      tag_147\n        /* \"#utility.yul\":7766:7800   */\n      tag_148\n        /* \"#utility.yul\":7775:7799   */\n      tag_149\n        /* \"#utility.yul\":7793:7798   */\n      dup5\n        /* \"#utility.yul\":7775:7799   */\n      tag_62\n      jump\t// in\n    tag_149:\n        /* \"#utility.yul\":7766:7800   */\n      tag_47\n      jump\t// in\n    tag_148:\n        /* \"#utility.yul\":7748:7801   */\n      tag_62\n      jump\t// in\n    tag_147:\n        /* \"#utility.yul\":7735:7801   */\n      swap1\n      pop\n        /* \"#utility.yul\":7665:7807   */\n      swap2\n      swap1\n      pop\n      jump\t// out\n        /* \"#utility.yul\":7813:7888   */\n    tag_64:\n        /* \"#utility.yul\":7856:7859   */\n      0x00\n        /* \"#utility.yul\":7877:7882   */\n      dup2\n        /* \"#utility.yul\":7870:7882   */\n      swap1\n      pop\n        /* \"#utility.yul\":7813:7888   */\n      swap2\n      swap1\n      pop\n      jump\t// out\n        /* \"#utility.yul\":7894:8163   */\n    tag_65:\n        /* \"#utility.yul\":8004:8043   */\n      tag_152\n        /* \"#utility.yul\":8035:8042   */\n      dup4\n        /* \"#utility.yul\":8004:8043   */\n      tag_63\n      jump\t// in\n    tag_152:\n        /* \"#utility.yul\":8065:8156   */\n      tag_153\n        /* \"#utility.yul\":8114:8155   */\n      tag_154\n        /* \"#utility.yul\":8138:8154   */\n      dup3\n        /* \"#utility.yul\":8114:8155   */\n      tag_64\n      jump\t// in\n    tag_154:\n        /* \"#utility.yul\":8106:8112   */\n      dup5\n        /* \"#utility.yul\":8099:8103   */\n      dup5\n        /* \"#utility.yul\":8093:8104   */\n      sload\n        /* \"#utility.yul\":8065:8156   */\n      tag_61\n      jump\t// in\n    tag_153:\n        /* \"#utility.yul\":8059:8063   */\n      dup3\n        /* \"#utility.yul\":8052:8157   */\n      sstore\n        /* \"#utility.yul\":7970:8163   */\n      pop\n        /* \"#utility.yul\":7894:8163   */\n      pop\n      pop\n      pop\n      jump\t// out\n        /* \"#utility.yul\":8169:8242   */\n    tag_66:\n        /* \"#utility.yul\":8214:8217   */\n      0x00\n        /* \"#utility.yul\":8169:8242   */\n      swap1\n      jump\t// out\n        /* \"#utility.yul\":8248:8437   */\n    tag_67:\n        /* \"#utility.yul\":8325:8357   */\n      tag_157\n      tag_66\n      jump\t// in\n    tag_157:\n        /* \"#utility.yul\":8366:8431   */\n      tag_158\n        /* \"#utility.yul\":8424:8430   */\n      dup2\n        /* \"#utility.yul\":8416:8422   */\n      dup5\n        /* \"#utility.yul\":8410:8414   */\n      dup5\n        /* \"#utility.yul\":8366:8431   */\n      tag_65\n      jump\t// in\n    tag_158:\n        /* \"#utility.yul\":8301:8437   */\n      pop\n        /* \"#utility.yul\":8248:8437   */\n      pop\n      pop\n      jump\t// out\n        /* \"#utility.yul\":8443:8629   */\n    tag_68:\n        /* \"#utility.yul\":8503:8623   */\n    tag_160:\n        /* \"#utility.yul\":8520:8523   */\n      dup2\n        /* \"#utility.yul\":8513:8518   */\n      dup2\n        /* \"#utility.yul\":8510:8524   */\n      lt\n        /* \"#utility.yul\":8503:8623   */\n      iszero\n      tag_162\n      jumpi\n        /* \"#utility.yul\":8574:8613   */\n      tag_163\n        /* \"#utility.yul\":8611:8612   */\n      0x00\n        /* \"#utility.yul\":8604:8609   */\n      dup3\n        /* \"#utility.yul\":8574:8613   */\n      tag_67\n      jump\t// in\n    tag_163:\n        /* \"#utility.yul\":8547:8548   */\n      0x01\n        /* \"#utility.yul\":8540:8545   */\n      dup2\n        /* \"#utility.yul\":8536:8549   */\n      add\n        /* \"#utility.yul\":8527:8549   */\n      swap1\n      pop\n        /* \"#utility.yul\":8503:8623   */\n      jump(tag_160)\n    tag_162:\n        /* \"#utility.yul\":8443:8629   */\n      pop\n      pop\n      jump\t// out\n        /* \"#utility.yul\":8635:9176   */\n    tag_69:\n        /* \"#utility.yul\":8735:8737   */\n      0x1f\n        /* \"#utility.yul\":8730:8733   */\n      dup3\n        /* \"#utility.yul\":8727:8738   */\n      gt\n        /* \"#utility.yul\":8724:9169   */\n      iszero\n      tag_165\n      jumpi\n        /* \"#utility.yul\":8769:8806   */\n      tag_166\n        /* \"#utility.yul\":8800:8805   */\n      dup2\n        /* \"#utility.yul\":8769:8806   */\n      tag_58\n      jump\t// in\n    tag_166:\n        /* \"#utility.yul\":8852:8881   */\n      tag_167\n        /* \"#utility.yul\":8870:8880   */\n      dup5\n        /* \"#utility.yul\":8852:8881   */\n      tag_59\n      jump\t// in\n    tag_167:\n        /* \"#utility.yul\":8842:8850   */\n      dup2\n        /* \"#utility.yul\":8838:8882   */\n      add\n        /* \"#utility.yul\":9035:9037   */\n      0x20\n        /* \"#utility.yul\":9023:9033   */\n      dup6\n        /* \"#utility.yul\":9020:9038   */\n      lt\n        /* \"#utility.yul\":9017:9066   */\n      iszero\n      tag_168\n      jumpi\n        /* \"#utility.yul\":9056:9064   */\n      dup2\n        /* \"#utility.yul\":9041:9064   */\n      swap1\n      pop\n        /* \"#utility.yul\":9017:9066   */\n    tag_168:\n        /* \"#utility.yul\":9079:9159   */\n      tag_169\n        /* \"#utility.yul\":9135:9157   */\n      tag_170\n        /* \"#utility.yul\":9153:9156   */\n      dup6\n        /* \"#utility.yul\":9135:9157   */\n      tag_59\n      jump\t// in\n    tag_170:\n        /* \"#utility.yul\":9125:9133   */\n      dup4\n        /* \"#utility.yul\":9121:9158   */\n      add\n        /* \"#utility.yul\":9108:9119   */\n      dup3\n        /* \"#utility.yul\":9079:9159   */\n      tag_68\n      jump\t// in\n    tag_169:\n        /* \"#utility.yul\":8739:9169   */\n      pop\n      pop\n        /* \"#utility.yul\":8724:9169   */\n    tag_165:\n        /* \"#utility.yul\":8635:9176   */\n      pop\n      pop\n      pop\n      jump\t// out\n        /* \"#utility.yul\":9182:9299   */\n    tag_70:\n        /* \"#utility.yul\":9236:9244   */\n      0x00\n        /* \"#utility.yul\":9286:9291   */\n      dup3\n        /* \"#utility.yul\":9280:9284   */\n      dup3\n        /* \"#utility.yul\":9276:9292   */\n      shr\n        /* \"#utility.yul\":9255:9292   */\n      swap1\n      pop\n        /* \"#utility.yul\":9182:9299   */\n      swap3\n      swap2\n      pop\n      pop\n      jump\t// out\n        /* \"#utility.yul\":9305:9474   */\n    tag_71:\n        /* \"#utility.yul\":9349:9355   */\n      0x00\n        /* \"#utility.yul\":9382:9433   */\n      tag_173\n        /* \"#utility.yul\":9430:9431   */\n      0x00\n        /* \"#utility.yul\":9426:9432   */\n      not\n        /* \"#utility.yul\":9418:9423   */\n      dup5\n        /* \"#utility.yul\":9415:9416   */\n      0x08\n        /* \"#utility.yul\":9411:9424   */\n      mul\n        /* \"#utility.yul\":9382:9433   */\n      tag_70\n      jump\t// in\n    tag_173:\n        /* \"#utility.yul\":9378:9434   */\n      not\n        /* \"#utility.yul\":9463:9467   */\n      dup1\n        /* \"#utility.yul\":9457:9461   */\n      dup4\n        /* \"#utility.yul\":9453:9468   */\n      and\n        /* \"#utility.yul\":9443:9468   */\n      swap2\n      pop\n        /* \"#utility.yul\":9356:9474   */\n      pop\n        /* \"#utility.yul\":9305:9474   */\n      swap3\n      swap2\n      pop\n      pop\n      jump\t// out\n        /* \"#utility.yul\":9479:9774   */\n    tag_72:\n        /* \"#utility.yul\":9555:9559   */\n      0x00\n        /* \"#utility.yul\":9701:9730   */\n      tag_175\n        /* \"#utility.yul\":9726:9729   */\n      dup4\n        /* \"#utility.yul\":9720:9724   */\n      dup4\n        /* \"#utility.yul\":9701:9730   */\n      tag_71\n      jump\t// in\n    tag_175:\n        /* \"#utility.yul\":9693:9730   */\n      swap2\n      pop\n        /* \"#utility.yul\":9763:9766   */\n      dup3\n        /* \"#utility.yul\":9760:9761   */\n      0x02\n        /* \"#utility.yul\":9756:9767   */\n      mul\n        /* \"#utility.yul\":9750:9754   */\n      dup3\n        /* \"#utility.yul\":9747:9768   */\n      or\n        /* \"#utility.yul\":9739:9768   */\n      swap1\n      pop\n        /* \"#utility.yul\":9479:9774   */\n      swap3\n      swap2\n      pop\n      pop\n      jump\t// out\n        /* \"#utility.yul\":9779:11169   */\n    tag_31:\n        /* \"#utility.yul\":9894:9930   */\n      tag_177\n        /* \"#utility.yul\":9926:9929   */\n      dup3\n        /* \"#utility.yul\":9894:9930   */\n      tag_32\n      jump\t// in\n    tag_177:\n        /* \"#utility.yul\":9995:10013   */\n      0xffffffffffffffff\n        /* \"#utility.yul\":9987:9993   */\n      dup2\n        /* \"#utility.yul\":9984:10014   */\n      gt\n        /* \"#utility.yul\":9981:10037   */\n      iszero\n      tag_178\n      jumpi\n        /* \"#utility.yul\":10017:10035   */\n      tag_179\n      tag_57\n      jump\t// in\n    tag_179:\n        /* \"#utility.yul\":9981:10037   */\n    tag_178:\n        /* \"#utility.yul\":10061:10099   */\n      tag_180\n        /* \"#utility.yul\":10093:10097   */\n      dup3\n        /* \"#utility.yul\":10087:10098   */\n      sload\n        /* \"#utility.yul\":10061:10099   */\n      tag_14\n      jump\t// in\n    tag_180:\n        /* \"#utility.yul\":10146:10212   */\n      tag_181\n        /* \"#utility.yul\":10205:10211   */\n      dup3\n        /* \"#utility.yul\":10197:10203   */\n      dup3\n        /* \"#utility.yul\":10191:10195   */\n      dup6\n        /* \"#utility.yul\":10146:10212   */\n      tag_69\n      jump\t// in\n    tag_181:\n        /* \"#utility.yul\":10239:10240   */\n      0x00\n        /* \"#utility.yul\":10263:10267   */\n      0x20\n        /* \"#utility.yul\":10250:10267   */\n      swap1\n      pop\n        /* \"#utility.yul\":10295:10297   */\n      0x1f\n        /* \"#utility.yul\":10287:10293   */\n      dup4\n        /* \"#utility.yul\":10284:10298   */\n      gt\n        /* \"#utility.yul\":10312:10313   */\n      0x01\n        /* \"#utility.yul\":10307:10924   */\n      dup2\n      eq\n      tag_183\n      jumpi\n        /* \"#utility.yul\":10968:10969   */\n      0x00\n        /* \"#utility.yul\":10985:10991   */\n      dup5\n        /* \"#utility.yul\":10982:11059   */\n      iszero\n      tag_184\n      jumpi\n        /* \"#utility.yul\":11034:11043   */\n      dup3\n        /* \"#utility.yul\":11029:11032   */\n      dup8\n        /* \"#utility.yul\":11025:11044   */\n      add\n        /* \"#utility.yul\":11019:11045   */\n      mload\n        /* \"#utility.yul\":11010:11045   */\n      swap1\n      pop\n        /* \"#utility.yul\":10982:11059   */\n    tag_184:\n        /* \"#utility.yul\":11085:11152   */\n      tag_185\n        /* \"#utility.yul\":11145:11151   */\n      dup6\n        /* \"#utility.yul\":11138:11143   */\n      dup3\n        /* \"#utility.yul\":11085:11152   */\n      tag_72\n      jump\t// in\n    tag_185:\n        /* \"#utility.yul\":11079:11083   */\n      dup7\n        /* \"#utility.yul\":11072:11153   */\n      sstore\n        /* \"#utility.yul\":10941:11163   */\n      pop\n        /* \"#utility.yul\":10277:11163   */\n      jump(tag_182)\n        /* \"#utility.yul\":10307:10924   */\n    tag_183:\n        /* \"#utility.yul\":10359:10363   */\n      0x1f\n        /* \"#utility.yul\":10355:10364   */\n      not\n        /* \"#utility.yul\":10347:10353   */\n      dup5\n        /* \"#utility.yul\":10343:10365   */\n      and\n        /* \"#utility.yul\":10393:10429   */\n      tag_186\n        /* \"#utility.yul\":10424:10428   */\n      dup7\n        /* \"#utility.yul\":10393:10429   */\n      tag_58\n      jump\t// in\n    tag_186:\n        /* \"#utility.yul\":10451:10452   */\n      0x00\n        /* \"#utility.yul\":10465:10673   */\n    tag_187:\n        /* \"#utility.yul\":10479:10486   */\n      dup3\n        /* \"#utility.yul\":10476:10477   */\n      dup2\n        /* \"#utility.yul\":10473:10487   */\n      lt\n        /* \"#utility.yul\":10465:10673   */\n      iszero\n      tag_189\n      jumpi\n        /* \"#utility.yul\":10558:10567   */\n      dup5\n        /* \"#utility.yul\":10553:10556   */\n      dup10\n        /* \"#utility.yul\":10549:10568   */\n      add\n        /* \"#utility.yul\":10543:10569   */\n      mload\n        /* \"#utility.yul\":10535:10541   */\n      dup3\n        /* \"#utility.yul\":10528:10570   */\n      sstore\n        /* \"#utility.yul\":10609:10610   */\n      0x01\n        /* \"#utility.yul\":10601:10607   */\n      dup3\n        /* \"#utility.yul\":10597:10611   */\n      add\n        /* \"#utility.yul\":10587:10611   */\n      swap2\n      pop\n        /* \"#utility.yul\":10656:10658   */\n      0x20\n        /* \"#utility.yul\":10645:10654   */\n      dup6\n        /* \"#utility.yul\":10641:10659   */\n      add\n        /* \"#utility.yul\":10628:10659   */\n      swap5\n      pop\n        /* \"#utility.yul\":10502:10506   */\n      0x20\n        /* \"#utility.yul\":10499:10500   */\n      dup2\n        /* \"#utility.yul\":10495:10507   */\n      add\n        /* \"#utility.yul\":10490:10507   */\n      swap1\n      pop\n        /* \"#utility.yul\":10465:10673   */\n      jump(tag_187)\n    tag_189:\n        /* \"#utility.yul\":10701:10707   */\n      dup7\n        /* \"#utility.yul\":10692:10699   */\n      dup4\n        /* \"#utility.yul\":10689:10708   */\n      lt\n        /* \"#utility.yul\":10686:10865   */\n      iszero\n      tag_190\n      jumpi\n        /* \"#utility.yul\":10759:10768   */\n      dup5\n        /* \"#utility.yul\":10754:10757   */\n      dup10\n        /* \"#utility.yul\":10750:10769   */\n      add\n        /* \"#utility.yul\":10744:10770   */\n      mload\n        /* \"#utility.yul\":10802:10850   */\n      tag_191\n        /* \"#utility.yul\":10844:10848   */\n      0x1f\n        /* \"#utility.yul\":10836:10842   */\n      dup10\n        /* \"#utility.yul\":10832:10849   */\n      and\n        /* \"#utility.yul\":10821:10830   */\n      dup3\n        /* \"#utility.yul\":10802:10850   */\n      tag_71\n      jump\t// in\n    tag_191:\n        /* \"#utility.yul\":10794:10800   */\n      dup4\n        /* \"#utility.yul\":10787:10851   */\n      sstore\n        /* \"#utility.yul\":10709:10865   */\n      pop\n        /* \"#utility.yul\":10686:10865   */\n    tag_190:\n        /* \"#utility.yul\":10911:10912   */\n      0x01\n        /* \"#utility.yul\":10907:10908   */\n      0x02\n        /* \"#utility.yul\":10899:10905   */\n      dup9\n        /* \"#utility.yul\":10895:10909   */\n      mul\n        /* \"#utility.yul\":10891:10913   */\n      add\n        /* \"#utility.yul\":10885:10889   */\n      dup9\n        /* \"#utility.yul\":10878:10914   */\n      sstore\n        /* \"#utility.yul\":10314:10924   */\n      pop\n      pop\n      pop\n        /* \"#utility.yul\":10277:11163   */\n    tag_182:\n      pop\n        /* \"#utility.yul\":9869:11169   */\n      pop\n      pop\n      pop\n        /* \"#utility.yul\":9779:11169   */\n      pop\n      pop\n      jump\t// out\n\n    auxdata: 0xa2646970667358221220995a763e20f7353c864b16279879fd5b7fc2fcc70f344f41b10a09b7b213d0c864736f6c63430008170033\n}\n",
				"bytecode": {
					"linkReferences": {},
					"object": "608060405234801561000f575f80fd5b506108378061001d5f395ff3fe608060405260043610610028575f3560e01c8063e5aa3d581461002c578063edcbe76c14610056575b5f80fd5b348015610037575f80fd5b50610040610072565b60405161004d91906102d6565b60405180910390f35b610070600480360381019061006b9190610354565b6100fd565b005b5f805461007e906103ac565b80601f01602080910402602001604051908101604052809291908181526020018280546100aa906103ac565b80156100f55780601f106100cc576101008083540402835291602001916100f5565b820191905f5260205f20905b8154815290600101906020018083116100d857829003601f168201915b505050505081565b5f808273ffffffffffffffffffffffffffffffffffffffff16606f607b60405160240161012a9190610484565b6040516020818303038152906040527fc5d1c995000000000000000000000000000000000000000000000000000000007bffffffffffffffffffffffffffffffffffffffffffffffffffffffff19166020820180517bffffffffffffffffffffffffffffffffffffffffffffffffffffffff83818316178352505050506040516101b491906104ea565b5f6040518083038185875af1925050503d805f81146101ee576040519150601f19603f3d011682016040523d82523d5f602084013e6101f3565b606091505b509150915081610238576040517f08c379a000000000000000000000000000000000000000000000000000000000815260040161022f9061054a565b60405180910390fd5b805f90816102469190610732565b50505050565b5f81519050919050565b5f82825260208201905092915050565b5f5b83811015610283578082015181840152602081019050610268565b5f8484015250505050565b5f601f19601f8301169050919050565b5f6102a88261024c565b6102b28185610256565b93506102c2818560208601610266565b6102cb8161028e565b840191505092915050565b5f6020820190508181035f8301526102ee818461029e565b905092915050565b5f80fd5b5f73ffffffffffffffffffffffffffffffffffffffff82169050919050565b5f610323826102fa565b9050919050565b61033381610319565b811461033d575f80fd5b50565b5f8135905061034e8161032a565b92915050565b5f60208284031215610369576103686102f6565b5b5f61037684828501610340565b91505092915050565b7f4e487b71000000000000000000000000000000000000000000000000000000005f52602260045260245ffd5b5f60028204905060018216806103c357607f821691505b6020821081036103d6576103d561037f565b5b50919050565b5f819050919050565b5f60ff82169050919050565b5f819050919050565b5f61041461040f61040a846103dc565b6103f1565b6103e5565b9050919050565b610424816103fa565b82525050565b5f82825260208201905092915050565b7f63616c6c20666f6f0000000000000000000000000000000000000000000000005f82015250565b5f61046e60088361042a565b91506104798261043a565b602082019050919050565b5f6040820190506104975f83018461041b565b81810360208301526104a881610462565b905092915050565b5f81905092915050565b5f6104c48261024c565b6104ce81856104b0565b93506104de818560208601610266565b80840191505092915050565b5f6104f582846104ba565b915081905092915050565b7f63616c6c20666f6f206661696c656400000000000000000000000000000000005f82015250565b5f610534600f8361042a565b915061053f82610500565b602082019050919050565b5f6020820190508181035f83015261056181610528565b9050919050565b7f4e487b71000000000000000000000000000000000000000000000000000000005f52604160045260245ffd5b5f819050815f5260205f209050919050565b5f6020601f8301049050919050565b5f82821b905092915050565b5f600883026105f17fffffffffffffffffffffffffffffffffffffffffffffffffffffffffffffffff826105b6565b6105fb86836105b6565b95508019841693508086168417925050509392505050565b5f819050919050565b5f61063661063161062c84610613565b6103f1565b610613565b9050919050565b5f819050919050565b61064f8361061c565b61066361065b8261063d565b8484546105c2565b825550505050565b5f90565b61067761066b565b610682818484610646565b505050565b5b818110156106a55761069a5f8261066f565b600181019050610688565b5050565b601f8211156106ea576106bb81610595565b6106c4846105a7565b810160208510156106d3578190505b6106e76106df856105a7565b830182610687565b50505b505050565b5f82821c905092915050565b5f61070a5f19846008026106ef565b1980831691505092915050565b5f61072283836106fb565b9150826002028217905092915050565b61073b8261024c565b67ffffffffffffffff81111561075457610753610568565b5b61075e82546103ac565b6107698282856106a9565b5f60209050601f83116001811461079a575f8415610788578287015190505b6107928582610717565b8655506107f9565b601f1984166107a886610595565b5f5b828110156107cf578489015182556001820191506020850194506020810190506107aa565b868310156107ec57848901516107e8601f8916826106fb565b8355505b6001600288020188555050505b50505050505056fea2646970667358221220995a763e20f7353c864b16279879fd5b7fc2fcc70f344f41b10a09b7b213d0c864736f6c63430008170033",
					"opcodes": "PUSH1 0x80 PUSH1 0x40 MSTORE CALLVALUE DUP1 ISZERO PUSH2 0xF JUMPI PUSH0 DUP1 REVERT JUMPDEST POP PUSH2 0x837 DUP1 PUSH2 0x1D PUSH0 CODECOPY PUSH0 RETURN INVALID PUSH1 0x80 PUSH1 0x40 MSTORE PUSH1 0x4 CALLDATASIZE LT PUSH2 0x28 JUMPI PUSH0 CALLDATALOAD PUSH1 0xE0 SHR DUP1 PUSH4 0xE5AA3D58 EQ PUSH2 0x2C JUMPI DUP1 PUSH4 0xEDCBE76C EQ PUSH2 0x56 JUMPI JUMPDEST PUSH0 DUP1 REVERT JUMPDEST CALLVALUE DUP1 ISZERO PUSH2 0x37 JUMPI PUSH0 DUP1 REVERT JUMPDEST POP PUSH2 0x40 PUSH2 0x72 JUMP JUMPDEST PUSH1 0x40 MLOAD PUSH2 0x4D SWAP2 SWAP1 PUSH2 0x2D6 JUMP JUMPDEST PUSH1 0x40 MLOAD DUP1 SWAP2 SUB SWAP1 RETURN JUMPDEST PUSH2 0x70 PUSH1 0x4 DUP1 CALLDATASIZE SUB DUP2 ADD SWAP1 PUSH2 0x6B SWAP2 SWAP1 PUSH2 0x354 JUMP JUMPDEST PUSH2 0xFD JUMP JUMPDEST STOP JUMPDEST PUSH0 DUP1 SLOAD PUSH2 0x7E SWAP1 PUSH2 0x3AC JUMP JUMPDEST DUP1 PUSH1 0x1F ADD PUSH1 0x20 DUP1 SWAP2 DIV MUL PUSH1 0x20 ADD PUSH1 0x40 MLOAD SWAP1 DUP2 ADD PUSH1 0x40 MSTORE DUP1 SWAP3 SWAP2 SWAP1 DUP2 DUP2 MSTORE PUSH1 0x20 ADD DUP3 DUP1 SLOAD PUSH2 0xAA SWAP1 PUSH2 0x3AC JUMP JUMPDEST DUP1 ISZERO PUSH2 0xF5 JUMPI DUP1 PUSH1 0x1F LT PUSH2 0xCC JUMPI PUSH2 0x100 DUP1 DUP4 SLOAD DIV MUL DUP4 MSTORE SWAP2 PUSH1 0x20 ADD SWAP2 PUSH2 0xF5 JUMP JUMPDEST DUP3 ADD SWAP2 SWAP1 PUSH0 MSTORE PUSH1 0x20 PUSH0 KECCAK256 SWAP1 JUMPDEST DUP2 SLOAD DUP2 MSTORE SWAP1 PUSH1 0x1 ADD SWAP1 PUSH1 0x20 ADD DUP1 DUP4 GT PUSH2 0xD8 JUMPI DUP3 SWAP1 SUB PUSH1 0x1F AND DUP3 ADD SWAP2 JUMPDEST POP POP POP POP POP DUP2 JUMP JUMPDEST PUSH0 DUP1 DUP3 PUSH20 0xFFFFFFFFFFFFFFFFFFFFFFFFFFFFFFFFFFFFFFFF AND PUSH1 0x6F PUSH1 0x7B PUSH1 0x40 MLOAD PUSH1 0x24 ADD PUSH2 0x12A SWAP2 SWAP1 PUSH2 0x484 JUMP JUMPDEST PUSH1 0x40 MLOAD PUSH1 0x20 DUP2 DUP4 SUB SUB DUP2 MSTORE SWAP1 PUSH1 0x40 MSTORE PUSH32 0xC5D1C99500000000000000000000000000000000000000000000000000000000 PUSH28 0xFFFFFFFFFFFFFFFFFFFFFFFFFFFFFFFFFFFFFFFFFFFFFFFFFFFFFFFF NOT AND PUSH1 0x20 DUP3 ADD DUP1 MLOAD PUSH28 0xFFFFFFFFFFFFFFFFFFFFFFFFFFFFFFFFFFFFFFFFFFFFFFFFFFFFFFFF DUP4 DUP2 DUP4 AND OR DUP4 MSTORE POP POP POP POP PUSH1 0x40 MLOAD PUSH2 0x1B4 SWAP2 SWAP1 PUSH2 0x4EA JUMP JUMPDEST PUSH0 PUSH1 0x40 MLOAD DUP1 DUP4 SUB DUP2 DUP6 DUP8 GAS CALL SWAP3 POP POP POP RETURNDATASIZE DUP1 PUSH0 DUP2 EQ PUSH2 0x1EE JUMPI PUSH1 0x40 MLOAD SWAP2 POP PUSH1 0x1F NOT PUSH1 0x3F RETURNDATASIZE ADD AND DUP3 ADD PUSH1 0x40 MSTORE RETURNDATASIZE DUP3 MSTORE RETURNDATASIZE PUSH0 PUSH1 0x20 DUP5 ADD RETURNDATACOPY PUSH2 0x1F3 JUMP JUMPDEST PUSH1 0x60 SWAP2 POP JUMPDEST POP SWAP2 POP SWAP2 POP DUP2 PUSH2 0x238 JUMPI PUSH1 0x40 MLOAD PUSH32 0x8C379A000000000000000000000000000000000000000000000000000000000 DUP2 MSTORE PUSH1 0x4 ADD PUSH2 0x22F SWAP1 PUSH2 0x54A JUMP JUMPDEST PUSH1 0x40 MLOAD DUP1 SWAP2 SUB SWAP1 REVERT JUMPDEST DUP1 PUSH0 SWAP1 DUP2 PUSH2 0x246 SWAP2 SWAP1 PUSH2 0x732 JUMP JUMPDEST POP POP POP POP JUMP JUMPDEST PUSH0 DUP2 MLOAD SWAP1 POP SWAP2 SWAP1 POP JUMP JUMPDEST PUSH0 DUP3 DUP3 MSTORE PUSH1 0x20 DUP3 ADD SWAP1 POP SWAP3 SWAP2 POP POP JUMP JUMPDEST PUSH0 JUMPDEST DUP4 DUP2 LT ISZERO PUSH2 0x283 JUMPI DUP1 DUP3 ADD MLOAD DUP2 DUP5 ADD MSTORE PUSH1 0x20 DUP2 ADD SWAP1 POP PUSH2 0x268 JUMP JUMPDEST PUSH0 DUP5 DUP5 ADD MSTORE POP POP POP POP JUMP JUMPDEST PUSH0 PUSH1 0x1F NOT PUSH1 0x1F DUP4 ADD AND SWAP1 POP SWAP2 SWAP1 POP JUMP JUMPDEST PUSH0 PUSH2 0x2A8 DUP3 PUSH2 0x24C JUMP JUMPDEST PUSH2 0x2B2 DUP2 DUP6 PUSH2 0x256 JUMP JUMPDEST SWAP4 POP PUSH2 0x2C2 DUP2 DUP6 PUSH1 0x20 DUP7 ADD PUSH2 0x266 JUMP JUMPDEST PUSH2 0x2CB DUP2 PUSH2 0x28E JUMP JUMPDEST DUP5 ADD SWAP2 POP POP SWAP3 SWAP2 POP POP JUMP JUMPDEST PUSH0 PUSH1 0x20 DUP3 ADD SWAP1 POP DUP2 DUP2 SUB PUSH0 DUP4 ADD MSTORE PUSH2 0x2EE DUP2 DUP5 PUSH2 0x29E JUMP JUMPDEST SWAP1 POP SWAP3 SWAP2 POP POP JUMP JUMPDEST PUSH0 DUP1 REVERT JUMPDEST PUSH0 PUSH20 0xFFFFFFFFFFFFFFFFFFFFFFFFFFFFFFFFFFFFFFFF DUP3 AND SWAP1 POP SWAP2 SWAP1 POP JUMP JUMPDEST PUSH0 PUSH2 0x323 DUP3 PUSH2 0x2FA JUMP JUMPDEST SWAP1 POP SWAP2 SWAP1 POP JUMP JUMPDEST PUSH2 0x333 DUP2 PUSH2 0x319 JUMP JUMPDEST DUP2 EQ PUSH2 0x33D JUMPI PUSH0 DUP1 REVERT JUMPDEST POP JUMP JUMPDEST PUSH0 DUP2 CALLDATALOAD SWAP1 POP PUSH2 0x34E DUP2 PUSH2 0x32A JUMP JUMPDEST SWAP3 SWAP2 POP POP JUMP JUMPDEST PUSH0 PUSH1 0x20 DUP3 DUP5 SUB SLT ISZERO PUSH2 0x369 JUMPI PUSH2 0x368 PUSH2 0x2F6 JUMP JUMPDEST JUMPDEST PUSH0 PUSH2 0x376 DUP5 DUP3 DUP6 ADD PUSH2 0x340 JUMP JUMPDEST SWAP2 POP POP SWAP3 SWAP2 POP POP JUMP JUMPDEST PUSH32 0x4E487B7100000000000000000000000000000000000000000000000000000000 PUSH0 MSTORE PUSH1 0x22 PUSH1 0x4 MSTORE PUSH1 0x24 PUSH0 REVERT JUMPDEST PUSH0 PUSH1 0x2 DUP3 DIV SWAP1 POP PUSH1 0x1 DUP3 AND DUP1 PUSH2 0x3C3 JUMPI PUSH1 0x7F DUP3 AND SWAP2 POP JUMPDEST PUSH1 0x20 DUP3 LT DUP2 SUB PUSH2 0x3D6 JUMPI PUSH2 0x3D5 PUSH2 0x37F JUMP JUMPDEST JUMPDEST POP SWAP2 SWAP1 POP JUMP JUMPDEST PUSH0 DUP2 SWAP1 POP SWAP2 SWAP1 POP JUMP JUMPDEST PUSH0 PUSH1 0xFF DUP3 AND SWAP1 POP SWAP2 SWAP1 POP JUMP JUMPDEST PUSH0 DUP2 SWAP1 POP SWAP2 SWAP1 POP JUMP JUMPDEST PUSH0 PUSH2 0x414 PUSH2 0x40F PUSH2 0x40A DUP5 PUSH2 0x3DC JUMP JUMPDEST PUSH2 0x3F1 JUMP JUMPDEST PUSH2 0x3E5 JUMP JUMPDEST SWAP1 POP SWAP2 SWAP1 POP JUMP JUMPDEST PUSH2 0x424 DUP2 PUSH2 0x3FA JUMP JUMPDEST DUP3 MSTORE POP POP JUMP JUMPDEST PUSH0 DUP3 DUP3 MSTORE PUSH1 0x20 DUP3 ADD SWAP1 POP SWAP3 SWAP2 POP POP JUMP JUMPDEST PUSH32 0x63616C6C20666F6F000000000000000000000000000000000000000000000000 PUSH0 DUP3 ADD MSTORE POP JUMP JUMPDEST PUSH0 PUSH2 0x46E PUSH1 0x8 DUP4 PUSH2 0x42A JUMP JUMPDEST SWAP2 POP PUSH2 0x479 DUP3 PUSH2 0x43A JUMP JUMPDEST PUSH1 0x20 DUP3 ADD SWAP1 POP SWAP2 SWAP1 POP JUMP JUMPDEST PUSH0 PUSH1 0x40 DUP3 ADD SWAP1 POP PUSH2 0x497 PUSH0 DUP4 ADD DUP5 PUSH2 0x41B JUMP JUMPDEST DUP2 DUP2 SUB PUSH1 0x20 DUP4 ADD MSTORE PUSH2 0x4A8 DUP2 PUSH2 0x462 JUMP JUMPDEST SWAP1 POP SWAP3 SWAP2 POP POP JUMP JUMPDEST PUSH0 DUP2 SWAP1 POP SWAP3 SWAP2 POP POP JUMP JUMPDEST PUSH0 PUSH2 0x4C4 DUP3 PUSH2 0x24C JUMP JUMPDEST PUSH2 0x4CE DUP2 DUP6 PUSH2 0x4B0 JUMP JUMPDEST SWAP4 POP PUSH2 0x4DE DUP2 DUP6 PUSH1 0x20 DUP7 ADD PUSH2 0x266 JUMP JUMPDEST DUP1 DUP5 ADD SWAP2 POP POP SWAP3 SWAP2 POP POP JUMP JUMPDEST PUSH0 PUSH2 0x4F5 DUP3 DUP5 PUSH2 0x4BA JUMP JUMPDEST SWAP2 POP DUP2 SWAP1 POP SWAP3 SWAP2 POP POP JUMP JUMPDEST PUSH32 0x63616C6C20666F6F206661696C65640000000000000000000000000000000000 PUSH0 DUP3 ADD MSTORE POP JUMP JUMPDEST PUSH0 PUSH2 0x534 PUSH1 0xF DUP4 PUSH2 0x42A JUMP JUMPDEST SWAP2 POP PUSH2 0x53F DUP3 PUSH2 0x500 JUMP JUMPDEST PUSH1 0x20 DUP3 ADD SWAP1 POP SWAP2 SWAP1 POP JUMP JUMPDEST PUSH0 PUSH1 0x20 DUP3 ADD SWAP1 POP DUP2 DUP2 SUB PUSH0 DUP4 ADD MSTORE PUSH2 0x561 DUP2 PUSH2 0x528 JUMP JUMPDEST SWAP1 POP SWAP2 SWAP1 POP JUMP JUMPDEST PUSH32 0x4E487B7100000000000000000000000000000000000000000000000000000000 PUSH0 MSTORE PUSH1 0x41 PUSH1 0x4 MSTORE PUSH1 0x24 PUSH0 REVERT JUMPDEST PUSH0 DUP2 SWAP1 POP DUP2 PUSH0 MSTORE PUSH1 0x20 PUSH0 KECCAK256 SWAP1 POP SWAP2 SWAP1 POP JUMP JUMPDEST PUSH0 PUSH1 0x20 PUSH1 0x1F DUP4 ADD DIV SWAP1 POP SWAP2 SWAP1 POP JUMP JUMPDEST PUSH0 DUP3 DUP3 SHL SWAP1 POP SWAP3 SWAP2 POP POP JUMP JUMPDEST PUSH0 PUSH1 0x8 DUP4 MUL PUSH2 0x5F1 PUSH32 0xFFFFFFFFFFFFFFFFFFFFFFFFFFFFFFFFFFFFFFFFFFFFFFFFFFFFFFFFFFFFFFFF DUP3 PUSH2 0x5B6 JUMP JUMPDEST PUSH2 0x5FB DUP7 DUP4 PUSH2 0x5B6 JUMP JUMPDEST SWAP6 POP DUP1 NOT DUP5 AND SWAP4 POP DUP1 DUP7 AND DUP5 OR SWAP3 POP POP POP SWAP4 SWAP3 POP POP POP JUMP JUMPDEST PUSH0 DUP2 SWAP1 POP SWAP2 SWAP1 POP JUMP JUMPDEST PUSH0 PUSH2 0x636 PUSH2 0x631 PUSH2 0x62C DUP5 PUSH2 0x613 JUMP JUMPDEST PUSH2 0x3F1 JUMP JUMPDEST PUSH2 0x613 JUMP JUMPDEST SWAP1 POP SWAP2 SWAP1 POP JUMP JUMPDEST PUSH0 DUP2 SWAP1 POP SWAP2 SWAP1 POP JUMP JUMPDEST PUSH2 0x64F DUP4 PUSH2 0x61C JUMP JUMPDEST PUSH2 0x663 PUSH2 0x65B DUP3 PUSH2 0x63D JUMP JUMPDEST DUP5 DUP5 SLOAD PUSH2 0x5C2 JUMP JUMPDEST DUP3 SSTORE POP POP POP POP JUMP JUMPDEST PUSH0 SWAP1 JUMP JUMPDEST PUSH2 0x677 PUSH2 0x66B JUMP JUMPDEST PUSH2 0x682 DUP2 DUP5 DUP5 PUSH2 0x646 JUMP JUMPDEST POP POP POP JUMP JUMPDEST JUMPDEST DUP2 DUP2 LT ISZERO PUSH2 0x6A5 JUMPI PUSH2 0x69A PUSH0 DUP3 PUSH2 0x66F JUMP JUMPDEST PUSH1 0x1 DUP2 ADD SWAP1 POP PUSH2 0x688 JUMP JUMPDEST POP POP JUMP JUMPDEST PUSH1 0x1F DUP3 GT ISZERO PUSH2 0x6EA JUMPI PUSH2 0x6BB DUP2 PUSH2 0x595 JUMP JUMPDEST PUSH2 0x6C4 DUP5 PUSH2 0x5A7 JUMP JUMPDEST DUP2 ADD PUSH1 0x20 DUP6 LT ISZERO PUSH2 0x6D3 JUMPI DUP2 SWAP1 POP JUMPDEST PUSH2 0x6E7 PUSH2 0x6DF DUP6 PUSH2 0x5A7 JUMP JUMPDEST DUP4 ADD DUP3 PUSH2 0x687 JUMP JUMPDEST POP POP JUMPDEST POP POP POP JUMP JUMPDEST PUSH0 DUP3 DUP3 SHR SWAP1 POP SWAP3 SWAP2 POP POP JUMP JUMPDEST PUSH0 PUSH2 0x70A PUSH0 NOT DUP5 PUSH1 0x8 MUL PUSH2 0x6EF JUMP JUMPDEST NOT DUP1 DUP4 AND SWAP2 POP POP SWAP3 SWAP2 POP POP JUMP JUMPDEST PUSH0 PUSH2 0x722 DUP4 DUP4 PUSH2 0x6FB JUMP JUMPDEST SWAP2 POP DUP3 PUSH1 0x2 MUL DUP3 OR SWAP1 POP SWAP3 SWAP2 POP POP JUMP JUMPDEST PUSH2 0x73B DUP3 PUSH2 0x24C JUMP JUMPDEST PUSH8 0xFFFFFFFFFFFFFFFF DUP2 GT ISZERO PUSH2 0x754 JUMPI PUSH2 0x753 PUSH2 0x568 JUMP JUMPDEST JUMPDEST PUSH2 0x75E DUP3 SLOAD PUSH2 0x3AC JUMP JUMPDEST PUSH2 0x769 DUP3 DUP3 DUP6 PUSH2 0x6A9 JUMP JUMPDEST PUSH0 PUSH1 0x20 SWAP1 POP PUSH1 0x1F DUP4 GT PUSH1 0x1 DUP2 EQ PUSH2 0x79A JUMPI PUSH0 DUP5 ISZERO PUSH2 0x788 JUMPI DUP3 DUP8 ADD MLOAD SWAP1 POP JUMPDEST PUSH2 0x792 DUP6 DUP3 PUSH2 0x717 JUMP JUMPDEST DUP7 SSTORE POP PUSH2 0x7F9 JUMP JUMPDEST PUSH1 0x1F NOT DUP5 AND PUSH2 0x7A8 DUP7 PUSH2 0x595 JUMP JUMPDEST PUSH0 JUMPDEST DUP3 DUP2 LT ISZERO PUSH2 0x7CF JUMPI DUP5 DUP10 ADD MLOAD DUP3 SSTORE PUSH1 0x1 DUP3 ADD SWAP2 POP PUSH1 0x20 DUP6 ADD SWAP5 POP PUSH1 0x20 DUP2 ADD SWAP1 POP PUSH2 0x7AA JUMP JUMPDEST DUP7 DUP4 LT ISZERO PUSH2 0x7EC JUMPI DUP5 DUP10 ADD MLOAD PUSH2 0x7E8 PUSH1 0x1F DUP10 AND DUP3 PUSH2 0x6FB JUMP JUMPDEST DUP4 SSTORE POP JUMPDEST PUSH1 0x1 PUSH1 0x2 DUP9 MUL ADD DUP9 SSTORE POP POP POP JUMPDEST POP POP POP POP POP POP JUMP INVALID LOG2 PUSH5 0x6970667358 0x22 SLT KECCAK256 SWAP10 GAS PUSH23 0x3E20F7353C864B16279879FD5B7FC2FCC70F344F41B10A MULMOD 0xB7 0xB2 SGT 0xD0 0xC8 PUSH5 0x736F6C6343 STOP ADDMOD OR STOP CALLER "
				},
				"gasEstimates": {
					"creation": {
						"codeDepositCost": "420600",
						"executionCost": "453",
						"totalCost": "421053"
					},
					"external": {
						"callFoo(address)": "infinite",
						"i()": "infinite"
					}
				},
				"methodIdentifiers": {
					"callFoo(address)": "edcbe76c",
					"i()": "e5aa3d58"
				}
			},
			"storageLayout": {
				"storage": [
					{
						"astId": 56,
						"contract": "contracts/三W高级合约交互/Call.sol:Call",
						"label": "i",
						"offset": 0,
						"slot": "0",
						"type": "t_bytes_storage"
					}
				],
				"types": {
					"t_bytes_storage": {
						"encoding": "bytes",
						"label": "bytes",
						"numberOfBytes": "32"
					}
				}
			},
			"userdoc": {
				"kind": "user",
				"methods": {},
				"version": 1
			}
		}
	}
}