{
	"contracts/三W高级合约交互/Library.sol": {
		"ArryTest": {
			"abi": [
				{
					"inputs": [
						{
							"internalType": "uint256",
							"name": "",
							"type": "uint256"
						}
					],
					"name": "arr",
					"outputs": [
						{
							"internalType": "uint256",
							"name": "",
							"type": "uint256"
						}
					],
					"stateMutability": "view",
					"type": "function"
				},
				{
					"inputs": [
						{
							"internalType": "uint256",
							"name": "_x",
							"type": "uint256"
						}
					],
					"name": "testFind",
					"outputs": [
						{
							"internalType": "uint256",
							"name": "",
							"type": "uint256"
						}
					],
					"stateMutability": "view",
					"type": "function"
				}
			],
			"devdoc": {
				"kind": "dev",
				"methods": {},
				"version": 1
			},
			"evm": {
				"assembly": "    /* \"contracts/\\xe4\\xb8\\x89W\\xe9\\xab\\x98\\xe7\\xba\\xa7\\xe5\\x90\\x88\\xe7\\xba\\xa6\\xe4\\xba\\xa4\\xe4\\xba\\x92/Library.sol\":2266:2476  contract ArryTest {... */\n  mstore(0x40, 0x80)\n    /* \"contracts/\\xe4\\xb8\\x89W\\xe9\\xab\\x98\\xe7\\xba\\xa7\\xe5\\x90\\x88\\xe7\\xba\\xa6\\xe4\\xba\\xa4\\xe4\\xba\\x92/Library.sol\":2320:2352  uint[] public arr = [1, 2, 3, 4] */\n  mload(0x40)\n  dup1\n  0x80\n  add\n  0x40\n  mstore\n  dup1\n    /* \"contracts/\\xe4\\xb8\\x89W\\xe9\\xab\\x98\\xe7\\xba\\xa7\\xe5\\x90\\x88\\xe7\\xba\\xa6\\xe4\\xba\\xa4\\xe4\\xba\\x92/Library.sol\":2341:2342  1 */\n  0x01\n    /* \"contracts/\\xe4\\xb8\\x89W\\xe9\\xab\\x98\\xe7\\xba\\xa7\\xe5\\x90\\x88\\xe7\\xba\\xa6\\xe4\\xba\\xa4\\xe4\\xba\\x92/Library.sol\":2320:2352  uint[] public arr = [1, 2, 3, 4] */\n  0xff\n  and\n  dup2\n  mstore\n  0x20\n  add\n    /* \"contracts/\\xe4\\xb8\\x89W\\xe9\\xab\\x98\\xe7\\xba\\xa7\\xe5\\x90\\x88\\xe7\\xba\\xa6\\xe4\\xba\\xa4\\xe4\\xba\\x92/Library.sol\":2344:2345  2 */\n  0x02\n    /* \"contracts/\\xe4\\xb8\\x89W\\xe9\\xab\\x98\\xe7\\xba\\xa7\\xe5\\x90\\x88\\xe7\\xba\\xa6\\xe4\\xba\\xa4\\xe4\\xba\\x92/Library.sol\":2320:2352  uint[] public arr = [1, 2, 3, 4] */\n  0xff\n  and\n  dup2\n  mstore\n  0x20\n  add\n    /* \"contracts/\\xe4\\xb8\\x89W\\xe9\\xab\\x98\\xe7\\xba\\xa7\\xe5\\x90\\x88\\xe7\\xba\\xa6\\xe4\\xba\\xa4\\xe4\\xba\\x92/Library.sol\":2347:2348  3 */\n  0x03\n    /* \"contracts/\\xe4\\xb8\\x89W\\xe9\\xab\\x98\\xe7\\xba\\xa7\\xe5\\x90\\x88\\xe7\\xba\\xa6\\xe4\\xba\\xa4\\xe4\\xba\\x92/Library.sol\":2320:2352  uint[] public arr = [1, 2, 3, 4] */\n  0xff\n  and\n  dup2\n  mstore\n  0x20\n  add\n    /* \"contracts/\\xe4\\xb8\\x89W\\xe9\\xab\\x98\\xe7\\xba\\xa7\\xe5\\x90\\x88\\xe7\\xba\\xa6\\xe4\\xba\\xa4\\xe4\\xba\\x92/Library.sol\":2350:2351  4 */\n  0x04\n    /* \"contracts/\\xe4\\xb8\\x89W\\xe9\\xab\\x98\\xe7\\xba\\xa7\\xe5\\x90\\x88\\xe7\\xba\\xa6\\xe4\\xba\\xa4\\xe4\\xba\\x92/Library.sol\":2320:2352  uint[] public arr = [1, 2, 3, 4] */\n  0xff\n  and\n  dup2\n  mstore\n  pop\n  0x00\n  swap1\n  0x04\n  tag_1\n  swap3\n  swap2\n  swap1\n  tag_2\n  jump\t// in\ntag_1:\n  pop\n    /* \"contracts/\\xe4\\xb8\\x89W\\xe9\\xab\\x98\\xe7\\xba\\xa7\\xe5\\x90\\x88\\xe7\\xba\\xa6\\xe4\\xba\\xa4\\xe4\\xba\\x92/Library.sol\":2266:2476  contract ArryTest {... */\n  callvalue\n  dup1\n  iszero\n  tag_3\n  jumpi\n  0x00\n  dup1\n  revert\ntag_3:\n  pop\n  jump(tag_4)\ntag_2:\n  dup3\n  dup1\n  sload\n  dup3\n  dup3\n  sstore\n  swap1\n  0x00\n  mstore\n  keccak256(0x00, 0x20)\n  swap1\n  dup2\n  add\n  swap3\n  dup3\n  iszero\n  tag_5\n  jumpi\n  swap2\n  0x20\n  mul\n  dup3\n  add\ntag_6:\n  dup3\n  dup2\n  gt\n  iszero\n  tag_7\n  jumpi\n  dup3\n  mload\n  dup3\n  swap1\n  0xff\n  and\n  swap1\n  sstore\n  swap2\n  0x20\n  add\n  swap2\n  swap1\n  0x01\n  add\n  swap1\n  jump(tag_6)\ntag_7:\ntag_5:\n  pop\n  swap1\n  pop\n  tag_8\n  swap2\n  swap1\n  tag_9\n  jump\t// in\ntag_8:\n  pop\n  swap1\n  jump\t// out\ntag_9:\ntag_10:\n  dup1\n  dup3\n  gt\n  iszero\n  tag_11\n  jumpi\n  0x00\n  dup2\n  0x00\n  swap1\n  sstore\n  pop\n  0x01\n  add\n  jump(tag_10)\ntag_11:\n  pop\n  swap1\n  jump\t// out\ntag_4:\n  dataSize(sub_0)\n  dup1\n  dataOffset(sub_0)\n  0x00\n  codecopy\n  0x00\n  return\nstop\n\nsub_0: assembly {\n        /* \"contracts/\\xe4\\xb8\\x89W\\xe9\\xab\\x98\\xe7\\xba\\xa7\\xe5\\x90\\x88\\xe7\\xba\\xa6\\xe4\\xba\\xa4\\xe4\\xba\\x92/Library.sol\":2266:2476  contract ArryTest {... */\n      mstore(0x40, 0x80)\n      callvalue\n      dup1\n      iszero\n      tag_1\n      jumpi\n      0x00\n      dup1\n      revert\n    tag_1:\n      pop\n      jumpi(tag_2, lt(calldatasize, 0x04))\n      shr(0xe0, calldataload(0x00))\n      dup1\n      0x1ae1420c\n      eq\n      tag_3\n      jumpi\n      dup1\n      0x71e5ee5f\n      eq\n      tag_4\n      jumpi\n    tag_2:\n      0x00\n      dup1\n      revert\n        /* \"contracts/\\xe4\\xb8\\x89W\\xe9\\xab\\x98\\xe7\\xba\\xa7\\xe5\\x90\\x88\\xe7\\xba\\xa6\\xe4\\xba\\xa4\\xe4\\xba\\x92/Library.sol\":2359:2474  function testFind(uint _x) external view returns (uint) {... */\n    tag_3:\n      tag_5\n      0x04\n      dup1\n      calldatasize\n      sub\n      dup2\n      add\n      swap1\n      tag_6\n      swap2\n      swap1\n      tag_7\n      jump\t// in\n    tag_6:\n      tag_8\n      jump\t// in\n    tag_5:\n      mload(0x40)\n      tag_9\n      swap2\n      swap1\n      tag_10\n      jump\t// in\n    tag_9:\n      mload(0x40)\n      dup1\n      swap2\n      sub\n      swap1\n      return\n        /* \"contracts/\\xe4\\xb8\\x89W\\xe9\\xab\\x98\\xe7\\xba\\xa7\\xe5\\x90\\x88\\xe7\\xba\\xa6\\xe4\\xba\\xa4\\xe4\\xba\\x92/Library.sol\":2320:2352  uint[] public arr = [1, 2, 3, 4] */\n    tag_4:\n      tag_11\n      0x04\n      dup1\n      calldatasize\n      sub\n      dup2\n      add\n      swap1\n      tag_12\n      swap2\n      swap1\n      tag_7\n      jump\t// in\n    tag_12:\n      tag_13\n      jump\t// in\n    tag_11:\n      mload(0x40)\n      tag_14\n      swap2\n      swap1\n      tag_10\n      jump\t// in\n    tag_14:\n      mload(0x40)\n      dup1\n      swap2\n      sub\n      swap1\n      return\n        /* \"contracts/\\xe4\\xb8\\x89W\\xe9\\xab\\x98\\xe7\\xba\\xa7\\xe5\\x90\\x88\\xe7\\xba\\xa6\\xe4\\xba\\xa4\\xe4\\xba\\x92/Library.sol\":2359:2474  function testFind(uint _x) external view returns (uint) {... */\n    tag_8:\n        /* \"contracts/\\xe4\\xb8\\x89W\\xe9\\xab\\x98\\xe7\\xba\\xa7\\xe5\\x90\\x88\\xe7\\xba\\xa6\\xe4\\xba\\xa4\\xe4\\xba\\x92/Library.sol\":2409:2413  uint */\n      0x00\n        /* \"contracts/\\xe4\\xb8\\x89W\\xe9\\xab\\x98\\xe7\\xba\\xa7\\xe5\\x90\\x88\\xe7\\xba\\xa6\\xe4\\xba\\xa4\\xe4\\xba\\x92/Library.sol\":2455:2467  arr.find(_x) */\n      tag_16\n        /* \"contracts/\\xe4\\xb8\\x89W\\xe9\\xab\\x98\\xe7\\xba\\xa7\\xe5\\x90\\x88\\xe7\\xba\\xa6\\xe4\\xba\\xa4\\xe4\\xba\\x92/Library.sol\":2464:2466  _x */\n      dup3\n        /* \"contracts/\\xe4\\xb8\\x89W\\xe9\\xab\\x98\\xe7\\xba\\xa7\\xe5\\x90\\x88\\xe7\\xba\\xa6\\xe4\\xba\\xa4\\xe4\\xba\\x92/Library.sol\":2455:2458  arr */\n      0x00\n        /* \"contracts/\\xe4\\xb8\\x89W\\xe9\\xab\\x98\\xe7\\xba\\xa7\\xe5\\x90\\x88\\xe7\\xba\\xa6\\xe4\\xba\\xa4\\xe4\\xba\\x92/Library.sol\":2455:2463  arr.find */\n      tag_17\n      swap1\n        /* \"contracts/\\xe4\\xb8\\x89W\\xe9\\xab\\x98\\xe7\\xba\\xa7\\xe5\\x90\\x88\\xe7\\xba\\xa6\\xe4\\xba\\xa4\\xe4\\xba\\x92/Library.sol\":2455:2467  arr.find(_x) */\n      swap2\n      swap1\n      0xffffffff\n      and\n      jump\t// in\n    tag_16:\n        /* \"contracts/\\xe4\\xb8\\x89W\\xe9\\xab\\x98\\xe7\\xba\\xa7\\xe5\\x90\\x88\\xe7\\xba\\xa6\\xe4\\xba\\xa4\\xe4\\xba\\x92/Library.sol\":2448:2467  return arr.find(_x) */\n      swap1\n      pop\n        /* \"contracts/\\xe4\\xb8\\x89W\\xe9\\xab\\x98\\xe7\\xba\\xa7\\xe5\\x90\\x88\\xe7\\xba\\xa6\\xe4\\xba\\xa4\\xe4\\xba\\x92/Library.sol\":2359:2474  function testFind(uint _x) external view returns (uint) {... */\n      swap2\n      swap1\n      pop\n      jump\t// out\n        /* \"contracts/\\xe4\\xb8\\x89W\\xe9\\xab\\x98\\xe7\\xba\\xa7\\xe5\\x90\\x88\\xe7\\xba\\xa6\\xe4\\xba\\xa4\\xe4\\xba\\x92/Library.sol\":2320:2352  uint[] public arr = [1, 2, 3, 4] */\n    tag_13:\n      0x00\n      dup2\n      dup2\n      sload\n      dup2\n      lt\n      tag_18\n      jumpi\n      0x00\n      dup1\n      revert\n    tag_18:\n      swap1\n      0x00\n      mstore\n      keccak256(0x00, 0x20)\n      add\n      0x00\n      swap2\n      pop\n      swap1\n      pop\n      sload\n      dup2\n      jump\t// out\n        /* \"contracts/\\xe4\\xb8\\x89W\\xe9\\xab\\x98\\xe7\\xba\\xa7\\xe5\\x90\\x88\\xe7\\xba\\xa6\\xe4\\xba\\xa4\\xe4\\xba\\x92/Library.sol\":2024:2262  function find(uint[] storage arr, uint _x) internal view returns (uint) {... */\n    tag_17:\n        /* \"contracts/\\xe4\\xb8\\x89W\\xe9\\xab\\x98\\xe7\\xba\\xa7\\xe5\\x90\\x88\\xe7\\xba\\xa6\\xe4\\xba\\xa4\\xe4\\xba\\x92/Library.sol\":2090:2094  uint */\n      0x00\n        /* \"contracts/\\xe4\\xb8\\x89W\\xe9\\xab\\x98\\xe7\\xba\\xa7\\xe5\\x90\\x88\\xe7\\xba\\xa6\\xe4\\xba\\xa4\\xe4\\xba\\x92/Library.sol\":2111:2117  uint i */\n      dup1\n        /* \"contracts/\\xe4\\xb8\\x89W\\xe9\\xab\\x98\\xe7\\xba\\xa7\\xe5\\x90\\x88\\xe7\\xba\\xa6\\xe4\\xba\\xa4\\xe4\\xba\\x92/Library.sol\":2106:2228  for (uint i; i <= arr.length - 1; i++) {... */\n    tag_21:\n        /* \"contracts/\\xe4\\xb8\\x89W\\xe9\\xab\\x98\\xe7\\xba\\xa7\\xe5\\x90\\x88\\xe7\\xba\\xa6\\xe4\\xba\\xa4\\xe4\\xba\\x92/Library.sol\":2137:2138  1 */\n      0x01\n        /* \"contracts/\\xe4\\xb8\\x89W\\xe9\\xab\\x98\\xe7\\xba\\xa7\\xe5\\x90\\x88\\xe7\\xba\\xa6\\xe4\\xba\\xa4\\xe4\\xba\\x92/Library.sol\":2124:2127  arr */\n      dup5\n        /* \"contracts/\\xe4\\xb8\\x89W\\xe9\\xab\\x98\\xe7\\xba\\xa7\\xe5\\x90\\x88\\xe7\\xba\\xa6\\xe4\\xba\\xa4\\xe4\\xba\\x92/Library.sol\":2124:2134  arr.length */\n      dup1\n      sload\n      swap1\n      pop\n        /* \"contracts/\\xe4\\xb8\\x89W\\xe9\\xab\\x98\\xe7\\xba\\xa7\\xe5\\x90\\x88\\xe7\\xba\\xa6\\xe4\\xba\\xa4\\xe4\\xba\\x92/Library.sol\":2124:2138  arr.length - 1 */\n      tag_24\n      swap2\n      swap1\n      tag_25\n      jump\t// in\n    tag_24:\n        /* \"contracts/\\xe4\\xb8\\x89W\\xe9\\xab\\x98\\xe7\\xba\\xa7\\xe5\\x90\\x88\\xe7\\xba\\xa6\\xe4\\xba\\xa4\\xe4\\xba\\x92/Library.sol\":2119:2120  i */\n      dup2\n        /* \"contracts/\\xe4\\xb8\\x89W\\xe9\\xab\\x98\\xe7\\xba\\xa7\\xe5\\x90\\x88\\xe7\\xba\\xa6\\xe4\\xba\\xa4\\xe4\\xba\\x92/Library.sol\":2119:2138  i <= arr.length - 1 */\n      gt\n        /* \"contracts/\\xe4\\xb8\\x89W\\xe9\\xab\\x98\\xe7\\xba\\xa7\\xe5\\x90\\x88\\xe7\\xba\\xa6\\xe4\\xba\\xa4\\xe4\\xba\\x92/Library.sol\":2106:2228  for (uint i; i <= arr.length - 1; i++) {... */\n      tag_22\n      jumpi\n        /* \"contracts/\\xe4\\xb8\\x89W\\xe9\\xab\\x98\\xe7\\xba\\xa7\\xe5\\x90\\x88\\xe7\\xba\\xa6\\xe4\\xba\\xa4\\xe4\\xba\\x92/Library.sol\":2173:2175  _x */\n      dup3\n        /* \"contracts/\\xe4\\xb8\\x89W\\xe9\\xab\\x98\\xe7\\xba\\xa7\\xe5\\x90\\x88\\xe7\\xba\\xa6\\xe4\\xba\\xa4\\xe4\\xba\\x92/Library.sol\":2163:2166  arr */\n      dup5\n        /* \"contracts/\\xe4\\xb8\\x89W\\xe9\\xab\\x98\\xe7\\xba\\xa7\\xe5\\x90\\x88\\xe7\\xba\\xa6\\xe4\\xba\\xa4\\xe4\\xba\\x92/Library.sol\":2167:2168  i */\n      dup3\n        /* \"contracts/\\xe4\\xb8\\x89W\\xe9\\xab\\x98\\xe7\\xba\\xa7\\xe5\\x90\\x88\\xe7\\xba\\xa6\\xe4\\xba\\xa4\\xe4\\xba\\x92/Library.sol\":2163:2169  arr[i] */\n      dup2\n      sload\n      dup2\n      lt\n      tag_26\n      jumpi\n      tag_27\n      tag_28\n      jump\t// in\n    tag_27:\n    tag_26:\n      swap1\n      0x00\n      mstore\n      keccak256(0x00, 0x20)\n      add\n      sload\n        /* \"contracts/\\xe4\\xb8\\x89W\\xe9\\xab\\x98\\xe7\\xba\\xa7\\xe5\\x90\\x88\\xe7\\xba\\xa6\\xe4\\xba\\xa4\\xe4\\xba\\x92/Library.sol\":2163:2175  arr[i] == _x */\n      sub\n        /* \"contracts/\\xe4\\xb8\\x89W\\xe9\\xab\\x98\\xe7\\xba\\xa7\\xe5\\x90\\x88\\xe7\\xba\\xa6\\xe4\\xba\\xa4\\xe4\\xba\\x92/Library.sol\":2159:2218  if (arr[i] == _x) {... */\n      tag_30\n      jumpi\n        /* \"contracts/\\xe4\\xb8\\x89W\\xe9\\xab\\x98\\xe7\\xba\\xa7\\xe5\\x90\\x88\\xe7\\xba\\xa6\\xe4\\xba\\xa4\\xe4\\xba\\x92/Library.sol\":2202:2203  i */\n      dup1\n        /* \"contracts/\\xe4\\xb8\\x89W\\xe9\\xab\\x98\\xe7\\xba\\xa7\\xe5\\x90\\x88\\xe7\\xba\\xa6\\xe4\\xba\\xa4\\xe4\\xba\\x92/Library.sol\":2195:2203  return i */\n      swap2\n      pop\n      pop\n      jump(tag_20)\n        /* \"contracts/\\xe4\\xb8\\x89W\\xe9\\xab\\x98\\xe7\\xba\\xa7\\xe5\\x90\\x88\\xe7\\xba\\xa6\\xe4\\xba\\xa4\\xe4\\xba\\x92/Library.sol\":2159:2218  if (arr[i] == _x) {... */\n    tag_30:\n        /* \"contracts/\\xe4\\xb8\\x89W\\xe9\\xab\\x98\\xe7\\xba\\xa7\\xe5\\x90\\x88\\xe7\\xba\\xa6\\xe4\\xba\\xa4\\xe4\\xba\\x92/Library.sol\":2140:2143  i++ */\n      dup1\n      dup1\n      tag_31\n      swap1\n      tag_32\n      jump\t// in\n    tag_31:\n      swap2\n      pop\n      pop\n        /* \"contracts/\\xe4\\xb8\\x89W\\xe9\\xab\\x98\\xe7\\xba\\xa7\\xe5\\x90\\x88\\xe7\\xba\\xa6\\xe4\\xba\\xa4\\xe4\\xba\\x92/Library.sol\":2106:2228  for (uint i; i <= arr.length - 1; i++) {... */\n      jump(tag_21)\n    tag_22:\n      pop\n        /* \"contracts/\\xe4\\xb8\\x89W\\xe9\\xab\\x98\\xe7\\xba\\xa7\\xe5\\x90\\x88\\xe7\\xba\\xa6\\xe4\\xba\\xa4\\xe4\\xba\\x92/Library.sol\":2237:2255  revert(\"not find\") */\n      mload(0x40)\n      0x08c379a000000000000000000000000000000000000000000000000000000000\n      dup2\n      mstore\n      0x04\n      add\n      tag_33\n      swap1\n      tag_34\n      jump\t// in\n    tag_33:\n      mload(0x40)\n      dup1\n      swap2\n      sub\n      swap1\n      revert\n        /* \"contracts/\\xe4\\xb8\\x89W\\xe9\\xab\\x98\\xe7\\xba\\xa7\\xe5\\x90\\x88\\xe7\\xba\\xa6\\xe4\\xba\\xa4\\xe4\\xba\\x92/Library.sol\":2024:2262  function find(uint[] storage arr, uint _x) internal view returns (uint) {... */\n    tag_20:\n      swap3\n      swap2\n      pop\n      pop\n      jump\t// out\n        /* \"#utility.yul\":88:205   */\n    tag_36:\n        /* \"#utility.yul\":197:198   */\n      0x00\n        /* \"#utility.yul\":194:195   */\n      dup1\n        /* \"#utility.yul\":187:199   */\n      revert\n        /* \"#utility.yul\":334:411   */\n    tag_38:\n        /* \"#utility.yul\":371:378   */\n      0x00\n        /* \"#utility.yul\":400:405   */\n      dup2\n        /* \"#utility.yul\":389:405   */\n      swap1\n      pop\n        /* \"#utility.yul\":334:411   */\n      swap2\n      swap1\n      pop\n      jump\t// out\n        /* \"#utility.yul\":417:539   */\n    tag_39:\n        /* \"#utility.yul\":490:514   */\n      tag_52\n        /* \"#utility.yul\":508:513   */\n      dup2\n        /* \"#utility.yul\":490:514   */\n      tag_38\n      jump\t// in\n    tag_52:\n        /* \"#utility.yul\":483:488   */\n      dup2\n        /* \"#utility.yul\":480:515   */\n      eq\n        /* \"#utility.yul\":470:533   */\n      tag_53\n      jumpi\n        /* \"#utility.yul\":529:530   */\n      0x00\n        /* \"#utility.yul\":526:527   */\n      dup1\n        /* \"#utility.yul\":519:531   */\n      revert\n        /* \"#utility.yul\":470:533   */\n    tag_53:\n        /* \"#utility.yul\":417:539   */\n      pop\n      jump\t// out\n        /* \"#utility.yul\":545:684   */\n    tag_40:\n        /* \"#utility.yul\":591:596   */\n      0x00\n        /* \"#utility.yul\":629:635   */\n      dup2\n        /* \"#utility.yul\":616:636   */\n      calldataload\n        /* \"#utility.yul\":607:636   */\n      swap1\n      pop\n        /* \"#utility.yul\":645:678   */\n      tag_55\n        /* \"#utility.yul\":672:677   */\n      dup2\n        /* \"#utility.yul\":645:678   */\n      tag_39\n      jump\t// in\n    tag_55:\n        /* \"#utility.yul\":545:684   */\n      swap3\n      swap2\n      pop\n      pop\n      jump\t// out\n        /* \"#utility.yul\":690:1019   */\n    tag_7:\n        /* \"#utility.yul\":749:755   */\n      0x00\n        /* \"#utility.yul\":798:800   */\n      0x20\n        /* \"#utility.yul\":786:795   */\n      dup3\n        /* \"#utility.yul\":777:784   */\n      dup5\n        /* \"#utility.yul\":773:796   */\n      sub\n        /* \"#utility.yul\":769:801   */\n      slt\n        /* \"#utility.yul\":766:885   */\n      iszero\n      tag_57\n      jumpi\n        /* \"#utility.yul\":804:883   */\n      tag_58\n      tag_36\n      jump\t// in\n    tag_58:\n        /* \"#utility.yul\":766:885   */\n    tag_57:\n        /* \"#utility.yul\":924:925   */\n      0x00\n        /* \"#utility.yul\":949:1002   */\n      tag_59\n        /* \"#utility.yul\":994:1001   */\n      dup5\n        /* \"#utility.yul\":985:991   */\n      dup3\n        /* \"#utility.yul\":974:983   */\n      dup6\n        /* \"#utility.yul\":970:992   */\n      add\n        /* \"#utility.yul\":949:1002   */\n      tag_40\n      jump\t// in\n    tag_59:\n        /* \"#utility.yul\":939:1002   */\n      swap2\n      pop\n        /* \"#utility.yul\":895:1012   */\n      pop\n        /* \"#utility.yul\":690:1019   */\n      swap3\n      swap2\n      pop\n      pop\n      jump\t// out\n        /* \"#utility.yul\":1025:1143   */\n    tag_41:\n        /* \"#utility.yul\":1112:1136   */\n      tag_61\n        /* \"#utility.yul\":1130:1135   */\n      dup2\n        /* \"#utility.yul\":1112:1136   */\n      tag_38\n      jump\t// in\n    tag_61:\n        /* \"#utility.yul\":1107:1110   */\n      dup3\n        /* \"#utility.yul\":1100:1137   */\n      mstore\n        /* \"#utility.yul\":1025:1143   */\n      pop\n      pop\n      jump\t// out\n        /* \"#utility.yul\":1149:1371   */\n    tag_10:\n        /* \"#utility.yul\":1242:1246   */\n      0x00\n        /* \"#utility.yul\":1280:1282   */\n      0x20\n        /* \"#utility.yul\":1269:1278   */\n      dup3\n        /* \"#utility.yul\":1265:1283   */\n      add\n        /* \"#utility.yul\":1257:1283   */\n      swap1\n      pop\n        /* \"#utility.yul\":1293:1364   */\n      tag_63\n        /* \"#utility.yul\":1361:1362   */\n      0x00\n        /* \"#utility.yul\":1350:1359   */\n      dup4\n        /* \"#utility.yul\":1346:1363   */\n      add\n        /* \"#utility.yul\":1337:1343   */\n      dup5\n        /* \"#utility.yul\":1293:1364   */\n      tag_41\n      jump\t// in\n    tag_63:\n        /* \"#utility.yul\":1149:1371   */\n      swap3\n      swap2\n      pop\n      pop\n      jump\t// out\n        /* \"#utility.yul\":1377:1557   */\n    tag_42:\n        /* \"#utility.yul\":1425:1502   */\n      0x4e487b7100000000000000000000000000000000000000000000000000000000\n        /* \"#utility.yul\":1422:1423   */\n      0x00\n        /* \"#utility.yul\":1415:1503   */\n      mstore\n        /* \"#utility.yul\":1522:1526   */\n      0x11\n        /* \"#utility.yul\":1519:1520   */\n      0x04\n        /* \"#utility.yul\":1512:1527   */\n      mstore\n        /* \"#utility.yul\":1546:1550   */\n      0x24\n        /* \"#utility.yul\":1543:1544   */\n      0x00\n        /* \"#utility.yul\":1536:1551   */\n      revert\n        /* \"#utility.yul\":1563:1757   */\n    tag_25:\n        /* \"#utility.yul\":1603:1607   */\n      0x00\n        /* \"#utility.yul\":1623:1643   */\n      tag_66\n        /* \"#utility.yul\":1641:1642   */\n      dup3\n        /* \"#utility.yul\":1623:1643   */\n      tag_38\n      jump\t// in\n    tag_66:\n        /* \"#utility.yul\":1618:1643   */\n      swap2\n      pop\n        /* \"#utility.yul\":1657:1677   */\n      tag_67\n        /* \"#utility.yul\":1675:1676   */\n      dup4\n        /* \"#utility.yul\":1657:1677   */\n      tag_38\n      jump\t// in\n    tag_67:\n        /* \"#utility.yul\":1652:1677   */\n      swap3\n      pop\n        /* \"#utility.yul\":1701:1702   */\n      dup3\n        /* \"#utility.yul\":1698:1699   */\n      dup3\n        /* \"#utility.yul\":1694:1703   */\n      sub\n        /* \"#utility.yul\":1686:1703   */\n      swap1\n      pop\n        /* \"#utility.yul\":1725:1726   */\n      dup2\n        /* \"#utility.yul\":1719:1723   */\n      dup2\n        /* \"#utility.yul\":1716:1727   */\n      gt\n        /* \"#utility.yul\":1713:1750   */\n      iszero\n      tag_68\n      jumpi\n        /* \"#utility.yul\":1730:1748   */\n      tag_69\n      tag_42\n      jump\t// in\n    tag_69:\n        /* \"#utility.yul\":1713:1750   */\n    tag_68:\n        /* \"#utility.yul\":1563:1757   */\n      swap3\n      swap2\n      pop\n      pop\n      jump\t// out\n        /* \"#utility.yul\":1763:1943   */\n    tag_28:\n        /* \"#utility.yul\":1811:1888   */\n      0x4e487b7100000000000000000000000000000000000000000000000000000000\n        /* \"#utility.yul\":1808:1809   */\n      0x00\n        /* \"#utility.yul\":1801:1889   */\n      mstore\n        /* \"#utility.yul\":1908:1912   */\n      0x32\n        /* \"#utility.yul\":1905:1906   */\n      0x04\n        /* \"#utility.yul\":1898:1913   */\n      mstore\n        /* \"#utility.yul\":1932:1936   */\n      0x24\n        /* \"#utility.yul\":1929:1930   */\n      0x00\n        /* \"#utility.yul\":1922:1937   */\n      revert\n        /* \"#utility.yul\":1949:2182   */\n    tag_32:\n        /* \"#utility.yul\":1988:1991   */\n      0x00\n        /* \"#utility.yul\":2011:2035   */\n      tag_72\n        /* \"#utility.yul\":2029:2034   */\n      dup3\n        /* \"#utility.yul\":2011:2035   */\n      tag_38\n      jump\t// in\n    tag_72:\n        /* \"#utility.yul\":2002:2035   */\n      swap2\n      pop\n        /* \"#utility.yul\":2057:2123   */\n      0xffffffffffffffffffffffffffffffffffffffffffffffffffffffffffffffff\n        /* \"#utility.yul\":2050:2055   */\n      dup3\n        /* \"#utility.yul\":2047:2124   */\n      sub\n        /* \"#utility.yul\":2044:2147   */\n      tag_73\n      jumpi\n        /* \"#utility.yul\":2127:2145   */\n      tag_74\n      tag_42\n      jump\t// in\n    tag_74:\n        /* \"#utility.yul\":2044:2147   */\n    tag_73:\n        /* \"#utility.yul\":2174:2175   */\n      0x01\n        /* \"#utility.yul\":2167:2172   */\n      dup3\n        /* \"#utility.yul\":2163:2176   */\n      add\n        /* \"#utility.yul\":2156:2176   */\n      swap1\n      pop\n        /* \"#utility.yul\":1949:2182   */\n      swap2\n      swap1\n      pop\n      jump\t// out\n        /* \"#utility.yul\":2188:2357   */\n    tag_43:\n        /* \"#utility.yul\":2272:2283   */\n      0x00\n        /* \"#utility.yul\":2306:2312   */\n      dup3\n        /* \"#utility.yul\":2301:2304   */\n      dup3\n        /* \"#utility.yul\":2294:2313   */\n      mstore\n        /* \"#utility.yul\":2346:2350   */\n      0x20\n        /* \"#utility.yul\":2341:2344   */\n      dup3\n        /* \"#utility.yul\":2337:2351   */\n      add\n        /* \"#utility.yul\":2322:2351   */\n      swap1\n      pop\n        /* \"#utility.yul\":2188:2357   */\n      swap3\n      swap2\n      pop\n      pop\n      jump\t// out\n        /* \"#utility.yul\":2363:2521   */\n    tag_44:\n        /* \"#utility.yul\":2503:2513   */\n      0x6e6f742066696e64000000000000000000000000000000000000000000000000\n        /* \"#utility.yul\":2499:2500   */\n      0x00\n        /* \"#utility.yul\":2491:2497   */\n      dup3\n        /* \"#utility.yul\":2487:2501   */\n      add\n        /* \"#utility.yul\":2480:2514   */\n      mstore\n        /* \"#utility.yul\":2363:2521   */\n      pop\n      jump\t// out\n        /* \"#utility.yul\":2527:2892   */\n    tag_45:\n        /* \"#utility.yul\":2669:2672   */\n      0x00\n        /* \"#utility.yul\":2690:2756   */\n      tag_78\n        /* \"#utility.yul\":2754:2755   */\n      0x08\n        /* \"#utility.yul\":2749:2752   */\n      dup4\n        /* \"#utility.yul\":2690:2756   */\n      tag_43\n      jump\t// in\n    tag_78:\n        /* \"#utility.yul\":2683:2756   */\n      swap2\n      pop\n        /* \"#utility.yul\":2765:2858   */\n      tag_79\n        /* \"#utility.yul\":2854:2857   */\n      dup3\n        /* \"#utility.yul\":2765:2858   */\n      tag_44\n      jump\t// in\n    tag_79:\n        /* \"#utility.yul\":2883:2885   */\n      0x20\n        /* \"#utility.yul\":2878:2881   */\n      dup3\n        /* \"#utility.yul\":2874:2886   */\n      add\n        /* \"#utility.yul\":2867:2886   */\n      swap1\n      pop\n        /* \"#utility.yul\":2527:2892   */\n      swap2\n      swap1\n      pop\n      jump\t// out\n        /* \"#utility.yul\":2898:3317   */\n    tag_34:\n        /* \"#utility.yul\":3064:3068   */\n      0x00\n        /* \"#utility.yul\":3102:3104   */\n      0x20\n        /* \"#utility.yul\":3091:3100   */\n      dup3\n        /* \"#utility.yul\":3087:3105   */\n      add\n        /* \"#utility.yul\":3079:3105   */\n      swap1\n      pop\n        /* \"#utility.yul\":3151:3160   */\n      dup2\n        /* \"#utility.yul\":3145:3149   */\n      dup2\n        /* \"#utility.yul\":3141:3161   */\n      sub\n        /* \"#utility.yul\":3137:3138   */\n      0x00\n        /* \"#utility.yul\":3126:3135   */\n      dup4\n        /* \"#utility.yul\":3122:3139   */\n      add\n        /* \"#utility.yul\":3115:3162   */\n      mstore\n        /* \"#utility.yul\":3179:3310   */\n      tag_81\n        /* \"#utility.yul\":3305:3309   */\n      dup2\n        /* \"#utility.yul\":3179:3310   */\n      tag_45\n      jump\t// in\n    tag_81:\n        /* \"#utility.yul\":3171:3310   */\n      swap1\n      pop\n        /* \"#utility.yul\":2898:3317   */\n      swap2\n      swap1\n      pop\n      jump\t// out\n\n    auxdata: 0xa2646970667358221220a34f034edfaba4bcbed67575002b126f38780c5399d1b3bf15a5e182d9b6a55664736f6c63430008170033\n}\n",
				"bytecode": {
					"linkReferences": {},
					"object": "60806040526040518060800160405280600160ff168152602001600260ff168152602001600360ff168152602001600460ff168152505f906004610044929190610056565b50348015610050575f80fd5b506100c1565b828054828255905f5260205f20908101928215610095579160200282015b82811115610094578251829060ff16905591602001919060010190610074565b5b5090506100a291906100a6565b5090565b5b808211156100bd575f815f9055506001016100a7565b5090565b610378806100ce5f395ff3fe608060405234801561000f575f80fd5b5060043610610034575f3560e01c80631ae1420c1461003857806371e5ee5f14610068575b5f80fd5b610052600480360381019061004d91906101a3565b610098565b60405161005f91906101dd565b60405180910390f35b610082600480360381019061007d91906101a3565b6100b3565b60405161008f91906101dd565b60405180910390f35b5f6100ac825f6100d290919063ffffffff16565b9050919050565b5f81815481106100c1575f80fd5b905f5260205f20015f915090505481565b5f805b600184805490506100e69190610223565b811161012a5782848281548110610100576100ff610256565b5b905f5260205f200154036101175780915050610166565b808061012290610283565b9150506100d5565b506040517f08c379a000000000000000000000000000000000000000000000000000000000815260040161015d90610324565b60405180910390fd5b92915050565b5f80fd5b5f819050919050565b61018281610170565b811461018c575f80fd5b50565b5f8135905061019d81610179565b92915050565b5f602082840312156101b8576101b761016c565b5b5f6101c58482850161018f565b91505092915050565b6101d781610170565b82525050565b5f6020820190506101f05f8301846101ce565b92915050565b7f4e487b71000000000000000000000000000000000000000000000000000000005f52601160045260245ffd5b5f61022d82610170565b915061023883610170565b92508282039050818111156102505761024f6101f6565b5b92915050565b7f4e487b71000000000000000000000000000000000000000000000000000000005f52603260045260245ffd5b5f61028d82610170565b91507fffffffffffffffffffffffffffffffffffffffffffffffffffffffffffffffff82036102bf576102be6101f6565b5b600182019050919050565b5f82825260208201905092915050565b7f6e6f742066696e640000000000000000000000000000000000000000000000005f82015250565b5f61030e6008836102ca565b9150610319826102da565b602082019050919050565b5f6020820190508181035f83015261033b81610302565b905091905056fea2646970667358221220a34f034edfaba4bcbed67575002b126f38780c5399d1b3bf15a5e182d9b6a55664736f6c63430008170033",
					"opcodes": "PUSH1 0x80 PUSH1 0x40 MSTORE PUSH1 0x40 MLOAD DUP1 PUSH1 0x80 ADD PUSH1 0x40 MSTORE DUP1 PUSH1 0x1 PUSH1 0xFF AND DUP2 MSTORE PUSH1 0x20 ADD PUSH1 0x2 PUSH1 0xFF AND DUP2 MSTORE PUSH1 0x20 ADD PUSH1 0x3 PUSH1 0xFF AND DUP2 MSTORE PUSH1 0x20 ADD PUSH1 0x4 PUSH1 0xFF AND DUP2 MSTORE POP PUSH0 SWAP1 PUSH1 0x4 PUSH2 0x44 SWAP3 SWAP2 SWAP1 PUSH2 0x56 JUMP JUMPDEST POP CALLVALUE DUP1 ISZERO PUSH2 0x50 JUMPI PUSH0 DUP1 REVERT JUMPDEST POP PUSH2 0xC1 JUMP JUMPDEST DUP3 DUP1 SLOAD DUP3 DUP3 SSTORE SWAP1 PUSH0 MSTORE PUSH1 0x20 PUSH0 KECCAK256 SWAP1 DUP2 ADD SWAP3 DUP3 ISZERO PUSH2 0x95 JUMPI SWAP2 PUSH1 0x20 MUL DUP3 ADD JUMPDEST DUP3 DUP2 GT ISZERO PUSH2 0x94 JUMPI DUP3 MLOAD DUP3 SWAP1 PUSH1 0xFF AND SWAP1 SSTORE SWAP2 PUSH1 0x20 ADD SWAP2 SWAP1 PUSH1 0x1 ADD SWAP1 PUSH2 0x74 JUMP JUMPDEST JUMPDEST POP SWAP1 POP PUSH2 0xA2 SWAP2 SWAP1 PUSH2 0xA6 JUMP JUMPDEST POP SWAP1 JUMP JUMPDEST JUMPDEST DUP1 DUP3 GT ISZERO PUSH2 0xBD JUMPI PUSH0 DUP2 PUSH0 SWAP1 SSTORE POP PUSH1 0x1 ADD PUSH2 0xA7 JUMP JUMPDEST POP SWAP1 JUMP JUMPDEST PUSH2 0x378 DUP1 PUSH2 0xCE PUSH0 CODECOPY PUSH0 RETURN INVALID PUSH1 0x80 PUSH1 0x40 MSTORE CALLVALUE DUP1 ISZERO PUSH2 0xF JUMPI PUSH0 DUP1 REVERT JUMPDEST POP PUSH1 0x4 CALLDATASIZE LT PUSH2 0x34 JUMPI PUSH0 CALLDATALOAD PUSH1 0xE0 SHR DUP1 PUSH4 0x1AE1420C EQ PUSH2 0x38 JUMPI DUP1 PUSH4 0x71E5EE5F EQ PUSH2 0x68 JUMPI JUMPDEST PUSH0 DUP1 REVERT JUMPDEST PUSH2 0x52 PUSH1 0x4 DUP1 CALLDATASIZE SUB DUP2 ADD SWAP1 PUSH2 0x4D SWAP2 SWAP1 PUSH2 0x1A3 JUMP JUMPDEST PUSH2 0x98 JUMP JUMPDEST PUSH1 0x40 MLOAD PUSH2 0x5F SWAP2 SWAP1 PUSH2 0x1DD JUMP JUMPDEST PUSH1 0x40 MLOAD DUP1 SWAP2 SUB SWAP1 RETURN JUMPDEST PUSH2 0x82 PUSH1 0x4 DUP1 CALLDATASIZE SUB DUP2 ADD SWAP1 PUSH2 0x7D SWAP2 SWAP1 PUSH2 0x1A3 JUMP JUMPDEST PUSH2 0xB3 JUMP JUMPDEST PUSH1 0x40 MLOAD PUSH2 0x8F SWAP2 SWAP1 PUSH2 0x1DD JUMP JUMPDEST PUSH1 0x40 MLOAD DUP1 SWAP2 SUB SWAP1 RETURN JUMPDEST PUSH0 PUSH2 0xAC DUP3 PUSH0 PUSH2 0xD2 SWAP1 SWAP2 SWAP1 PUSH4 0xFFFFFFFF AND JUMP JUMPDEST SWAP1 POP SWAP2 SWAP1 POP JUMP JUMPDEST PUSH0 DUP2 DUP2 SLOAD DUP2 LT PUSH2 0xC1 JUMPI PUSH0 DUP1 REVERT JUMPDEST SWAP1 PUSH0 MSTORE PUSH1 0x20 PUSH0 KECCAK256 ADD PUSH0 SWAP2 POP SWAP1 POP SLOAD DUP2 JUMP JUMPDEST PUSH0 DUP1 JUMPDEST PUSH1 0x1 DUP5 DUP1 SLOAD SWAP1 POP PUSH2 0xE6 SWAP2 SWAP1 PUSH2 0x223 JUMP JUMPDEST DUP2 GT PUSH2 0x12A JUMPI DUP3 DUP5 DUP3 DUP2 SLOAD DUP2 LT PUSH2 0x100 JUMPI PUSH2 0xFF PUSH2 0x256 JUMP JUMPDEST JUMPDEST SWAP1 PUSH0 MSTORE PUSH1 0x20 PUSH0 KECCAK256 ADD SLOAD SUB PUSH2 0x117 JUMPI DUP1 SWAP2 POP POP PUSH2 0x166 JUMP JUMPDEST DUP1 DUP1 PUSH2 0x122 SWAP1 PUSH2 0x283 JUMP JUMPDEST SWAP2 POP POP PUSH2 0xD5 JUMP JUMPDEST POP PUSH1 0x40 MLOAD PUSH32 0x8C379A000000000000000000000000000000000000000000000000000000000 DUP2 MSTORE PUSH1 0x4 ADD PUSH2 0x15D SWAP1 PUSH2 0x324 JUMP JUMPDEST PUSH1 0x40 MLOAD DUP1 SWAP2 SUB SWAP1 REVERT JUMPDEST SWAP3 SWAP2 POP POP JUMP JUMPDEST PUSH0 DUP1 REVERT JUMPDEST PUSH0 DUP2 SWAP1 POP SWAP2 SWAP1 POP JUMP JUMPDEST PUSH2 0x182 DUP2 PUSH2 0x170 JUMP JUMPDEST DUP2 EQ PUSH2 0x18C JUMPI PUSH0 DUP1 REVERT JUMPDEST POP JUMP JUMPDEST PUSH0 DUP2 CALLDATALOAD SWAP1 POP PUSH2 0x19D DUP2 PUSH2 0x179 JUMP JUMPDEST SWAP3 SWAP2 POP POP JUMP JUMPDEST PUSH0 PUSH1 0x20 DUP3 DUP5 SUB SLT ISZERO PUSH2 0x1B8 JUMPI PUSH2 0x1B7 PUSH2 0x16C JUMP JUMPDEST JUMPDEST PUSH0 PUSH2 0x1C5 DUP5 DUP3 DUP6 ADD PUSH2 0x18F JUMP JUMPDEST SWAP2 POP POP SWAP3 SWAP2 POP POP JUMP JUMPDEST PUSH2 0x1D7 DUP2 PUSH2 0x170 JUMP JUMPDEST DUP3 MSTORE POP POP JUMP JUMPDEST PUSH0 PUSH1 0x20 DUP3 ADD SWAP1 POP PUSH2 0x1F0 PUSH0 DUP4 ADD DUP5 PUSH2 0x1CE JUMP JUMPDEST SWAP3 SWAP2 POP POP JUMP JUMPDEST PUSH32 0x4E487B7100000000000000000000000000000000000000000000000000000000 PUSH0 MSTORE PUSH1 0x11 PUSH1 0x4 MSTORE PUSH1 0x24 PUSH0 REVERT JUMPDEST PUSH0 PUSH2 0x22D DUP3 PUSH2 0x170 JUMP JUMPDEST SWAP2 POP PUSH2 0x238 DUP4 PUSH2 0x170 JUMP JUMPDEST SWAP3 POP DUP3 DUP3 SUB SWAP1 POP DUP2 DUP2 GT ISZERO PUSH2 0x250 JUMPI PUSH2 0x24F PUSH2 0x1F6 JUMP JUMPDEST JUMPDEST SWAP3 SWAP2 POP POP JUMP JUMPDEST PUSH32 0x4E487B7100000000000000000000000000000000000000000000000000000000 PUSH0 MSTORE PUSH1 0x32 PUSH1 0x4 MSTORE PUSH1 0x24 PUSH0 REVERT JUMPDEST PUSH0 PUSH2 0x28D DUP3 PUSH2 0x170 JUMP JUMPDEST SWAP2 POP PUSH32 0xFFFFFFFFFFFFFFFFFFFFFFFFFFFFFFFFFFFFFFFFFFFFFFFFFFFFFFFFFFFFFFFF DUP3 SUB PUSH2 0x2BF JUMPI PUSH2 0x2BE PUSH2 0x1F6 JUMP JUMPDEST JUMPDEST PUSH1 0x1 DUP3 ADD SWAP1 POP SWAP2 SWAP1 POP JUMP JUMPDEST PUSH0 DUP3 DUP3 MSTORE PUSH1 0x20 DUP3 ADD SWAP1 POP SWAP3 SWAP2 POP POP JUMP JUMPDEST PUSH32 0x6E6F742066696E64000000000000000000000000000000000000000000000000 PUSH0 DUP3 ADD MSTORE POP JUMP JUMPDEST PUSH0 PUSH2 0x30E PUSH1 0x8 DUP4 PUSH2 0x2CA JUMP JUMPDEST SWAP2 POP PUSH2 0x319 DUP3 PUSH2 0x2DA JUMP JUMPDEST PUSH1 0x20 DUP3 ADD SWAP1 POP SWAP2 SWAP1 POP JUMP JUMPDEST PUSH0 PUSH1 0x20 DUP3 ADD SWAP1 POP DUP2 DUP2 SUB PUSH0 DUP4 ADD MSTORE PUSH2 0x33B DUP2 PUSH2 0x302 JUMP JUMPDEST SWAP1 POP SWAP2 SWAP1 POP JUMP INVALID LOG2 PUSH5 0x6970667358 0x22 SLT KECCAK256 LOG3 0x4F SUB 0x4E 0xDF 0xAB LOG4 0xBC 0xBE 0xD6 PUSH22 0x75002B126F38780C5399D1B3BF15A5E182D9B6A55664 PUSH20 0x6F6C634300081700330000000000000000000000 "
				},
				"gasEstimates": {
					"creation": {
						"codeDepositCost": "177600",
						"executionCost": "infinite",
						"totalCost": "infinite"
					},
					"external": {
						"arr(uint256)": "infinite",
						"testFind(uint256)": "infinite"
					}
				},
				"methodIdentifiers": {
					"arr(uint256)": "71e5ee5f",
					"testFind(uint256)": "1ae1420c"
				}
			},
			"storageLayout": {
				"storage": [
					{
						"astId": 87,
						"contract": "contracts/三W高级合约交互/Library.sol:ArryTest",
						"label": "arr",
						"offset": 0,
						"slot": "0",
						"type": "t_array(t_uint256)dyn_storage"
					}
				],
				"types": {
					"t_array(t_uint256)dyn_storage": {
						"base": "t_uint256",
						"encoding": "dynamic_array",
						"label": "uint256[]",
						"numberOfBytes": "32"
					},
					"t_uint256": {
						"encoding": "inplace",
						"label": "uint256",
						"numberOfBytes": "32"
					}
				}
			},
			"userdoc": {
				"kind": "user",
				"methods": {},
				"version": 1
			}
		}
	}
}