{
	"contracts/new/0524VirtualConstructor.sol": {
		"F": {
			"abi": [
				{
					"inputs": [
						{
							"internalType": "string",
							"name": "_text",
							"type": "string"
						}
					],
					"stateMutability": "nonpayable",
					"type": "constructor"
				},
				{
					"anonymous": false,
					"inputs": [
						{
							"indexed": false,
							"internalType": "string",
							"name": "message",
							"type": "string"
						}
					],
					"name": "Log",
					"type": "event"
				},
				{
					"inputs": [],
					"name": "name",
					"outputs": [
						{
							"internalType": "string",
							"name": "",
							"type": "string"
						}
					],
					"stateMutability": "view",
					"type": "function"
				},
				{
					"inputs": [],
					"name": "text",
					"outputs": [
						{
							"internalType": "string",
							"name": "",
							"type": "string"
						}
					],
					"stateMutability": "view",
					"type": "function"
				}
			],
			"devdoc": {
				"kind": "dev",
				"methods": {},
				"version": 1
			},
			"evm": {
				"assembly": "    /* \"contracts/new/0524VirtualConstructor.sol\":542:697  contract F is D, E(\"abc\") {... */\n  mstore(0x40, 0x80)\n    /* \"contracts/new/0524VirtualConstructor.sol\":598:695  constructor(string memory _text) D() {... */\n  callvalue\n  dup1\n  iszero\n  tag_1\n  jumpi\n  0x00\n  dup1\n  revert\ntag_1:\n  pop\n  mload(0x40)\n  sub(codesize, bytecodeSize)\n  dup1\n  bytecodeSize\n  dup4\n  codecopy\n  dup2\n  add\n  0x40\n  dup2\n  swap1\n  mstore\n  tag_2\n  swap2\n  tag_3\n  jump\t// in\ntag_2:\n    /* \"contracts/new/0524VirtualConstructor.sol\":305:442  constructor(string memory _name) {... */\n  mload(0x40)\n  dup1\n  0x40\n  add\n  0x40\n  mstore\n  dup1\n  0x03\n  dup2\n  mstore\n  0x20\n  add\n  shl(0xe8, 0x616263)\n  dup2\n  mstore\n  pop\n  0x00\n  dup1\n  mload\n  0x20\n  data_60a75ae7689ea1d21cfe8f709cd0af535ef85f4586ae303136a6d9871b998e0e\n  dup4\n  codecopy\n  dup2\n  mload\n  swap2\n  mstore\n    /* \"contracts/new/0524VirtualConstructor.sol\":222:238  Log(\"this is D\") */\n  mload(0x40)\n  tag_8\n  swap1\n    /* \"#utility.yul\":1505:1507   */\n  0x20\n    /* \"#utility.yul\":1487:1508   */\n  dup1\n  dup3\n  mstore\n    /* \"#utility.yul\":1544:1545   */\n  0x09\n    /* \"#utility.yul\":1524:1542   */\n  swap1\n  dup3\n  add\n    /* \"#utility.yul\":1517:1546   */\n  mstore\n  shl(0xba, 0x1d1a1a5cc81a5cc811)\n    /* \"#utility.yul\":1577:1579   */\n  0x40\n    /* \"#utility.yul\":1562:1580   */\n  dup3\n  add\n    /* \"#utility.yul\":1555:1594   */\n  mstore\n    /* \"#utility.yul\":1626:1628   */\n  0x60\n    /* \"#utility.yul\":1611:1629   */\n  add\n  swap1\n    /* \"#utility.yul\":1303:1635   */\n  jump\n    /* \"contracts/new/0524VirtualConstructor.sol\":222:238  Log(\"this is D\") */\ntag_8:\n  mload(0x40)\n  dup1\n  swap2\n  sub\n  swap1\n  log1\n  0x00\n  dup1\n  mload\n  0x20\n  data_60a75ae7689ea1d21cfe8f709cd0af535ef85f4586ae303136a6d9871b998e0e\n  dup4\n  codecopy\n  dup2\n  mload\n  swap2\n  mstore\n    /* \"contracts/new/0524VirtualConstructor.sol\":353:377  Log(\"this is E; name= \") */\n  mload(0x40)\n  tag_11\n  swap1\n    /* \"#utility.yul\":1842:1844   */\n  0x20\n    /* \"#utility.yul\":1824:1845   */\n  dup1\n  dup3\n  mstore\n    /* \"#utility.yul\":1881:1883   */\n  0x11\n    /* \"#utility.yul\":1861:1879   */\n  swap1\n  dup3\n  add\n    /* \"#utility.yul\":1854:1884   */\n  mstore\n  shl(0x7d, 0x03a3434b99034b990229d903730b6b29e9)\n    /* \"#utility.yul\":1915:1917   */\n  0x40\n    /* \"#utility.yul\":1900:1918   */\n  dup3\n  add\n    /* \"#utility.yul\":1893:1940   */\n  mstore\n    /* \"#utility.yul\":1972:1974   */\n  0x60\n    /* \"#utility.yul\":1957:1975   */\n  add\n  swap1\n    /* \"#utility.yul\":1640:1981   */\n  jump\n    /* \"contracts/new/0524VirtualConstructor.sol\":353:377  Log(\"this is E; name= \") */\ntag_11:\n  mload(0x40)\n  dup1\n  swap2\n  sub\n  swap1\n  log1\n  0x00\n  dup1\n  mload\n  0x20\n  data_60a75ae7689ea1d21cfe8f709cd0af535ef85f4586ae303136a6d9871b998e0e\n  dup4\n  codecopy\n  dup2\n  mload\n  swap2\n  mstore\n    /* \"contracts/new/0524VirtualConstructor.sol\":407:412  _name */\n  dup2\n    /* \"contracts/new/0524VirtualConstructor.sol\":403:413  Log(_name) */\n  mload(0x40)\n  tag_13\n  swap2\n  swap1\n  tag_14\n  jump\t// in\ntag_13:\n  mload(0x40)\n  dup1\n  swap2\n  sub\n  swap1\n  log1\n    /* \"contracts/new/0524VirtualConstructor.sol\":423:427  name */\n  0x00\n    /* \"contracts/new/0524VirtualConstructor.sol\":423:435  name = _name */\n  tag_15\n    /* \"contracts/new/0524VirtualConstructor.sol\":430:435  _name */\n  dup3\n    /* \"contracts/new/0524VirtualConstructor.sol\":423:427  name */\n  dup3\n    /* \"contracts/new/0524VirtualConstructor.sol\":423:435  name = _name */\n  tag_16\n  jump\t// in\ntag_15:\n  pop\n    /* \"contracts/new/0524VirtualConstructor.sol\":305:442  constructor(string memory _name) {... */\n  pop\n  0x00\n  dup1\n  mload\n  0x20\n  data_60a75ae7689ea1d21cfe8f709cd0af535ef85f4586ae303136a6d9871b998e0e\n  dup4\n  codecopy\n  dup2\n  mload\n  swap2\n  mstore\n    /* \"contracts/new/0524VirtualConstructor.sol\":650:666  Log(\"this is F\") */\n  mload(0x40)\n  tag_18\n  swap1\n    /* \"#utility.yul\":5144:5146   */\n  0x20\n    /* \"#utility.yul\":5126:5147   */\n  dup1\n  dup3\n  mstore\n    /* \"#utility.yul\":5183:5184   */\n  0x09\n    /* \"#utility.yul\":5163:5181   */\n  swap1\n  dup3\n  add\n    /* \"#utility.yul\":5156:5185   */\n  mstore\n  shl(0xb9, 0x3a3434b99034b99023)\n    /* \"#utility.yul\":5216:5218   */\n  0x40\n    /* \"#utility.yul\":5201:5219   */\n  dup3\n  add\n    /* \"#utility.yul\":5194:5233   */\n  mstore\n    /* \"#utility.yul\":5265:5267   */\n  0x60\n    /* \"#utility.yul\":5250:5268   */\n  add\n  swap1\n    /* \"#utility.yul\":4942:5274   */\n  jump\n    /* \"contracts/new/0524VirtualConstructor.sol\":650:666  Log(\"this is F\") */\ntag_18:\n  mload(0x40)\n  dup1\n  swap2\n  sub\n  swap1\n  log1\n    /* \"contracts/new/0524VirtualConstructor.sol\":676:680  text */\n  0x01\n    /* \"contracts/new/0524VirtualConstructor.sol\":676:688  text = _text */\n  tag_20\n    /* \"contracts/new/0524VirtualConstructor.sol\":683:688  _text */\n  dup3\n    /* \"contracts/new/0524VirtualConstructor.sol\":676:680  text */\n  dup3\n    /* \"contracts/new/0524VirtualConstructor.sol\":676:688  text = _text */\n  tag_16\n  jump\t// in\ntag_20:\n  pop\n    /* \"contracts/new/0524VirtualConstructor.sol\":598:695  constructor(string memory _text) D() {... */\n  pop\n    /* \"contracts/new/0524VirtualConstructor.sol\":542:697  contract F is D, E(\"abc\") {... */\n  jump(tag_28)\n    /* \"#utility.yul\":14:141   */\ntag_22:\n    /* \"#utility.yul\":75:85   */\n  0x4e487b71\n    /* \"#utility.yul\":70:73   */\n  0xe0\n    /* \"#utility.yul\":66:86   */\n  shl\n    /* \"#utility.yul\":63:64   */\n  0x00\n    /* \"#utility.yul\":56:87   */\n  mstore\n    /* \"#utility.yul\":106:110   */\n  0x41\n    /* \"#utility.yul\":103:104   */\n  0x04\n    /* \"#utility.yul\":96:111   */\n  mstore\n    /* \"#utility.yul\":130:134   */\n  0x24\n    /* \"#utility.yul\":127:128   */\n  0x00\n    /* \"#utility.yul\":120:135   */\n  revert\n    /* \"#utility.yul\":146:396   */\ntag_23:\n    /* \"#utility.yul\":231:232   */\n  0x00\n    /* \"#utility.yul\":241:354   */\ntag_31:\n    /* \"#utility.yul\":255:261   */\n  dup4\n    /* \"#utility.yul\":252:253   */\n  dup2\n    /* \"#utility.yul\":249:262   */\n  lt\n    /* \"#utility.yul\":241:354   */\n  iszero\n  tag_33\n  jumpi\n    /* \"#utility.yul\":331:342   */\n  dup2\n  dup2\n  add\n    /* \"#utility.yul\":325:343   */\n  mload\n    /* \"#utility.yul\":312:323   */\n  dup4\n  dup3\n  add\n    /* \"#utility.yul\":305:344   */\n  mstore\n    /* \"#utility.yul\":277:279   */\n  0x20\n    /* \"#utility.yul\":270:280   */\n  add\n    /* \"#utility.yul\":241:354   */\n  jump(tag_31)\ntag_33:\n  pop\n  pop\n    /* \"#utility.yul\":388:389   */\n  0x00\n    /* \"#utility.yul\":370:386   */\n  swap2\n  add\n    /* \"#utility.yul\":363:390   */\n  mstore\n    /* \"#utility.yul\":146:396   */\n  jump\t// out\n    /* \"#utility.yul\":401:1298   */\ntag_3:\n    /* \"#utility.yul\":481:487   */\n  0x00\n    /* \"#utility.yul\":534:536   */\n  0x20\n    /* \"#utility.yul\":522:531   */\n  dup3\n    /* \"#utility.yul\":513:520   */\n  dup5\n    /* \"#utility.yul\":509:532   */\n  sub\n    /* \"#utility.yul\":505:537   */\n  slt\n    /* \"#utility.yul\":502:554   */\n  iszero\n  tag_35\n  jumpi\n    /* \"#utility.yul\":550:551   */\n  0x00\n    /* \"#utility.yul\":547:548   */\n  dup1\n    /* \"#utility.yul\":540:552   */\n  revert\n    /* \"#utility.yul\":502:554   */\ntag_35:\n    /* \"#utility.yul\":577:593   */\n  dup2\n  mload\n  sub(shl(0x40, 0x01), 0x01)\n    /* \"#utility.yul\":642:656   */\n  dup1\n  dup3\n  gt\n    /* \"#utility.yul\":639:673   */\n  iszero\n  tag_36\n  jumpi\n    /* \"#utility.yul\":669:670   */\n  0x00\n    /* \"#utility.yul\":666:667   */\n  dup1\n    /* \"#utility.yul\":659:671   */\n  revert\n    /* \"#utility.yul\":639:673   */\ntag_36:\n    /* \"#utility.yul\":707:713   */\n  dup2\n    /* \"#utility.yul\":696:705   */\n  dup5\n    /* \"#utility.yul\":692:714   */\n  add\n    /* \"#utility.yul\":682:714   */\n  swap2\n  pop\n    /* \"#utility.yul\":752:759   */\n  dup5\n    /* \"#utility.yul\":745:749   */\n  0x1f\n    /* \"#utility.yul\":741:743   */\n  dup4\n    /* \"#utility.yul\":737:750   */\n  add\n    /* \"#utility.yul\":733:760   */\n  slt\n    /* \"#utility.yul\":723:778   */\n  tag_37\n  jumpi\n    /* \"#utility.yul\":774:775   */\n  0x00\n    /* \"#utility.yul\":771:772   */\n  dup1\n    /* \"#utility.yul\":764:776   */\n  revert\n    /* \"#utility.yul\":723:778   */\ntag_37:\n    /* \"#utility.yul\":803:805   */\n  dup2\n    /* \"#utility.yul\":797:806   */\n  mload\n    /* \"#utility.yul\":825:827   */\n  dup2\n    /* \"#utility.yul\":821:823   */\n  dup2\n    /* \"#utility.yul\":818:828   */\n  gt\n    /* \"#utility.yul\":815:851   */\n  iszero\n  tag_39\n  jumpi\n    /* \"#utility.yul\":831:849   */\n  tag_39\n  tag_22\n  jump\t// in\ntag_39:\n    /* \"#utility.yul\":906:908   */\n  0x40\n    /* \"#utility.yul\":900:909   */\n  mload\n    /* \"#utility.yul\":874:876   */\n  0x1f\n    /* \"#utility.yul\":960:973   */\n  dup3\n  add\n  not(0x1f)\n    /* \"#utility.yul\":956:978   */\n  swap1\n  dup2\n  and\n    /* \"#utility.yul\":980:982   */\n  0x3f\n    /* \"#utility.yul\":952:983   */\n  add\n    /* \"#utility.yul\":948:988   */\n  and\n    /* \"#utility.yul\":936:989   */\n  dup2\n  add\n  swap1\n    /* \"#utility.yul\":1004:1022   */\n  dup4\n  dup3\n  gt\n    /* \"#utility.yul\":1024:1046   */\n  dup2\n  dup4\n  lt\n    /* \"#utility.yul\":1001:1047   */\n  or\n    /* \"#utility.yul\":998:1070   */\n  iszero\n  tag_41\n  jumpi\n    /* \"#utility.yul\":1050:1068   */\n  tag_41\n  tag_22\n  jump\t// in\ntag_41:\n    /* \"#utility.yul\":1090:1100   */\n  dup2\n    /* \"#utility.yul\":1086:1088   */\n  0x40\n    /* \"#utility.yul\":1079:1101   */\n  mstore\n    /* \"#utility.yul\":1125:1127   */\n  dup3\n    /* \"#utility.yul\":1117:1123   */\n  dup2\n    /* \"#utility.yul\":1110:1128   */\n  mstore\n    /* \"#utility.yul\":1165:1172   */\n  dup8\n    /* \"#utility.yul\":1160:1162   */\n  0x20\n    /* \"#utility.yul\":1155:1157   */\n  dup5\n    /* \"#utility.yul\":1151:1153   */\n  dup8\n    /* \"#utility.yul\":1147:1158   */\n  add\n    /* \"#utility.yul\":1143:1163   */\n  add\n    /* \"#utility.yul\":1140:1173   */\n  gt\n    /* \"#utility.yul\":1137:1190   */\n  iszero\n  tag_42\n  jumpi\n    /* \"#utility.yul\":1186:1187   */\n  0x00\n    /* \"#utility.yul\":1183:1184   */\n  dup1\n    /* \"#utility.yul\":1176:1188   */\n  revert\n    /* \"#utility.yul\":1137:1190   */\ntag_42:\n    /* \"#utility.yul\":1199:1267   */\n  tag_43\n    /* \"#utility.yul\":1264:1266   */\n  dup4\n    /* \"#utility.yul\":1259:1261   */\n  0x20\n    /* \"#utility.yul\":1251:1257   */\n  dup4\n    /* \"#utility.yul\":1247:1262   */\n  add\n    /* \"#utility.yul\":1242:1244   */\n  0x20\n    /* \"#utility.yul\":1238:1240   */\n  dup9\n    /* \"#utility.yul\":1234:1245   */\n  add\n    /* \"#utility.yul\":1199:1267   */\n  tag_23\n  jump\t// in\ntag_43:\n    /* \"#utility.yul\":1286:1292   */\n  swap8\n    /* \"#utility.yul\":401:1298   */\n  swap7\n  pop\n  pop\n  pop\n  pop\n  pop\n  pop\n  pop\n  jump\t// out\n    /* \"#utility.yul\":1986:2382   */\ntag_14:\n    /* \"#utility.yul\":2135:2137   */\n  0x20\n    /* \"#utility.yul\":2124:2133   */\n  dup2\n    /* \"#utility.yul\":2117:2138   */\n  mstore\n    /* \"#utility.yul\":2098:2102   */\n  0x00\n    /* \"#utility.yul\":2167:2173   */\n  dup3\n    /* \"#utility.yul\":2161:2174   */\n  mload\n    /* \"#utility.yul\":2210:2216   */\n  dup1\n    /* \"#utility.yul\":2205:2207   */\n  0x20\n    /* \"#utility.yul\":2194:2203   */\n  dup5\n    /* \"#utility.yul\":2190:2208   */\n  add\n    /* \"#utility.yul\":2183:2217   */\n  mstore\n    /* \"#utility.yul\":2226:2305   */\n  tag_47\n    /* \"#utility.yul\":2298:2304   */\n  dup2\n    /* \"#utility.yul\":2293:2295   */\n  0x40\n    /* \"#utility.yul\":2282:2291   */\n  dup6\n    /* \"#utility.yul\":2278:2296   */\n  add\n    /* \"#utility.yul\":2273:2275   */\n  0x20\n    /* \"#utility.yul\":2265:2271   */\n  dup8\n    /* \"#utility.yul\":2261:2276   */\n  add\n    /* \"#utility.yul\":2226:2305   */\n  tag_23\n  jump\t// in\ntag_47:\n    /* \"#utility.yul\":2366:2368   */\n  0x1f\n    /* \"#utility.yul\":2345:2360   */\n  add\n  not(0x1f)\n    /* \"#utility.yul\":2341:2370   */\n  and\n    /* \"#utility.yul\":2326:2371   */\n  swap2\n  swap1\n  swap2\n  add\n    /* \"#utility.yul\":2373:2375   */\n  0x40\n    /* \"#utility.yul\":2322:2376   */\n  add\n  swap3\n    /* \"#utility.yul\":1986:2382   */\n  swap2\n  pop\n  pop\n  jump\t// out\n    /* \"#utility.yul\":2387:2767   */\ntag_24:\n    /* \"#utility.yul\":2466:2467   */\n  0x01\n    /* \"#utility.yul\":2462:2474   */\n  dup2\n  dup2\n  shr\n  swap1\n    /* \"#utility.yul\":2509:2521   */\n  dup3\n  and\n  dup1\n    /* \"#utility.yul\":2530:2591   */\n  tag_49\n  jumpi\n    /* \"#utility.yul\":2584:2588   */\n  0x7f\n    /* \"#utility.yul\":2576:2582   */\n  dup3\n    /* \"#utility.yul\":2572:2589   */\n  and\n    /* \"#utility.yul\":2562:2589   */\n  swap2\n  pop\n    /* \"#utility.yul\":2530:2591   */\ntag_49:\n    /* \"#utility.yul\":2637:2639   */\n  0x20\n    /* \"#utility.yul\":2629:2635   */\n  dup3\n    /* \"#utility.yul\":2626:2640   */\n  lt\n    /* \"#utility.yul\":2606:2624   */\n  dup2\n    /* \"#utility.yul\":2603:2641   */\n  sub\n    /* \"#utility.yul\":2600:2761   */\n  tag_50\n  jumpi\n    /* \"#utility.yul\":2683:2693   */\n  0x4e487b71\n    /* \"#utility.yul\":2678:2681   */\n  0xe0\n    /* \"#utility.yul\":2674:2694   */\n  shl\n    /* \"#utility.yul\":2671:2672   */\n  0x00\n    /* \"#utility.yul\":2664:2695   */\n  mstore\n    /* \"#utility.yul\":2718:2722   */\n  0x22\n    /* \"#utility.yul\":2715:2716   */\n  0x04\n    /* \"#utility.yul\":2708:2723   */\n  mstore\n    /* \"#utility.yul\":2746:2750   */\n  0x24\n    /* \"#utility.yul\":2743:2744   */\n  0x00\n    /* \"#utility.yul\":2736:2751   */\n  revert\n    /* \"#utility.yul\":2600:2761   */\ntag_50:\n  pop\n    /* \"#utility.yul\":2387:2767   */\n  swap2\n  swap1\n  pop\n  jump\t// out\n    /* \"#utility.yul\":2898:3416   */\ntag_26:\n    /* \"#utility.yul\":3000:3002   */\n  0x1f\n    /* \"#utility.yul\":2995:2998   */\n  dup3\n    /* \"#utility.yul\":2992:3003   */\n  gt\n    /* \"#utility.yul\":2989:3410   */\n  iszero\n  tag_53\n  jumpi\n    /* \"#utility.yul\":3036:3041   */\n  dup1\n    /* \"#utility.yul\":3033:3034   */\n  0x00\n    /* \"#utility.yul\":3026:3042   */\n  mstore\n    /* \"#utility.yul\":3080:3084   */\n  0x20\n    /* \"#utility.yul\":3077:3078   */\n  0x00\n    /* \"#utility.yul\":3067:3085   */\n  keccak256\n    /* \"#utility.yul\":3150:3152   */\n  0x1f\n    /* \"#utility.yul\":3138:3148   */\n  dup5\n    /* \"#utility.yul\":3134:3153   */\n  add\n    /* \"#utility.yul\":3131:3132   */\n  0x05\n    /* \"#utility.yul\":3127:3154   */\n  shr\n    /* \"#utility.yul\":3121:3125   */\n  dup2\n    /* \"#utility.yul\":3117:3155   */\n  add\n    /* \"#utility.yul\":3186:3190   */\n  0x20\n    /* \"#utility.yul\":3174:3184   */\n  dup6\n    /* \"#utility.yul\":3171:3191   */\n  lt\n    /* \"#utility.yul\":3168:3215   */\n  iszero\n  tag_54\n  jumpi\n  pop\n    /* \"#utility.yul\":3209:3213   */\n  dup1\n    /* \"#utility.yul\":3168:3215   */\ntag_54:\n    /* \"#utility.yul\":3264:3266   */\n  0x1f\n    /* \"#utility.yul\":3259:3262   */\n  dup5\n    /* \"#utility.yul\":3255:3267   */\n  add\n    /* \"#utility.yul\":3252:3253   */\n  0x05\n    /* \"#utility.yul\":3248:3268   */\n  shr\n    /* \"#utility.yul\":3242:3246   */\n  dup3\n    /* \"#utility.yul\":3238:3269   */\n  add\n    /* \"#utility.yul\":3228:3269   */\n  swap2\n  pop\n    /* \"#utility.yul\":3319:3400   */\ntag_55:\n    /* \"#utility.yul\":3337:3339   */\n  dup2\n    /* \"#utility.yul\":3330:3335   */\n  dup2\n    /* \"#utility.yul\":3327:3340   */\n  lt\n    /* \"#utility.yul\":3319:3400   */\n  iszero\n  tag_57\n  jumpi\n    /* \"#utility.yul\":3396:3397   */\n  0x00\n    /* \"#utility.yul\":3382:3398   */\n  dup2\n  sstore\n    /* \"#utility.yul\":3363:3364   */\n  0x01\n    /* \"#utility.yul\":3352:3365   */\n  add\n    /* \"#utility.yul\":3319:3400   */\n  jump(tag_55)\ntag_57:\n    /* \"#utility.yul\":3323:3326   */\n  pop\n  pop\n    /* \"#utility.yul\":2989:3410   */\ntag_53:\n    /* \"#utility.yul\":2898:3416   */\n  pop\n  pop\n  pop\n  jump\t// out\n    /* \"#utility.yul\":3592:4937   */\ntag_16:\n    /* \"#utility.yul\":3712:3722   */\n  dup2\n  mload\n  sub(shl(0x40, 0x01), 0x01)\n    /* \"#utility.yul\":3734:3764   */\n  dup2\n  gt\n    /* \"#utility.yul\":3731:3787   */\n  iszero\n  tag_61\n  jumpi\n    /* \"#utility.yul\":3767:3785   */\n  tag_61\n  tag_22\n  jump\t// in\ntag_61:\n    /* \"#utility.yul\":3796:3893   */\n  tag_62\n    /* \"#utility.yul\":3886:3892   */\n  dup2\n    /* \"#utility.yul\":3846:3884   */\n  tag_63\n    /* \"#utility.yul\":3878:3882   */\n  dup5\n    /* \"#utility.yul\":3872:3883   */\n  sload\n    /* \"#utility.yul\":3846:3884   */\n  tag_24\n  jump\t// in\ntag_63:\n    /* \"#utility.yul\":3840:3844   */\n  dup5\n    /* \"#utility.yul\":3796:3893   */\n  tag_26\n  jump\t// in\ntag_62:\n    /* \"#utility.yul\":3948:3952   */\n  0x20\n  dup1\n    /* \"#utility.yul\":4005:4007   */\n  0x1f\n    /* \"#utility.yul\":3994:4008   */\n  dup4\n  gt\n    /* \"#utility.yul\":4022:4023   */\n  0x01\n    /* \"#utility.yul\":4017:4680   */\n  dup2\n  eq\n  tag_65\n  jumpi\n    /* \"#utility.yul\":4724:4725   */\n  0x00\n    /* \"#utility.yul\":4741:4747   */\n  dup5\n    /* \"#utility.yul\":4738:4827   */\n  iszero\n  tag_66\n  jumpi\n  pop\n    /* \"#utility.yul\":4793:4812   */\n  dup6\n  dup4\n  add\n    /* \"#utility.yul\":4787:4813   */\n  mload\n    /* \"#utility.yul\":4738:4827   */\ntag_66:\n  not(0x00)\n    /* \"#utility.yul\":3549:3550   */\n  0x03\n    /* \"#utility.yul\":3545:3556   */\n  dup7\n  swap1\n  shl\n    /* \"#utility.yul\":3541:3565   */\n  shr\n    /* \"#utility.yul\":3537:3566   */\n  not\n    /* \"#utility.yul\":3527:3567   */\n  and\n    /* \"#utility.yul\":3573:3574   */\n  0x01\n    /* \"#utility.yul\":3569:3580   */\n  dup6\n  swap1\n  shl\n    /* \"#utility.yul\":3524:3581   */\n  or\n    /* \"#utility.yul\":4840:4921   */\n  dup6\n  sstore\n    /* \"#utility.yul\":3987:4931   */\n  jump(tag_64)\n    /* \"#utility.yul\":4017:4680   */\ntag_65:\n    /* \"#utility.yul\":2845:2846   */\n  0x00\n    /* \"#utility.yul\":2838:2852   */\n  dup6\n  dup2\n  mstore\n    /* \"#utility.yul\":2882:2886   */\n  0x20\n    /* \"#utility.yul\":2869:2887   */\n  dup2\n  keccak256\n  not(0x1f)\n    /* \"#utility.yul\":4053:4073   */\n  dup7\n  and\n  swap2\n    /* \"#utility.yul\":4171:4407   */\ntag_69:\n    /* \"#utility.yul\":4185:4192   */\n  dup3\n    /* \"#utility.yul\":4182:4183   */\n  dup2\n    /* \"#utility.yul\":4179:4193   */\n  lt\n    /* \"#utility.yul\":4171:4407   */\n  iszero\n  tag_71\n  jumpi\n    /* \"#utility.yul\":4274:4293   */\n  dup9\n  dup7\n  add\n    /* \"#utility.yul\":4268:4294   */\n  mload\n    /* \"#utility.yul\":4253:4295   */\n  dup3\n  sstore\n    /* \"#utility.yul\":4366:4393   */\n  swap5\n  dup5\n  add\n  swap5\n    /* \"#utility.yul\":4334:4335   */\n  0x01\n    /* \"#utility.yul\":4322:4336   */\n  swap1\n  swap2\n  add\n  swap1\n    /* \"#utility.yul\":4201:4220   */\n  dup5\n  add\n    /* \"#utility.yul\":4171:4407   */\n  jump(tag_69)\ntag_71:\n    /* \"#utility.yul\":4175:4178   */\n  pop\n    /* \"#utility.yul\":4435:4441   */\n  dup6\n    /* \"#utility.yul\":4426:4433   */\n  dup3\n    /* \"#utility.yul\":4423:4442   */\n  lt\n    /* \"#utility.yul\":4420:4621   */\n  iszero\n  tag_72\n  jumpi\n    /* \"#utility.yul\":4496:4515   */\n  dup8\n  dup6\n  add\n    /* \"#utility.yul\":4490:4516   */\n  mload\n  not(0x00)\n    /* \"#utility.yul\":4579:4580   */\n  0x03\n    /* \"#utility.yul\":4575:4589   */\n  dup9\n  swap1\n  shl\n    /* \"#utility.yul\":4591:4594   */\n  0xf8\n    /* \"#utility.yul\":4571:4595   */\n  and\n    /* \"#utility.yul\":4567:4604   */\n  shr\n    /* \"#utility.yul\":4563:4605   */\n  not\n    /* \"#utility.yul\":4548:4606   */\n  and\n    /* \"#utility.yul\":4533:4607   */\n  dup2\n  sstore\n    /* \"#utility.yul\":4420:4621   */\ntag_72:\n  pop\n  pop\n    /* \"#utility.yul\":4667:4668   */\n  0x01\n    /* \"#utility.yul\":4658:4664   */\n  dup5\n    /* \"#utility.yul\":4655:4656   */\n  0x01\n    /* \"#utility.yul\":4651:4665   */\n  shl\n    /* \"#utility.yul\":4647:4669   */\n  add\n    /* \"#utility.yul\":4641:4645   */\n  dup6\n    /* \"#utility.yul\":4634:4670   */\n  sstore\n    /* \"#utility.yul\":3987:4931   */\ntag_64:\n  pop\n  pop\n  pop\n  pop\n    /* \"#utility.yul\":3592:4937   */\n  pop\n  pop\n  jump\t// out\n    /* \"#utility.yul\":4942:5274   */\ntag_28:\n    /* \"contracts/new/0524VirtualConstructor.sol\":542:697  contract F is D, E(\"abc\") {... */\n  dataSize(sub_0)\n  dup1\n  dataOffset(sub_0)\n  0x00\n  codecopy\n  0x00\n  return\nstop\ndata_60a75ae7689ea1d21cfe8f709cd0af535ef85f4586ae303136a6d9871b998e0e cf34ef537ac33ee1ac626ca1587a0a7e8e51561e5514f8cb36afa1c5102b3bab\n\nsub_0: assembly {\n        /* \"contracts/new/0524VirtualConstructor.sol\":542:697  contract F is D, E(\"abc\") {... */\n      mstore(0x40, 0x80)\n      callvalue\n      dup1\n      iszero\n      tag_1\n      jumpi\n      0x00\n      dup1\n      revert\n    tag_1:\n      pop\n      jumpi(tag_2, lt(calldatasize, 0x04))\n      shr(0xe0, calldataload(0x00))\n      dup1\n      0x06fdde03\n      eq\n      tag_3\n      jumpi\n      dup1\n      0x1f1bd692\n      eq\n      tag_4\n      jumpi\n    tag_2:\n      0x00\n      dup1\n      revert\n        /* \"contracts/new/0524VirtualConstructor.sol\":281:299  string public name */\n    tag_3:\n      tag_5\n      tag_6\n      jump\t// in\n    tag_5:\n      mload(0x40)\n      tag_7\n      swap2\n      swap1\n      tag_8\n      jump\t// in\n    tag_7:\n      mload(0x40)\n      dup1\n      swap2\n      sub\n      swap1\n      return\n        /* \"contracts/new/0524VirtualConstructor.sol\":574:592  string public text */\n    tag_4:\n      tag_5\n      tag_10\n      jump\t// in\n        /* \"contracts/new/0524VirtualConstructor.sol\":281:299  string public name */\n    tag_6:\n      0x00\n      dup1\n      sload\n      tag_12\n      swap1\n      tag_13\n      jump\t// in\n    tag_12:\n      dup1\n      0x1f\n      add\n      0x20\n      dup1\n      swap2\n      div\n      mul\n      0x20\n      add\n      mload(0x40)\n      swap1\n      dup2\n      add\n      0x40\n      mstore\n      dup1\n      swap3\n      swap2\n      swap1\n      dup2\n      dup2\n      mstore\n      0x20\n      add\n      dup3\n      dup1\n      sload\n      tag_14\n      swap1\n      tag_13\n      jump\t// in\n    tag_14:\n      dup1\n      iszero\n      tag_15\n      jumpi\n      dup1\n      0x1f\n      lt\n      tag_16\n      jumpi\n      0x0100\n      dup1\n      dup4\n      sload\n      div\n      mul\n      dup4\n      mstore\n      swap2\n      0x20\n      add\n      swap2\n      jump(tag_15)\n    tag_16:\n      dup3\n      add\n      swap2\n      swap1\n      0x00\n      mstore\n      keccak256(0x00, 0x20)\n      swap1\n    tag_17:\n      dup2\n      sload\n      dup2\n      mstore\n      swap1\n      0x01\n      add\n      swap1\n      0x20\n      add\n      dup1\n      dup4\n      gt\n      tag_17\n      jumpi\n      dup3\n      swap1\n      sub\n      0x1f\n      and\n      dup3\n      add\n      swap2\n    tag_15:\n      pop\n      pop\n      pop\n      pop\n      pop\n      dup2\n      jump\t// out\n        /* \"contracts/new/0524VirtualConstructor.sol\":574:592  string public text */\n    tag_10:\n      0x01\n      dup1\n      sload\n      tag_12\n      swap1\n      tag_13\n      jump\t// in\n        /* \"#utility.yul\":14:562   */\n    tag_8:\n        /* \"#utility.yul\":126:130   */\n      0x00\n        /* \"#utility.yul\":155:157   */\n      0x20\n        /* \"#utility.yul\":184:186   */\n      dup1\n        /* \"#utility.yul\":173:182   */\n      dup4\n        /* \"#utility.yul\":166:187   */\n      mstore\n        /* \"#utility.yul\":216:222   */\n      dup4\n        /* \"#utility.yul\":210:223   */\n      mload\n        /* \"#utility.yul\":259:265   */\n      dup1\n        /* \"#utility.yul\":254:256   */\n      0x20\n        /* \"#utility.yul\":243:252   */\n      dup6\n        /* \"#utility.yul\":239:257   */\n      add\n        /* \"#utility.yul\":232:266   */\n      mstore\n        /* \"#utility.yul\":284:285   */\n      0x00\n        /* \"#utility.yul\":294:434   */\n    tag_25:\n        /* \"#utility.yul\":308:314   */\n      dup2\n        /* \"#utility.yul\":305:306   */\n      dup2\n        /* \"#utility.yul\":302:315   */\n      lt\n        /* \"#utility.yul\":294:434   */\n      iszero\n      tag_27\n      jumpi\n        /* \"#utility.yul\":403:417   */\n      dup6\n      dup2\n      add\n        /* \"#utility.yul\":399:422   */\n      dup4\n      add\n        /* \"#utility.yul\":393:423   */\n      mload\n        /* \"#utility.yul\":369:386   */\n      dup6\n      dup3\n      add\n        /* \"#utility.yul\":388:390   */\n      0x40\n        /* \"#utility.yul\":365:391   */\n      add\n        /* \"#utility.yul\":358:424   */\n      mstore\n        /* \"#utility.yul\":323:333   */\n      dup3\n      add\n        /* \"#utility.yul\":294:434   */\n      jump(tag_25)\n    tag_27:\n        /* \"#utility.yul\":298:301   */\n      pop\n        /* \"#utility.yul\":483:484   */\n      0x00\n        /* \"#utility.yul\":478:480   */\n      0x40\n        /* \"#utility.yul\":469:475   */\n      dup3\n        /* \"#utility.yul\":458:467   */\n      dup7\n        /* \"#utility.yul\":454:476   */\n      add\n        /* \"#utility.yul\":450:481   */\n      add\n        /* \"#utility.yul\":443:485   */\n      mstore\n        /* \"#utility.yul\":553:555   */\n      0x40\n        /* \"#utility.yul\":546:548   */\n      0x1f\n        /* \"#utility.yul\":542:549   */\n      not\n        /* \"#utility.yul\":537:539   */\n      0x1f\n        /* \"#utility.yul\":529:535   */\n      dup4\n        /* \"#utility.yul\":525:540   */\n      add\n        /* \"#utility.yul\":521:550   */\n      and\n        /* \"#utility.yul\":510:519   */\n      dup6\n        /* \"#utility.yul\":506:551   */\n      add\n        /* \"#utility.yul\":502:556   */\n      add\n        /* \"#utility.yul\":494:556   */\n      swap3\n      pop\n      pop\n      pop\n        /* \"#utility.yul\":14:562   */\n      swap3\n      swap2\n      pop\n      pop\n      jump\t// out\n        /* \"#utility.yul\":567:947   */\n    tag_13:\n        /* \"#utility.yul\":646:647   */\n      0x01\n        /* \"#utility.yul\":642:654   */\n      dup2\n      dup2\n      shr\n      swap1\n        /* \"#utility.yul\":689:701   */\n      dup3\n      and\n      dup1\n        /* \"#utility.yul\":710:771   */\n      tag_29\n      jumpi\n        /* \"#utility.yul\":764:768   */\n      0x7f\n        /* \"#utility.yul\":756:762   */\n      dup3\n        /* \"#utility.yul\":752:769   */\n      and\n        /* \"#utility.yul\":742:769   */\n      swap2\n      pop\n        /* \"#utility.yul\":710:771   */\n    tag_29:\n        /* \"#utility.yul\":817:819   */\n      0x20\n        /* \"#utility.yul\":809:815   */\n      dup3\n        /* \"#utility.yul\":806:820   */\n      lt\n        /* \"#utility.yul\":786:804   */\n      dup2\n        /* \"#utility.yul\":783:821   */\n      sub\n        /* \"#utility.yul\":780:941   */\n      tag_30\n      jumpi\n        /* \"#utility.yul\":863:873   */\n      0x4e487b71\n        /* \"#utility.yul\":858:861   */\n      0xe0\n        /* \"#utility.yul\":854:874   */\n      shl\n        /* \"#utility.yul\":851:852   */\n      0x00\n        /* \"#utility.yul\":844:875   */\n      mstore\n        /* \"#utility.yul\":898:902   */\n      0x22\n        /* \"#utility.yul\":895:896   */\n      0x04\n        /* \"#utility.yul\":888:903   */\n      mstore\n        /* \"#utility.yul\":926:930   */\n      0x24\n        /* \"#utility.yul\":923:924   */\n      0x00\n        /* \"#utility.yul\":916:931   */\n      revert\n        /* \"#utility.yul\":780:941   */\n    tag_30:\n      pop\n        /* \"#utility.yul\":567:947   */\n      swap2\n      swap1\n      pop\n      jump\t// out\n\n    auxdata: 0xa2646970667358221220283c1bbbbdf3a41067d87ab1eec9c7e65509dcbae608a5b16ba3160704a73ffc64736f6c63430008170033\n}\n",
				"bytecode": {
					"linkReferences": {},
					"object": "608060405234801561000f575f80fd5b5060405161058538038061058583398101604081905261002e9161018c565b6040518060400160405280600381526020016261626360e81b8152505f80516020610565833981519152604051610082906020808252600990820152681d1a1a5cc81a5cc81160ba1b604082015260600190565b60405180910390a15f805160206105658339815191526040516100ca9060208082526011908201527003a3434b99034b990229d903730b6b29e9607d1b604082015260600190565b60405180910390a15f80516020610565833981519152816040516100ee9190610233565b60405180910390a15f61010182826102e9565b50505f8051602061056583398151915260405161013b906020808252600990820152683a3434b99034b9902360b91b604082015260600190565b60405180910390a1600161014f82826102e9565b50506103a8565b634e487b7160e01b5f52604160045260245ffd5b5f5b8381101561018457818101518382015260200161016c565b50505f910152565b5f6020828403121561019c575f80fd5b81516001600160401b03808211156101b2575f80fd5b818401915084601f8301126101c5575f80fd5b8151818111156101d7576101d7610156565b604051601f8201601f19908116603f011681019083821181831017156101ff576101ff610156565b81604052828152876020848701011115610217575f80fd5b61022883602083016020880161016a565b979650505050505050565b602081525f825180602084015261025181604085016020870161016a565b601f01601f19169190910160400192915050565b600181811c9082168061027957607f821691505b60208210810361029757634e487b7160e01b5f52602260045260245ffd5b50919050565b601f8211156102e457805f5260205f20601f840160051c810160208510156102c25750805b601f840160051c820191505b818110156102e1575f81556001016102ce565b50505b505050565b81516001600160401b0381111561030257610302610156565b610316816103108454610265565b8461029d565b602080601f831160018114610349575f84156103325750858301515b5f19600386901b1c1916600185901b1785556103a0565b5f85815260208120601f198616915b8281101561037757888601518255948401946001909101908401610358565b508582101561039457878501515f19600388901b60f8161c191681555b505060018460011b0185555b505050505050565b6101b0806103b55f395ff3fe608060405234801561000f575f80fd5b5060043610610034575f3560e01c806306fdde03146100385780631f1bd69214610056575b5f80fd5b61004061005e565b60405161004d91906100f6565b60405180910390f35b6100406100e9565b5f805461006a90610142565b80601f016020809104026020016040519081016040528092919081815260200182805461009690610142565b80156100e15780601f106100b8576101008083540402835291602001916100e1565b820191905f5260205f20905b8154815290600101906020018083116100c457829003601f168201915b505050505081565b6001805461006a90610142565b5f602080835283518060208501525f5b8181101561012257858101830151858201604001528201610106565b505f604082860101526040601f19601f8301168501019250505092915050565b600181811c9082168061015657607f821691505b60208210810361017457634e487b7160e01b5f52602260045260245ffd5b5091905056fea2646970667358221220283c1bbbbdf3a41067d87ab1eec9c7e65509dcbae608a5b16ba3160704a73ffc64736f6c63430008170033cf34ef537ac33ee1ac626ca1587a0a7e8e51561e5514f8cb36afa1c5102b3bab",
					"opcodes": "PUSH1 0x80 PUSH1 0x40 MSTORE CALLVALUE DUP1 ISZERO PUSH2 0xF JUMPI PUSH0 DUP1 REVERT JUMPDEST POP PUSH1 0x40 MLOAD PUSH2 0x585 CODESIZE SUB DUP1 PUSH2 0x585 DUP4 CODECOPY DUP2 ADD PUSH1 0x40 DUP2 SWAP1 MSTORE PUSH2 0x2E SWAP2 PUSH2 0x18C JUMP JUMPDEST PUSH1 0x40 MLOAD DUP1 PUSH1 0x40 ADD PUSH1 0x40 MSTORE DUP1 PUSH1 0x3 DUP2 MSTORE PUSH1 0x20 ADD PUSH3 0x616263 PUSH1 0xE8 SHL DUP2 MSTORE POP PUSH0 DUP1 MLOAD PUSH1 0x20 PUSH2 0x565 DUP4 CODECOPY DUP2 MLOAD SWAP2 MSTORE PUSH1 0x40 MLOAD PUSH2 0x82 SWAP1 PUSH1 0x20 DUP1 DUP3 MSTORE PUSH1 0x9 SWAP1 DUP3 ADD MSTORE PUSH9 0x1D1A1A5CC81A5CC811 PUSH1 0xBA SHL PUSH1 0x40 DUP3 ADD MSTORE PUSH1 0x60 ADD SWAP1 JUMP JUMPDEST PUSH1 0x40 MLOAD DUP1 SWAP2 SUB SWAP1 LOG1 PUSH0 DUP1 MLOAD PUSH1 0x20 PUSH2 0x565 DUP4 CODECOPY DUP2 MLOAD SWAP2 MSTORE PUSH1 0x40 MLOAD PUSH2 0xCA SWAP1 PUSH1 0x20 DUP1 DUP3 MSTORE PUSH1 0x11 SWAP1 DUP3 ADD MSTORE PUSH17 0x3A3434B99034B990229D903730B6B29E9 PUSH1 0x7D SHL PUSH1 0x40 DUP3 ADD MSTORE PUSH1 0x60 ADD SWAP1 JUMP JUMPDEST PUSH1 0x40 MLOAD DUP1 SWAP2 SUB SWAP1 LOG1 PUSH0 DUP1 MLOAD PUSH1 0x20 PUSH2 0x565 DUP4 CODECOPY DUP2 MLOAD SWAP2 MSTORE DUP2 PUSH1 0x40 MLOAD PUSH2 0xEE SWAP2 SWAP1 PUSH2 0x233 JUMP JUMPDEST PUSH1 0x40 MLOAD DUP1 SWAP2 SUB SWAP1 LOG1 PUSH0 PUSH2 0x101 DUP3 DUP3 PUSH2 0x2E9 JUMP JUMPDEST POP POP PUSH0 DUP1 MLOAD PUSH1 0x20 PUSH2 0x565 DUP4 CODECOPY DUP2 MLOAD SWAP2 MSTORE PUSH1 0x40 MLOAD PUSH2 0x13B SWAP1 PUSH1 0x20 DUP1 DUP3 MSTORE PUSH1 0x9 SWAP1 DUP3 ADD MSTORE PUSH9 0x3A3434B99034B99023 PUSH1 0xB9 SHL PUSH1 0x40 DUP3 ADD MSTORE PUSH1 0x60 ADD SWAP1 JUMP JUMPDEST PUSH1 0x40 MLOAD DUP1 SWAP2 SUB SWAP1 LOG1 PUSH1 0x1 PUSH2 0x14F DUP3 DUP3 PUSH2 0x2E9 JUMP JUMPDEST POP POP PUSH2 0x3A8 JUMP JUMPDEST PUSH4 0x4E487B71 PUSH1 0xE0 SHL PUSH0 MSTORE PUSH1 0x41 PUSH1 0x4 MSTORE PUSH1 0x24 PUSH0 REVERT JUMPDEST PUSH0 JUMPDEST DUP4 DUP2 LT ISZERO PUSH2 0x184 JUMPI DUP2 DUP2 ADD MLOAD DUP4 DUP3 ADD MSTORE PUSH1 0x20 ADD PUSH2 0x16C JUMP JUMPDEST POP POP PUSH0 SWAP2 ADD MSTORE JUMP JUMPDEST PUSH0 PUSH1 0x20 DUP3 DUP5 SUB SLT ISZERO PUSH2 0x19C JUMPI PUSH0 DUP1 REVERT JUMPDEST DUP2 MLOAD PUSH1 0x1 PUSH1 0x1 PUSH1 0x40 SHL SUB DUP1 DUP3 GT ISZERO PUSH2 0x1B2 JUMPI PUSH0 DUP1 REVERT JUMPDEST DUP2 DUP5 ADD SWAP2 POP DUP5 PUSH1 0x1F DUP4 ADD SLT PUSH2 0x1C5 JUMPI PUSH0 DUP1 REVERT JUMPDEST DUP2 MLOAD DUP2 DUP2 GT ISZERO PUSH2 0x1D7 JUMPI PUSH2 0x1D7 PUSH2 0x156 JUMP JUMPDEST PUSH1 0x40 MLOAD PUSH1 0x1F DUP3 ADD PUSH1 0x1F NOT SWAP1 DUP2 AND PUSH1 0x3F ADD AND DUP2 ADD SWAP1 DUP4 DUP3 GT DUP2 DUP4 LT OR ISZERO PUSH2 0x1FF JUMPI PUSH2 0x1FF PUSH2 0x156 JUMP JUMPDEST DUP2 PUSH1 0x40 MSTORE DUP3 DUP2 MSTORE DUP8 PUSH1 0x20 DUP5 DUP8 ADD ADD GT ISZERO PUSH2 0x217 JUMPI PUSH0 DUP1 REVERT JUMPDEST PUSH2 0x228 DUP4 PUSH1 0x20 DUP4 ADD PUSH1 0x20 DUP9 ADD PUSH2 0x16A JUMP JUMPDEST SWAP8 SWAP7 POP POP POP POP POP POP POP JUMP JUMPDEST PUSH1 0x20 DUP2 MSTORE PUSH0 DUP3 MLOAD DUP1 PUSH1 0x20 DUP5 ADD MSTORE PUSH2 0x251 DUP2 PUSH1 0x40 DUP6 ADD PUSH1 0x20 DUP8 ADD PUSH2 0x16A JUMP JUMPDEST PUSH1 0x1F ADD PUSH1 0x1F NOT AND SWAP2 SWAP1 SWAP2 ADD PUSH1 0x40 ADD SWAP3 SWAP2 POP POP JUMP JUMPDEST PUSH1 0x1 DUP2 DUP2 SHR SWAP1 DUP3 AND DUP1 PUSH2 0x279 JUMPI PUSH1 0x7F DUP3 AND SWAP2 POP JUMPDEST PUSH1 0x20 DUP3 LT DUP2 SUB PUSH2 0x297 JUMPI PUSH4 0x4E487B71 PUSH1 0xE0 SHL PUSH0 MSTORE PUSH1 0x22 PUSH1 0x4 MSTORE PUSH1 0x24 PUSH0 REVERT JUMPDEST POP SWAP2 SWAP1 POP JUMP JUMPDEST PUSH1 0x1F DUP3 GT ISZERO PUSH2 0x2E4 JUMPI DUP1 PUSH0 MSTORE PUSH1 0x20 PUSH0 KECCAK256 PUSH1 0x1F DUP5 ADD PUSH1 0x5 SHR DUP2 ADD PUSH1 0x20 DUP6 LT ISZERO PUSH2 0x2C2 JUMPI POP DUP1 JUMPDEST PUSH1 0x1F DUP5 ADD PUSH1 0x5 SHR DUP3 ADD SWAP2 POP JUMPDEST DUP2 DUP2 LT ISZERO PUSH2 0x2E1 JUMPI PUSH0 DUP2 SSTORE PUSH1 0x1 ADD PUSH2 0x2CE JUMP JUMPDEST POP POP JUMPDEST POP POP POP JUMP JUMPDEST DUP2 MLOAD PUSH1 0x1 PUSH1 0x1 PUSH1 0x40 SHL SUB DUP2 GT ISZERO PUSH2 0x302 JUMPI PUSH2 0x302 PUSH2 0x156 JUMP JUMPDEST PUSH2 0x316 DUP2 PUSH2 0x310 DUP5 SLOAD PUSH2 0x265 JUMP JUMPDEST DUP5 PUSH2 0x29D JUMP JUMPDEST PUSH1 0x20 DUP1 PUSH1 0x1F DUP4 GT PUSH1 0x1 DUP2 EQ PUSH2 0x349 JUMPI PUSH0 DUP5 ISZERO PUSH2 0x332 JUMPI POP DUP6 DUP4 ADD MLOAD JUMPDEST PUSH0 NOT PUSH1 0x3 DUP7 SWAP1 SHL SHR NOT AND PUSH1 0x1 DUP6 SWAP1 SHL OR DUP6 SSTORE PUSH2 0x3A0 JUMP JUMPDEST PUSH0 DUP6 DUP2 MSTORE PUSH1 0x20 DUP2 KECCAK256 PUSH1 0x1F NOT DUP7 AND SWAP2 JUMPDEST DUP3 DUP2 LT ISZERO PUSH2 0x377 JUMPI DUP9 DUP7 ADD MLOAD DUP3 SSTORE SWAP5 DUP5 ADD SWAP5 PUSH1 0x1 SWAP1 SWAP2 ADD SWAP1 DUP5 ADD PUSH2 0x358 JUMP JUMPDEST POP DUP6 DUP3 LT ISZERO PUSH2 0x394 JUMPI DUP8 DUP6 ADD MLOAD PUSH0 NOT PUSH1 0x3 DUP9 SWAP1 SHL PUSH1 0xF8 AND SHR NOT AND DUP2 SSTORE JUMPDEST POP POP PUSH1 0x1 DUP5 PUSH1 0x1 SHL ADD DUP6 SSTORE JUMPDEST POP POP POP POP POP POP JUMP JUMPDEST PUSH2 0x1B0 DUP1 PUSH2 0x3B5 PUSH0 CODECOPY PUSH0 RETURN INVALID PUSH1 0x80 PUSH1 0x40 MSTORE CALLVALUE DUP1 ISZERO PUSH2 0xF JUMPI PUSH0 DUP1 REVERT JUMPDEST POP PUSH1 0x4 CALLDATASIZE LT PUSH2 0x34 JUMPI PUSH0 CALLDATALOAD PUSH1 0xE0 SHR DUP1 PUSH4 0x6FDDE03 EQ PUSH2 0x38 JUMPI DUP1 PUSH4 0x1F1BD692 EQ PUSH2 0x56 JUMPI JUMPDEST PUSH0 DUP1 REVERT JUMPDEST PUSH2 0x40 PUSH2 0x5E JUMP JUMPDEST PUSH1 0x40 MLOAD PUSH2 0x4D SWAP2 SWAP1 PUSH2 0xF6 JUMP JUMPDEST PUSH1 0x40 MLOAD DUP1 SWAP2 SUB SWAP1 RETURN JUMPDEST PUSH2 0x40 PUSH2 0xE9 JUMP JUMPDEST PUSH0 DUP1 SLOAD PUSH2 0x6A SWAP1 PUSH2 0x142 JUMP JUMPDEST DUP1 PUSH1 0x1F ADD PUSH1 0x20 DUP1 SWAP2 DIV MUL PUSH1 0x20 ADD PUSH1 0x40 MLOAD SWAP1 DUP2 ADD PUSH1 0x40 MSTORE DUP1 SWAP3 SWAP2 SWAP1 DUP2 DUP2 MSTORE PUSH1 0x20 ADD DUP3 DUP1 SLOAD PUSH2 0x96 SWAP1 PUSH2 0x142 JUMP JUMPDEST DUP1 ISZERO PUSH2 0xE1 JUMPI DUP1 PUSH1 0x1F LT PUSH2 0xB8 JUMPI PUSH2 0x100 DUP1 DUP4 SLOAD DIV MUL DUP4 MSTORE SWAP2 PUSH1 0x20 ADD SWAP2 PUSH2 0xE1 JUMP JUMPDEST DUP3 ADD SWAP2 SWAP1 PUSH0 MSTORE PUSH1 0x20 PUSH0 KECCAK256 SWAP1 JUMPDEST DUP2 SLOAD DUP2 MSTORE SWAP1 PUSH1 0x1 ADD SWAP1 PUSH1 0x20 ADD DUP1 DUP4 GT PUSH2 0xC4 JUMPI DUP3 SWAP1 SUB PUSH1 0x1F AND DUP3 ADD SWAP2 JUMPDEST POP POP POP POP POP DUP2 JUMP JUMPDEST PUSH1 0x1 DUP1 SLOAD PUSH2 0x6A SWAP1 PUSH2 0x142 JUMP JUMPDEST PUSH0 PUSH1 0x20 DUP1 DUP4 MSTORE DUP4 MLOAD DUP1 PUSH1 0x20 DUP6 ADD MSTORE PUSH0 JUMPDEST DUP2 DUP2 LT ISZERO PUSH2 0x122 JUMPI DUP6 DUP2 ADD DUP4 ADD MLOAD DUP6 DUP3 ADD PUSH1 0x40 ADD MSTORE DUP3 ADD PUSH2 0x106 JUMP JUMPDEST POP PUSH0 PUSH1 0x40 DUP3 DUP7 ADD ADD MSTORE PUSH1 0x40 PUSH1 0x1F NOT PUSH1 0x1F DUP4 ADD AND DUP6 ADD ADD SWAP3 POP POP POP SWAP3 SWAP2 POP POP JUMP JUMPDEST PUSH1 0x1 DUP2 DUP2 SHR SWAP1 DUP3 AND DUP1 PUSH2 0x156 JUMPI PUSH1 0x7F DUP3 AND SWAP2 POP JUMPDEST PUSH1 0x20 DUP3 LT DUP2 SUB PUSH2 0x174 JUMPI PUSH4 0x4E487B71 PUSH1 0xE0 SHL PUSH0 MSTORE PUSH1 0x22 PUSH1 0x4 MSTORE PUSH1 0x24 PUSH0 REVERT JUMPDEST POP SWAP2 SWAP1 POP JUMP INVALID LOG2 PUSH5 0x6970667358 0x22 SLT KECCAK256 0x28 EXTCODECOPY SHL 0xBB 0xBD RETURN LOG4 LT PUSH8 0xD87AB1EEC9C7E655 MULMOD 0xDC 0xBA 0xE6 ADDMOD 0xA5 0xB1 PUSH12 0xA3160704A73FFC64736F6C63 NUMBER STOP ADDMOD OR STOP CALLER 0xCF CALLVALUE 0xEF MSTORE8 PUSH27 0xC33EE1AC626CA1587A0A7E8E51561E5514F8CB36AFA1C5102B3BAB "
				},
				"gasEstimates": {
					"creation": {
						"codeDepositCost": "86400",
						"executionCost": "infinite",
						"totalCost": "infinite"
					},
					"external": {
						"name()": "infinite",
						"text()": "infinite"
					}
				},
				"methodIdentifiers": {
					"name()": "06fdde03",
					"text()": "1f1bd692"
				}
			},
			"storageLayout": {
				"storage": [
					{
						"astId": 21,
						"contract": "contracts/new/0524VirtualConstructor.sol:F",
						"label": "name",
						"offset": 0,
						"slot": "0",
						"type": "t_string_storage"
					},
					{
						"astId": 58,
						"contract": "contracts/new/0524VirtualConstructor.sol:F",
						"label": "text",
						"offset": 0,
						"slot": "1",
						"type": "t_string_storage"
					}
				],
				"types": {
					"t_string_storage": {
						"encoding": "bytes",
						"label": "string",
						"numberOfBytes": "32"
					}
				}
			},
			"userdoc": {
				"kind": "user",
				"methods": {},
				"version": 1
			}
		}
	}
}