{
	"contracts/四W安全性和验证/HashFunc.sol": {
		"HashFunc": {
			"abi": [
				{
					"inputs": [
						{
							"internalType": "string",
							"name": "text1",
							"type": "string"
						},
						{
							"internalType": "string",
							"name": "text2",
							"type": "string"
						}
					],
					"name": "encode",
					"outputs": [
						{
							"internalType": "bytes32",
							"name": "",
							"type": "bytes32"
						}
					],
					"stateMutability": "pure",
					"type": "function"
				},
				{
					"inputs": [
						{
							"internalType": "string",
							"name": "text1",
							"type": "string"
						},
						{
							"internalType": "string",
							"name": "text2",
							"type": "string"
						}
					],
					"name": "encodePacked",
					"outputs": [
						{
							"internalType": "bytes32",
							"name": "",
							"type": "bytes32"
						}
					],
					"stateMutability": "pure",
					"type": "function"
				},
				{
					"inputs": [
						{
							"internalType": "string",
							"name": "text1",
							"type": "string"
						},
						{
							"internalType": "uint256",
							"name": "num",
							"type": "uint256"
						},
						{
							"internalType": "string",
							"name": "text2",
							"type": "string"
						}
					],
					"name": "encodePacked2",
					"outputs": [
						{
							"internalType": "bytes32",
							"name": "",
							"type": "bytes32"
						}
					],
					"stateMutability": "pure",
					"type": "function"
				},
				{
					"inputs": [
						{
							"internalType": "string",
							"name": "text",
							"type": "string"
						},
						{
							"internalType": "uint256",
							"name": "num",
							"type": "uint256"
						},
						{
							"internalType": "address",
							"name": "addr",
							"type": "address"
						}
					],
					"name": "hash",
					"outputs": [
						{
							"internalType": "bytes32",
							"name": "",
							"type": "bytes32"
						}
					],
					"stateMutability": "pure",
					"type": "function"
				}
			],
			"devdoc": {
				"kind": "dev",
				"methods": {},
				"version": 1
			},
			"evm": {
				"assembly": "    /* \"contracts/\\xe5\\x9b\\x9bW\\xe5\\xae\\x89\\xe5\\x85\\xa8\\xe6\\x80\\xa7\\xe5\\x92\\x8c\\xe9\\xaa\\x8c\\xe8\\xaf\\x81/HashFunc.sol\":285:1232  contract HashFunc {... */\n  mstore(0x40, 0x80)\n  callvalue\n  dup1\n  iszero\n  tag_1\n  jumpi\n  0x00\n  dup1\n  revert\ntag_1:\n  pop\n  dataSize(sub_0)\n  dup1\n  dataOffset(sub_0)\n  0x00\n  codecopy\n  0x00\n  return\nstop\n\nsub_0: assembly {\n        /* \"contracts/\\xe5\\x9b\\x9bW\\xe5\\xae\\x89\\xe5\\x85\\xa8\\xe6\\x80\\xa7\\xe5\\x92\\x8c\\xe9\\xaa\\x8c\\xe8\\xaf\\x81/HashFunc.sol\":285:1232  contract HashFunc {... */\n      mstore(0x40, 0x80)\n      callvalue\n      dup1\n      iszero\n      tag_1\n      jumpi\n      0x00\n      dup1\n      revert\n    tag_1:\n      pop\n      jumpi(tag_2, lt(calldatasize, 0x04))\n      shr(0xe0, calldataload(0x00))\n      dup1\n      0x17fe2da2\n      eq\n      tag_3\n      jumpi\n      dup1\n      0x5dda416e\n      eq\n      tag_4\n      jumpi\n      dup1\n      0x892e5d01\n      eq\n      tag_5\n      jumpi\n      dup1\n      0xd9a8d2bc\n      eq\n      tag_6\n      jumpi\n    tag_2:\n      0x00\n      dup1\n      revert\n        /* \"contracts/\\xe5\\x9b\\x9bW\\xe5\\xae\\x89\\xe5\\x85\\xa8\\xe6\\x80\\xa7\\xe5\\x92\\x8c\\xe9\\xaa\\x8c\\xe8\\xaf\\x81/HashFunc.sol\":533:704  function encode(... */\n    tag_3:\n      tag_7\n      0x04\n      dup1\n      calldatasize\n      sub\n      dup2\n      add\n      swap1\n      tag_8\n      swap2\n      swap1\n      tag_9\n      jump\t// in\n    tag_8:\n      tag_10\n      jump\t// in\n    tag_7:\n      mload(0x40)\n      tag_11\n      swap2\n      swap1\n      tag_12\n      jump\t// in\n    tag_11:\n      mload(0x40)\n      dup1\n      swap2\n      sub\n      swap1\n      return\n        /* \"contracts/\\xe5\\x9b\\x9bW\\xe5\\xae\\x89\\xe5\\x85\\xa8\\xe6\\x80\\xa7\\xe5\\x92\\x8c\\xe9\\xaa\\x8c\\xe8\\xaf\\x81/HashFunc.sol\":309:497  function hash(... */\n    tag_4:\n      tag_13\n      0x04\n      dup1\n      calldatasize\n      sub\n      dup2\n      add\n      swap1\n      tag_14\n      swap2\n      swap1\n      tag_15\n      jump\t// in\n    tag_14:\n      tag_16\n      jump\t// in\n    tag_13:\n      mload(0x40)\n      tag_17\n      swap2\n      swap1\n      tag_12\n      jump\t// in\n    tag_17:\n      mload(0x40)\n      dup1\n      swap2\n      sub\n      swap1\n      return\n        /* \"contracts/\\xe5\\x9b\\x9bW\\xe5\\xae\\x89\\xe5\\x85\\xa8\\xe6\\x80\\xa7\\xe5\\x92\\x8c\\xe9\\xaa\\x8c\\xe8\\xaf\\x81/HashFunc.sol\":791:974  function encodePacked(... */\n    tag_5:\n      tag_18\n      0x04\n      dup1\n      calldatasize\n      sub\n      dup2\n      add\n      swap1\n      tag_19\n      swap2\n      swap1\n      tag_9\n      jump\t// in\n    tag_19:\n      tag_20\n      jump\t// in\n    tag_18:\n      mload(0x40)\n      tag_21\n      swap2\n      swap1\n      tag_12\n      jump\t// in\n    tag_21:\n      mload(0x40)\n      dup1\n      swap2\n      sub\n      swap1\n      return\n        /* \"contracts/\\xe5\\x9b\\x9bW\\xe5\\xae\\x89\\xe5\\x85\\xa8\\xe6\\x80\\xa7\\xe5\\x92\\x8c\\xe9\\xaa\\x8c\\xe8\\xaf\\x81/HashFunc.sol\":1023:1230  function encodePacked2(... */\n    tag_6:\n      tag_22\n      0x04\n      dup1\n      calldatasize\n      sub\n      dup2\n      add\n      swap1\n      tag_23\n      swap2\n      swap1\n      tag_24\n      jump\t// in\n    tag_23:\n      tag_25\n      jump\t// in\n    tag_22:\n      mload(0x40)\n      tag_26\n      swap2\n      swap1\n      tag_12\n      jump\t// in\n    tag_26:\n      mload(0x40)\n      dup1\n      swap2\n      sub\n      swap1\n      return\n        /* \"contracts/\\xe5\\x9b\\x9bW\\xe5\\xae\\x89\\xe5\\x85\\xa8\\xe6\\x80\\xa7\\xe5\\x92\\x8c\\xe9\\xaa\\x8c\\xe8\\xaf\\x81/HashFunc.sol\":533:704  function encode(... */\n    tag_10:\n        /* \"contracts/\\xe5\\x9b\\x9bW\\xe5\\xae\\x89\\xe5\\x85\\xa8\\xe6\\x80\\xa7\\xe5\\x92\\x8c\\xe9\\xaa\\x8c\\xe8\\xaf\\x81/HashFunc.sol\":636:643  bytes32 */\n      0x00\n        /* \"contracts/\\xe5\\x9b\\x9bW\\xe5\\xae\\x89\\xe5\\x85\\xa8\\xe6\\x80\\xa7\\xe5\\x92\\x8c\\xe9\\xaa\\x8c\\xe8\\xaf\\x81/HashFunc.sol\":683:688  text1 */\n      dup3\n        /* \"contracts/\\xe5\\x9b\\x9bW\\xe5\\xae\\x89\\xe5\\x85\\xa8\\xe6\\x80\\xa7\\xe5\\x92\\x8c\\xe9\\xaa\\x8c\\xe8\\xaf\\x81/HashFunc.sol\":690:695  text2 */\n      dup3\n        /* \"contracts/\\xe5\\x9b\\x9bW\\xe5\\xae\\x89\\xe5\\x85\\xa8\\xe6\\x80\\xa7\\xe5\\x92\\x8c\\xe9\\xaa\\x8c\\xe8\\xaf\\x81/HashFunc.sol\":672:696  abi.encode(text1, text2) */\n      add(0x20, mload(0x40))\n      tag_28\n      swap3\n      swap2\n      swap1\n      tag_29\n      jump\t// in\n    tag_28:\n      mload(0x40)\n      0x20\n      dup2\n      dup4\n      sub\n      sub\n      dup2\n      mstore\n      swap1\n      0x40\n      mstore\n        /* \"contracts/\\xe5\\x9b\\x9bW\\xe5\\xae\\x89\\xe5\\x85\\xa8\\xe6\\x80\\xa7\\xe5\\x92\\x8c\\xe9\\xaa\\x8c\\xe8\\xaf\\x81/HashFunc.sol\":662:697  keccak256(abi.encode(text1, text2)) */\n      dup1\n      mload\n      swap1\n      0x20\n      add\n      keccak256\n        /* \"contracts/\\xe5\\x9b\\x9bW\\xe5\\xae\\x89\\xe5\\x85\\xa8\\xe6\\x80\\xa7\\xe5\\x92\\x8c\\xe9\\xaa\\x8c\\xe8\\xaf\\x81/HashFunc.sol\":655:697  return keccak256(abi.encode(text1, text2)) */\n      swap1\n      pop\n        /* \"contracts/\\xe5\\x9b\\x9bW\\xe5\\xae\\x89\\xe5\\x85\\xa8\\xe6\\x80\\xa7\\xe5\\x92\\x8c\\xe9\\xaa\\x8c\\xe8\\xaf\\x81/HashFunc.sol\":533:704  function encode(... */\n      swap3\n      swap2\n      pop\n      pop\n      jump\t// out\n        /* \"contracts/\\xe5\\x9b\\x9bW\\xe5\\xae\\x89\\xe5\\x85\\xa8\\xe6\\x80\\xa7\\xe5\\x92\\x8c\\xe9\\xaa\\x8c\\xe8\\xaf\\x81/HashFunc.sol\":309:497  function hash(... */\n    tag_16:\n        /* \"contracts/\\xe5\\x9b\\x9bW\\xe5\\xae\\x89\\xe5\\x85\\xa8\\xe6\\x80\\xa7\\xe5\\x92\\x8c\\xe9\\xaa\\x8c\\xe8\\xaf\\x81/HashFunc.sol\":420:427  bytes32 */\n      0x00\n        /* \"contracts/\\xe5\\x9b\\x9bW\\xe5\\xae\\x89\\xe5\\x85\\xa8\\xe6\\x80\\xa7\\xe5\\x92\\x8c\\xe9\\xaa\\x8c\\xe8\\xaf\\x81/HashFunc.sol\":473:477  text */\n      dup4\n        /* \"contracts/\\xe5\\x9b\\x9bW\\xe5\\xae\\x89\\xe5\\x85\\xa8\\xe6\\x80\\xa7\\xe5\\x92\\x8c\\xe9\\xaa\\x8c\\xe8\\xaf\\x81/HashFunc.sol\":479:482  num */\n      dup4\n        /* \"contracts/\\xe5\\x9b\\x9bW\\xe5\\xae\\x89\\xe5\\x85\\xa8\\xe6\\x80\\xa7\\xe5\\x92\\x8c\\xe9\\xaa\\x8c\\xe8\\xaf\\x81/HashFunc.sol\":484:488  addr */\n      dup4\n        /* \"contracts/\\xe5\\x9b\\x9bW\\xe5\\xae\\x89\\xe5\\x85\\xa8\\xe6\\x80\\xa7\\xe5\\x92\\x8c\\xe9\\xaa\\x8c\\xe8\\xaf\\x81/HashFunc.sol\":456:489  abi.encodePacked(text, num, addr) */\n      add(0x20, mload(0x40))\n      tag_31\n      swap4\n      swap3\n      swap2\n      swap1\n      tag_32\n      jump\t// in\n    tag_31:\n      mload(0x40)\n      0x20\n      dup2\n      dup4\n      sub\n      sub\n      dup2\n      mstore\n      swap1\n      0x40\n      mstore\n        /* \"contracts/\\xe5\\x9b\\x9bW\\xe5\\xae\\x89\\xe5\\x85\\xa8\\xe6\\x80\\xa7\\xe5\\x92\\x8c\\xe9\\xaa\\x8c\\xe8\\xaf\\x81/HashFunc.sol\":446:490  keccak256(abi.encodePacked(text, num, addr)) */\n      dup1\n      mload\n      swap1\n      0x20\n      add\n      keccak256\n        /* \"contracts/\\xe5\\x9b\\x9bW\\xe5\\xae\\x89\\xe5\\x85\\xa8\\xe6\\x80\\xa7\\xe5\\x92\\x8c\\xe9\\xaa\\x8c\\xe8\\xaf\\x81/HashFunc.sol\":439:490  return keccak256(abi.encodePacked(text, num, addr)) */\n      swap1\n      pop\n        /* \"contracts/\\xe5\\x9b\\x9bW\\xe5\\xae\\x89\\xe5\\x85\\xa8\\xe6\\x80\\xa7\\xe5\\x92\\x8c\\xe9\\xaa\\x8c\\xe8\\xaf\\x81/HashFunc.sol\":309:497  function hash(... */\n      swap4\n      swap3\n      pop\n      pop\n      pop\n      jump\t// out\n        /* \"contracts/\\xe5\\x9b\\x9bW\\xe5\\xae\\x89\\xe5\\x85\\xa8\\xe6\\x80\\xa7\\xe5\\x92\\x8c\\xe9\\xaa\\x8c\\xe8\\xaf\\x81/HashFunc.sol\":791:974  function encodePacked(... */\n    tag_20:\n        /* \"contracts/\\xe5\\x9b\\x9bW\\xe5\\xae\\x89\\xe5\\x85\\xa8\\xe6\\x80\\xa7\\xe5\\x92\\x8c\\xe9\\xaa\\x8c\\xe8\\xaf\\x81/HashFunc.sol\":900:907  bytes32 */\n      0x00\n        /* \"contracts/\\xe5\\x9b\\x9bW\\xe5\\xae\\x89\\xe5\\x85\\xa8\\xe6\\x80\\xa7\\xe5\\x92\\x8c\\xe9\\xaa\\x8c\\xe8\\xaf\\x81/HashFunc.sol\":953:958  text1 */\n      dup3\n        /* \"contracts/\\xe5\\x9b\\x9bW\\xe5\\xae\\x89\\xe5\\x85\\xa8\\xe6\\x80\\xa7\\xe5\\x92\\x8c\\xe9\\xaa\\x8c\\xe8\\xaf\\x81/HashFunc.sol\":960:965  text2 */\n      dup3\n        /* \"contracts/\\xe5\\x9b\\x9bW\\xe5\\xae\\x89\\xe5\\x85\\xa8\\xe6\\x80\\xa7\\xe5\\x92\\x8c\\xe9\\xaa\\x8c\\xe8\\xaf\\x81/HashFunc.sol\":936:966  abi.encodePacked(text1, text2) */\n      add(0x20, mload(0x40))\n      tag_34\n      swap3\n      swap2\n      swap1\n      tag_35\n      jump\t// in\n    tag_34:\n      mload(0x40)\n      0x20\n      dup2\n      dup4\n      sub\n      sub\n      dup2\n      mstore\n      swap1\n      0x40\n      mstore\n        /* \"contracts/\\xe5\\x9b\\x9bW\\xe5\\xae\\x89\\xe5\\x85\\xa8\\xe6\\x80\\xa7\\xe5\\x92\\x8c\\xe9\\xaa\\x8c\\xe8\\xaf\\x81/HashFunc.sol\":926:967  keccak256(abi.encodePacked(text1, text2)) */\n      dup1\n      mload\n      swap1\n      0x20\n      add\n      keccak256\n        /* \"contracts/\\xe5\\x9b\\x9bW\\xe5\\xae\\x89\\xe5\\x85\\xa8\\xe6\\x80\\xa7\\xe5\\x92\\x8c\\xe9\\xaa\\x8c\\xe8\\xaf\\x81/HashFunc.sol\":919:967  return keccak256(abi.encodePacked(text1, text2)) */\n      swap1\n      pop\n        /* \"contracts/\\xe5\\x9b\\x9bW\\xe5\\xae\\x89\\xe5\\x85\\xa8\\xe6\\x80\\xa7\\xe5\\x92\\x8c\\xe9\\xaa\\x8c\\xe8\\xaf\\x81/HashFunc.sol\":791:974  function encodePacked(... */\n      swap3\n      swap2\n      pop\n      pop\n      jump\t// out\n        /* \"contracts/\\xe5\\x9b\\x9bW\\xe5\\xae\\x89\\xe5\\x85\\xa8\\xe6\\x80\\xa7\\xe5\\x92\\x8c\\xe9\\xaa\\x8c\\xe8\\xaf\\x81/HashFunc.sol\":1023:1230  function encodePacked2(... */\n    tag_25:\n        /* \"contracts/\\xe5\\x9b\\x9bW\\xe5\\xae\\x89\\xe5\\x85\\xa8\\xe6\\x80\\xa7\\xe5\\x92\\x8c\\xe9\\xaa\\x8c\\xe8\\xaf\\x81/HashFunc.sol\":1151:1158  bytes32 */\n      0x00\n        /* \"contracts/\\xe5\\x9b\\x9bW\\xe5\\xae\\x89\\xe5\\x85\\xa8\\xe6\\x80\\xa7\\xe5\\x92\\x8c\\xe9\\xaa\\x8c\\xe8\\xaf\\x81/HashFunc.sol\":1204:1209  text1 */\n      dup4\n        /* \"contracts/\\xe5\\x9b\\x9bW\\xe5\\xae\\x89\\xe5\\x85\\xa8\\xe6\\x80\\xa7\\xe5\\x92\\x8c\\xe9\\xaa\\x8c\\xe8\\xaf\\x81/HashFunc.sol\":1211:1214  num */\n      dup4\n        /* \"contracts/\\xe5\\x9b\\x9bW\\xe5\\xae\\x89\\xe5\\x85\\xa8\\xe6\\x80\\xa7\\xe5\\x92\\x8c\\xe9\\xaa\\x8c\\xe8\\xaf\\x81/HashFunc.sol\":1216:1221  text2 */\n      dup4\n        /* \"contracts/\\xe5\\x9b\\x9bW\\xe5\\xae\\x89\\xe5\\x85\\xa8\\xe6\\x80\\xa7\\xe5\\x92\\x8c\\xe9\\xaa\\x8c\\xe8\\xaf\\x81/HashFunc.sol\":1187:1222  abi.encodePacked(text1, num, text2) */\n      add(0x20, mload(0x40))\n      tag_37\n      swap4\n      swap3\n      swap2\n      swap1\n      tag_38\n      jump\t// in\n    tag_37:\n      mload(0x40)\n      0x20\n      dup2\n      dup4\n      sub\n      sub\n      dup2\n      mstore\n      swap1\n      0x40\n      mstore\n        /* \"contracts/\\xe5\\x9b\\x9bW\\xe5\\xae\\x89\\xe5\\x85\\xa8\\xe6\\x80\\xa7\\xe5\\x92\\x8c\\xe9\\xaa\\x8c\\xe8\\xaf\\x81/HashFunc.sol\":1177:1223  keccak256(abi.encodePacked(text1, num, text2)) */\n      dup1\n      mload\n      swap1\n      0x20\n      add\n      keccak256\n        /* \"contracts/\\xe5\\x9b\\x9bW\\xe5\\xae\\x89\\xe5\\x85\\xa8\\xe6\\x80\\xa7\\xe5\\x92\\x8c\\xe9\\xaa\\x8c\\xe8\\xaf\\x81/HashFunc.sol\":1170:1223  return keccak256(abi.encodePacked(text1, num, text2)) */\n      swap1\n      pop\n        /* \"contracts/\\xe5\\x9b\\x9bW\\xe5\\xae\\x89\\xe5\\x85\\xa8\\xe6\\x80\\xa7\\xe5\\x92\\x8c\\xe9\\xaa\\x8c\\xe8\\xaf\\x81/HashFunc.sol\":1023:1230  function encodePacked2(... */\n      swap4\n      swap3\n      pop\n      pop\n      pop\n      jump\t// out\n        /* \"#utility.yul\":7:82   */\n    tag_39:\n        /* \"#utility.yul\":40:46   */\n      0x00\n        /* \"#utility.yul\":73:75   */\n      0x40\n        /* \"#utility.yul\":67:76   */\n      mload\n        /* \"#utility.yul\":57:76   */\n      swap1\n      pop\n        /* \"#utility.yul\":7:82   */\n      swap1\n      jump\t// out\n        /* \"#utility.yul\":88:205   */\n    tag_40:\n        /* \"#utility.yul\":197:198   */\n      0x00\n        /* \"#utility.yul\":194:195   */\n      dup1\n        /* \"#utility.yul\":187:199   */\n      revert\n        /* \"#utility.yul\":211:328   */\n    tag_41:\n        /* \"#utility.yul\":320:321   */\n      0x00\n        /* \"#utility.yul\":317:318   */\n      dup1\n        /* \"#utility.yul\":310:322   */\n      revert\n        /* \"#utility.yul\":334:451   */\n    tag_42:\n        /* \"#utility.yul\":443:444   */\n      0x00\n        /* \"#utility.yul\":440:441   */\n      dup1\n        /* \"#utility.yul\":433:445   */\n      revert\n        /* \"#utility.yul\":457:574   */\n    tag_43:\n        /* \"#utility.yul\":566:567   */\n      0x00\n        /* \"#utility.yul\":563:564   */\n      dup1\n        /* \"#utility.yul\":556:568   */\n      revert\n        /* \"#utility.yul\":580:682   */\n    tag_44:\n        /* \"#utility.yul\":621:627   */\n      0x00\n        /* \"#utility.yul\":672:674   */\n      0x1f\n        /* \"#utility.yul\":668:675   */\n      not\n        /* \"#utility.yul\":663:665   */\n      0x1f\n        /* \"#utility.yul\":656:661   */\n      dup4\n        /* \"#utility.yul\":652:666   */\n      add\n        /* \"#utility.yul\":648:676   */\n      and\n        /* \"#utility.yul\":638:676   */\n      swap1\n      pop\n        /* \"#utility.yul\":580:682   */\n      swap2\n      swap1\n      pop\n      jump\t// out\n        /* \"#utility.yul\":688:868   */\n    tag_45:\n        /* \"#utility.yul\":736:813   */\n      0x4e487b7100000000000000000000000000000000000000000000000000000000\n        /* \"#utility.yul\":733:734   */\n      0x00\n        /* \"#utility.yul\":726:814   */\n      mstore\n        /* \"#utility.yul\":833:837   */\n      0x41\n        /* \"#utility.yul\":830:831   */\n      0x04\n        /* \"#utility.yul\":823:838   */\n      mstore\n        /* \"#utility.yul\":857:861   */\n      0x24\n        /* \"#utility.yul\":854:855   */\n      0x00\n        /* \"#utility.yul\":847:862   */\n      revert\n        /* \"#utility.yul\":874:1155   */\n    tag_46:\n        /* \"#utility.yul\":957:984   */\n      tag_82\n        /* \"#utility.yul\":979:983   */\n      dup3\n        /* \"#utility.yul\":957:984   */\n      tag_44\n      jump\t// in\n    tag_82:\n        /* \"#utility.yul\":949:955   */\n      dup2\n        /* \"#utility.yul\":945:985   */\n      add\n        /* \"#utility.yul\":1087:1093   */\n      dup2\n        /* \"#utility.yul\":1075:1085   */\n      dup2\n        /* \"#utility.yul\":1072:1094   */\n      lt\n        /* \"#utility.yul\":1051:1069   */\n      0xffffffffffffffff\n        /* \"#utility.yul\":1039:1049   */\n      dup3\n        /* \"#utility.yul\":1036:1070   */\n      gt\n        /* \"#utility.yul\":1033:1095   */\n      or\n        /* \"#utility.yul\":1030:1118   */\n      iszero\n      tag_83\n      jumpi\n        /* \"#utility.yul\":1098:1116   */\n      tag_84\n      tag_45\n      jump\t// in\n    tag_84:\n        /* \"#utility.yul\":1030:1118   */\n    tag_83:\n        /* \"#utility.yul\":1138:1148   */\n      dup1\n        /* \"#utility.yul\":1134:1136   */\n      0x40\n        /* \"#utility.yul\":1127:1149   */\n      mstore\n        /* \"#utility.yul\":917:1155   */\n      pop\n        /* \"#utility.yul\":874:1155   */\n      pop\n      pop\n      jump\t// out\n        /* \"#utility.yul\":1161:1290   */\n    tag_47:\n        /* \"#utility.yul\":1195:1201   */\n      0x00\n        /* \"#utility.yul\":1222:1242   */\n      tag_86\n      tag_39\n      jump\t// in\n    tag_86:\n        /* \"#utility.yul\":1212:1242   */\n      swap1\n      pop\n        /* \"#utility.yul\":1251:1284   */\n      tag_87\n        /* \"#utility.yul\":1279:1283   */\n      dup3\n        /* \"#utility.yul\":1271:1277   */\n      dup3\n        /* \"#utility.yul\":1251:1284   */\n      tag_46\n      jump\t// in\n    tag_87:\n        /* \"#utility.yul\":1161:1290   */\n      swap2\n      swap1\n      pop\n      jump\t// out\n        /* \"#utility.yul\":1296:1604   */\n    tag_48:\n        /* \"#utility.yul\":1358:1362   */\n      0x00\n        /* \"#utility.yul\":1448:1466   */\n      0xffffffffffffffff\n        /* \"#utility.yul\":1440:1446   */\n      dup3\n        /* \"#utility.yul\":1437:1467   */\n      gt\n        /* \"#utility.yul\":1434:1490   */\n      iszero\n      tag_89\n      jumpi\n        /* \"#utility.yul\":1470:1488   */\n      tag_90\n      tag_45\n      jump\t// in\n    tag_90:\n        /* \"#utility.yul\":1434:1490   */\n    tag_89:\n        /* \"#utility.yul\":1508:1537   */\n      tag_91\n        /* \"#utility.yul\":1530:1536   */\n      dup3\n        /* \"#utility.yul\":1508:1537   */\n      tag_44\n      jump\t// in\n    tag_91:\n        /* \"#utility.yul\":1500:1537   */\n      swap1\n      pop\n        /* \"#utility.yul\":1592:1596   */\n      0x20\n        /* \"#utility.yul\":1586:1590   */\n      dup2\n        /* \"#utility.yul\":1582:1597   */\n      add\n        /* \"#utility.yul\":1574:1597   */\n      swap1\n      pop\n        /* \"#utility.yul\":1296:1604   */\n      swap2\n      swap1\n      pop\n      jump\t// out\n        /* \"#utility.yul\":1610:1756   */\n    tag_49:\n        /* \"#utility.yul\":1707:1713   */\n      dup3\n        /* \"#utility.yul\":1702:1705   */\n      dup2\n        /* \"#utility.yul\":1697:1700   */\n      dup4\n        /* \"#utility.yul\":1684:1714   */\n      calldatacopy\n        /* \"#utility.yul\":1748:1749   */\n      0x00\n        /* \"#utility.yul\":1739:1745   */\n      dup4\n        /* \"#utility.yul\":1734:1737   */\n      dup4\n        /* \"#utility.yul\":1730:1746   */\n      add\n        /* \"#utility.yul\":1723:1750   */\n      mstore\n        /* \"#utility.yul\":1610:1756   */\n      pop\n      pop\n      pop\n      jump\t// out\n        /* \"#utility.yul\":1762:2187   */\n    tag_50:\n        /* \"#utility.yul\":1840:1845   */\n      0x00\n        /* \"#utility.yul\":1865:1931   */\n      tag_94\n        /* \"#utility.yul\":1881:1930   */\n      tag_95\n        /* \"#utility.yul\":1923:1929   */\n      dup5\n        /* \"#utility.yul\":1881:1930   */\n      tag_48\n      jump\t// in\n    tag_95:\n        /* \"#utility.yul\":1865:1931   */\n      tag_47\n      jump\t// in\n    tag_94:\n        /* \"#utility.yul\":1856:1931   */\n      swap1\n      pop\n        /* \"#utility.yul\":1954:1960   */\n      dup3\n        /* \"#utility.yul\":1947:1952   */\n      dup2\n        /* \"#utility.yul\":1940:1961   */\n      mstore\n        /* \"#utility.yul\":1992:1996   */\n      0x20\n        /* \"#utility.yul\":1985:1990   */\n      dup2\n        /* \"#utility.yul\":1981:1997   */\n      add\n        /* \"#utility.yul\":2030:2033   */\n      dup5\n        /* \"#utility.yul\":2021:2027   */\n      dup5\n        /* \"#utility.yul\":2016:2019   */\n      dup5\n        /* \"#utility.yul\":2012:2028   */\n      add\n        /* \"#utility.yul\":2009:2034   */\n      gt\n        /* \"#utility.yul\":2006:2118   */\n      iszero\n      tag_96\n      jumpi\n        /* \"#utility.yul\":2037:2116   */\n      tag_97\n      tag_43\n      jump\t// in\n    tag_97:\n        /* \"#utility.yul\":2006:2118   */\n    tag_96:\n        /* \"#utility.yul\":2127:2181   */\n      tag_98\n        /* \"#utility.yul\":2174:2180   */\n      dup5\n        /* \"#utility.yul\":2169:2172   */\n      dup3\n        /* \"#utility.yul\":2164:2167   */\n      dup6\n        /* \"#utility.yul\":2127:2181   */\n      tag_49\n      jump\t// in\n    tag_98:\n        /* \"#utility.yul\":1846:2187   */\n      pop\n        /* \"#utility.yul\":1762:2187   */\n      swap4\n      swap3\n      pop\n      pop\n      pop\n      jump\t// out\n        /* \"#utility.yul\":2207:2547   */\n    tag_51:\n        /* \"#utility.yul\":2263:2268   */\n      0x00\n        /* \"#utility.yul\":2312:2315   */\n      dup3\n        /* \"#utility.yul\":2305:2309   */\n      0x1f\n        /* \"#utility.yul\":2297:2303   */\n      dup4\n        /* \"#utility.yul\":2293:2310   */\n      add\n        /* \"#utility.yul\":2289:2316   */\n      slt\n        /* \"#utility.yul\":2279:2401   */\n      tag_100\n      jumpi\n        /* \"#utility.yul\":2320:2399   */\n      tag_101\n      tag_42\n      jump\t// in\n    tag_101:\n        /* \"#utility.yul\":2279:2401   */\n    tag_100:\n        /* \"#utility.yul\":2437:2443   */\n      dup2\n        /* \"#utility.yul\":2424:2444   */\n      calldataload\n        /* \"#utility.yul\":2462:2541   */\n      tag_102\n        /* \"#utility.yul\":2537:2540   */\n      dup5\n        /* \"#utility.yul\":2529:2535   */\n      dup3\n        /* \"#utility.yul\":2522:2526   */\n      0x20\n        /* \"#utility.yul\":2514:2520   */\n      dup7\n        /* \"#utility.yul\":2510:2527   */\n      add\n        /* \"#utility.yul\":2462:2541   */\n      tag_50\n      jump\t// in\n    tag_102:\n        /* \"#utility.yul\":2453:2541   */\n      swap2\n      pop\n        /* \"#utility.yul\":2269:2547   */\n      pop\n        /* \"#utility.yul\":2207:2547   */\n      swap3\n      swap2\n      pop\n      pop\n      jump\t// out\n        /* \"#utility.yul\":2553:3387   */\n    tag_9:\n        /* \"#utility.yul\":2641:2647   */\n      0x00\n        /* \"#utility.yul\":2649:2655   */\n      dup1\n        /* \"#utility.yul\":2698:2700   */\n      0x40\n        /* \"#utility.yul\":2686:2695   */\n      dup4\n        /* \"#utility.yul\":2677:2684   */\n      dup6\n        /* \"#utility.yul\":2673:2696   */\n      sub\n        /* \"#utility.yul\":2669:2701   */\n      slt\n        /* \"#utility.yul\":2666:2785   */\n      iszero\n      tag_104\n      jumpi\n        /* \"#utility.yul\":2704:2783   */\n      tag_105\n      tag_40\n      jump\t// in\n    tag_105:\n        /* \"#utility.yul\":2666:2785   */\n    tag_104:\n        /* \"#utility.yul\":2852:2853   */\n      0x00\n        /* \"#utility.yul\":2841:2850   */\n      dup4\n        /* \"#utility.yul\":2837:2854   */\n      add\n        /* \"#utility.yul\":2824:2855   */\n      calldataload\n        /* \"#utility.yul\":2882:2900   */\n      0xffffffffffffffff\n        /* \"#utility.yul\":2874:2880   */\n      dup2\n        /* \"#utility.yul\":2871:2901   */\n      gt\n        /* \"#utility.yul\":2868:2985   */\n      iszero\n      tag_106\n      jumpi\n        /* \"#utility.yul\":2904:2983   */\n      tag_107\n      tag_41\n      jump\t// in\n    tag_107:\n        /* \"#utility.yul\":2868:2985   */\n    tag_106:\n        /* \"#utility.yul\":3009:3072   */\n      tag_108\n        /* \"#utility.yul\":3064:3071   */\n      dup6\n        /* \"#utility.yul\":3055:3061   */\n      dup3\n        /* \"#utility.yul\":3044:3053   */\n      dup7\n        /* \"#utility.yul\":3040:3062   */\n      add\n        /* \"#utility.yul\":3009:3072   */\n      tag_51\n      jump\t// in\n    tag_108:\n        /* \"#utility.yul\":2999:3072   */\n      swap3\n      pop\n        /* \"#utility.yul\":2795:3082   */\n      pop\n        /* \"#utility.yul\":3149:3151   */\n      0x20\n        /* \"#utility.yul\":3138:3147   */\n      dup4\n        /* \"#utility.yul\":3134:3152   */\n      add\n        /* \"#utility.yul\":3121:3153   */\n      calldataload\n        /* \"#utility.yul\":3180:3198   */\n      0xffffffffffffffff\n        /* \"#utility.yul\":3172:3178   */\n      dup2\n        /* \"#utility.yul\":3169:3199   */\n      gt\n        /* \"#utility.yul\":3166:3283   */\n      iszero\n      tag_109\n      jumpi\n        /* \"#utility.yul\":3202:3281   */\n      tag_110\n      tag_41\n      jump\t// in\n    tag_110:\n        /* \"#utility.yul\":3166:3283   */\n    tag_109:\n        /* \"#utility.yul\":3307:3370   */\n      tag_111\n        /* \"#utility.yul\":3362:3369   */\n      dup6\n        /* \"#utility.yul\":3353:3359   */\n      dup3\n        /* \"#utility.yul\":3342:3351   */\n      dup7\n        /* \"#utility.yul\":3338:3360   */\n      add\n        /* \"#utility.yul\":3307:3370   */\n      tag_51\n      jump\t// in\n    tag_111:\n        /* \"#utility.yul\":3297:3370   */\n      swap2\n      pop\n        /* \"#utility.yul\":3092:3380   */\n      pop\n        /* \"#utility.yul\":2553:3387   */\n      swap3\n      pop\n      swap3\n      swap1\n      pop\n      jump\t// out\n        /* \"#utility.yul\":3393:3470   */\n    tag_52:\n        /* \"#utility.yul\":3430:3437   */\n      0x00\n        /* \"#utility.yul\":3459:3464   */\n      dup2\n        /* \"#utility.yul\":3448:3464   */\n      swap1\n      pop\n        /* \"#utility.yul\":3393:3470   */\n      swap2\n      swap1\n      pop\n      jump\t// out\n        /* \"#utility.yul\":3476:3594   */\n    tag_53:\n        /* \"#utility.yul\":3563:3587   */\n      tag_114\n        /* \"#utility.yul\":3581:3586   */\n      dup2\n        /* \"#utility.yul\":3563:3587   */\n      tag_52\n      jump\t// in\n    tag_114:\n        /* \"#utility.yul\":3558:3561   */\n      dup3\n        /* \"#utility.yul\":3551:3588   */\n      mstore\n        /* \"#utility.yul\":3476:3594   */\n      pop\n      pop\n      jump\t// out\n        /* \"#utility.yul\":3600:3822   */\n    tag_12:\n        /* \"#utility.yul\":3693:3697   */\n      0x00\n        /* \"#utility.yul\":3731:3733   */\n      0x20\n        /* \"#utility.yul\":3720:3729   */\n      dup3\n        /* \"#utility.yul\":3716:3734   */\n      add\n        /* \"#utility.yul\":3708:3734   */\n      swap1\n      pop\n        /* \"#utility.yul\":3744:3815   */\n      tag_116\n        /* \"#utility.yul\":3812:3813   */\n      0x00\n        /* \"#utility.yul\":3801:3810   */\n      dup4\n        /* \"#utility.yul\":3797:3814   */\n      add\n        /* \"#utility.yul\":3788:3794   */\n      dup5\n        /* \"#utility.yul\":3744:3815   */\n      tag_53\n      jump\t// in\n    tag_116:\n        /* \"#utility.yul\":3600:3822   */\n      swap3\n      swap2\n      pop\n      pop\n      jump\t// out\n        /* \"#utility.yul\":3828:3905   */\n    tag_54:\n        /* \"#utility.yul\":3865:3872   */\n      0x00\n        /* \"#utility.yul\":3894:3899   */\n      dup2\n        /* \"#utility.yul\":3883:3899   */\n      swap1\n      pop\n        /* \"#utility.yul\":3828:3905   */\n      swap2\n      swap1\n      pop\n      jump\t// out\n        /* \"#utility.yul\":3911:4033   */\n    tag_55:\n        /* \"#utility.yul\":3984:4008   */\n      tag_119\n        /* \"#utility.yul\":4002:4007   */\n      dup2\n        /* \"#utility.yul\":3984:4008   */\n      tag_54\n      jump\t// in\n    tag_119:\n        /* \"#utility.yul\":3977:3982   */\n      dup2\n        /* \"#utility.yul\":3974:4009   */\n      eq\n        /* \"#utility.yul\":3964:4027   */\n      tag_120\n      jumpi\n        /* \"#utility.yul\":4023:4024   */\n      0x00\n        /* \"#utility.yul\":4020:4021   */\n      dup1\n        /* \"#utility.yul\":4013:4025   */\n      revert\n        /* \"#utility.yul\":3964:4027   */\n    tag_120:\n        /* \"#utility.yul\":3911:4033   */\n      pop\n      jump\t// out\n        /* \"#utility.yul\":4039:4178   */\n    tag_56:\n        /* \"#utility.yul\":4085:4090   */\n      0x00\n        /* \"#utility.yul\":4123:4129   */\n      dup2\n        /* \"#utility.yul\":4110:4130   */\n      calldataload\n        /* \"#utility.yul\":4101:4130   */\n      swap1\n      pop\n        /* \"#utility.yul\":4139:4172   */\n      tag_122\n        /* \"#utility.yul\":4166:4171   */\n      dup2\n        /* \"#utility.yul\":4139:4172   */\n      tag_55\n      jump\t// in\n    tag_122:\n        /* \"#utility.yul\":4039:4178   */\n      swap3\n      swap2\n      pop\n      pop\n      jump\t// out\n        /* \"#utility.yul\":4184:4310   */\n    tag_57:\n        /* \"#utility.yul\":4221:4228   */\n      0x00\n        /* \"#utility.yul\":4261:4303   */\n      0xffffffffffffffffffffffffffffffffffffffff\n        /* \"#utility.yul\":4254:4259   */\n      dup3\n        /* \"#utility.yul\":4250:4304   */\n      and\n        /* \"#utility.yul\":4239:4304   */\n      swap1\n      pop\n        /* \"#utility.yul\":4184:4310   */\n      swap2\n      swap1\n      pop\n      jump\t// out\n        /* \"#utility.yul\":4316:4412   */\n    tag_58:\n        /* \"#utility.yul\":4353:4360   */\n      0x00\n        /* \"#utility.yul\":4382:4406   */\n      tag_125\n        /* \"#utility.yul\":4400:4405   */\n      dup3\n        /* \"#utility.yul\":4382:4406   */\n      tag_57\n      jump\t// in\n    tag_125:\n        /* \"#utility.yul\":4371:4406   */\n      swap1\n      pop\n        /* \"#utility.yul\":4316:4412   */\n      swap2\n      swap1\n      pop\n      jump\t// out\n        /* \"#utility.yul\":4418:4540   */\n    tag_59:\n        /* \"#utility.yul\":4491:4515   */\n      tag_127\n        /* \"#utility.yul\":4509:4514   */\n      dup2\n        /* \"#utility.yul\":4491:4515   */\n      tag_58\n      jump\t// in\n    tag_127:\n        /* \"#utility.yul\":4484:4489   */\n      dup2\n        /* \"#utility.yul\":4481:4516   */\n      eq\n        /* \"#utility.yul\":4471:4534   */\n      tag_128\n      jumpi\n        /* \"#utility.yul\":4530:4531   */\n      0x00\n        /* \"#utility.yul\":4527:4528   */\n      dup1\n        /* \"#utility.yul\":4520:4532   */\n      revert\n        /* \"#utility.yul\":4471:4534   */\n    tag_128:\n        /* \"#utility.yul\":4418:4540   */\n      pop\n      jump\t// out\n        /* \"#utility.yul\":4546:4685   */\n    tag_60:\n        /* \"#utility.yul\":4592:4597   */\n      0x00\n        /* \"#utility.yul\":4630:4636   */\n      dup2\n        /* \"#utility.yul\":4617:4637   */\n      calldataload\n        /* \"#utility.yul\":4608:4637   */\n      swap1\n      pop\n        /* \"#utility.yul\":4646:4679   */\n      tag_130\n        /* \"#utility.yul\":4673:4678   */\n      dup2\n        /* \"#utility.yul\":4646:4679   */\n      tag_59\n      jump\t// in\n    tag_130:\n        /* \"#utility.yul\":4546:4685   */\n      swap3\n      swap2\n      pop\n      pop\n      jump\t// out\n        /* \"#utility.yul\":4691:5490   */\n    tag_15:\n        /* \"#utility.yul\":4778:4784   */\n      0x00\n        /* \"#utility.yul\":4786:4792   */\n      dup1\n        /* \"#utility.yul\":4794:4800   */\n      0x00\n        /* \"#utility.yul\":4843:4845   */\n      0x60\n        /* \"#utility.yul\":4831:4840   */\n      dup5\n        /* \"#utility.yul\":4822:4829   */\n      dup7\n        /* \"#utility.yul\":4818:4841   */\n      sub\n        /* \"#utility.yul\":4814:4846   */\n      slt\n        /* \"#utility.yul\":4811:4930   */\n      iszero\n      tag_132\n      jumpi\n        /* \"#utility.yul\":4849:4928   */\n      tag_133\n      tag_40\n      jump\t// in\n    tag_133:\n        /* \"#utility.yul\":4811:4930   */\n    tag_132:\n        /* \"#utility.yul\":4997:4998   */\n      0x00\n        /* \"#utility.yul\":4986:4995   */\n      dup5\n        /* \"#utility.yul\":4982:4999   */\n      add\n        /* \"#utility.yul\":4969:5000   */\n      calldataload\n        /* \"#utility.yul\":5027:5045   */\n      0xffffffffffffffff\n        /* \"#utility.yul\":5019:5025   */\n      dup2\n        /* \"#utility.yul\":5016:5046   */\n      gt\n        /* \"#utility.yul\":5013:5130   */\n      iszero\n      tag_134\n      jumpi\n        /* \"#utility.yul\":5049:5128   */\n      tag_135\n      tag_41\n      jump\t// in\n    tag_135:\n        /* \"#utility.yul\":5013:5130   */\n    tag_134:\n        /* \"#utility.yul\":5154:5217   */\n      tag_136\n        /* \"#utility.yul\":5209:5216   */\n      dup7\n        /* \"#utility.yul\":5200:5206   */\n      dup3\n        /* \"#utility.yul\":5189:5198   */\n      dup8\n        /* \"#utility.yul\":5185:5207   */\n      add\n        /* \"#utility.yul\":5154:5217   */\n      tag_51\n      jump\t// in\n    tag_136:\n        /* \"#utility.yul\":5144:5217   */\n      swap4\n      pop\n        /* \"#utility.yul\":4940:5227   */\n      pop\n        /* \"#utility.yul\":5266:5268   */\n      0x20\n        /* \"#utility.yul\":5292:5345   */\n      tag_137\n        /* \"#utility.yul\":5337:5344   */\n      dup7\n        /* \"#utility.yul\":5328:5334   */\n      dup3\n        /* \"#utility.yul\":5317:5326   */\n      dup8\n        /* \"#utility.yul\":5313:5335   */\n      add\n        /* \"#utility.yul\":5292:5345   */\n      tag_56\n      jump\t// in\n    tag_137:\n        /* \"#utility.yul\":5282:5345   */\n      swap3\n      pop\n        /* \"#utility.yul\":5237:5355   */\n      pop\n        /* \"#utility.yul\":5394:5396   */\n      0x40\n        /* \"#utility.yul\":5420:5473   */\n      tag_138\n        /* \"#utility.yul\":5465:5472   */\n      dup7\n        /* \"#utility.yul\":5456:5462   */\n      dup3\n        /* \"#utility.yul\":5445:5454   */\n      dup8\n        /* \"#utility.yul\":5441:5463   */\n      add\n        /* \"#utility.yul\":5420:5473   */\n      tag_60\n      jump\t// in\n    tag_138:\n        /* \"#utility.yul\":5410:5473   */\n      swap2\n      pop\n        /* \"#utility.yul\":5365:5483   */\n      pop\n        /* \"#utility.yul\":4691:5490   */\n      swap3\n      pop\n      swap3\n      pop\n      swap3\n      jump\t// out\n        /* \"#utility.yul\":5496:6475   */\n    tag_24:\n        /* \"#utility.yul\":5593:5599   */\n      0x00\n        /* \"#utility.yul\":5601:5607   */\n      dup1\n        /* \"#utility.yul\":5609:5615   */\n      0x00\n        /* \"#utility.yul\":5658:5660   */\n      0x60\n        /* \"#utility.yul\":5646:5655   */\n      dup5\n        /* \"#utility.yul\":5637:5644   */\n      dup7\n        /* \"#utility.yul\":5633:5656   */\n      sub\n        /* \"#utility.yul\":5629:5661   */\n      slt\n        /* \"#utility.yul\":5626:5745   */\n      iszero\n      tag_140\n      jumpi\n        /* \"#utility.yul\":5664:5743   */\n      tag_141\n      tag_40\n      jump\t// in\n    tag_141:\n        /* \"#utility.yul\":5626:5745   */\n    tag_140:\n        /* \"#utility.yul\":5812:5813   */\n      0x00\n        /* \"#utility.yul\":5801:5810   */\n      dup5\n        /* \"#utility.yul\":5797:5814   */\n      add\n        /* \"#utility.yul\":5784:5815   */\n      calldataload\n        /* \"#utility.yul\":5842:5860   */\n      0xffffffffffffffff\n        /* \"#utility.yul\":5834:5840   */\n      dup2\n        /* \"#utility.yul\":5831:5861   */\n      gt\n        /* \"#utility.yul\":5828:5945   */\n      iszero\n      tag_142\n      jumpi\n        /* \"#utility.yul\":5864:5943   */\n      tag_143\n      tag_41\n      jump\t// in\n    tag_143:\n        /* \"#utility.yul\":5828:5945   */\n    tag_142:\n        /* \"#utility.yul\":5969:6032   */\n      tag_144\n        /* \"#utility.yul\":6024:6031   */\n      dup7\n        /* \"#utility.yul\":6015:6021   */\n      dup3\n        /* \"#utility.yul\":6004:6013   */\n      dup8\n        /* \"#utility.yul\":6000:6022   */\n      add\n        /* \"#utility.yul\":5969:6032   */\n      tag_51\n      jump\t// in\n    tag_144:\n        /* \"#utility.yul\":5959:6032   */\n      swap4\n      pop\n        /* \"#utility.yul\":5755:6042   */\n      pop\n        /* \"#utility.yul\":6081:6083   */\n      0x20\n        /* \"#utility.yul\":6107:6160   */\n      tag_145\n        /* \"#utility.yul\":6152:6159   */\n      dup7\n        /* \"#utility.yul\":6143:6149   */\n      dup3\n        /* \"#utility.yul\":6132:6141   */\n      dup8\n        /* \"#utility.yul\":6128:6150   */\n      add\n        /* \"#utility.yul\":6107:6160   */\n      tag_56\n      jump\t// in\n    tag_145:\n        /* \"#utility.yul\":6097:6160   */\n      swap3\n      pop\n        /* \"#utility.yul\":6052:6170   */\n      pop\n        /* \"#utility.yul\":6237:6239   */\n      0x40\n        /* \"#utility.yul\":6226:6235   */\n      dup5\n        /* \"#utility.yul\":6222:6240   */\n      add\n        /* \"#utility.yul\":6209:6241   */\n      calldataload\n        /* \"#utility.yul\":6268:6286   */\n      0xffffffffffffffff\n        /* \"#utility.yul\":6260:6266   */\n      dup2\n        /* \"#utility.yul\":6257:6287   */\n      gt\n        /* \"#utility.yul\":6254:6371   */\n      iszero\n      tag_146\n      jumpi\n        /* \"#utility.yul\":6290:6369   */\n      tag_147\n      tag_41\n      jump\t// in\n    tag_147:\n        /* \"#utility.yul\":6254:6371   */\n    tag_146:\n        /* \"#utility.yul\":6395:6458   */\n      tag_148\n        /* \"#utility.yul\":6450:6457   */\n      dup7\n        /* \"#utility.yul\":6441:6447   */\n      dup3\n        /* \"#utility.yul\":6430:6439   */\n      dup8\n        /* \"#utility.yul\":6426:6448   */\n      add\n        /* \"#utility.yul\":6395:6458   */\n      tag_51\n      jump\t// in\n    tag_148:\n        /* \"#utility.yul\":6385:6458   */\n      swap2\n      pop\n        /* \"#utility.yul\":6180:6468   */\n      pop\n        /* \"#utility.yul\":5496:6475   */\n      swap3\n      pop\n      swap3\n      pop\n      swap3\n      jump\t// out\n        /* \"#utility.yul\":6481:6580   */\n    tag_61:\n        /* \"#utility.yul\":6533:6539   */\n      0x00\n        /* \"#utility.yul\":6567:6572   */\n      dup2\n        /* \"#utility.yul\":6561:6573   */\n      mload\n        /* \"#utility.yul\":6551:6573   */\n      swap1\n      pop\n        /* \"#utility.yul\":6481:6580   */\n      swap2\n      swap1\n      pop\n      jump\t// out\n        /* \"#utility.yul\":6586:6755   */\n    tag_62:\n        /* \"#utility.yul\":6670:6681   */\n      0x00\n        /* \"#utility.yul\":6704:6710   */\n      dup3\n        /* \"#utility.yul\":6699:6702   */\n      dup3\n        /* \"#utility.yul\":6692:6711   */\n      mstore\n        /* \"#utility.yul\":6744:6748   */\n      0x20\n        /* \"#utility.yul\":6739:6742   */\n      dup3\n        /* \"#utility.yul\":6735:6749   */\n      add\n        /* \"#utility.yul\":6720:6749   */\n      swap1\n      pop\n        /* \"#utility.yul\":6586:6755   */\n      swap3\n      swap2\n      pop\n      pop\n      jump\t// out\n        /* \"#utility.yul\":6761:7007   */\n    tag_63:\n        /* \"#utility.yul\":6842:6843   */\n      0x00\n        /* \"#utility.yul\":6852:6965   */\n    tag_152:\n        /* \"#utility.yul\":6866:6872   */\n      dup4\n        /* \"#utility.yul\":6863:6864   */\n      dup2\n        /* \"#utility.yul\":6860:6873   */\n      lt\n        /* \"#utility.yul\":6852:6965   */\n      iszero\n      tag_154\n      jumpi\n        /* \"#utility.yul\":6951:6952   */\n      dup1\n        /* \"#utility.yul\":6946:6949   */\n      dup3\n        /* \"#utility.yul\":6942:6953   */\n      add\n        /* \"#utility.yul\":6936:6954   */\n      mload\n        /* \"#utility.yul\":6932:6933   */\n      dup2\n        /* \"#utility.yul\":6927:6930   */\n      dup5\n        /* \"#utility.yul\":6923:6934   */\n      add\n        /* \"#utility.yul\":6916:6955   */\n      mstore\n        /* \"#utility.yul\":6888:6890   */\n      0x20\n        /* \"#utility.yul\":6885:6886   */\n      dup2\n        /* \"#utility.yul\":6881:6891   */\n      add\n        /* \"#utility.yul\":6876:6891   */\n      swap1\n      pop\n        /* \"#utility.yul\":6852:6965   */\n      jump(tag_152)\n    tag_154:\n        /* \"#utility.yul\":6999:7000   */\n      0x00\n        /* \"#utility.yul\":6990:6996   */\n      dup5\n        /* \"#utility.yul\":6985:6988   */\n      dup5\n        /* \"#utility.yul\":6981:6997   */\n      add\n        /* \"#utility.yul\":6974:7001   */\n      mstore\n        /* \"#utility.yul\":6823:7007   */\n      pop\n        /* \"#utility.yul\":6761:7007   */\n      pop\n      pop\n      pop\n      jump\t// out\n        /* \"#utility.yul\":7013:7390   */\n    tag_64:\n        /* \"#utility.yul\":7101:7104   */\n      0x00\n        /* \"#utility.yul\":7129:7168   */\n      tag_156\n        /* \"#utility.yul\":7162:7167   */\n      dup3\n        /* \"#utility.yul\":7129:7168   */\n      tag_61\n      jump\t// in\n    tag_156:\n        /* \"#utility.yul\":7184:7255   */\n      tag_157\n        /* \"#utility.yul\":7248:7254   */\n      dup2\n        /* \"#utility.yul\":7243:7246   */\n      dup6\n        /* \"#utility.yul\":7184:7255   */\n      tag_62\n      jump\t// in\n    tag_157:\n        /* \"#utility.yul\":7177:7255   */\n      swap4\n      pop\n        /* \"#utility.yul\":7264:7329   */\n      tag_158\n        /* \"#utility.yul\":7322:7328   */\n      dup2\n        /* \"#utility.yul\":7317:7320   */\n      dup6\n        /* \"#utility.yul\":7310:7314   */\n      0x20\n        /* \"#utility.yul\":7303:7308   */\n      dup7\n        /* \"#utility.yul\":7299:7315   */\n      add\n        /* \"#utility.yul\":7264:7329   */\n      tag_63\n      jump\t// in\n    tag_158:\n        /* \"#utility.yul\":7354:7383   */\n      tag_159\n        /* \"#utility.yul\":7376:7382   */\n      dup2\n        /* \"#utility.yul\":7354:7383   */\n      tag_44\n      jump\t// in\n    tag_159:\n        /* \"#utility.yul\":7349:7352   */\n      dup5\n        /* \"#utility.yul\":7345:7384   */\n      add\n        /* \"#utility.yul\":7338:7384   */\n      swap2\n      pop\n        /* \"#utility.yul\":7105:7390   */\n      pop\n        /* \"#utility.yul\":7013:7390   */\n      swap3\n      swap2\n      pop\n      pop\n      jump\t// out\n        /* \"#utility.yul\":7396:7910   */\n    tag_29:\n        /* \"#utility.yul\":7557:7561   */\n      0x00\n        /* \"#utility.yul\":7595:7597   */\n      0x40\n        /* \"#utility.yul\":7584:7593   */\n      dup3\n        /* \"#utility.yul\":7580:7598   */\n      add\n        /* \"#utility.yul\":7572:7598   */\n      swap1\n      pop\n        /* \"#utility.yul\":7644:7653   */\n      dup2\n        /* \"#utility.yul\":7638:7642   */\n      dup2\n        /* \"#utility.yul\":7634:7654   */\n      sub\n        /* \"#utility.yul\":7630:7631   */\n      0x00\n        /* \"#utility.yul\":7619:7628   */\n      dup4\n        /* \"#utility.yul\":7615:7632   */\n      add\n        /* \"#utility.yul\":7608:7655   */\n      mstore\n        /* \"#utility.yul\":7672:7750   */\n      tag_161\n        /* \"#utility.yul\":7745:7749   */\n      dup2\n        /* \"#utility.yul\":7736:7742   */\n      dup6\n        /* \"#utility.yul\":7672:7750   */\n      tag_64\n      jump\t// in\n    tag_161:\n        /* \"#utility.yul\":7664:7750   */\n      swap1\n      pop\n        /* \"#utility.yul\":7797:7806   */\n      dup2\n        /* \"#utility.yul\":7791:7795   */\n      dup2\n        /* \"#utility.yul\":7787:7807   */\n      sub\n        /* \"#utility.yul\":7782:7784   */\n      0x20\n        /* \"#utility.yul\":7771:7780   */\n      dup4\n        /* \"#utility.yul\":7767:7785   */\n      add\n        /* \"#utility.yul\":7760:7808   */\n      mstore\n        /* \"#utility.yul\":7825:7903   */\n      tag_162\n        /* \"#utility.yul\":7898:7902   */\n      dup2\n        /* \"#utility.yul\":7889:7895   */\n      dup5\n        /* \"#utility.yul\":7825:7903   */\n      tag_64\n      jump\t// in\n    tag_162:\n        /* \"#utility.yul\":7817:7903   */\n      swap1\n      pop\n        /* \"#utility.yul\":7396:7910   */\n      swap4\n      swap3\n      pop\n      pop\n      pop\n      jump\t// out\n        /* \"#utility.yul\":7916:8064   */\n    tag_65:\n        /* \"#utility.yul\":8018:8029   */\n      0x00\n        /* \"#utility.yul\":8055:8058   */\n      dup2\n        /* \"#utility.yul\":8040:8058   */\n      swap1\n      pop\n        /* \"#utility.yul\":7916:8064   */\n      swap3\n      swap2\n      pop\n      pop\n      jump\t// out\n        /* \"#utility.yul\":8070:8460   */\n    tag_66:\n        /* \"#utility.yul\":8176:8179   */\n      0x00\n        /* \"#utility.yul\":8204:8243   */\n      tag_165\n        /* \"#utility.yul\":8237:8242   */\n      dup3\n        /* \"#utility.yul\":8204:8243   */\n      tag_61\n      jump\t// in\n    tag_165:\n        /* \"#utility.yul\":8259:8348   */\n      tag_166\n        /* \"#utility.yul\":8341:8347   */\n      dup2\n        /* \"#utility.yul\":8336:8339   */\n      dup6\n        /* \"#utility.yul\":8259:8348   */\n      tag_65\n      jump\t// in\n    tag_166:\n        /* \"#utility.yul\":8252:8348   */\n      swap4\n      pop\n        /* \"#utility.yul\":8357:8422   */\n      tag_167\n        /* \"#utility.yul\":8415:8421   */\n      dup2\n        /* \"#utility.yul\":8410:8413   */\n      dup6\n        /* \"#utility.yul\":8403:8407   */\n      0x20\n        /* \"#utility.yul\":8396:8401   */\n      dup7\n        /* \"#utility.yul\":8392:8408   */\n      add\n        /* \"#utility.yul\":8357:8422   */\n      tag_63\n      jump\t// in\n    tag_167:\n        /* \"#utility.yul\":8447:8453   */\n      dup1\n        /* \"#utility.yul\":8442:8445   */\n      dup5\n        /* \"#utility.yul\":8438:8454   */\n      add\n        /* \"#utility.yul\":8431:8454   */\n      swap2\n      pop\n        /* \"#utility.yul\":8180:8460   */\n      pop\n        /* \"#utility.yul\":8070:8460   */\n      swap3\n      swap2\n      pop\n      pop\n      jump\t// out\n        /* \"#utility.yul\":8466:8545   */\n    tag_67:\n        /* \"#utility.yul\":8505:8512   */\n      0x00\n        /* \"#utility.yul\":8534:8539   */\n      dup2\n        /* \"#utility.yul\":8523:8539   */\n      swap1\n      pop\n        /* \"#utility.yul\":8466:8545   */\n      swap2\n      swap1\n      pop\n      jump\t// out\n        /* \"#utility.yul\":8551:8708   */\n    tag_68:\n        /* \"#utility.yul\":8656:8701   */\n      tag_170\n        /* \"#utility.yul\":8676:8700   */\n      tag_171\n        /* \"#utility.yul\":8694:8699   */\n      dup3\n        /* \"#utility.yul\":8676:8700   */\n      tag_54\n      jump\t// in\n    tag_171:\n        /* \"#utility.yul\":8656:8701   */\n      tag_67\n      jump\t// in\n    tag_170:\n        /* \"#utility.yul\":8651:8654   */\n      dup3\n        /* \"#utility.yul\":8644:8702   */\n      mstore\n        /* \"#utility.yul\":8551:8708   */\n      pop\n      pop\n      jump\t// out\n        /* \"#utility.yul\":8714:8808   */\n    tag_69:\n        /* \"#utility.yul\":8747:8755   */\n      0x00\n        /* \"#utility.yul\":8795:8800   */\n      dup2\n        /* \"#utility.yul\":8791:8793   */\n      0x60\n        /* \"#utility.yul\":8787:8801   */\n      shl\n        /* \"#utility.yul\":8766:8801   */\n      swap1\n      pop\n        /* \"#utility.yul\":8714:8808   */\n      swap2\n      swap1\n      pop\n      jump\t// out\n        /* \"#utility.yul\":8814:8908   */\n    tag_70:\n        /* \"#utility.yul\":8853:8860   */\n      0x00\n        /* \"#utility.yul\":8882:8902   */\n      tag_174\n        /* \"#utility.yul\":8896:8901   */\n      dup3\n        /* \"#utility.yul\":8882:8902   */\n      tag_69\n      jump\t// in\n    tag_174:\n        /* \"#utility.yul\":8871:8902   */\n      swap1\n      pop\n        /* \"#utility.yul\":8814:8908   */\n      swap2\n      swap1\n      pop\n      jump\t// out\n        /* \"#utility.yul\":8914:9014   */\n    tag_71:\n        /* \"#utility.yul\":8953:8960   */\n      0x00\n        /* \"#utility.yul\":8982:9008   */\n      tag_176\n        /* \"#utility.yul\":9002:9007   */\n      dup3\n        /* \"#utility.yul\":8982:9008   */\n      tag_70\n      jump\t// in\n    tag_176:\n        /* \"#utility.yul\":8971:9008   */\n      swap1\n      pop\n        /* \"#utility.yul\":8914:9014   */\n      swap2\n      swap1\n      pop\n      jump\t// out\n        /* \"#utility.yul\":9020:9177   */\n    tag_72:\n        /* \"#utility.yul\":9125:9170   */\n      tag_178\n        /* \"#utility.yul\":9145:9169   */\n      tag_179\n        /* \"#utility.yul\":9163:9168   */\n      dup3\n        /* \"#utility.yul\":9145:9169   */\n      tag_58\n      jump\t// in\n    tag_179:\n        /* \"#utility.yul\":9125:9170   */\n      tag_71\n      jump\t// in\n    tag_178:\n        /* \"#utility.yul\":9120:9123   */\n      dup3\n        /* \"#utility.yul\":9113:9171   */\n      mstore\n        /* \"#utility.yul\":9020:9177   */\n      pop\n      pop\n      jump\t// out\n        /* \"#utility.yul\":9183:9740   */\n    tag_32:\n        /* \"#utility.yul\":9371:9374   */\n      0x00\n        /* \"#utility.yul\":9393:9488   */\n      tag_181\n        /* \"#utility.yul\":9484:9487   */\n      dup3\n        /* \"#utility.yul\":9475:9481   */\n      dup7\n        /* \"#utility.yul\":9393:9488   */\n      tag_66\n      jump\t// in\n    tag_181:\n        /* \"#utility.yul\":9386:9488   */\n      swap2\n      pop\n        /* \"#utility.yul\":9498:9573   */\n      tag_182\n        /* \"#utility.yul\":9569:9572   */\n      dup3\n        /* \"#utility.yul\":9560:9566   */\n      dup6\n        /* \"#utility.yul\":9498:9573   */\n      tag_68\n      jump\t// in\n    tag_182:\n        /* \"#utility.yul\":9598:9600   */\n      0x20\n        /* \"#utility.yul\":9593:9596   */\n      dup3\n        /* \"#utility.yul\":9589:9601   */\n      add\n        /* \"#utility.yul\":9582:9601   */\n      swap2\n      pop\n        /* \"#utility.yul\":9611:9686   */\n      tag_183\n        /* \"#utility.yul\":9682:9685   */\n      dup3\n        /* \"#utility.yul\":9673:9679   */\n      dup5\n        /* \"#utility.yul\":9611:9686   */\n      tag_72\n      jump\t// in\n    tag_183:\n        /* \"#utility.yul\":9711:9713   */\n      0x14\n        /* \"#utility.yul\":9706:9709   */\n      dup3\n        /* \"#utility.yul\":9702:9714   */\n      add\n        /* \"#utility.yul\":9695:9714   */\n      swap2\n      pop\n        /* \"#utility.yul\":9731:9734   */\n      dup2\n        /* \"#utility.yul\":9724:9734   */\n      swap1\n      pop\n        /* \"#utility.yul\":9183:9740   */\n      swap5\n      swap4\n      pop\n      pop\n      pop\n      pop\n      jump\t// out\n        /* \"#utility.yul\":9746:10181   */\n    tag_35:\n        /* \"#utility.yul\":9926:9929   */\n      0x00\n        /* \"#utility.yul\":9948:10043   */\n      tag_185\n        /* \"#utility.yul\":10039:10042   */\n      dup3\n        /* \"#utility.yul\":10030:10036   */\n      dup6\n        /* \"#utility.yul\":9948:10043   */\n      tag_66\n      jump\t// in\n    tag_185:\n        /* \"#utility.yul\":9941:10043   */\n      swap2\n      pop\n        /* \"#utility.yul\":10060:10155   */\n      tag_186\n        /* \"#utility.yul\":10151:10154   */\n      dup3\n        /* \"#utility.yul\":10142:10148   */\n      dup5\n        /* \"#utility.yul\":10060:10155   */\n      tag_66\n      jump\t// in\n    tag_186:\n        /* \"#utility.yul\":10053:10155   */\n      swap2\n      pop\n        /* \"#utility.yul\":10172:10175   */\n      dup2\n        /* \"#utility.yul\":10165:10175   */\n      swap1\n      pop\n        /* \"#utility.yul\":9746:10181   */\n      swap4\n      swap3\n      pop\n      pop\n      pop\n      jump\t// out\n        /* \"#utility.yul\":10187:10763   */\n    tag_38:\n        /* \"#utility.yul\":10395:10398   */\n      0x00\n        /* \"#utility.yul\":10417:10512   */\n      tag_188\n        /* \"#utility.yul\":10508:10511   */\n      dup3\n        /* \"#utility.yul\":10499:10505   */\n      dup7\n        /* \"#utility.yul\":10417:10512   */\n      tag_66\n      jump\t// in\n    tag_188:\n        /* \"#utility.yul\":10410:10512   */\n      swap2\n      pop\n        /* \"#utility.yul\":10522:10597   */\n      tag_189\n        /* \"#utility.yul\":10593:10596   */\n      dup3\n        /* \"#utility.yul\":10584:10590   */\n      dup6\n        /* \"#utility.yul\":10522:10597   */\n      tag_68\n      jump\t// in\n    tag_189:\n        /* \"#utility.yul\":10622:10624   */\n      0x20\n        /* \"#utility.yul\":10617:10620   */\n      dup3\n        /* \"#utility.yul\":10613:10625   */\n      add\n        /* \"#utility.yul\":10606:10625   */\n      swap2\n      pop\n        /* \"#utility.yul\":10642:10737   */\n      tag_190\n        /* \"#utility.yul\":10733:10736   */\n      dup3\n        /* \"#utility.yul\":10724:10730   */\n      dup5\n        /* \"#utility.yul\":10642:10737   */\n      tag_66\n      jump\t// in\n    tag_190:\n        /* \"#utility.yul\":10635:10737   */\n      swap2\n      pop\n        /* \"#utility.yul\":10754:10757   */\n      dup2\n        /* \"#utility.yul\":10747:10757   */\n      swap1\n      pop\n        /* \"#utility.yul\":10187:10763   */\n      swap5\n      swap4\n      pop\n      pop\n      pop\n      pop\n      jump\t// out\n\n    auxdata: 0xa26469706673582212200d214790c58f519d61b723ae3c421f954469e2d1b0f1c3bba2e729b45fad6e8164736f6c63430008170033\n}\n",
				"bytecode": {
					"linkReferences": {},
					"object": "608060405234801561000f575f80fd5b506107648061001d5f395ff3fe608060405234801561000f575f80fd5b506004361061004a575f3560e01c806317fe2da21461004e5780635dda416e1461007e578063892e5d01146100ae578063d9a8d2bc146100de575b5f80fd5b61006860048036038101906100639190610329565b61010e565b60405161007591906103b7565b60405180910390f35b6100986004803603810190610093919061045d565b610140565b6040516100a591906103b7565b60405180910390f35b6100c860048036038101906100c39190610329565b610175565b6040516100d591906103b7565b60405180910390f35b6100f860048036038101906100f391906104c9565b6101a7565b60405161010591906103b7565b60405180910390f35b5f82826040516020016101229291906105cb565b60405160208183030381529060405280519060200120905092915050565b5f8383836040516020016101569392919061069f565b6040516020818303038152906040528051906020012090509392505050565b5f82826040516020016101899291906106d7565b60405160208183030381529060405280519060200120905092915050565b5f8383836040516020016101bd939291906106fa565b6040516020818303038152906040528051906020012090509392505050565b5f604051905090565b5f80fd5b5f80fd5b5f80fd5b5f80fd5b5f601f19601f8301169050919050565b7f4e487b71000000000000000000000000000000000000000000000000000000005f52604160045260245ffd5b61023b826101f5565b810181811067ffffffffffffffff8211171561025a57610259610205565b5b80604052505050565b5f61026c6101dc565b90506102788282610232565b919050565b5f67ffffffffffffffff82111561029757610296610205565b5b6102a0826101f5565b9050602081019050919050565b828183375f83830152505050565b5f6102cd6102c88461027d565b610263565b9050828152602081018484840111156102e9576102e86101f1565b5b6102f48482856102ad565b509392505050565b5f82601f8301126103105761030f6101ed565b5b81356103208482602086016102bb565b91505092915050565b5f806040838503121561033f5761033e6101e5565b5b5f83013567ffffffffffffffff81111561035c5761035b6101e9565b5b610368858286016102fc565b925050602083013567ffffffffffffffff811115610389576103886101e9565b5b610395858286016102fc565b9150509250929050565b5f819050919050565b6103b18161039f565b82525050565b5f6020820190506103ca5f8301846103a8565b92915050565b5f819050919050565b6103e2816103d0565b81146103ec575f80fd5b50565b5f813590506103fd816103d9565b92915050565b5f73ffffffffffffffffffffffffffffffffffffffff82169050919050565b5f61042c82610403565b9050919050565b61043c81610422565b8114610446575f80fd5b50565b5f8135905061045781610433565b92915050565b5f805f60608486031215610474576104736101e5565b5b5f84013567ffffffffffffffff811115610491576104906101e9565b5b61049d868287016102fc565b93505060206104ae868287016103ef565b92505060406104bf86828701610449565b9150509250925092565b5f805f606084860312156104e0576104df6101e5565b5b5f84013567ffffffffffffffff8111156104fd576104fc6101e9565b5b610509868287016102fc565b935050602061051a868287016103ef565b925050604084013567ffffffffffffffff81111561053b5761053a6101e9565b5b610547868287016102fc565b9150509250925092565b5f81519050919050565b5f82825260208201905092915050565b5f5b8381101561058857808201518184015260208101905061056d565b5f8484015250505050565b5f61059d82610551565b6105a7818561055b565b93506105b781856020860161056b565b6105c0816101f5565b840191505092915050565b5f6040820190508181035f8301526105e38185610593565b905081810360208301526105f78184610593565b90509392505050565b5f81905092915050565b5f61061482610551565b61061e8185610600565b935061062e81856020860161056b565b80840191505092915050565b5f819050919050565b61065461064f826103d0565b61063a565b82525050565b5f8160601b9050919050565b5f6106708261065a565b9050919050565b5f61068182610666565b9050919050565b61069961069482610422565b610677565b82525050565b5f6106aa828661060a565b91506106b68285610643565b6020820191506106c68284610688565b601482019150819050949350505050565b5f6106e2828561060a565b91506106ee828461060a565b91508190509392505050565b5f610705828661060a565b91506107118285610643565b602082019150610721828461060a565b915081905094935050505056fea26469706673582212200d214790c58f519d61b723ae3c421f954469e2d1b0f1c3bba2e729b45fad6e8164736f6c63430008170033",
					"opcodes": "PUSH1 0x80 PUSH1 0x40 MSTORE CALLVALUE DUP1 ISZERO PUSH2 0xF JUMPI PUSH0 DUP1 REVERT JUMPDEST POP PUSH2 0x764 DUP1 PUSH2 0x1D PUSH0 CODECOPY PUSH0 RETURN INVALID PUSH1 0x80 PUSH1 0x40 MSTORE CALLVALUE DUP1 ISZERO PUSH2 0xF JUMPI PUSH0 DUP1 REVERT JUMPDEST POP PUSH1 0x4 CALLDATASIZE LT PUSH2 0x4A JUMPI PUSH0 CALLDATALOAD PUSH1 0xE0 SHR DUP1 PUSH4 0x17FE2DA2 EQ PUSH2 0x4E JUMPI DUP1 PUSH4 0x5DDA416E EQ PUSH2 0x7E JUMPI DUP1 PUSH4 0x892E5D01 EQ PUSH2 0xAE JUMPI DUP1 PUSH4 0xD9A8D2BC EQ PUSH2 0xDE JUMPI JUMPDEST PUSH0 DUP1 REVERT JUMPDEST PUSH2 0x68 PUSH1 0x4 DUP1 CALLDATASIZE SUB DUP2 ADD SWAP1 PUSH2 0x63 SWAP2 SWAP1 PUSH2 0x329 JUMP JUMPDEST PUSH2 0x10E JUMP JUMPDEST PUSH1 0x40 MLOAD PUSH2 0x75 SWAP2 SWAP1 PUSH2 0x3B7 JUMP JUMPDEST PUSH1 0x40 MLOAD DUP1 SWAP2 SUB SWAP1 RETURN JUMPDEST PUSH2 0x98 PUSH1 0x4 DUP1 CALLDATASIZE SUB DUP2 ADD SWAP1 PUSH2 0x93 SWAP2 SWAP1 PUSH2 0x45D JUMP JUMPDEST PUSH2 0x140 JUMP JUMPDEST PUSH1 0x40 MLOAD PUSH2 0xA5 SWAP2 SWAP1 PUSH2 0x3B7 JUMP JUMPDEST PUSH1 0x40 MLOAD DUP1 SWAP2 SUB SWAP1 RETURN JUMPDEST PUSH2 0xC8 PUSH1 0x4 DUP1 CALLDATASIZE SUB DUP2 ADD SWAP1 PUSH2 0xC3 SWAP2 SWAP1 PUSH2 0x329 JUMP JUMPDEST PUSH2 0x175 JUMP JUMPDEST PUSH1 0x40 MLOAD PUSH2 0xD5 SWAP2 SWAP1 PUSH2 0x3B7 JUMP JUMPDEST PUSH1 0x40 MLOAD DUP1 SWAP2 SUB SWAP1 RETURN JUMPDEST PUSH2 0xF8 PUSH1 0x4 DUP1 CALLDATASIZE SUB DUP2 ADD SWAP1 PUSH2 0xF3 SWAP2 SWAP1 PUSH2 0x4C9 JUMP JUMPDEST PUSH2 0x1A7 JUMP JUMPDEST PUSH1 0x40 MLOAD PUSH2 0x105 SWAP2 SWAP1 PUSH2 0x3B7 JUMP JUMPDEST PUSH1 0x40 MLOAD DUP1 SWAP2 SUB SWAP1 RETURN JUMPDEST PUSH0 DUP3 DUP3 PUSH1 0x40 MLOAD PUSH1 0x20 ADD PUSH2 0x122 SWAP3 SWAP2 SWAP1 PUSH2 0x5CB JUMP JUMPDEST PUSH1 0x40 MLOAD PUSH1 0x20 DUP2 DUP4 SUB SUB DUP2 MSTORE SWAP1 PUSH1 0x40 MSTORE DUP1 MLOAD SWAP1 PUSH1 0x20 ADD KECCAK256 SWAP1 POP SWAP3 SWAP2 POP POP JUMP JUMPDEST PUSH0 DUP4 DUP4 DUP4 PUSH1 0x40 MLOAD PUSH1 0x20 ADD PUSH2 0x156 SWAP4 SWAP3 SWAP2 SWAP1 PUSH2 0x69F JUMP JUMPDEST PUSH1 0x40 MLOAD PUSH1 0x20 DUP2 DUP4 SUB SUB DUP2 MSTORE SWAP1 PUSH1 0x40 MSTORE DUP1 MLOAD SWAP1 PUSH1 0x20 ADD KECCAK256 SWAP1 POP SWAP4 SWAP3 POP POP POP JUMP JUMPDEST PUSH0 DUP3 DUP3 PUSH1 0x40 MLOAD PUSH1 0x20 ADD PUSH2 0x189 SWAP3 SWAP2 SWAP1 PUSH2 0x6D7 JUMP JUMPDEST PUSH1 0x40 MLOAD PUSH1 0x20 DUP2 DUP4 SUB SUB DUP2 MSTORE SWAP1 PUSH1 0x40 MSTORE DUP1 MLOAD SWAP1 PUSH1 0x20 ADD KECCAK256 SWAP1 POP SWAP3 SWAP2 POP POP JUMP JUMPDEST PUSH0 DUP4 DUP4 DUP4 PUSH1 0x40 MLOAD PUSH1 0x20 ADD PUSH2 0x1BD SWAP4 SWAP3 SWAP2 SWAP1 PUSH2 0x6FA JUMP JUMPDEST PUSH1 0x40 MLOAD PUSH1 0x20 DUP2 DUP4 SUB SUB DUP2 MSTORE SWAP1 PUSH1 0x40 MSTORE DUP1 MLOAD SWAP1 PUSH1 0x20 ADD KECCAK256 SWAP1 POP SWAP4 SWAP3 POP POP POP JUMP JUMPDEST PUSH0 PUSH1 0x40 MLOAD SWAP1 POP SWAP1 JUMP JUMPDEST PUSH0 DUP1 REVERT JUMPDEST PUSH0 DUP1 REVERT JUMPDEST PUSH0 DUP1 REVERT JUMPDEST PUSH0 DUP1 REVERT JUMPDEST PUSH0 PUSH1 0x1F NOT PUSH1 0x1F DUP4 ADD AND SWAP1 POP SWAP2 SWAP1 POP JUMP JUMPDEST PUSH32 0x4E487B7100000000000000000000000000000000000000000000000000000000 PUSH0 MSTORE PUSH1 0x41 PUSH1 0x4 MSTORE PUSH1 0x24 PUSH0 REVERT JUMPDEST PUSH2 0x23B DUP3 PUSH2 0x1F5 JUMP JUMPDEST DUP2 ADD DUP2 DUP2 LT PUSH8 0xFFFFFFFFFFFFFFFF DUP3 GT OR ISZERO PUSH2 0x25A JUMPI PUSH2 0x259 PUSH2 0x205 JUMP JUMPDEST JUMPDEST DUP1 PUSH1 0x40 MSTORE POP POP POP JUMP JUMPDEST PUSH0 PUSH2 0x26C PUSH2 0x1DC JUMP JUMPDEST SWAP1 POP PUSH2 0x278 DUP3 DUP3 PUSH2 0x232 JUMP JUMPDEST SWAP2 SWAP1 POP JUMP JUMPDEST PUSH0 PUSH8 0xFFFFFFFFFFFFFFFF DUP3 GT ISZERO PUSH2 0x297 JUMPI PUSH2 0x296 PUSH2 0x205 JUMP JUMPDEST JUMPDEST PUSH2 0x2A0 DUP3 PUSH2 0x1F5 JUMP JUMPDEST SWAP1 POP PUSH1 0x20 DUP2 ADD SWAP1 POP SWAP2 SWAP1 POP JUMP JUMPDEST DUP3 DUP2 DUP4 CALLDATACOPY PUSH0 DUP4 DUP4 ADD MSTORE POP POP POP JUMP JUMPDEST PUSH0 PUSH2 0x2CD PUSH2 0x2C8 DUP5 PUSH2 0x27D JUMP JUMPDEST PUSH2 0x263 JUMP JUMPDEST SWAP1 POP DUP3 DUP2 MSTORE PUSH1 0x20 DUP2 ADD DUP5 DUP5 DUP5 ADD GT ISZERO PUSH2 0x2E9 JUMPI PUSH2 0x2E8 PUSH2 0x1F1 JUMP JUMPDEST JUMPDEST PUSH2 0x2F4 DUP5 DUP3 DUP6 PUSH2 0x2AD JUMP JUMPDEST POP SWAP4 SWAP3 POP POP POP JUMP JUMPDEST PUSH0 DUP3 PUSH1 0x1F DUP4 ADD SLT PUSH2 0x310 JUMPI PUSH2 0x30F PUSH2 0x1ED JUMP JUMPDEST JUMPDEST DUP2 CALLDATALOAD PUSH2 0x320 DUP5 DUP3 PUSH1 0x20 DUP7 ADD PUSH2 0x2BB JUMP JUMPDEST SWAP2 POP POP SWAP3 SWAP2 POP POP JUMP JUMPDEST PUSH0 DUP1 PUSH1 0x40 DUP4 DUP6 SUB SLT ISZERO PUSH2 0x33F JUMPI PUSH2 0x33E PUSH2 0x1E5 JUMP JUMPDEST JUMPDEST PUSH0 DUP4 ADD CALLDATALOAD PUSH8 0xFFFFFFFFFFFFFFFF DUP2 GT ISZERO PUSH2 0x35C JUMPI PUSH2 0x35B PUSH2 0x1E9 JUMP JUMPDEST JUMPDEST PUSH2 0x368 DUP6 DUP3 DUP7 ADD PUSH2 0x2FC JUMP JUMPDEST SWAP3 POP POP PUSH1 0x20 DUP4 ADD CALLDATALOAD PUSH8 0xFFFFFFFFFFFFFFFF DUP2 GT ISZERO PUSH2 0x389 JUMPI PUSH2 0x388 PUSH2 0x1E9 JUMP JUMPDEST JUMPDEST PUSH2 0x395 DUP6 DUP3 DUP7 ADD PUSH2 0x2FC JUMP JUMPDEST SWAP2 POP POP SWAP3 POP SWAP3 SWAP1 POP JUMP JUMPDEST PUSH0 DUP2 SWAP1 POP SWAP2 SWAP1 POP JUMP JUMPDEST PUSH2 0x3B1 DUP2 PUSH2 0x39F JUMP JUMPDEST DUP3 MSTORE POP POP JUMP JUMPDEST PUSH0 PUSH1 0x20 DUP3 ADD SWAP1 POP PUSH2 0x3CA PUSH0 DUP4 ADD DUP5 PUSH2 0x3A8 JUMP JUMPDEST SWAP3 SWAP2 POP POP JUMP JUMPDEST PUSH0 DUP2 SWAP1 POP SWAP2 SWAP1 POP JUMP JUMPDEST PUSH2 0x3E2 DUP2 PUSH2 0x3D0 JUMP JUMPDEST DUP2 EQ PUSH2 0x3EC JUMPI PUSH0 DUP1 REVERT JUMPDEST POP JUMP JUMPDEST PUSH0 DUP2 CALLDATALOAD SWAP1 POP PUSH2 0x3FD DUP2 PUSH2 0x3D9 JUMP JUMPDEST SWAP3 SWAP2 POP POP JUMP JUMPDEST PUSH0 PUSH20 0xFFFFFFFFFFFFFFFFFFFFFFFFFFFFFFFFFFFFFFFF DUP3 AND SWAP1 POP SWAP2 SWAP1 POP JUMP JUMPDEST PUSH0 PUSH2 0x42C DUP3 PUSH2 0x403 JUMP JUMPDEST SWAP1 POP SWAP2 SWAP1 POP JUMP JUMPDEST PUSH2 0x43C DUP2 PUSH2 0x422 JUMP JUMPDEST DUP2 EQ PUSH2 0x446 JUMPI PUSH0 DUP1 REVERT JUMPDEST POP JUMP JUMPDEST PUSH0 DUP2 CALLDATALOAD SWAP1 POP PUSH2 0x457 DUP2 PUSH2 0x433 JUMP JUMPDEST SWAP3 SWAP2 POP POP JUMP JUMPDEST PUSH0 DUP1 PUSH0 PUSH1 0x60 DUP5 DUP7 SUB SLT ISZERO PUSH2 0x474 JUMPI PUSH2 0x473 PUSH2 0x1E5 JUMP JUMPDEST JUMPDEST PUSH0 DUP5 ADD CALLDATALOAD PUSH8 0xFFFFFFFFFFFFFFFF DUP2 GT ISZERO PUSH2 0x491 JUMPI PUSH2 0x490 PUSH2 0x1E9 JUMP JUMPDEST JUMPDEST PUSH2 0x49D DUP7 DUP3 DUP8 ADD PUSH2 0x2FC JUMP JUMPDEST SWAP4 POP POP PUSH1 0x20 PUSH2 0x4AE DUP7 DUP3 DUP8 ADD PUSH2 0x3EF JUMP JUMPDEST SWAP3 POP POP PUSH1 0x40 PUSH2 0x4BF DUP7 DUP3 DUP8 ADD PUSH2 0x449 JUMP JUMPDEST SWAP2 POP POP SWAP3 POP SWAP3 POP SWAP3 JUMP JUMPDEST PUSH0 DUP1 PUSH0 PUSH1 0x60 DUP5 DUP7 SUB SLT ISZERO PUSH2 0x4E0 JUMPI PUSH2 0x4DF PUSH2 0x1E5 JUMP JUMPDEST JUMPDEST PUSH0 DUP5 ADD CALLDATALOAD PUSH8 0xFFFFFFFFFFFFFFFF DUP2 GT ISZERO PUSH2 0x4FD JUMPI PUSH2 0x4FC PUSH2 0x1E9 JUMP JUMPDEST JUMPDEST PUSH2 0x509 DUP7 DUP3 DUP8 ADD PUSH2 0x2FC JUMP JUMPDEST SWAP4 POP POP PUSH1 0x20 PUSH2 0x51A DUP7 DUP3 DUP8 ADD PUSH2 0x3EF JUMP JUMPDEST SWAP3 POP POP PUSH1 0x40 DUP5 ADD CALLDATALOAD PUSH8 0xFFFFFFFFFFFFFFFF DUP2 GT ISZERO PUSH2 0x53B JUMPI PUSH2 0x53A PUSH2 0x1E9 JUMP JUMPDEST JUMPDEST PUSH2 0x547 DUP7 DUP3 DUP8 ADD PUSH2 0x2FC JUMP JUMPDEST SWAP2 POP POP SWAP3 POP SWAP3 POP SWAP3 JUMP JUMPDEST PUSH0 DUP2 MLOAD SWAP1 POP SWAP2 SWAP1 POP JUMP JUMPDEST PUSH0 DUP3 DUP3 MSTORE PUSH1 0x20 DUP3 ADD SWAP1 POP SWAP3 SWAP2 POP POP JUMP JUMPDEST PUSH0 JUMPDEST DUP4 DUP2 LT ISZERO PUSH2 0x588 JUMPI DUP1 DUP3 ADD MLOAD DUP2 DUP5 ADD MSTORE PUSH1 0x20 DUP2 ADD SWAP1 POP PUSH2 0x56D JUMP JUMPDEST PUSH0 DUP5 DUP5 ADD MSTORE POP POP POP POP JUMP JUMPDEST PUSH0 PUSH2 0x59D DUP3 PUSH2 0x551 JUMP JUMPDEST PUSH2 0x5A7 DUP2 DUP6 PUSH2 0x55B JUMP JUMPDEST SWAP4 POP PUSH2 0x5B7 DUP2 DUP6 PUSH1 0x20 DUP7 ADD PUSH2 0x56B JUMP JUMPDEST PUSH2 0x5C0 DUP2 PUSH2 0x1F5 JUMP JUMPDEST DUP5 ADD SWAP2 POP POP SWAP3 SWAP2 POP POP JUMP JUMPDEST PUSH0 PUSH1 0x40 DUP3 ADD SWAP1 POP DUP2 DUP2 SUB PUSH0 DUP4 ADD MSTORE PUSH2 0x5E3 DUP2 DUP6 PUSH2 0x593 JUMP JUMPDEST SWAP1 POP DUP2 DUP2 SUB PUSH1 0x20 DUP4 ADD MSTORE PUSH2 0x5F7 DUP2 DUP5 PUSH2 0x593 JUMP JUMPDEST SWAP1 POP SWAP4 SWAP3 POP POP POP JUMP JUMPDEST PUSH0 DUP2 SWAP1 POP SWAP3 SWAP2 POP POP JUMP JUMPDEST PUSH0 PUSH2 0x614 DUP3 PUSH2 0x551 JUMP JUMPDEST PUSH2 0x61E DUP2 DUP6 PUSH2 0x600 JUMP JUMPDEST SWAP4 POP PUSH2 0x62E DUP2 DUP6 PUSH1 0x20 DUP7 ADD PUSH2 0x56B JUMP JUMPDEST DUP1 DUP5 ADD SWAP2 POP POP SWAP3 SWAP2 POP POP JUMP JUMPDEST PUSH0 DUP2 SWAP1 POP SWAP2 SWAP1 POP JUMP JUMPDEST PUSH2 0x654 PUSH2 0x64F DUP3 PUSH2 0x3D0 JUMP JUMPDEST PUSH2 0x63A JUMP JUMPDEST DUP3 MSTORE POP POP JUMP JUMPDEST PUSH0 DUP2 PUSH1 0x60 SHL SWAP1 POP SWAP2 SWAP1 POP JUMP JUMPDEST PUSH0 PUSH2 0x670 DUP3 PUSH2 0x65A JUMP JUMPDEST SWAP1 POP SWAP2 SWAP1 POP JUMP JUMPDEST PUSH0 PUSH2 0x681 DUP3 PUSH2 0x666 JUMP JUMPDEST SWAP1 POP SWAP2 SWAP1 POP JUMP JUMPDEST PUSH2 0x699 PUSH2 0x694 DUP3 PUSH2 0x422 JUMP JUMPDEST PUSH2 0x677 JUMP JUMPDEST DUP3 MSTORE POP POP JUMP JUMPDEST PUSH0 PUSH2 0x6AA DUP3 DUP7 PUSH2 0x60A JUMP JUMPDEST SWAP2 POP PUSH2 0x6B6 DUP3 DUP6 PUSH2 0x643 JUMP JUMPDEST PUSH1 0x20 DUP3 ADD SWAP2 POP PUSH2 0x6C6 DUP3 DUP5 PUSH2 0x688 JUMP JUMPDEST PUSH1 0x14 DUP3 ADD SWAP2 POP DUP2 SWAP1 POP SWAP5 SWAP4 POP POP POP POP JUMP JUMPDEST PUSH0 PUSH2 0x6E2 DUP3 DUP6 PUSH2 0x60A JUMP JUMPDEST SWAP2 POP PUSH2 0x6EE DUP3 DUP5 PUSH2 0x60A JUMP JUMPDEST SWAP2 POP DUP2 SWAP1 POP SWAP4 SWAP3 POP POP POP JUMP JUMPDEST PUSH0 PUSH2 0x705 DUP3 DUP7 PUSH2 0x60A JUMP JUMPDEST SWAP2 POP PUSH2 0x711 DUP3 DUP6 PUSH2 0x643 JUMP JUMPDEST PUSH1 0x20 DUP3 ADD SWAP2 POP PUSH2 0x721 DUP3 DUP5 PUSH2 0x60A JUMP JUMPDEST SWAP2 POP DUP2 SWAP1 POP SWAP5 SWAP4 POP POP POP POP JUMP INVALID LOG2 PUSH5 0x6970667358 0x22 SLT KECCAK256 0xD 0x21 SELFBALANCE SWAP1 0xC5 DUP16 MLOAD SWAP14 PUSH2 0xB723 0xAE EXTCODECOPY TIMESTAMP 0x1F SWAP6 PREVRANDAO PUSH10 0xE2D1B0F1C3BBA2E729B4 PUSH0 0xAD PUSH15 0x8164736F6C63430008170033000000 "
				},
				"gasEstimates": {
					"creation": {
						"codeDepositCost": "378400",
						"executionCost": "416",
						"totalCost": "378816"
					},
					"external": {
						"encode(string,string)": "infinite",
						"encodePacked(string,string)": "infinite",
						"encodePacked2(string,uint256,string)": "infinite",
						"hash(string,uint256,address)": "infinite"
					}
				},
				"methodIdentifiers": {
					"encode(string,string)": "17fe2da2",
					"encodePacked(string,string)": "892e5d01",
					"encodePacked2(string,uint256,string)": "d9a8d2bc",
					"hash(string,uint256,address)": "5dda416e"
				}
			},
			"storageLayout": {
				"storage": [],
				"types": null
			},
			"userdoc": {
				"kind": "user",
				"methods": {},
				"version": 1
			}
		}
	}
}