{
	"contracts/四W安全性和验证/03AccessControl.sol": {
		"AccessControl": {
			"abi": [
				{
					"inputs": [],
					"stateMutability": "nonpayable",
					"type": "constructor"
				},
				{
					"anonymous": false,
					"inputs": [
						{
							"indexed": false,
							"internalType": "address",
							"name": "account",
							"type": "address"
						},
						{
							"indexed": false,
							"internalType": "bytes32",
							"name": "role",
							"type": "bytes32"
						}
					],
					"name": "GrantRole",
					"type": "event"
				},
				{
					"anonymous": false,
					"inputs": [
						{
							"indexed": false,
							"internalType": "address",
							"name": "account",
							"type": "address"
						},
						{
							"indexed": false,
							"internalType": "bytes32",
							"name": "role",
							"type": "bytes32"
						}
					],
					"name": "RevokeRole",
					"type": "event"
				},
				{
					"inputs": [
						{
							"internalType": "string",
							"name": "_role",
							"type": "string"
						}
					],
					"name": "getRoleBytes32",
					"outputs": [
						{
							"internalType": "bytes32",
							"name": "",
							"type": "bytes32"
						}
					],
					"stateMutability": "view",
					"type": "function"
				},
				{
					"inputs": [
						{
							"internalType": "bytes32",
							"name": "_role",
							"type": "bytes32"
						},
						{
							"internalType": "address",
							"name": "_account",
							"type": "address"
						}
					],
					"name": "grantRole",
					"outputs": [],
					"stateMutability": "nonpayable",
					"type": "function"
				},
				{
					"inputs": [
						{
							"internalType": "bytes32",
							"name": "_role",
							"type": "bytes32"
						},
						{
							"internalType": "address",
							"name": "_account",
							"type": "address"
						}
					],
					"name": "revokeRole",
					"outputs": [],
					"stateMutability": "nonpayable",
					"type": "function"
				},
				{
					"inputs": [
						{
							"internalType": "string",
							"name": "",
							"type": "string"
						}
					],
					"name": "roleMapping",
					"outputs": [
						{
							"internalType": "bytes32",
							"name": "",
							"type": "bytes32"
						}
					],
					"stateMutability": "view",
					"type": "function"
				},
				{
					"inputs": [
						{
							"internalType": "bytes32",
							"name": "",
							"type": "bytes32"
						},
						{
							"internalType": "address",
							"name": "",
							"type": "address"
						}
					],
					"name": "roles",
					"outputs": [
						{
							"internalType": "bool",
							"name": "",
							"type": "bool"
						}
					],
					"stateMutability": "view",
					"type": "function"
				}
			],
			"devdoc": {
				"kind": "dev",
				"methods": {},
				"version": 1
			},
			"evm": {
				"assembly": "    /* \"contracts/\\xe5\\x9b\\x9bW\\xe5\\xae\\x89\\xe5\\x85\\xa8\\xe6\\x80\\xa7\\xe5\\x92\\x8c\\xe9\\xaa\\x8c\\xe8\\xaf\\x81/03AccessControl.sol\":73:1678  contract AccessControl {... */\n  mstore(0x40, 0x80)\n    /* \"contracts/\\xe5\\x9b\\x9bW\\xe5\\xae\\x89\\xe5\\x85\\xa8\\xe6\\x80\\xa7\\xe5\\x92\\x8c\\xe9\\xaa\\x8c\\xe8\\xaf\\x81/03AccessControl.sol\":839:974  constructor() {... */\n  callvalue\n  dup1\n  iszero\n  tag_1\n  jumpi\n  0x00\n  dup1\n  revert\ntag_1:\n  pop\n    /* \"contracts/\\xe5\\x9b\\x9bW\\xe5\\xae\\x89\\xe5\\x85\\xa8\\xe6\\x80\\xa7\\xe5\\x92\\x8c\\xe9\\xaa\\x8c\\xe8\\xaf\\x81/03AccessControl.sol\":426:451  abi.encodePacked(\"ADMIN\") */\n  add(0x20, mload(0x40))\n  tag_4\n  swap1\n  tag_5\n  jump\t// in\ntag_4:\n  mload(0x40)\n  0x20\n  dup2\n  dup4\n  sub\n  sub\n  dup2\n  mstore\n  swap1\n  0x40\n  mstore\n    /* \"contracts/\\xe5\\x9b\\x9bW\\xe5\\xae\\x89\\xe5\\x85\\xa8\\xe6\\x80\\xa7\\xe5\\x92\\x8c\\xe9\\xaa\\x8c\\xe8\\xaf\\x81/03AccessControl.sol\":416:452  keccak256(abi.encodePacked(\"ADMIN\")) */\n  dup1\n  mload\n  swap1\n  0x20\n  add\n  keccak256\n    /* \"contracts/\\xe5\\x9b\\x9bW\\xe5\\xae\\x89\\xe5\\x85\\xa8\\xe6\\x80\\xa7\\xe5\\x92\\x8c\\xe9\\xaa\\x8c\\xe8\\xaf\\x81/03AccessControl.sol\":863:874  roleMapping */\n  0x01\n    /* \"contracts/\\xe5\\x9b\\x9bW\\xe5\\xae\\x89\\xe5\\x85\\xa8\\xe6\\x80\\xa7\\xe5\\x92\\x8c\\xe9\\xaa\\x8c\\xe8\\xaf\\x81/03AccessControl.sol\":863:883  roleMapping[\"admin\"] */\n  mload(0x40)\n  tag_6\n  swap1\n  tag_7\n  jump\t// in\ntag_6:\n  swap1\n  dup2\n  mstore\n  0x20\n  add\n  mload(0x40)\n  dup1\n  swap2\n  sub\n  swap1\n  keccak256\n    /* \"contracts/\\xe5\\x9b\\x9bW\\xe5\\xae\\x89\\xe5\\x85\\xa8\\xe6\\x80\\xa7\\xe5\\x92\\x8c\\xe9\\xaa\\x8c\\xe8\\xaf\\x81/03AccessControl.sol\":863:891  roleMapping[\"admin\"] = ADMIN */\n  dup2\n  swap1\n  sstore\n  pop\n    /* \"contracts/\\xe5\\x9b\\x9bW\\xe5\\xae\\x89\\xe5\\x85\\xa8\\xe6\\x80\\xa7\\xe5\\x92\\x8c\\xe9\\xaa\\x8c\\xe8\\xaf\\x81/03AccessControl.sol\":574:598  abi.encodePacked(\"USER\") */\n  add(0x20, mload(0x40))\n  tag_8\n  swap1\n  tag_9\n  jump\t// in\ntag_8:\n  mload(0x40)\n  0x20\n  dup2\n  dup4\n  sub\n  sub\n  dup2\n  mstore\n  swap1\n  0x40\n  mstore\n    /* \"contracts/\\xe5\\x9b\\x9bW\\xe5\\xae\\x89\\xe5\\x85\\xa8\\xe6\\x80\\xa7\\xe5\\x92\\x8c\\xe9\\xaa\\x8c\\xe8\\xaf\\x81/03AccessControl.sol\":564:599  keccak256(abi.encodePacked(\"USER\")) */\n  dup1\n  mload\n  swap1\n  0x20\n  add\n  keccak256\n    /* \"contracts/\\xe5\\x9b\\x9bW\\xe5\\xae\\x89\\xe5\\x85\\xa8\\xe6\\x80\\xa7\\xe5\\x92\\x8c\\xe9\\xaa\\x8c\\xe8\\xaf\\x81/03AccessControl.sol\":901:912  roleMapping */\n  0x01\n    /* \"contracts/\\xe5\\x9b\\x9bW\\xe5\\xae\\x89\\xe5\\x85\\xa8\\xe6\\x80\\xa7\\xe5\\x92\\x8c\\xe9\\xaa\\x8c\\xe8\\xaf\\x81/03AccessControl.sol\":901:920  roleMapping[\"user\"] */\n  mload(0x40)\n  tag_10\n  swap1\n  tag_11\n  jump\t// in\ntag_10:\n  swap1\n  dup2\n  mstore\n  0x20\n  add\n  mload(0x40)\n  dup1\n  swap2\n  sub\n  swap1\n  keccak256\n    /* \"contracts/\\xe5\\x9b\\x9bW\\xe5\\xae\\x89\\xe5\\x85\\xa8\\xe6\\x80\\xa7\\xe5\\x92\\x8c\\xe9\\xaa\\x8c\\xe8\\xaf\\x81/03AccessControl.sol\":901:927  roleMapping[\"user\"] = USER */\n  dup2\n  swap1\n  sstore\n  pop\n    /* \"contracts/\\xe5\\x9b\\x9bW\\xe5\\xae\\x89\\xe5\\x85\\xa8\\xe6\\x80\\xa7\\xe5\\x92\\x8c\\xe9\\xaa\\x8c\\xe8\\xaf\\x81/03AccessControl.sol\":938:967  _grantRole(ADMIN, msg.sender) */\n  tag_12\n    /* \"contracts/\\xe5\\x9b\\x9bW\\xe5\\xae\\x89\\xe5\\x85\\xa8\\xe6\\x80\\xa7\\xe5\\x92\\x8c\\xe9\\xaa\\x8c\\xe8\\xaf\\x81/03AccessControl.sol\":426:451  abi.encodePacked(\"ADMIN\") */\n  add(0x20, mload(0x40))\n  tag_13\n  swap1\n  tag_5\n  jump\t// in\ntag_13:\n  mload(0x40)\n  0x20\n  dup2\n  dup4\n  sub\n  sub\n  dup2\n  mstore\n  swap1\n  0x40\n  mstore\n    /* \"contracts/\\xe5\\x9b\\x9bW\\xe5\\xae\\x89\\xe5\\x85\\xa8\\xe6\\x80\\xa7\\xe5\\x92\\x8c\\xe9\\xaa\\x8c\\xe8\\xaf\\x81/03AccessControl.sol\":416:452  keccak256(abi.encodePacked(\"ADMIN\")) */\n  dup1\n  mload\n  swap1\n  0x20\n  add\n  keccak256\n    /* \"contracts/\\xe5\\x9b\\x9bW\\xe5\\xae\\x89\\xe5\\x85\\xa8\\xe6\\x80\\xa7\\xe5\\x92\\x8c\\xe9\\xaa\\x8c\\xe8\\xaf\\x81/03AccessControl.sol\":956:966  msg.sender */\n  caller\n    /* \"contracts/\\xe5\\x9b\\x9bW\\xe5\\xae\\x89\\xe5\\x85\\xa8\\xe6\\x80\\xa7\\xe5\\x92\\x8c\\xe9\\xaa\\x8c\\xe8\\xaf\\x81/03AccessControl.sol\":938:948  _grantRole */\n  shl(0x20, tag_14)\n    /* \"contracts/\\xe5\\x9b\\x9bW\\xe5\\xae\\x89\\xe5\\x85\\xa8\\xe6\\x80\\xa7\\xe5\\x92\\x8c\\xe9\\xaa\\x8c\\xe8\\xaf\\x81/03AccessControl.sol\":938:967  _grantRole(ADMIN, msg.sender) */\n  0x20\n  shr\n  jump\t// in\ntag_12:\n    /* \"contracts/\\xe5\\x9b\\x9bW\\xe5\\xae\\x89\\xe5\\x85\\xa8\\xe6\\x80\\xa7\\xe5\\x92\\x8c\\xe9\\xaa\\x8c\\xe8\\xaf\\x81/03AccessControl.sol\":73:1678  contract AccessControl {... */\n  jump(tag_15)\n    /* \"contracts/\\xe5\\x9b\\x9bW\\xe5\\xae\\x89\\xe5\\x85\\xa8\\xe6\\x80\\xa7\\xe5\\x92\\x8c\\xe9\\xaa\\x8c\\xe8\\xaf\\x81/03AccessControl.sol\":1003:1152  function _grantRole(bytes32 _role, address _account) internal {... */\ntag_14:\n    /* \"contracts/\\xe5\\x9b\\x9bW\\xe5\\xae\\x89\\xe5\\x85\\xa8\\xe6\\x80\\xa7\\xe5\\x92\\x8c\\xe9\\xaa\\x8c\\xe8\\xaf\\x81/03AccessControl.sol\":1100:1104  true */\n  0x01\n    /* \"contracts/\\xe5\\x9b\\x9bW\\xe5\\xae\\x89\\xe5\\x85\\xa8\\xe6\\x80\\xa7\\xe5\\x92\\x8c\\xe9\\xaa\\x8c\\xe8\\xaf\\x81/03AccessControl.sol\":1075:1080  roles */\n  0x00\n    /* \"contracts/\\xe5\\x9b\\x9bW\\xe5\\xae\\x89\\xe5\\x85\\xa8\\xe6\\x80\\xa7\\xe5\\x92\\x8c\\xe9\\xaa\\x8c\\xe8\\xaf\\x81/03AccessControl.sol\":1075:1087  roles[_role] */\n  dup1\n    /* \"contracts/\\xe5\\x9b\\x9bW\\xe5\\xae\\x89\\xe5\\x85\\xa8\\xe6\\x80\\xa7\\xe5\\x92\\x8c\\xe9\\xaa\\x8c\\xe8\\xaf\\x81/03AccessControl.sol\":1081:1086  _role */\n  dup5\n    /* \"contracts/\\xe5\\x9b\\x9bW\\xe5\\xae\\x89\\xe5\\x85\\xa8\\xe6\\x80\\xa7\\xe5\\x92\\x8c\\xe9\\xaa\\x8c\\xe8\\xaf\\x81/03AccessControl.sol\":1075:1087  roles[_role] */\n  dup2\n  mstore\n  0x20\n  add\n  swap1\n  dup2\n  mstore\n  0x20\n  add\n  0x00\n  keccak256\n    /* \"contracts/\\xe5\\x9b\\x9bW\\xe5\\xae\\x89\\xe5\\x85\\xa8\\xe6\\x80\\xa7\\xe5\\x92\\x8c\\xe9\\xaa\\x8c\\xe8\\xaf\\x81/03AccessControl.sol\":1075:1097  roles[_role][_account] */\n  0x00\n    /* \"contracts/\\xe5\\x9b\\x9bW\\xe5\\xae\\x89\\xe5\\x85\\xa8\\xe6\\x80\\xa7\\xe5\\x92\\x8c\\xe9\\xaa\\x8c\\xe8\\xaf\\x81/03AccessControl.sol\":1088:1096  _account */\n  dup4\n    /* \"contracts/\\xe5\\x9b\\x9bW\\xe5\\xae\\x89\\xe5\\x85\\xa8\\xe6\\x80\\xa7\\xe5\\x92\\x8c\\xe9\\xaa\\x8c\\xe8\\xaf\\x81/03AccessControl.sol\":1075:1097  roles[_role][_account] */\n  0xffffffffffffffffffffffffffffffffffffffff\n  and\n  0xffffffffffffffffffffffffffffffffffffffff\n  and\n  dup2\n  mstore\n  0x20\n  add\n  swap1\n  dup2\n  mstore\n  0x20\n  add\n  0x00\n  keccak256\n  0x00\n    /* \"contracts/\\xe5\\x9b\\x9bW\\xe5\\xae\\x89\\xe5\\x85\\xa8\\xe6\\x80\\xa7\\xe5\\x92\\x8c\\xe9\\xaa\\x8c\\xe8\\xaf\\x81/03AccessControl.sol\":1075:1104  roles[_role][_account] = true */\n  0x0100\n  exp\n  dup2\n  sload\n  dup2\n  0xff\n  mul\n  not\n  and\n  swap1\n  dup4\n  iszero\n  iszero\n  mul\n  or\n  swap1\n  sstore\n  pop\n    /* \"contracts/\\xe5\\x9b\\x9bW\\xe5\\xae\\x89\\xe5\\x85\\xa8\\xe6\\x80\\xa7\\xe5\\x92\\x8c\\xe9\\xaa\\x8c\\xe8\\xaf\\x81/03AccessControl.sol\":1119:1145  GrantRole(_account, _role) */\n  0xa7303245a59ff2ac54e2fe5528bb42911d3e6b94b05e43bc614aae7bccf514f3\n    /* \"contracts/\\xe5\\x9b\\x9bW\\xe5\\xae\\x89\\xe5\\x85\\xa8\\xe6\\x80\\xa7\\xe5\\x92\\x8c\\xe9\\xaa\\x8c\\xe8\\xaf\\x81/03AccessControl.sol\":1129:1137  _account */\n  dup2\n    /* \"contracts/\\xe5\\x9b\\x9bW\\xe5\\xae\\x89\\xe5\\x85\\xa8\\xe6\\x80\\xa7\\xe5\\x92\\x8c\\xe9\\xaa\\x8c\\xe8\\xaf\\x81/03AccessControl.sol\":1139:1144  _role */\n  dup4\n    /* \"contracts/\\xe5\\x9b\\x9bW\\xe5\\xae\\x89\\xe5\\x85\\xa8\\xe6\\x80\\xa7\\xe5\\x92\\x8c\\xe9\\xaa\\x8c\\xe8\\xaf\\x81/03AccessControl.sol\":1119:1145  GrantRole(_account, _role) */\n  mload(0x40)\n  tag_17\n  swap3\n  swap2\n  swap1\n  tag_18\n  jump\t// in\ntag_17:\n  mload(0x40)\n  dup1\n  swap2\n  sub\n  swap1\n  log1\n    /* \"contracts/\\xe5\\x9b\\x9bW\\xe5\\xae\\x89\\xe5\\x85\\xa8\\xe6\\x80\\xa7\\xe5\\x92\\x8c\\xe9\\xaa\\x8c\\xe8\\xaf\\x81/03AccessControl.sol\":1003:1152  function _grantRole(bytes32 _role, address _account) internal {... */\n  pop\n  pop\n  jump\t// out\n    /* \"#utility.yul\":7:155   */\ntag_19:\n    /* \"#utility.yul\":109:120   */\n  0x00\n    /* \"#utility.yul\":146:149   */\n  dup2\n    /* \"#utility.yul\":131:149   */\n  swap1\n  pop\n    /* \"#utility.yul\":7:155   */\n  swap3\n  swap2\n  pop\n  pop\n  jump\t// out\n    /* \"#utility.yul\":161:316   */\ntag_20:\n    /* \"#utility.yul\":301:308   */\n  0x41444d494e000000000000000000000000000000000000000000000000000000\n    /* \"#utility.yul\":297:298   */\n  0x00\n    /* \"#utility.yul\":289:295   */\n  dup3\n    /* \"#utility.yul\":285:299   */\n  add\n    /* \"#utility.yul\":278:309   */\n  mstore\n    /* \"#utility.yul\":161:316   */\n  pop\n  jump\t// out\n    /* \"#utility.yul\":322:722   */\ntag_21:\n    /* \"#utility.yul\":482:485   */\n  0x00\n    /* \"#utility.yul\":503:587   */\n  tag_37\n    /* \"#utility.yul\":585:586   */\n  0x05\n    /* \"#utility.yul\":580:583   */\n  dup4\n    /* \"#utility.yul\":503:587   */\n  tag_19\n  jump\t// in\ntag_37:\n    /* \"#utility.yul\":496:587   */\n  swap2\n  pop\n    /* \"#utility.yul\":596:689   */\n  tag_38\n    /* \"#utility.yul\":685:688   */\n  dup3\n    /* \"#utility.yul\":596:689   */\n  tag_20\n  jump\t// in\ntag_38:\n    /* \"#utility.yul\":714:715   */\n  0x05\n    /* \"#utility.yul\":709:712   */\n  dup3\n    /* \"#utility.yul\":705:716   */\n  add\n    /* \"#utility.yul\":698:716   */\n  swap1\n  pop\n    /* \"#utility.yul\":322:722   */\n  swap2\n  swap1\n  pop\n  jump\t// out\n    /* \"#utility.yul\":728:1109   */\ntag_5:\n    /* \"#utility.yul\":913:916   */\n  0x00\n    /* \"#utility.yul\":935:1083   */\n  tag_40\n    /* \"#utility.yul\":1079:1082   */\n  dup3\n    /* \"#utility.yul\":935:1083   */\n  tag_21\n  jump\t// in\ntag_40:\n    /* \"#utility.yul\":928:1083   */\n  swap2\n  pop\n    /* \"#utility.yul\":1100:1103   */\n  dup2\n    /* \"#utility.yul\":1093:1103   */\n  swap1\n  pop\n    /* \"#utility.yul\":728:1109   */\n  swap2\n  swap1\n  pop\n  jump\t// out\n    /* \"#utility.yul\":1115:1270   */\ntag_22:\n    /* \"#utility.yul\":1255:1262   */\n  0x61646d696e000000000000000000000000000000000000000000000000000000\n    /* \"#utility.yul\":1251:1252   */\n  0x00\n    /* \"#utility.yul\":1243:1249   */\n  dup3\n    /* \"#utility.yul\":1239:1253   */\n  add\n    /* \"#utility.yul\":1232:1263   */\n  mstore\n    /* \"#utility.yul\":1115:1270   */\n  pop\n  jump\t// out\n    /* \"#utility.yul\":1276:1676   */\ntag_23:\n    /* \"#utility.yul\":1436:1439   */\n  0x00\n    /* \"#utility.yul\":1457:1541   */\n  tag_43\n    /* \"#utility.yul\":1539:1540   */\n  0x05\n    /* \"#utility.yul\":1534:1537   */\n  dup4\n    /* \"#utility.yul\":1457:1541   */\n  tag_19\n  jump\t// in\ntag_43:\n    /* \"#utility.yul\":1450:1541   */\n  swap2\n  pop\n    /* \"#utility.yul\":1550:1643   */\n  tag_44\n    /* \"#utility.yul\":1639:1642   */\n  dup3\n    /* \"#utility.yul\":1550:1643   */\n  tag_22\n  jump\t// in\ntag_44:\n    /* \"#utility.yul\":1668:1669   */\n  0x05\n    /* \"#utility.yul\":1663:1666   */\n  dup3\n    /* \"#utility.yul\":1659:1670   */\n  add\n    /* \"#utility.yul\":1652:1670   */\n  swap1\n  pop\n    /* \"#utility.yul\":1276:1676   */\n  swap2\n  swap1\n  pop\n  jump\t// out\n    /* \"#utility.yul\":1682:2063   */\ntag_7:\n    /* \"#utility.yul\":1867:1870   */\n  0x00\n    /* \"#utility.yul\":1889:2037   */\n  tag_46\n    /* \"#utility.yul\":2033:2036   */\n  dup3\n    /* \"#utility.yul\":1889:2037   */\n  tag_23\n  jump\t// in\ntag_46:\n    /* \"#utility.yul\":1882:2037   */\n  swap2\n  pop\n    /* \"#utility.yul\":2054:2057   */\n  dup2\n    /* \"#utility.yul\":2047:2057   */\n  swap1\n  pop\n    /* \"#utility.yul\":1682:2063   */\n  swap2\n  swap1\n  pop\n  jump\t// out\n    /* \"#utility.yul\":2069:2223   */\ntag_24:\n    /* \"#utility.yul\":2209:2215   */\n  0x5553455200000000000000000000000000000000000000000000000000000000\n    /* \"#utility.yul\":2205:2206   */\n  0x00\n    /* \"#utility.yul\":2197:2203   */\n  dup3\n    /* \"#utility.yul\":2193:2207   */\n  add\n    /* \"#utility.yul\":2186:2216   */\n  mstore\n    /* \"#utility.yul\":2069:2223   */\n  pop\n  jump\t// out\n    /* \"#utility.yul\":2229:2629   */\ntag_25:\n    /* \"#utility.yul\":2389:2392   */\n  0x00\n    /* \"#utility.yul\":2410:2494   */\n  tag_49\n    /* \"#utility.yul\":2492:2493   */\n  0x04\n    /* \"#utility.yul\":2487:2490   */\n  dup4\n    /* \"#utility.yul\":2410:2494   */\n  tag_19\n  jump\t// in\ntag_49:\n    /* \"#utility.yul\":2403:2494   */\n  swap2\n  pop\n    /* \"#utility.yul\":2503:2596   */\n  tag_50\n    /* \"#utility.yul\":2592:2595   */\n  dup3\n    /* \"#utility.yul\":2503:2596   */\n  tag_24\n  jump\t// in\ntag_50:\n    /* \"#utility.yul\":2621:2622   */\n  0x04\n    /* \"#utility.yul\":2616:2619   */\n  dup3\n    /* \"#utility.yul\":2612:2623   */\n  add\n    /* \"#utility.yul\":2605:2623   */\n  swap1\n  pop\n    /* \"#utility.yul\":2229:2629   */\n  swap2\n  swap1\n  pop\n  jump\t// out\n    /* \"#utility.yul\":2635:3016   */\ntag_9:\n    /* \"#utility.yul\":2820:2823   */\n  0x00\n    /* \"#utility.yul\":2842:2990   */\n  tag_52\n    /* \"#utility.yul\":2986:2989   */\n  dup3\n    /* \"#utility.yul\":2842:2990   */\n  tag_25\n  jump\t// in\ntag_52:\n    /* \"#utility.yul\":2835:2990   */\n  swap2\n  pop\n    /* \"#utility.yul\":3007:3010   */\n  dup2\n    /* \"#utility.yul\":3000:3010   */\n  swap1\n  pop\n    /* \"#utility.yul\":2635:3016   */\n  swap2\n  swap1\n  pop\n  jump\t// out\n    /* \"#utility.yul\":3022:3176   */\ntag_26:\n    /* \"#utility.yul\":3162:3168   */\n  0x7573657200000000000000000000000000000000000000000000000000000000\n    /* \"#utility.yul\":3158:3159   */\n  0x00\n    /* \"#utility.yul\":3150:3156   */\n  dup3\n    /* \"#utility.yul\":3146:3160   */\n  add\n    /* \"#utility.yul\":3139:3169   */\n  mstore\n    /* \"#utility.yul\":3022:3176   */\n  pop\n  jump\t// out\n    /* \"#utility.yul\":3182:3582   */\ntag_27:\n    /* \"#utility.yul\":3342:3345   */\n  0x00\n    /* \"#utility.yul\":3363:3447   */\n  tag_55\n    /* \"#utility.yul\":3445:3446   */\n  0x04\n    /* \"#utility.yul\":3440:3443   */\n  dup4\n    /* \"#utility.yul\":3363:3447   */\n  tag_19\n  jump\t// in\ntag_55:\n    /* \"#utility.yul\":3356:3447   */\n  swap2\n  pop\n    /* \"#utility.yul\":3456:3549   */\n  tag_56\n    /* \"#utility.yul\":3545:3548   */\n  dup3\n    /* \"#utility.yul\":3456:3549   */\n  tag_26\n  jump\t// in\ntag_56:\n    /* \"#utility.yul\":3574:3575   */\n  0x04\n    /* \"#utility.yul\":3569:3572   */\n  dup3\n    /* \"#utility.yul\":3565:3576   */\n  add\n    /* \"#utility.yul\":3558:3576   */\n  swap1\n  pop\n    /* \"#utility.yul\":3182:3582   */\n  swap2\n  swap1\n  pop\n  jump\t// out\n    /* \"#utility.yul\":3588:3969   */\ntag_11:\n    /* \"#utility.yul\":3773:3776   */\n  0x00\n    /* \"#utility.yul\":3795:3943   */\n  tag_58\n    /* \"#utility.yul\":3939:3942   */\n  dup3\n    /* \"#utility.yul\":3795:3943   */\n  tag_27\n  jump\t// in\ntag_58:\n    /* \"#utility.yul\":3788:3943   */\n  swap2\n  pop\n    /* \"#utility.yul\":3960:3963   */\n  dup2\n    /* \"#utility.yul\":3953:3963   */\n  swap1\n  pop\n    /* \"#utility.yul\":3588:3969   */\n  swap2\n  swap1\n  pop\n  jump\t// out\n    /* \"#utility.yul\":3975:4101   */\ntag_28:\n    /* \"#utility.yul\":4012:4019   */\n  0x00\n    /* \"#utility.yul\":4052:4094   */\n  0xffffffffffffffffffffffffffffffffffffffff\n    /* \"#utility.yul\":4045:4050   */\n  dup3\n    /* \"#utility.yul\":4041:4095   */\n  and\n    /* \"#utility.yul\":4030:4095   */\n  swap1\n  pop\n    /* \"#utility.yul\":3975:4101   */\n  swap2\n  swap1\n  pop\n  jump\t// out\n    /* \"#utility.yul\":4107:4203   */\ntag_29:\n    /* \"#utility.yul\":4144:4151   */\n  0x00\n    /* \"#utility.yul\":4173:4197   */\n  tag_61\n    /* \"#utility.yul\":4191:4196   */\n  dup3\n    /* \"#utility.yul\":4173:4197   */\n  tag_28\n  jump\t// in\ntag_61:\n    /* \"#utility.yul\":4162:4197   */\n  swap1\n  pop\n    /* \"#utility.yul\":4107:4203   */\n  swap2\n  swap1\n  pop\n  jump\t// out\n    /* \"#utility.yul\":4209:4327   */\ntag_30:\n    /* \"#utility.yul\":4296:4320   */\n  tag_63\n    /* \"#utility.yul\":4314:4319   */\n  dup2\n    /* \"#utility.yul\":4296:4320   */\n  tag_29\n  jump\t// in\ntag_63:\n    /* \"#utility.yul\":4291:4294   */\n  dup3\n    /* \"#utility.yul\":4284:4321   */\n  mstore\n    /* \"#utility.yul\":4209:4327   */\n  pop\n  pop\n  jump\t// out\n    /* \"#utility.yul\":4333:4410   */\ntag_31:\n    /* \"#utility.yul\":4370:4377   */\n  0x00\n    /* \"#utility.yul\":4399:4404   */\n  dup2\n    /* \"#utility.yul\":4388:4404   */\n  swap1\n  pop\n    /* \"#utility.yul\":4333:4410   */\n  swap2\n  swap1\n  pop\n  jump\t// out\n    /* \"#utility.yul\":4416:4534   */\ntag_32:\n    /* \"#utility.yul\":4503:4527   */\n  tag_66\n    /* \"#utility.yul\":4521:4526   */\n  dup2\n    /* \"#utility.yul\":4503:4527   */\n  tag_31\n  jump\t// in\ntag_66:\n    /* \"#utility.yul\":4498:4501   */\n  dup3\n    /* \"#utility.yul\":4491:4528   */\n  mstore\n    /* \"#utility.yul\":4416:4534   */\n  pop\n  pop\n  jump\t// out\n    /* \"#utility.yul\":4540:4872   */\ntag_18:\n    /* \"#utility.yul\":4661:4665   */\n  0x00\n    /* \"#utility.yul\":4699:4701   */\n  0x40\n    /* \"#utility.yul\":4688:4697   */\n  dup3\n    /* \"#utility.yul\":4684:4702   */\n  add\n    /* \"#utility.yul\":4676:4702   */\n  swap1\n  pop\n    /* \"#utility.yul\":4712:4783   */\n  tag_68\n    /* \"#utility.yul\":4780:4781   */\n  0x00\n    /* \"#utility.yul\":4769:4778   */\n  dup4\n    /* \"#utility.yul\":4765:4782   */\n  add\n    /* \"#utility.yul\":4756:4762   */\n  dup6\n    /* \"#utility.yul\":4712:4783   */\n  tag_30\n  jump\t// in\ntag_68:\n    /* \"#utility.yul\":4793:4865   */\n  tag_69\n    /* \"#utility.yul\":4861:4863   */\n  0x20\n    /* \"#utility.yul\":4850:4859   */\n  dup4\n    /* \"#utility.yul\":4846:4864   */\n  add\n    /* \"#utility.yul\":4837:4843   */\n  dup5\n    /* \"#utility.yul\":4793:4865   */\n  tag_32\n  jump\t// in\ntag_69:\n    /* \"#utility.yul\":4540:4872   */\n  swap4\n  swap3\n  pop\n  pop\n  pop\n  jump\t// out\n    /* \"contracts/\\xe5\\x9b\\x9bW\\xe5\\xae\\x89\\xe5\\x85\\xa8\\xe6\\x80\\xa7\\xe5\\x92\\x8c\\xe9\\xaa\\x8c\\xe8\\xaf\\x81/03AccessControl.sol\":73:1678  contract AccessControl {... */\ntag_15:\n  dataSize(sub_0)\n  dup1\n  dataOffset(sub_0)\n  0x00\n  codecopy\n  0x00\n  return\nstop\n\nsub_0: assembly {\n        /* \"contracts/\\xe5\\x9b\\x9bW\\xe5\\xae\\x89\\xe5\\x85\\xa8\\xe6\\x80\\xa7\\xe5\\x92\\x8c\\xe9\\xaa\\x8c\\xe8\\xaf\\x81/03AccessControl.sol\":73:1678  contract AccessControl {... */\n      mstore(0x40, 0x80)\n      callvalue\n      dup1\n      iszero\n      tag_1\n      jumpi\n      0x00\n      dup1\n      revert\n    tag_1:\n      pop\n      jumpi(tag_2, lt(calldatasize, 0x04))\n      shr(0xe0, calldataload(0x00))\n      dup1\n      0x0b0e83eb\n      eq\n      tag_3\n      jumpi\n      dup1\n      0x2f2ff15d\n      eq\n      tag_4\n      jumpi\n      dup1\n      0xd547741f\n      eq\n      tag_5\n      jumpi\n      dup1\n      0xf7d7a5c9\n      eq\n      tag_6\n      jumpi\n      dup1\n      0xf8fc08b9\n      eq\n      tag_7\n      jumpi\n    tag_2:\n      0x00\n      dup1\n      revert\n        /* \"contracts/\\xe5\\x9b\\x9bW\\xe5\\xae\\x89\\xe5\\x85\\xa8\\xe6\\x80\\xa7\\xe5\\x92\\x8c\\xe9\\xaa\\x8c\\xe8\\xaf\\x81/03AccessControl.sol\":1542:1675  function getRoleBytes32(... */\n    tag_3:\n      tag_8\n      0x04\n      dup1\n      calldatasize\n      sub\n      dup2\n      add\n      swap1\n      tag_9\n      swap2\n      swap1\n      tag_10\n      jump\t// in\n    tag_9:\n      tag_11\n      jump\t// in\n    tag_8:\n      mload(0x40)\n      tag_12\n      swap2\n      swap1\n      tag_13\n      jump\t// in\n    tag_12:\n      mload(0x40)\n      dup1\n      swap2\n      sub\n      swap1\n      return\n        /* \"contracts/\\xe5\\x9b\\x9bW\\xe5\\xae\\x89\\xe5\\x85\\xa8\\xe6\\x80\\xa7\\xe5\\x92\\x8c\\xe9\\xaa\\x8c\\xe8\\xaf\\x81/03AccessControl.sol\":1172:1315  function grantRole(... */\n    tag_4:\n      tag_14\n      0x04\n      dup1\n      calldatasize\n      sub\n      dup2\n      add\n      swap1\n      tag_15\n      swap2\n      swap1\n      tag_16\n      jump\t// in\n    tag_15:\n      tag_17\n      jump\t// in\n    tag_14:\n      stop\n        /* \"contracts/\\xe5\\x9b\\x9bW\\xe5\\xae\\x89\\xe5\\x85\\xa8\\xe6\\x80\\xa7\\xe5\\x92\\x8c\\xe9\\xaa\\x8c\\xe8\\xaf\\x81/03AccessControl.sol\":1347:1536  function revokeRole(... */\n    tag_5:\n      tag_18\n      0x04\n      dup1\n      calldatasize\n      sub\n      dup2\n      add\n      swap1\n      tag_19\n      swap2\n      swap1\n      tag_16\n      jump\t// in\n    tag_19:\n      tag_20\n      jump\t// in\n    tag_18:\n      stop\n        /* \"contracts/\\xe5\\x9b\\x9bW\\xe5\\xae\\x89\\xe5\\x85\\xa8\\xe6\\x80\\xa7\\xe5\\x92\\x8c\\xe9\\xaa\\x8c\\xe8\\xaf\\x81/03AccessControl.sol\":626:671  mapping(string => bytes32) public roleMapping */\n    tag_6:\n      tag_21\n      0x04\n      dup1\n      calldatasize\n      sub\n      dup2\n      add\n      swap1\n      tag_22\n      swap2\n      swap1\n      tag_10\n      jump\t// in\n    tag_22:\n      tag_23\n      jump\t// in\n    tag_21:\n      mload(0x40)\n      tag_24\n      swap2\n      swap1\n      tag_13\n      jump\t// in\n    tag_24:\n      mload(0x40)\n      dup1\n      swap2\n      sub\n      swap1\n      return\n        /* \"contracts/\\xe5\\x9b\\x9bW\\xe5\\xae\\x89\\xe5\\x85\\xa8\\xe6\\x80\\xa7\\xe5\\x92\\x8c\\xe9\\xaa\\x8c\\xe8\\xaf\\x81/03AccessControl.sol\":231:288  mapping(bytes32 => mapping(address => bool)) public roles */\n    tag_7:\n      tag_25\n      0x04\n      dup1\n      calldatasize\n      sub\n      dup2\n      add\n      swap1\n      tag_26\n      swap2\n      swap1\n      tag_16\n      jump\t// in\n    tag_26:\n      tag_27\n      jump\t// in\n    tag_25:\n      mload(0x40)\n      tag_28\n      swap2\n      swap1\n      tag_29\n      jump\t// in\n    tag_28:\n      mload(0x40)\n      dup1\n      swap2\n      sub\n      swap1\n      return\n        /* \"contracts/\\xe5\\x9b\\x9bW\\xe5\\xae\\x89\\xe5\\x85\\xa8\\xe6\\x80\\xa7\\xe5\\x92\\x8c\\xe9\\xaa\\x8c\\xe8\\xaf\\x81/03AccessControl.sol\":1542:1675  function getRoleBytes32(... */\n    tag_11:\n        /* \"contracts/\\xe5\\x9b\\x9bW\\xe5\\xae\\x89\\xe5\\x85\\xa8\\xe6\\x80\\xa7\\xe5\\x92\\x8c\\xe9\\xaa\\x8c\\xe8\\xaf\\x81/03AccessControl.sol\":1624:1631  bytes32 */\n      0x00\n        /* \"contracts/\\xe5\\x9b\\x9bW\\xe5\\xae\\x89\\xe5\\x85\\xa8\\xe6\\x80\\xa7\\xe5\\x92\\x8c\\xe9\\xaa\\x8c\\xe8\\xaf\\x81/03AccessControl.sol\":1650:1661  roleMapping */\n      0x01\n        /* \"contracts/\\xe5\\x9b\\x9bW\\xe5\\xae\\x89\\xe5\\x85\\xa8\\xe6\\x80\\xa7\\xe5\\x92\\x8c\\xe9\\xaa\\x8c\\xe8\\xaf\\x81/03AccessControl.sol\":1662:1667  _role */\n      dup3\n        /* \"contracts/\\xe5\\x9b\\x9bW\\xe5\\xae\\x89\\xe5\\x85\\xa8\\xe6\\x80\\xa7\\xe5\\x92\\x8c\\xe9\\xaa\\x8c\\xe8\\xaf\\x81/03AccessControl.sol\":1650:1668  roleMapping[_role] */\n      mload(0x40)\n      tag_31\n      swap2\n      swap1\n      tag_32\n      jump\t// in\n    tag_31:\n      swap1\n      dup2\n      mstore\n      0x20\n      add\n      mload(0x40)\n      dup1\n      swap2\n      sub\n      swap1\n      keccak256\n      sload\n        /* \"contracts/\\xe5\\x9b\\x9bW\\xe5\\xae\\x89\\xe5\\x85\\xa8\\xe6\\x80\\xa7\\xe5\\x92\\x8c\\xe9\\xaa\\x8c\\xe8\\xaf\\x81/03AccessControl.sol\":1643:1668  return roleMapping[_role] */\n      swap1\n      pop\n        /* \"contracts/\\xe5\\x9b\\x9bW\\xe5\\xae\\x89\\xe5\\x85\\xa8\\xe6\\x80\\xa7\\xe5\\x92\\x8c\\xe9\\xaa\\x8c\\xe8\\xaf\\x81/03AccessControl.sol\":1542:1675  function getRoleBytes32(... */\n      swap2\n      swap1\n      pop\n      jump\t// out\n        /* \"contracts/\\xe5\\x9b\\x9bW\\xe5\\xae\\x89\\xe5\\x85\\xa8\\xe6\\x80\\xa7\\xe5\\x92\\x8c\\xe9\\xaa\\x8c\\xe8\\xaf\\x81/03AccessControl.sol\":1172:1315  function grantRole(... */\n    tag_17:\n        /* \"contracts/\\xe5\\x9b\\x9bW\\xe5\\xae\\x89\\xe5\\x85\\xa8\\xe6\\x80\\xa7\\xe5\\x92\\x8c\\xe9\\xaa\\x8c\\xe8\\xaf\\x81/03AccessControl.sol\":426:451  abi.encodePacked(\"ADMIN\") */\n      add(0x20, mload(0x40))\n      tag_33\n      swap1\n      tag_34\n      jump\t// in\n    tag_33:\n      mload(0x40)\n      0x20\n      dup2\n      dup4\n      sub\n      sub\n      dup2\n      mstore\n      swap1\n      0x40\n      mstore\n        /* \"contracts/\\xe5\\x9b\\x9bW\\xe5\\xae\\x89\\xe5\\x85\\xa8\\xe6\\x80\\xa7\\xe5\\x92\\x8c\\xe9\\xaa\\x8c\\xe8\\xaf\\x81/03AccessControl.sol\":416:452  keccak256(abi.encodePacked(\"ADMIN\")) */\n      dup1\n      mload\n      swap1\n      0x20\n      add\n      keccak256\n        /* \"contracts/\\xe5\\x9b\\x9bW\\xe5\\xae\\x89\\xe5\\x85\\xa8\\xe6\\x80\\xa7\\xe5\\x92\\x8c\\xe9\\xaa\\x8c\\xe8\\xaf\\x81/03AccessControl.sol\":746:751  roles */\n      0x00\n        /* \"contracts/\\xe5\\x9b\\x9bW\\xe5\\xae\\x89\\xe5\\x85\\xa8\\xe6\\x80\\xa7\\xe5\\x92\\x8c\\xe9\\xaa\\x8c\\xe8\\xaf\\x81/03AccessControl.sol\":746:758  roles[_role] */\n      dup1\n        /* \"contracts/\\xe5\\x9b\\x9bW\\xe5\\xae\\x89\\xe5\\x85\\xa8\\xe6\\x80\\xa7\\xe5\\x92\\x8c\\xe9\\xaa\\x8c\\xe8\\xaf\\x81/03AccessControl.sol\":752:757  _role */\n      dup3\n        /* \"contracts/\\xe5\\x9b\\x9bW\\xe5\\xae\\x89\\xe5\\x85\\xa8\\xe6\\x80\\xa7\\xe5\\x92\\x8c\\xe9\\xaa\\x8c\\xe8\\xaf\\x81/03AccessControl.sol\":746:758  roles[_role] */\n      dup2\n      mstore\n      0x20\n      add\n      swap1\n      dup2\n      mstore\n      0x20\n      add\n      0x00\n      keccak256\n        /* \"contracts/\\xe5\\x9b\\x9bW\\xe5\\xae\\x89\\xe5\\x85\\xa8\\xe6\\x80\\xa7\\xe5\\x92\\x8c\\xe9\\xaa\\x8c\\xe8\\xaf\\x81/03AccessControl.sol\":746:770  roles[_role][msg.sender] */\n      0x00\n        /* \"contracts/\\xe5\\x9b\\x9bW\\xe5\\xae\\x89\\xe5\\x85\\xa8\\xe6\\x80\\xa7\\xe5\\x92\\x8c\\xe9\\xaa\\x8c\\xe8\\xaf\\x81/03AccessControl.sol\":759:769  msg.sender */\n      caller\n        /* \"contracts/\\xe5\\x9b\\x9bW\\xe5\\xae\\x89\\xe5\\x85\\xa8\\xe6\\x80\\xa7\\xe5\\x92\\x8c\\xe9\\xaa\\x8c\\xe8\\xaf\\x81/03AccessControl.sol\":746:770  roles[_role][msg.sender] */\n      0xffffffffffffffffffffffffffffffffffffffff\n      and\n      0xffffffffffffffffffffffffffffffffffffffff\n      and\n      dup2\n      mstore\n      0x20\n      add\n      swap1\n      dup2\n      mstore\n      0x20\n      add\n      0x00\n      keccak256\n      0x00\n      swap1\n      sload\n      swap1\n      0x0100\n      exp\n      swap1\n      div\n      0xff\n      and\n        /* \"contracts/\\xe5\\x9b\\x9bW\\xe5\\xae\\x89\\xe5\\x85\\xa8\\xe6\\x80\\xa7\\xe5\\x92\\x8c\\xe9\\xaa\\x8c\\xe8\\xaf\\x81/03AccessControl.sol\":738:789  require(roles[_role][msg.sender], \"not authorized\") */\n      tag_36\n      jumpi\n      mload(0x40)\n      0x08c379a000000000000000000000000000000000000000000000000000000000\n      dup2\n      mstore\n      0x04\n      add\n      tag_37\n      swap1\n      tag_38\n      jump\t// in\n    tag_37:\n      mload(0x40)\n      dup1\n      swap2\n      sub\n      swap1\n      revert\n    tag_36:\n        /* \"contracts/\\xe5\\x9b\\x9bW\\xe5\\xae\\x89\\xe5\\x85\\xa8\\xe6\\x80\\xa7\\xe5\\x92\\x8c\\xe9\\xaa\\x8c\\xe8\\xaf\\x81/03AccessControl.sol\":1281:1308  _grantRole(_role, _account) */\n      tag_40\n        /* \"contracts/\\xe5\\x9b\\x9bW\\xe5\\xae\\x89\\xe5\\x85\\xa8\\xe6\\x80\\xa7\\xe5\\x92\\x8c\\xe9\\xaa\\x8c\\xe8\\xaf\\x81/03AccessControl.sol\":1292:1297  _role */\n      dup4\n        /* \"contracts/\\xe5\\x9b\\x9bW\\xe5\\xae\\x89\\xe5\\x85\\xa8\\xe6\\x80\\xa7\\xe5\\x92\\x8c\\xe9\\xaa\\x8c\\xe8\\xaf\\x81/03AccessControl.sol\":1299:1307  _account */\n      dup4\n        /* \"contracts/\\xe5\\x9b\\x9bW\\xe5\\xae\\x89\\xe5\\x85\\xa8\\xe6\\x80\\xa7\\xe5\\x92\\x8c\\xe9\\xaa\\x8c\\xe8\\xaf\\x81/03AccessControl.sol\":1281:1291  _grantRole */\n      tag_41\n        /* \"contracts/\\xe5\\x9b\\x9bW\\xe5\\xae\\x89\\xe5\\x85\\xa8\\xe6\\x80\\xa7\\xe5\\x92\\x8c\\xe9\\xaa\\x8c\\xe8\\xaf\\x81/03AccessControl.sol\":1281:1308  _grantRole(_role, _account) */\n      jump\t// in\n    tag_40:\n        /* \"contracts/\\xe5\\x9b\\x9bW\\xe5\\xae\\x89\\xe5\\x85\\xa8\\xe6\\x80\\xa7\\xe5\\x92\\x8c\\xe9\\xaa\\x8c\\xe8\\xaf\\x81/03AccessControl.sol\":1172:1315  function grantRole(... */\n      pop\n      pop\n      pop\n      jump\t// out\n        /* \"contracts/\\xe5\\x9b\\x9bW\\xe5\\xae\\x89\\xe5\\x85\\xa8\\xe6\\x80\\xa7\\xe5\\x92\\x8c\\xe9\\xaa\\x8c\\xe8\\xaf\\x81/03AccessControl.sol\":1347:1536  function revokeRole(... */\n    tag_20:\n        /* \"contracts/\\xe5\\x9b\\x9bW\\xe5\\xae\\x89\\xe5\\x85\\xa8\\xe6\\x80\\xa7\\xe5\\x92\\x8c\\xe9\\xaa\\x8c\\xe8\\xaf\\x81/03AccessControl.sol\":426:451  abi.encodePacked(\"ADMIN\") */\n      add(0x20, mload(0x40))\n      tag_42\n      swap1\n      tag_34\n      jump\t// in\n    tag_42:\n      mload(0x40)\n      0x20\n      dup2\n      dup4\n      sub\n      sub\n      dup2\n      mstore\n      swap1\n      0x40\n      mstore\n        /* \"contracts/\\xe5\\x9b\\x9bW\\xe5\\xae\\x89\\xe5\\x85\\xa8\\xe6\\x80\\xa7\\xe5\\x92\\x8c\\xe9\\xaa\\x8c\\xe8\\xaf\\x81/03AccessControl.sol\":416:452  keccak256(abi.encodePacked(\"ADMIN\")) */\n      dup1\n      mload\n      swap1\n      0x20\n      add\n      keccak256\n        /* \"contracts/\\xe5\\x9b\\x9bW\\xe5\\xae\\x89\\xe5\\x85\\xa8\\xe6\\x80\\xa7\\xe5\\x92\\x8c\\xe9\\xaa\\x8c\\xe8\\xaf\\x81/03AccessControl.sol\":746:751  roles */\n      0x00\n        /* \"contracts/\\xe5\\x9b\\x9bW\\xe5\\xae\\x89\\xe5\\x85\\xa8\\xe6\\x80\\xa7\\xe5\\x92\\x8c\\xe9\\xaa\\x8c\\xe8\\xaf\\x81/03AccessControl.sol\":746:758  roles[_role] */\n      dup1\n        /* \"contracts/\\xe5\\x9b\\x9bW\\xe5\\xae\\x89\\xe5\\x85\\xa8\\xe6\\x80\\xa7\\xe5\\x92\\x8c\\xe9\\xaa\\x8c\\xe8\\xaf\\x81/03AccessControl.sol\":752:757  _role */\n      dup3\n        /* \"contracts/\\xe5\\x9b\\x9bW\\xe5\\xae\\x89\\xe5\\x85\\xa8\\xe6\\x80\\xa7\\xe5\\x92\\x8c\\xe9\\xaa\\x8c\\xe8\\xaf\\x81/03AccessControl.sol\":746:758  roles[_role] */\n      dup2\n      mstore\n      0x20\n      add\n      swap1\n      dup2\n      mstore\n      0x20\n      add\n      0x00\n      keccak256\n        /* \"contracts/\\xe5\\x9b\\x9bW\\xe5\\xae\\x89\\xe5\\x85\\xa8\\xe6\\x80\\xa7\\xe5\\x92\\x8c\\xe9\\xaa\\x8c\\xe8\\xaf\\x81/03AccessControl.sol\":746:770  roles[_role][msg.sender] */\n      0x00\n        /* \"contracts/\\xe5\\x9b\\x9bW\\xe5\\xae\\x89\\xe5\\x85\\xa8\\xe6\\x80\\xa7\\xe5\\x92\\x8c\\xe9\\xaa\\x8c\\xe8\\xaf\\x81/03AccessControl.sol\":759:769  msg.sender */\n      caller\n        /* \"contracts/\\xe5\\x9b\\x9bW\\xe5\\xae\\x89\\xe5\\x85\\xa8\\xe6\\x80\\xa7\\xe5\\x92\\x8c\\xe9\\xaa\\x8c\\xe8\\xaf\\x81/03AccessControl.sol\":746:770  roles[_role][msg.sender] */\n      0xffffffffffffffffffffffffffffffffffffffff\n      and\n      0xffffffffffffffffffffffffffffffffffffffff\n      and\n      dup2\n      mstore\n      0x20\n      add\n      swap1\n      dup2\n      mstore\n      0x20\n      add\n      0x00\n      keccak256\n      0x00\n      swap1\n      sload\n      swap1\n      0x0100\n      exp\n      swap1\n      div\n      0xff\n      and\n        /* \"contracts/\\xe5\\x9b\\x9bW\\xe5\\xae\\x89\\xe5\\x85\\xa8\\xe6\\x80\\xa7\\xe5\\x92\\x8c\\xe9\\xaa\\x8c\\xe8\\xaf\\x81/03AccessControl.sol\":738:789  require(roles[_role][msg.sender], \"not authorized\") */\n      tag_44\n      jumpi\n      mload(0x40)\n      0x08c379a000000000000000000000000000000000000000000000000000000000\n      dup2\n      mstore\n      0x04\n      add\n      tag_45\n      swap1\n      tag_38\n      jump\t// in\n    tag_45:\n      mload(0x40)\n      dup1\n      swap2\n      sub\n      swap1\n      revert\n    tag_44:\n        /* \"contracts/\\xe5\\x9b\\x9bW\\xe5\\xae\\x89\\xe5\\x85\\xa8\\xe6\\x80\\xa7\\xe5\\x92\\x8c\\xe9\\xaa\\x8c\\xe8\\xaf\\x81/03AccessControl.sol\":1482:1487  false */\n      0x00\n        /* \"contracts/\\xe5\\x9b\\x9bW\\xe5\\xae\\x89\\xe5\\x85\\xa8\\xe6\\x80\\xa7\\xe5\\x92\\x8c\\xe9\\xaa\\x8c\\xe8\\xaf\\x81/03AccessControl.sol\":1457:1462  roles */\n      dup1\n        /* \"contracts/\\xe5\\x9b\\x9bW\\xe5\\xae\\x89\\xe5\\x85\\xa8\\xe6\\x80\\xa7\\xe5\\x92\\x8c\\xe9\\xaa\\x8c\\xe8\\xaf\\x81/03AccessControl.sol\":1457:1469  roles[_role] */\n      0x00\n        /* \"contracts/\\xe5\\x9b\\x9bW\\xe5\\xae\\x89\\xe5\\x85\\xa8\\xe6\\x80\\xa7\\xe5\\x92\\x8c\\xe9\\xaa\\x8c\\xe8\\xaf\\x81/03AccessControl.sol\":1463:1468  _role */\n      dup6\n        /* \"contracts/\\xe5\\x9b\\x9bW\\xe5\\xae\\x89\\xe5\\x85\\xa8\\xe6\\x80\\xa7\\xe5\\x92\\x8c\\xe9\\xaa\\x8c\\xe8\\xaf\\x81/03AccessControl.sol\":1457:1469  roles[_role] */\n      dup2\n      mstore\n      0x20\n      add\n      swap1\n      dup2\n      mstore\n      0x20\n      add\n      0x00\n      keccak256\n        /* \"contracts/\\xe5\\x9b\\x9bW\\xe5\\xae\\x89\\xe5\\x85\\xa8\\xe6\\x80\\xa7\\xe5\\x92\\x8c\\xe9\\xaa\\x8c\\xe8\\xaf\\x81/03AccessControl.sol\":1457:1479  roles[_role][_account] */\n      0x00\n        /* \"contracts/\\xe5\\x9b\\x9bW\\xe5\\xae\\x89\\xe5\\x85\\xa8\\xe6\\x80\\xa7\\xe5\\x92\\x8c\\xe9\\xaa\\x8c\\xe8\\xaf\\x81/03AccessControl.sol\":1470:1478  _account */\n      dup5\n        /* \"contracts/\\xe5\\x9b\\x9bW\\xe5\\xae\\x89\\xe5\\x85\\xa8\\xe6\\x80\\xa7\\xe5\\x92\\x8c\\xe9\\xaa\\x8c\\xe8\\xaf\\x81/03AccessControl.sol\":1457:1479  roles[_role][_account] */\n      0xffffffffffffffffffffffffffffffffffffffff\n      and\n      0xffffffffffffffffffffffffffffffffffffffff\n      and\n      dup2\n      mstore\n      0x20\n      add\n      swap1\n      dup2\n      mstore\n      0x20\n      add\n      0x00\n      keccak256\n      0x00\n        /* \"contracts/\\xe5\\x9b\\x9bW\\xe5\\xae\\x89\\xe5\\x85\\xa8\\xe6\\x80\\xa7\\xe5\\x92\\x8c\\xe9\\xaa\\x8c\\xe8\\xaf\\x81/03AccessControl.sol\":1457:1487  roles[_role][_account] = false */\n      0x0100\n      exp\n      dup2\n      sload\n      dup2\n      0xff\n      mul\n      not\n      and\n      swap1\n      dup4\n      iszero\n      iszero\n      mul\n      or\n      swap1\n      sstore\n      pop\n        /* \"contracts/\\xe5\\x9b\\x9bW\\xe5\\xae\\x89\\xe5\\x85\\xa8\\xe6\\x80\\xa7\\xe5\\x92\\x8c\\xe9\\xaa\\x8c\\xe8\\xaf\\x81/03AccessControl.sol\":1502:1529  RevokeRole(_account, _role) */\n      0xd2a4c0c5ce589dd4d53ba3b322ec9e98736a0476cec2f1a1515835650bca3b9d\n        /* \"contracts/\\xe5\\x9b\\x9bW\\xe5\\xae\\x89\\xe5\\x85\\xa8\\xe6\\x80\\xa7\\xe5\\x92\\x8c\\xe9\\xaa\\x8c\\xe8\\xaf\\x81/03AccessControl.sol\":1513:1521  _account */\n      dup3\n        /* \"contracts/\\xe5\\x9b\\x9bW\\xe5\\xae\\x89\\xe5\\x85\\xa8\\xe6\\x80\\xa7\\xe5\\x92\\x8c\\xe9\\xaa\\x8c\\xe8\\xaf\\x81/03AccessControl.sol\":1523:1528  _role */\n      dup5\n        /* \"contracts/\\xe5\\x9b\\x9bW\\xe5\\xae\\x89\\xe5\\x85\\xa8\\xe6\\x80\\xa7\\xe5\\x92\\x8c\\xe9\\xaa\\x8c\\xe8\\xaf\\x81/03AccessControl.sol\":1502:1529  RevokeRole(_account, _role) */\n      mload(0x40)\n      tag_47\n      swap3\n      swap2\n      swap1\n      tag_48\n      jump\t// in\n    tag_47:\n      mload(0x40)\n      dup1\n      swap2\n      sub\n      swap1\n      log1\n        /* \"contracts/\\xe5\\x9b\\x9bW\\xe5\\xae\\x89\\xe5\\x85\\xa8\\xe6\\x80\\xa7\\xe5\\x92\\x8c\\xe9\\xaa\\x8c\\xe8\\xaf\\x81/03AccessControl.sol\":1347:1536  function revokeRole(... */\n      pop\n      pop\n      pop\n      jump\t// out\n        /* \"contracts/\\xe5\\x9b\\x9bW\\xe5\\xae\\x89\\xe5\\x85\\xa8\\xe6\\x80\\xa7\\xe5\\x92\\x8c\\xe9\\xaa\\x8c\\xe8\\xaf\\x81/03AccessControl.sol\":626:671  mapping(string => bytes32) public roleMapping */\n    tag_23:\n      0x01\n      dup2\n      dup1\n      mload\n      0x20\n      dup2\n      add\n      dup3\n      add\n      dup1\n      mload\n      dup5\n      dup3\n      mstore\n      0x20\n      dup4\n      add\n      0x20\n      dup6\n      add\n      keccak256\n      dup2\n      dup4\n      mstore\n      dup1\n      swap6\n      pop\n      pop\n      pop\n      pop\n      pop\n      pop\n      0x00\n      swap2\n      pop\n      swap1\n      pop\n      sload\n      dup2\n      jump\t// out\n        /* \"contracts/\\xe5\\x9b\\x9bW\\xe5\\xae\\x89\\xe5\\x85\\xa8\\xe6\\x80\\xa7\\xe5\\x92\\x8c\\xe9\\xaa\\x8c\\xe8\\xaf\\x81/03AccessControl.sol\":231:288  mapping(bytes32 => mapping(address => bool)) public roles */\n    tag_27:\n      mstore(0x20, 0x00)\n      dup2\n      0x00\n      mstore\n      mstore(0x20, keccak256(0x00, 0x40))\n      dup1\n      0x00\n      mstore\n      keccak256(0x00, 0x40)\n      0x00\n      swap2\n      pop\n      swap2\n      pop\n      swap1\n      sload\n      swap1\n      0x0100\n      exp\n      swap1\n      div\n      0xff\n      and\n      dup2\n      jump\t// out\n        /* \"contracts/\\xe5\\x9b\\x9bW\\xe5\\xae\\x89\\xe5\\x85\\xa8\\xe6\\x80\\xa7\\xe5\\x92\\x8c\\xe9\\xaa\\x8c\\xe8\\xaf\\x81/03AccessControl.sol\":1003:1152  function _grantRole(bytes32 _role, address _account) internal {... */\n    tag_41:\n        /* \"contracts/\\xe5\\x9b\\x9bW\\xe5\\xae\\x89\\xe5\\x85\\xa8\\xe6\\x80\\xa7\\xe5\\x92\\x8c\\xe9\\xaa\\x8c\\xe8\\xaf\\x81/03AccessControl.sol\":1100:1104  true */\n      0x01\n        /* \"contracts/\\xe5\\x9b\\x9bW\\xe5\\xae\\x89\\xe5\\x85\\xa8\\xe6\\x80\\xa7\\xe5\\x92\\x8c\\xe9\\xaa\\x8c\\xe8\\xaf\\x81/03AccessControl.sol\":1075:1080  roles */\n      0x00\n        /* \"contracts/\\xe5\\x9b\\x9bW\\xe5\\xae\\x89\\xe5\\x85\\xa8\\xe6\\x80\\xa7\\xe5\\x92\\x8c\\xe9\\xaa\\x8c\\xe8\\xaf\\x81/03AccessControl.sol\":1075:1087  roles[_role] */\n      dup1\n        /* \"contracts/\\xe5\\x9b\\x9bW\\xe5\\xae\\x89\\xe5\\x85\\xa8\\xe6\\x80\\xa7\\xe5\\x92\\x8c\\xe9\\xaa\\x8c\\xe8\\xaf\\x81/03AccessControl.sol\":1081:1086  _role */\n      dup5\n        /* \"contracts/\\xe5\\x9b\\x9bW\\xe5\\xae\\x89\\xe5\\x85\\xa8\\xe6\\x80\\xa7\\xe5\\x92\\x8c\\xe9\\xaa\\x8c\\xe8\\xaf\\x81/03AccessControl.sol\":1075:1087  roles[_role] */\n      dup2\n      mstore\n      0x20\n      add\n      swap1\n      dup2\n      mstore\n      0x20\n      add\n      0x00\n      keccak256\n        /* \"contracts/\\xe5\\x9b\\x9bW\\xe5\\xae\\x89\\xe5\\x85\\xa8\\xe6\\x80\\xa7\\xe5\\x92\\x8c\\xe9\\xaa\\x8c\\xe8\\xaf\\x81/03AccessControl.sol\":1075:1097  roles[_role][_account] */\n      0x00\n        /* \"contracts/\\xe5\\x9b\\x9bW\\xe5\\xae\\x89\\xe5\\x85\\xa8\\xe6\\x80\\xa7\\xe5\\x92\\x8c\\xe9\\xaa\\x8c\\xe8\\xaf\\x81/03AccessControl.sol\":1088:1096  _account */\n      dup4\n        /* \"contracts/\\xe5\\x9b\\x9bW\\xe5\\xae\\x89\\xe5\\x85\\xa8\\xe6\\x80\\xa7\\xe5\\x92\\x8c\\xe9\\xaa\\x8c\\xe8\\xaf\\x81/03AccessControl.sol\":1075:1097  roles[_role][_account] */\n      0xffffffffffffffffffffffffffffffffffffffff\n      and\n      0xffffffffffffffffffffffffffffffffffffffff\n      and\n      dup2\n      mstore\n      0x20\n      add\n      swap1\n      dup2\n      mstore\n      0x20\n      add\n      0x00\n      keccak256\n      0x00\n        /* \"contracts/\\xe5\\x9b\\x9bW\\xe5\\xae\\x89\\xe5\\x85\\xa8\\xe6\\x80\\xa7\\xe5\\x92\\x8c\\xe9\\xaa\\x8c\\xe8\\xaf\\x81/03AccessControl.sol\":1075:1104  roles[_role][_account] = true */\n      0x0100\n      exp\n      dup2\n      sload\n      dup2\n      0xff\n      mul\n      not\n      and\n      swap1\n      dup4\n      iszero\n      iszero\n      mul\n      or\n      swap1\n      sstore\n      pop\n        /* \"contracts/\\xe5\\x9b\\x9bW\\xe5\\xae\\x89\\xe5\\x85\\xa8\\xe6\\x80\\xa7\\xe5\\x92\\x8c\\xe9\\xaa\\x8c\\xe8\\xaf\\x81/03AccessControl.sol\":1119:1145  GrantRole(_account, _role) */\n      0xa7303245a59ff2ac54e2fe5528bb42911d3e6b94b05e43bc614aae7bccf514f3\n        /* \"contracts/\\xe5\\x9b\\x9bW\\xe5\\xae\\x89\\xe5\\x85\\xa8\\xe6\\x80\\xa7\\xe5\\x92\\x8c\\xe9\\xaa\\x8c\\xe8\\xaf\\x81/03AccessControl.sol\":1129:1137  _account */\n      dup2\n        /* \"contracts/\\xe5\\x9b\\x9bW\\xe5\\xae\\x89\\xe5\\x85\\xa8\\xe6\\x80\\xa7\\xe5\\x92\\x8c\\xe9\\xaa\\x8c\\xe8\\xaf\\x81/03AccessControl.sol\":1139:1144  _role */\n      dup4\n        /* \"contracts/\\xe5\\x9b\\x9bW\\xe5\\xae\\x89\\xe5\\x85\\xa8\\xe6\\x80\\xa7\\xe5\\x92\\x8c\\xe9\\xaa\\x8c\\xe8\\xaf\\x81/03AccessControl.sol\":1119:1145  GrantRole(_account, _role) */\n      mload(0x40)\n      tag_50\n      swap3\n      swap2\n      swap1\n      tag_48\n      jump\t// in\n    tag_50:\n      mload(0x40)\n      dup1\n      swap2\n      sub\n      swap1\n      log1\n        /* \"contracts/\\xe5\\x9b\\x9bW\\xe5\\xae\\x89\\xe5\\x85\\xa8\\xe6\\x80\\xa7\\xe5\\x92\\x8c\\xe9\\xaa\\x8c\\xe8\\xaf\\x81/03AccessControl.sol\":1003:1152  function _grantRole(bytes32 _role, address _account) internal {... */\n      pop\n      pop\n      jump\t// out\n        /* \"#utility.yul\":7:82   */\n    tag_51:\n        /* \"#utility.yul\":40:46   */\n      0x00\n        /* \"#utility.yul\":73:75   */\n      0x40\n        /* \"#utility.yul\":67:76   */\n      mload\n        /* \"#utility.yul\":57:76   */\n      swap1\n      pop\n        /* \"#utility.yul\":7:82   */\n      swap1\n      jump\t// out\n        /* \"#utility.yul\":88:205   */\n    tag_52:\n        /* \"#utility.yul\":197:198   */\n      0x00\n        /* \"#utility.yul\":194:195   */\n      dup1\n        /* \"#utility.yul\":187:199   */\n      revert\n        /* \"#utility.yul\":211:328   */\n    tag_53:\n        /* \"#utility.yul\":320:321   */\n      0x00\n        /* \"#utility.yul\":317:318   */\n      dup1\n        /* \"#utility.yul\":310:322   */\n      revert\n        /* \"#utility.yul\":334:451   */\n    tag_54:\n        /* \"#utility.yul\":443:444   */\n      0x00\n        /* \"#utility.yul\":440:441   */\n      dup1\n        /* \"#utility.yul\":433:445   */\n      revert\n        /* \"#utility.yul\":457:574   */\n    tag_55:\n        /* \"#utility.yul\":566:567   */\n      0x00\n        /* \"#utility.yul\":563:564   */\n      dup1\n        /* \"#utility.yul\":556:568   */\n      revert\n        /* \"#utility.yul\":580:682   */\n    tag_56:\n        /* \"#utility.yul\":621:627   */\n      0x00\n        /* \"#utility.yul\":672:674   */\n      0x1f\n        /* \"#utility.yul\":668:675   */\n      not\n        /* \"#utility.yul\":663:665   */\n      0x1f\n        /* \"#utility.yul\":656:661   */\n      dup4\n        /* \"#utility.yul\":652:666   */\n      add\n        /* \"#utility.yul\":648:676   */\n      and\n        /* \"#utility.yul\":638:676   */\n      swap1\n      pop\n        /* \"#utility.yul\":580:682   */\n      swap2\n      swap1\n      pop\n      jump\t// out\n        /* \"#utility.yul\":688:868   */\n    tag_57:\n        /* \"#utility.yul\":736:813   */\n      0x4e487b7100000000000000000000000000000000000000000000000000000000\n        /* \"#utility.yul\":733:734   */\n      0x00\n        /* \"#utility.yul\":726:814   */\n      mstore\n        /* \"#utility.yul\":833:837   */\n      0x41\n        /* \"#utility.yul\":830:831   */\n      0x04\n        /* \"#utility.yul\":823:838   */\n      mstore\n        /* \"#utility.yul\":857:861   */\n      0x24\n        /* \"#utility.yul\":854:855   */\n      0x00\n        /* \"#utility.yul\":847:862   */\n      revert\n        /* \"#utility.yul\":874:1155   */\n    tag_58:\n        /* \"#utility.yul\":957:984   */\n      tag_93\n        /* \"#utility.yul\":979:983   */\n      dup3\n        /* \"#utility.yul\":957:984   */\n      tag_56\n      jump\t// in\n    tag_93:\n        /* \"#utility.yul\":949:955   */\n      dup2\n        /* \"#utility.yul\":945:985   */\n      add\n        /* \"#utility.yul\":1087:1093   */\n      dup2\n        /* \"#utility.yul\":1075:1085   */\n      dup2\n        /* \"#utility.yul\":1072:1094   */\n      lt\n        /* \"#utility.yul\":1051:1069   */\n      0xffffffffffffffff\n        /* \"#utility.yul\":1039:1049   */\n      dup3\n        /* \"#utility.yul\":1036:1070   */\n      gt\n        /* \"#utility.yul\":1033:1095   */\n      or\n        /* \"#utility.yul\":1030:1118   */\n      iszero\n      tag_94\n      jumpi\n        /* \"#utility.yul\":1098:1116   */\n      tag_95\n      tag_57\n      jump\t// in\n    tag_95:\n        /* \"#utility.yul\":1030:1118   */\n    tag_94:\n        /* \"#utility.yul\":1138:1148   */\n      dup1\n        /* \"#utility.yul\":1134:1136   */\n      0x40\n        /* \"#utility.yul\":1127:1149   */\n      mstore\n        /* \"#utility.yul\":917:1155   */\n      pop\n        /* \"#utility.yul\":874:1155   */\n      pop\n      pop\n      jump\t// out\n        /* \"#utility.yul\":1161:1290   */\n    tag_59:\n        /* \"#utility.yul\":1195:1201   */\n      0x00\n        /* \"#utility.yul\":1222:1242   */\n      tag_97\n      tag_51\n      jump\t// in\n    tag_97:\n        /* \"#utility.yul\":1212:1242   */\n      swap1\n      pop\n        /* \"#utility.yul\":1251:1284   */\n      tag_98\n        /* \"#utility.yul\":1279:1283   */\n      dup3\n        /* \"#utility.yul\":1271:1277   */\n      dup3\n        /* \"#utility.yul\":1251:1284   */\n      tag_58\n      jump\t// in\n    tag_98:\n        /* \"#utility.yul\":1161:1290   */\n      swap2\n      swap1\n      pop\n      jump\t// out\n        /* \"#utility.yul\":1296:1604   */\n    tag_60:\n        /* \"#utility.yul\":1358:1362   */\n      0x00\n        /* \"#utility.yul\":1448:1466   */\n      0xffffffffffffffff\n        /* \"#utility.yul\":1440:1446   */\n      dup3\n        /* \"#utility.yul\":1437:1467   */\n      gt\n        /* \"#utility.yul\":1434:1490   */\n      iszero\n      tag_100\n      jumpi\n        /* \"#utility.yul\":1470:1488   */\n      tag_101\n      tag_57\n      jump\t// in\n    tag_101:\n        /* \"#utility.yul\":1434:1490   */\n    tag_100:\n        /* \"#utility.yul\":1508:1537   */\n      tag_102\n        /* \"#utility.yul\":1530:1536   */\n      dup3\n        /* \"#utility.yul\":1508:1537   */\n      tag_56\n      jump\t// in\n    tag_102:\n        /* \"#utility.yul\":1500:1537   */\n      swap1\n      pop\n        /* \"#utility.yul\":1592:1596   */\n      0x20\n        /* \"#utility.yul\":1586:1590   */\n      dup2\n        /* \"#utility.yul\":1582:1597   */\n      add\n        /* \"#utility.yul\":1574:1597   */\n      swap1\n      pop\n        /* \"#utility.yul\":1296:1604   */\n      swap2\n      swap1\n      pop\n      jump\t// out\n        /* \"#utility.yul\":1610:1756   */\n    tag_61:\n        /* \"#utility.yul\":1707:1713   */\n      dup3\n        /* \"#utility.yul\":1702:1705   */\n      dup2\n        /* \"#utility.yul\":1697:1700   */\n      dup4\n        /* \"#utility.yul\":1684:1714   */\n      calldatacopy\n        /* \"#utility.yul\":1748:1749   */\n      0x00\n        /* \"#utility.yul\":1739:1745   */\n      dup4\n        /* \"#utility.yul\":1734:1737   */\n      dup4\n        /* \"#utility.yul\":1730:1746   */\n      add\n        /* \"#utility.yul\":1723:1750   */\n      mstore\n        /* \"#utility.yul\":1610:1756   */\n      pop\n      pop\n      pop\n      jump\t// out\n        /* \"#utility.yul\":1762:2187   */\n    tag_62:\n        /* \"#utility.yul\":1840:1845   */\n      0x00\n        /* \"#utility.yul\":1865:1931   */\n      tag_105\n        /* \"#utility.yul\":1881:1930   */\n      tag_106\n        /* \"#utility.yul\":1923:1929   */\n      dup5\n        /* \"#utility.yul\":1881:1930   */\n      tag_60\n      jump\t// in\n    tag_106:\n        /* \"#utility.yul\":1865:1931   */\n      tag_59\n      jump\t// in\n    tag_105:\n        /* \"#utility.yul\":1856:1931   */\n      swap1\n      pop\n        /* \"#utility.yul\":1954:1960   */\n      dup3\n        /* \"#utility.yul\":1947:1952   */\n      dup2\n        /* \"#utility.yul\":1940:1961   */\n      mstore\n        /* \"#utility.yul\":1992:1996   */\n      0x20\n        /* \"#utility.yul\":1985:1990   */\n      dup2\n        /* \"#utility.yul\":1981:1997   */\n      add\n        /* \"#utility.yul\":2030:2033   */\n      dup5\n        /* \"#utility.yul\":2021:2027   */\n      dup5\n        /* \"#utility.yul\":2016:2019   */\n      dup5\n        /* \"#utility.yul\":2012:2028   */\n      add\n        /* \"#utility.yul\":2009:2034   */\n      gt\n        /* \"#utility.yul\":2006:2118   */\n      iszero\n      tag_107\n      jumpi\n        /* \"#utility.yul\":2037:2116   */\n      tag_108\n      tag_55\n      jump\t// in\n    tag_108:\n        /* \"#utility.yul\":2006:2118   */\n    tag_107:\n        /* \"#utility.yul\":2127:2181   */\n      tag_109\n        /* \"#utility.yul\":2174:2180   */\n      dup5\n        /* \"#utility.yul\":2169:2172   */\n      dup3\n        /* \"#utility.yul\":2164:2167   */\n      dup6\n        /* \"#utility.yul\":2127:2181   */\n      tag_61\n      jump\t// in\n    tag_109:\n        /* \"#utility.yul\":1846:2187   */\n      pop\n        /* \"#utility.yul\":1762:2187   */\n      swap4\n      swap3\n      pop\n      pop\n      pop\n      jump\t// out\n        /* \"#utility.yul\":2207:2547   */\n    tag_63:\n        /* \"#utility.yul\":2263:2268   */\n      0x00\n        /* \"#utility.yul\":2312:2315   */\n      dup3\n        /* \"#utility.yul\":2305:2309   */\n      0x1f\n        /* \"#utility.yul\":2297:2303   */\n      dup4\n        /* \"#utility.yul\":2293:2310   */\n      add\n        /* \"#utility.yul\":2289:2316   */\n      slt\n        /* \"#utility.yul\":2279:2401   */\n      tag_111\n      jumpi\n        /* \"#utility.yul\":2320:2399   */\n      tag_112\n      tag_54\n      jump\t// in\n    tag_112:\n        /* \"#utility.yul\":2279:2401   */\n    tag_111:\n        /* \"#utility.yul\":2437:2443   */\n      dup2\n        /* \"#utility.yul\":2424:2444   */\n      calldataload\n        /* \"#utility.yul\":2462:2541   */\n      tag_113\n        /* \"#utility.yul\":2537:2540   */\n      dup5\n        /* \"#utility.yul\":2529:2535   */\n      dup3\n        /* \"#utility.yul\":2522:2526   */\n      0x20\n        /* \"#utility.yul\":2514:2520   */\n      dup7\n        /* \"#utility.yul\":2510:2527   */\n      add\n        /* \"#utility.yul\":2462:2541   */\n      tag_62\n      jump\t// in\n    tag_113:\n        /* \"#utility.yul\":2453:2541   */\n      swap2\n      pop\n        /* \"#utility.yul\":2269:2547   */\n      pop\n        /* \"#utility.yul\":2207:2547   */\n      swap3\n      swap2\n      pop\n      pop\n      jump\t// out\n        /* \"#utility.yul\":2553:3062   */\n    tag_10:\n        /* \"#utility.yul\":2622:2628   */\n      0x00\n        /* \"#utility.yul\":2671:2673   */\n      0x20\n        /* \"#utility.yul\":2659:2668   */\n      dup3\n        /* \"#utility.yul\":2650:2657   */\n      dup5\n        /* \"#utility.yul\":2646:2669   */\n      sub\n        /* \"#utility.yul\":2642:2674   */\n      slt\n        /* \"#utility.yul\":2639:2758   */\n      iszero\n      tag_115\n      jumpi\n        /* \"#utility.yul\":2677:2756   */\n      tag_116\n      tag_52\n      jump\t// in\n    tag_116:\n        /* \"#utility.yul\":2639:2758   */\n    tag_115:\n        /* \"#utility.yul\":2825:2826   */\n      0x00\n        /* \"#utility.yul\":2814:2823   */\n      dup3\n        /* \"#utility.yul\":2810:2827   */\n      add\n        /* \"#utility.yul\":2797:2828   */\n      calldataload\n        /* \"#utility.yul\":2855:2873   */\n      0xffffffffffffffff\n        /* \"#utility.yul\":2847:2853   */\n      dup2\n        /* \"#utility.yul\":2844:2874   */\n      gt\n        /* \"#utility.yul\":2841:2958   */\n      iszero\n      tag_117\n      jumpi\n        /* \"#utility.yul\":2877:2956   */\n      tag_118\n      tag_53\n      jump\t// in\n    tag_118:\n        /* \"#utility.yul\":2841:2958   */\n    tag_117:\n        /* \"#utility.yul\":2982:3045   */\n      tag_119\n        /* \"#utility.yul\":3037:3044   */\n      dup5\n        /* \"#utility.yul\":3028:3034   */\n      dup3\n        /* \"#utility.yul\":3017:3026   */\n      dup6\n        /* \"#utility.yul\":3013:3035   */\n      add\n        /* \"#utility.yul\":2982:3045   */\n      tag_63\n      jump\t// in\n    tag_119:\n        /* \"#utility.yul\":2972:3045   */\n      swap2\n      pop\n        /* \"#utility.yul\":2768:3055   */\n      pop\n        /* \"#utility.yul\":2553:3062   */\n      swap3\n      swap2\n      pop\n      pop\n      jump\t// out\n        /* \"#utility.yul\":3068:3145   */\n    tag_64:\n        /* \"#utility.yul\":3105:3112   */\n      0x00\n        /* \"#utility.yul\":3134:3139   */\n      dup2\n        /* \"#utility.yul\":3123:3139   */\n      swap1\n      pop\n        /* \"#utility.yul\":3068:3145   */\n      swap2\n      swap1\n      pop\n      jump\t// out\n        /* \"#utility.yul\":3151:3269   */\n    tag_65:\n        /* \"#utility.yul\":3238:3262   */\n      tag_122\n        /* \"#utility.yul\":3256:3261   */\n      dup2\n        /* \"#utility.yul\":3238:3262   */\n      tag_64\n      jump\t// in\n    tag_122:\n        /* \"#utility.yul\":3233:3236   */\n      dup3\n        /* \"#utility.yul\":3226:3263   */\n      mstore\n        /* \"#utility.yul\":3151:3269   */\n      pop\n      pop\n      jump\t// out\n        /* \"#utility.yul\":3275:3497   */\n    tag_13:\n        /* \"#utility.yul\":3368:3372   */\n      0x00\n        /* \"#utility.yul\":3406:3408   */\n      0x20\n        /* \"#utility.yul\":3395:3404   */\n      dup3\n        /* \"#utility.yul\":3391:3409   */\n      add\n        /* \"#utility.yul\":3383:3409   */\n      swap1\n      pop\n        /* \"#utility.yul\":3419:3490   */\n      tag_124\n        /* \"#utility.yul\":3487:3488   */\n      0x00\n        /* \"#utility.yul\":3476:3485   */\n      dup4\n        /* \"#utility.yul\":3472:3489   */\n      add\n        /* \"#utility.yul\":3463:3469   */\n      dup5\n        /* \"#utility.yul\":3419:3490   */\n      tag_65\n      jump\t// in\n    tag_124:\n        /* \"#utility.yul\":3275:3497   */\n      swap3\n      swap2\n      pop\n      pop\n      jump\t// out\n        /* \"#utility.yul\":3503:3625   */\n    tag_66:\n        /* \"#utility.yul\":3576:3600   */\n      tag_126\n        /* \"#utility.yul\":3594:3599   */\n      dup2\n        /* \"#utility.yul\":3576:3600   */\n      tag_64\n      jump\t// in\n    tag_126:\n        /* \"#utility.yul\":3569:3574   */\n      dup2\n        /* \"#utility.yul\":3566:3601   */\n      eq\n        /* \"#utility.yul\":3556:3619   */\n      tag_127\n      jumpi\n        /* \"#utility.yul\":3615:3616   */\n      0x00\n        /* \"#utility.yul\":3612:3613   */\n      dup1\n        /* \"#utility.yul\":3605:3617   */\n      revert\n        /* \"#utility.yul\":3556:3619   */\n    tag_127:\n        /* \"#utility.yul\":3503:3625   */\n      pop\n      jump\t// out\n        /* \"#utility.yul\":3631:3770   */\n    tag_67:\n        /* \"#utility.yul\":3677:3682   */\n      0x00\n        /* \"#utility.yul\":3715:3721   */\n      dup2\n        /* \"#utility.yul\":3702:3722   */\n      calldataload\n        /* \"#utility.yul\":3693:3722   */\n      swap1\n      pop\n        /* \"#utility.yul\":3731:3764   */\n      tag_129\n        /* \"#utility.yul\":3758:3763   */\n      dup2\n        /* \"#utility.yul\":3731:3764   */\n      tag_66\n      jump\t// in\n    tag_129:\n        /* \"#utility.yul\":3631:3770   */\n      swap3\n      swap2\n      pop\n      pop\n      jump\t// out\n        /* \"#utility.yul\":3776:3902   */\n    tag_68:\n        /* \"#utility.yul\":3813:3820   */\n      0x00\n        /* \"#utility.yul\":3853:3895   */\n      0xffffffffffffffffffffffffffffffffffffffff\n        /* \"#utility.yul\":3846:3851   */\n      dup3\n        /* \"#utility.yul\":3842:3896   */\n      and\n        /* \"#utility.yul\":3831:3896   */\n      swap1\n      pop\n        /* \"#utility.yul\":3776:3902   */\n      swap2\n      swap1\n      pop\n      jump\t// out\n        /* \"#utility.yul\":3908:4004   */\n    tag_69:\n        /* \"#utility.yul\":3945:3952   */\n      0x00\n        /* \"#utility.yul\":3974:3998   */\n      tag_132\n        /* \"#utility.yul\":3992:3997   */\n      dup3\n        /* \"#utility.yul\":3974:3998   */\n      tag_68\n      jump\t// in\n    tag_132:\n        /* \"#utility.yul\":3963:3998   */\n      swap1\n      pop\n        /* \"#utility.yul\":3908:4004   */\n      swap2\n      swap1\n      pop\n      jump\t// out\n        /* \"#utility.yul\":4010:4132   */\n    tag_70:\n        /* \"#utility.yul\":4083:4107   */\n      tag_134\n        /* \"#utility.yul\":4101:4106   */\n      dup2\n        /* \"#utility.yul\":4083:4107   */\n      tag_69\n      jump\t// in\n    tag_134:\n        /* \"#utility.yul\":4076:4081   */\n      dup2\n        /* \"#utility.yul\":4073:4108   */\n      eq\n        /* \"#utility.yul\":4063:4126   */\n      tag_135\n      jumpi\n        /* \"#utility.yul\":4122:4123   */\n      0x00\n        /* \"#utility.yul\":4119:4120   */\n      dup1\n        /* \"#utility.yul\":4112:4124   */\n      revert\n        /* \"#utility.yul\":4063:4126   */\n    tag_135:\n        /* \"#utility.yul\":4010:4132   */\n      pop\n      jump\t// out\n        /* \"#utility.yul\":4138:4277   */\n    tag_71:\n        /* \"#utility.yul\":4184:4189   */\n      0x00\n        /* \"#utility.yul\":4222:4228   */\n      dup2\n        /* \"#utility.yul\":4209:4229   */\n      calldataload\n        /* \"#utility.yul\":4200:4229   */\n      swap1\n      pop\n        /* \"#utility.yul\":4238:4271   */\n      tag_137\n        /* \"#utility.yul\":4265:4270   */\n      dup2\n        /* \"#utility.yul\":4238:4271   */\n      tag_70\n      jump\t// in\n    tag_137:\n        /* \"#utility.yul\":4138:4277   */\n      swap3\n      swap2\n      pop\n      pop\n      jump\t// out\n        /* \"#utility.yul\":4283:4757   */\n    tag_16:\n        /* \"#utility.yul\":4351:4357   */\n      0x00\n        /* \"#utility.yul\":4359:4365   */\n      dup1\n        /* \"#utility.yul\":4408:4410   */\n      0x40\n        /* \"#utility.yul\":4396:4405   */\n      dup4\n        /* \"#utility.yul\":4387:4394   */\n      dup6\n        /* \"#utility.yul\":4383:4406   */\n      sub\n        /* \"#utility.yul\":4379:4411   */\n      slt\n        /* \"#utility.yul\":4376:4495   */\n      iszero\n      tag_139\n      jumpi\n        /* \"#utility.yul\":4414:4493   */\n      tag_140\n      tag_52\n      jump\t// in\n    tag_140:\n        /* \"#utility.yul\":4376:4495   */\n    tag_139:\n        /* \"#utility.yul\":4534:4535   */\n      0x00\n        /* \"#utility.yul\":4559:4612   */\n      tag_141\n        /* \"#utility.yul\":4604:4611   */\n      dup6\n        /* \"#utility.yul\":4595:4601   */\n      dup3\n        /* \"#utility.yul\":4584:4593   */\n      dup7\n        /* \"#utility.yul\":4580:4602   */\n      add\n        /* \"#utility.yul\":4559:4612   */\n      tag_67\n      jump\t// in\n    tag_141:\n        /* \"#utility.yul\":4549:4612   */\n      swap3\n      pop\n        /* \"#utility.yul\":4505:4622   */\n      pop\n        /* \"#utility.yul\":4661:4663   */\n      0x20\n        /* \"#utility.yul\":4687:4740   */\n      tag_142\n        /* \"#utility.yul\":4732:4739   */\n      dup6\n        /* \"#utility.yul\":4723:4729   */\n      dup3\n        /* \"#utility.yul\":4712:4721   */\n      dup7\n        /* \"#utility.yul\":4708:4730   */\n      add\n        /* \"#utility.yul\":4687:4740   */\n      tag_71\n      jump\t// in\n    tag_142:\n        /* \"#utility.yul\":4677:4740   */\n      swap2\n      pop\n        /* \"#utility.yul\":4632:4750   */\n      pop\n        /* \"#utility.yul\":4283:4757   */\n      swap3\n      pop\n      swap3\n      swap1\n      pop\n      jump\t// out\n        /* \"#utility.yul\":4763:4853   */\n    tag_72:\n        /* \"#utility.yul\":4797:4804   */\n      0x00\n        /* \"#utility.yul\":4840:4845   */\n      dup2\n        /* \"#utility.yul\":4833:4846   */\n      iszero\n        /* \"#utility.yul\":4826:4847   */\n      iszero\n        /* \"#utility.yul\":4815:4847   */\n      swap1\n      pop\n        /* \"#utility.yul\":4763:4853   */\n      swap2\n      swap1\n      pop\n      jump\t// out\n        /* \"#utility.yul\":4859:4968   */\n    tag_73:\n        /* \"#utility.yul\":4940:4961   */\n      tag_145\n        /* \"#utility.yul\":4955:4960   */\n      dup2\n        /* \"#utility.yul\":4940:4961   */\n      tag_72\n      jump\t// in\n    tag_145:\n        /* \"#utility.yul\":4935:4938   */\n      dup3\n        /* \"#utility.yul\":4928:4962   */\n      mstore\n        /* \"#utility.yul\":4859:4968   */\n      pop\n      pop\n      jump\t// out\n        /* \"#utility.yul\":4974:5184   */\n    tag_29:\n        /* \"#utility.yul\":5061:5065   */\n      0x00\n        /* \"#utility.yul\":5099:5101   */\n      0x20\n        /* \"#utility.yul\":5088:5097   */\n      dup3\n        /* \"#utility.yul\":5084:5102   */\n      add\n        /* \"#utility.yul\":5076:5102   */\n      swap1\n      pop\n        /* \"#utility.yul\":5112:5177   */\n      tag_147\n        /* \"#utility.yul\":5174:5175   */\n      0x00\n        /* \"#utility.yul\":5163:5172   */\n      dup4\n        /* \"#utility.yul\":5159:5176   */\n      add\n        /* \"#utility.yul\":5150:5156   */\n      dup5\n        /* \"#utility.yul\":5112:5177   */\n      tag_73\n      jump\t// in\n    tag_147:\n        /* \"#utility.yul\":4974:5184   */\n      swap3\n      swap2\n      pop\n      pop\n      jump\t// out\n        /* \"#utility.yul\":5190:5289   */\n    tag_74:\n        /* \"#utility.yul\":5242:5248   */\n      0x00\n        /* \"#utility.yul\":5276:5281   */\n      dup2\n        /* \"#utility.yul\":5270:5282   */\n      mload\n        /* \"#utility.yul\":5260:5282   */\n      swap1\n      pop\n        /* \"#utility.yul\":5190:5289   */\n      swap2\n      swap1\n      pop\n      jump\t// out\n        /* \"#utility.yul\":5295:5443   */\n    tag_75:\n        /* \"#utility.yul\":5397:5408   */\n      0x00\n        /* \"#utility.yul\":5434:5437   */\n      dup2\n        /* \"#utility.yul\":5419:5437   */\n      swap1\n      pop\n        /* \"#utility.yul\":5295:5443   */\n      swap3\n      swap2\n      pop\n      pop\n      jump\t// out\n        /* \"#utility.yul\":5449:5695   */\n    tag_76:\n        /* \"#utility.yul\":5530:5531   */\n      0x00\n        /* \"#utility.yul\":5540:5653   */\n    tag_151:\n        /* \"#utility.yul\":5554:5560   */\n      dup4\n        /* \"#utility.yul\":5551:5552   */\n      dup2\n        /* \"#utility.yul\":5548:5561   */\n      lt\n        /* \"#utility.yul\":5540:5653   */\n      iszero\n      tag_153\n      jumpi\n        /* \"#utility.yul\":5639:5640   */\n      dup1\n        /* \"#utility.yul\":5634:5637   */\n      dup3\n        /* \"#utility.yul\":5630:5641   */\n      add\n        /* \"#utility.yul\":5624:5642   */\n      mload\n        /* \"#utility.yul\":5620:5621   */\n      dup2\n        /* \"#utility.yul\":5615:5618   */\n      dup5\n        /* \"#utility.yul\":5611:5622   */\n      add\n        /* \"#utility.yul\":5604:5643   */\n      mstore\n        /* \"#utility.yul\":5576:5578   */\n      0x20\n        /* \"#utility.yul\":5573:5574   */\n      dup2\n        /* \"#utility.yul\":5569:5579   */\n      add\n        /* \"#utility.yul\":5564:5579   */\n      swap1\n      pop\n        /* \"#utility.yul\":5540:5653   */\n      jump(tag_151)\n    tag_153:\n        /* \"#utility.yul\":5687:5688   */\n      0x00\n        /* \"#utility.yul\":5678:5684   */\n      dup5\n        /* \"#utility.yul\":5673:5676   */\n      dup5\n        /* \"#utility.yul\":5669:5685   */\n      add\n        /* \"#utility.yul\":5662:5689   */\n      mstore\n        /* \"#utility.yul\":5511:5695   */\n      pop\n        /* \"#utility.yul\":5449:5695   */\n      pop\n      pop\n      pop\n      jump\t// out\n        /* \"#utility.yul\":5701:6091   */\n    tag_77:\n        /* \"#utility.yul\":5807:5810   */\n      0x00\n        /* \"#utility.yul\":5835:5874   */\n      tag_155\n        /* \"#utility.yul\":5868:5873   */\n      dup3\n        /* \"#utility.yul\":5835:5874   */\n      tag_74\n      jump\t// in\n    tag_155:\n        /* \"#utility.yul\":5890:5979   */\n      tag_156\n        /* \"#utility.yul\":5972:5978   */\n      dup2\n        /* \"#utility.yul\":5967:5970   */\n      dup6\n        /* \"#utility.yul\":5890:5979   */\n      tag_75\n      jump\t// in\n    tag_156:\n        /* \"#utility.yul\":5883:5979   */\n      swap4\n      pop\n        /* \"#utility.yul\":5988:6053   */\n      tag_157\n        /* \"#utility.yul\":6046:6052   */\n      dup2\n        /* \"#utility.yul\":6041:6044   */\n      dup6\n        /* \"#utility.yul\":6034:6038   */\n      0x20\n        /* \"#utility.yul\":6027:6032   */\n      dup7\n        /* \"#utility.yul\":6023:6039   */\n      add\n        /* \"#utility.yul\":5988:6053   */\n      tag_76\n      jump\t// in\n    tag_157:\n        /* \"#utility.yul\":6078:6084   */\n      dup1\n        /* \"#utility.yul\":6073:6076   */\n      dup5\n        /* \"#utility.yul\":6069:6085   */\n      add\n        /* \"#utility.yul\":6062:6085   */\n      swap2\n      pop\n        /* \"#utility.yul\":5811:6091   */\n      pop\n        /* \"#utility.yul\":5701:6091   */\n      swap3\n      swap2\n      pop\n      pop\n      jump\t// out\n        /* \"#utility.yul\":6097:6372   */\n    tag_32:\n        /* \"#utility.yul\":6229:6232   */\n      0x00\n        /* \"#utility.yul\":6251:6346   */\n      tag_159\n        /* \"#utility.yul\":6342:6345   */\n      dup3\n        /* \"#utility.yul\":6333:6339   */\n      dup5\n        /* \"#utility.yul\":6251:6346   */\n      tag_77\n      jump\t// in\n    tag_159:\n        /* \"#utility.yul\":6244:6346   */\n      swap2\n      pop\n        /* \"#utility.yul\":6363:6366   */\n      dup2\n        /* \"#utility.yul\":6356:6366   */\n      swap1\n      pop\n        /* \"#utility.yul\":6097:6372   */\n      swap3\n      swap2\n      pop\n      pop\n      jump\t// out\n        /* \"#utility.yul\":6378:6533   */\n    tag_78:\n        /* \"#utility.yul\":6518:6525   */\n      0x41444d494e000000000000000000000000000000000000000000000000000000\n        /* \"#utility.yul\":6514:6515   */\n      0x00\n        /* \"#utility.yul\":6506:6512   */\n      dup3\n        /* \"#utility.yul\":6502:6516   */\n      add\n        /* \"#utility.yul\":6495:6526   */\n      mstore\n        /* \"#utility.yul\":6378:6533   */\n      pop\n      jump\t// out\n        /* \"#utility.yul\":6539:6939   */\n    tag_79:\n        /* \"#utility.yul\":6699:6702   */\n      0x00\n        /* \"#utility.yul\":6720:6804   */\n      tag_162\n        /* \"#utility.yul\":6802:6803   */\n      0x05\n        /* \"#utility.yul\":6797:6800   */\n      dup4\n        /* \"#utility.yul\":6720:6804   */\n      tag_75\n      jump\t// in\n    tag_162:\n        /* \"#utility.yul\":6713:6804   */\n      swap2\n      pop\n        /* \"#utility.yul\":6813:6906   */\n      tag_163\n        /* \"#utility.yul\":6902:6905   */\n      dup3\n        /* \"#utility.yul\":6813:6906   */\n      tag_78\n      jump\t// in\n    tag_163:\n        /* \"#utility.yul\":6931:6932   */\n      0x05\n        /* \"#utility.yul\":6926:6929   */\n      dup3\n        /* \"#utility.yul\":6922:6933   */\n      add\n        /* \"#utility.yul\":6915:6933   */\n      swap1\n      pop\n        /* \"#utility.yul\":6539:6939   */\n      swap2\n      swap1\n      pop\n      jump\t// out\n        /* \"#utility.yul\":6945:7326   */\n    tag_34:\n        /* \"#utility.yul\":7130:7133   */\n      0x00\n        /* \"#utility.yul\":7152:7300   */\n      tag_165\n        /* \"#utility.yul\":7296:7299   */\n      dup3\n        /* \"#utility.yul\":7152:7300   */\n      tag_79\n      jump\t// in\n    tag_165:\n        /* \"#utility.yul\":7145:7300   */\n      swap2\n      pop\n        /* \"#utility.yul\":7317:7320   */\n      dup2\n        /* \"#utility.yul\":7310:7320   */\n      swap1\n      pop\n        /* \"#utility.yul\":6945:7326   */\n      swap2\n      swap1\n      pop\n      jump\t// out\n        /* \"#utility.yul\":7332:7501   */\n    tag_80:\n        /* \"#utility.yul\":7416:7427   */\n      0x00\n        /* \"#utility.yul\":7450:7456   */\n      dup3\n        /* \"#utility.yul\":7445:7448   */\n      dup3\n        /* \"#utility.yul\":7438:7457   */\n      mstore\n        /* \"#utility.yul\":7490:7494   */\n      0x20\n        /* \"#utility.yul\":7485:7488   */\n      dup3\n        /* \"#utility.yul\":7481:7495   */\n      add\n        /* \"#utility.yul\":7466:7495   */\n      swap1\n      pop\n        /* \"#utility.yul\":7332:7501   */\n      swap3\n      swap2\n      pop\n      pop\n      jump\t// out\n        /* \"#utility.yul\":7507:7671   */\n    tag_81:\n        /* \"#utility.yul\":7647:7663   */\n      0x6e6f7420617574686f72697a6564000000000000000000000000000000000000\n        /* \"#utility.yul\":7643:7644   */\n      0x00\n        /* \"#utility.yul\":7635:7641   */\n      dup3\n        /* \"#utility.yul\":7631:7645   */\n      add\n        /* \"#utility.yul\":7624:7664   */\n      mstore\n        /* \"#utility.yul\":7507:7671   */\n      pop\n      jump\t// out\n        /* \"#utility.yul\":7677:8043   */\n    tag_82:\n        /* \"#utility.yul\":7819:7822   */\n      0x00\n        /* \"#utility.yul\":7840:7907   */\n      tag_169\n        /* \"#utility.yul\":7904:7906   */\n      0x0e\n        /* \"#utility.yul\":7899:7902   */\n      dup4\n        /* \"#utility.yul\":7840:7907   */\n      tag_80\n      jump\t// in\n    tag_169:\n        /* \"#utility.yul\":7833:7907   */\n      swap2\n      pop\n        /* \"#utility.yul\":7916:8009   */\n      tag_170\n        /* \"#utility.yul\":8005:8008   */\n      dup3\n        /* \"#utility.yul\":7916:8009   */\n      tag_81\n      jump\t// in\n    tag_170:\n        /* \"#utility.yul\":8034:8036   */\n      0x20\n        /* \"#utility.yul\":8029:8032   */\n      dup3\n        /* \"#utility.yul\":8025:8037   */\n      add\n        /* \"#utility.yul\":8018:8037   */\n      swap1\n      pop\n        /* \"#utility.yul\":7677:8043   */\n      swap2\n      swap1\n      pop\n      jump\t// out\n        /* \"#utility.yul\":8049:8468   */\n    tag_38:\n        /* \"#utility.yul\":8215:8219   */\n      0x00\n        /* \"#utility.yul\":8253:8255   */\n      0x20\n        /* \"#utility.yul\":8242:8251   */\n      dup3\n        /* \"#utility.yul\":8238:8256   */\n      add\n        /* \"#utility.yul\":8230:8256   */\n      swap1\n      pop\n        /* \"#utility.yul\":8302:8311   */\n      dup2\n        /* \"#utility.yul\":8296:8300   */\n      dup2\n        /* \"#utility.yul\":8292:8312   */\n      sub\n        /* \"#utility.yul\":8288:8289   */\n      0x00\n        /* \"#utility.yul\":8277:8286   */\n      dup4\n        /* \"#utility.yul\":8273:8290   */\n      add\n        /* \"#utility.yul\":8266:8313   */\n      mstore\n        /* \"#utility.yul\":8330:8461   */\n      tag_172\n        /* \"#utility.yul\":8456:8460   */\n      dup2\n        /* \"#utility.yul\":8330:8461   */\n      tag_82\n      jump\t// in\n    tag_172:\n        /* \"#utility.yul\":8322:8461   */\n      swap1\n      pop\n        /* \"#utility.yul\":8049:8468   */\n      swap2\n      swap1\n      pop\n      jump\t// out\n        /* \"#utility.yul\":8474:8592   */\n    tag_83:\n        /* \"#utility.yul\":8561:8585   */\n      tag_174\n        /* \"#utility.yul\":8579:8584   */\n      dup2\n        /* \"#utility.yul\":8561:8585   */\n      tag_69\n      jump\t// in\n    tag_174:\n        /* \"#utility.yul\":8556:8559   */\n      dup3\n        /* \"#utility.yul\":8549:8586   */\n      mstore\n        /* \"#utility.yul\":8474:8592   */\n      pop\n      pop\n      jump\t// out\n        /* \"#utility.yul\":8598:8930   */\n    tag_48:\n        /* \"#utility.yul\":8719:8723   */\n      0x00\n        /* \"#utility.yul\":8757:8759   */\n      0x40\n        /* \"#utility.yul\":8746:8755   */\n      dup3\n        /* \"#utility.yul\":8742:8760   */\n      add\n        /* \"#utility.yul\":8734:8760   */\n      swap1\n      pop\n        /* \"#utility.yul\":8770:8841   */\n      tag_176\n        /* \"#utility.yul\":8838:8839   */\n      0x00\n        /* \"#utility.yul\":8827:8836   */\n      dup4\n        /* \"#utility.yul\":8823:8840   */\n      add\n        /* \"#utility.yul\":8814:8820   */\n      dup6\n        /* \"#utility.yul\":8770:8841   */\n      tag_83\n      jump\t// in\n    tag_176:\n        /* \"#utility.yul\":8851:8923   */\n      tag_177\n        /* \"#utility.yul\":8919:8921   */\n      0x20\n        /* \"#utility.yul\":8908:8917   */\n      dup4\n        /* \"#utility.yul\":8904:8922   */\n      add\n        /* \"#utility.yul\":8895:8901   */\n      dup5\n        /* \"#utility.yul\":8851:8923   */\n      tag_65\n      jump\t// in\n    tag_177:\n        /* \"#utility.yul\":8598:8930   */\n      swap4\n      swap3\n      pop\n      pop\n      pop\n      jump\t// out\n\n    auxdata: 0xa26469706673582212205b6d771cc3d253f808522222255e9bbaf8ba587a05318714e30f08ea593ba90e64736f6c63430008170033\n}\n",
				"bytecode": {
					"linkReferences": {},
					"object": "608060405234801562000010575f80fd5b506040516020016200002290620001db565b60405160208183030381529060405280519060200120600160405162000048906200023f565b9081526020016040518091039020819055506040516020016200006b90620002a3565b604051602081830303815290604052805190602001206001604051620000919062000307565b908152602001604051809103902081905550620000db604051602001620000b890620001db565b6040516020818303038152906040528051906020012033620000e160201b60201c565b620003a5565b60015f808481526020019081526020015f205f8373ffffffffffffffffffffffffffffffffffffffff1673ffffffffffffffffffffffffffffffffffffffff1681526020019081526020015f205f6101000a81548160ff0219169083151502179055507fa7303245a59ff2ac54e2fe5528bb42911d3e6b94b05e43bc614aae7bccf514f38183604051620001779291906200037a565b60405180910390a15050565b5f81905092915050565b7f41444d494e0000000000000000000000000000000000000000000000000000005f82015250565b5f620001c360058362000183565b9150620001d0826200018d565b600582019050919050565b5f620001e782620001b5565b9150819050919050565b7f61646d696e0000000000000000000000000000000000000000000000000000005f82015250565b5f6200022760058362000183565b91506200023482620001f1565b600582019050919050565b5f6200024b8262000219565b9150819050919050565b7f55534552000000000000000000000000000000000000000000000000000000005f82015250565b5f6200028b60048362000183565b9150620002988262000255565b600482019050919050565b5f620002af826200027d565b9150819050919050565b7f75736572000000000000000000000000000000000000000000000000000000005f82015250565b5f620002ef60048362000183565b9150620002fc82620002b9565b600482019050919050565b5f6200031382620002e1565b9150819050919050565b5f73ffffffffffffffffffffffffffffffffffffffff82169050919050565b5f62000348826200031d565b9050919050565b6200035a816200033c565b82525050565b5f819050919050565b620003748162000360565b82525050565b5f6040820190506200038f5f8301856200034f565b6200039e602083018462000369565b9392505050565b6108e380620003b35f395ff3fe608060405234801561000f575f80fd5b5060043610610055575f3560e01c80630b0e83eb146100595780632f2ff15d14610089578063d547741f146100a5578063f7d7a5c9146100c1578063f8fc08b9146100f1575b5f80fd5b610073600480360381019061006e91906105b2565b610121565b6040516100809190610611565b60405180910390f35b6100a3600480360381019061009e91906106ae565b610148565b005b6100bf60048036038101906100ba91906106ae565b610213565b005b6100db60048036038101906100d691906105b2565b61036f565b6040516100e89190610611565b60405180910390f35b61010b600480360381019061010691906106ae565b61039c565b6040516101189190610706565b60405180910390f35b5f600182604051610132919061078b565b9081526020016040518091039020549050919050565b604051602001610157906107eb565b604051602081830303815290604052805190602001205f808281526020019081526020015f205f3373ffffffffffffffffffffffffffffffffffffffff1673ffffffffffffffffffffffffffffffffffffffff1681526020019081526020015f205f9054906101000a900460ff16610204576040517f08c379a00000000000000000000000000000000000000000000000000000000081526004016101fb90610859565b60405180910390fd5b61020e83836103c5565b505050565b604051602001610222906107eb565b604051602081830303815290604052805190602001205f808281526020019081526020015f205f3373ffffffffffffffffffffffffffffffffffffffff1673ffffffffffffffffffffffffffffffffffffffff1681526020019081526020015f205f9054906101000a900460ff166102cf576040517f08c379a00000000000000000000000000000000000000000000000000000000081526004016102c690610859565b60405180910390fd5b5f805f8581526020019081526020015f205f8473ffffffffffffffffffffffffffffffffffffffff1673ffffffffffffffffffffffffffffffffffffffff1681526020019081526020015f205f6101000a81548160ff0219169083151502179055507fd2a4c0c5ce589dd4d53ba3b322ec9e98736a0476cec2f1a1515835650bca3b9d8284604051610362929190610886565b60405180910390a1505050565b6001818051602081018201805184825260208301602085012081835280955050505050505f915090505481565b5f602052815f5260405f20602052805f5260405f205f915091509054906101000a900460ff1681565b60015f808481526020019081526020015f205f8373ffffffffffffffffffffffffffffffffffffffff1673ffffffffffffffffffffffffffffffffffffffff1681526020019081526020015f205f6101000a81548160ff0219169083151502179055507fa7303245a59ff2ac54e2fe5528bb42911d3e6b94b05e43bc614aae7bccf514f38183604051610459929190610886565b60405180910390a15050565b5f604051905090565b5f80fd5b5f80fd5b5f80fd5b5f80fd5b5f601f19601f8301169050919050565b7f4e487b71000000000000000000000000000000000000000000000000000000005f52604160045260245ffd5b6104c48261047e565b810181811067ffffffffffffffff821117156104e3576104e261048e565b5b80604052505050565b5f6104f5610465565b905061050182826104bb565b919050565b5f67ffffffffffffffff8211156105205761051f61048e565b5b6105298261047e565b9050602081019050919050565b828183375f83830152505050565b5f61055661055184610506565b6104ec565b9050828152602081018484840111156105725761057161047a565b5b61057d848285610536565b509392505050565b5f82601f83011261059957610598610476565b5b81356105a9848260208601610544565b91505092915050565b5f602082840312156105c7576105c661046e565b5b5f82013567ffffffffffffffff8111156105e4576105e3610472565b5b6105f084828501610585565b91505092915050565b5f819050919050565b61060b816105f9565b82525050565b5f6020820190506106245f830184610602565b92915050565b610633816105f9565b811461063d575f80fd5b50565b5f8135905061064e8161062a565b92915050565b5f73ffffffffffffffffffffffffffffffffffffffff82169050919050565b5f61067d82610654565b9050919050565b61068d81610673565b8114610697575f80fd5b50565b5f813590506106a881610684565b92915050565b5f80604083850312156106c4576106c361046e565b5b5f6106d185828601610640565b92505060206106e28582860161069a565b9150509250929050565b5f8115159050919050565b610700816106ec565b82525050565b5f6020820190506107195f8301846106f7565b92915050565b5f81519050919050565b5f81905092915050565b5f5b83811015610750578082015181840152602081019050610735565b5f8484015250505050565b5f6107658261071f565b61076f8185610729565b935061077f818560208601610733565b80840191505092915050565b5f610796828461075b565b915081905092915050565b7f41444d494e0000000000000000000000000000000000000000000000000000005f82015250565b5f6107d5600583610729565b91506107e0826107a1565b600582019050919050565b5f6107f5826107c9565b9150819050919050565b5f82825260208201905092915050565b7f6e6f7420617574686f72697a65640000000000000000000000000000000000005f82015250565b5f610843600e836107ff565b915061084e8261080f565b602082019050919050565b5f6020820190508181035f83015261087081610837565b9050919050565b61088081610673565b82525050565b5f6040820190506108995f830185610877565b6108a66020830184610602565b939250505056fea26469706673582212205b6d771cc3d253f808522222255e9bbaf8ba587a05318714e30f08ea593ba90e64736f6c63430008170033",
					"opcodes": "PUSH1 0x80 PUSH1 0x40 MSTORE CALLVALUE DUP1 ISZERO PUSH3 0x10 JUMPI PUSH0 DUP1 REVERT JUMPDEST POP PUSH1 0x40 MLOAD PUSH1 0x20 ADD PUSH3 0x22 SWAP1 PUSH3 0x1DB JUMP JUMPDEST PUSH1 0x40 MLOAD PUSH1 0x20 DUP2 DUP4 SUB SUB DUP2 MSTORE SWAP1 PUSH1 0x40 MSTORE DUP1 MLOAD SWAP1 PUSH1 0x20 ADD KECCAK256 PUSH1 0x1 PUSH1 0x40 MLOAD PUSH3 0x48 SWAP1 PUSH3 0x23F JUMP JUMPDEST SWAP1 DUP2 MSTORE PUSH1 0x20 ADD PUSH1 0x40 MLOAD DUP1 SWAP2 SUB SWAP1 KECCAK256 DUP2 SWAP1 SSTORE POP PUSH1 0x40 MLOAD PUSH1 0x20 ADD PUSH3 0x6B SWAP1 PUSH3 0x2A3 JUMP JUMPDEST PUSH1 0x40 MLOAD PUSH1 0x20 DUP2 DUP4 SUB SUB DUP2 MSTORE SWAP1 PUSH1 0x40 MSTORE DUP1 MLOAD SWAP1 PUSH1 0x20 ADD KECCAK256 PUSH1 0x1 PUSH1 0x40 MLOAD PUSH3 0x91 SWAP1 PUSH3 0x307 JUMP JUMPDEST SWAP1 DUP2 MSTORE PUSH1 0x20 ADD PUSH1 0x40 MLOAD DUP1 SWAP2 SUB SWAP1 KECCAK256 DUP2 SWAP1 SSTORE POP PUSH3 0xDB PUSH1 0x40 MLOAD PUSH1 0x20 ADD PUSH3 0xB8 SWAP1 PUSH3 0x1DB JUMP JUMPDEST PUSH1 0x40 MLOAD PUSH1 0x20 DUP2 DUP4 SUB SUB DUP2 MSTORE SWAP1 PUSH1 0x40 MSTORE DUP1 MLOAD SWAP1 PUSH1 0x20 ADD KECCAK256 CALLER PUSH3 0xE1 PUSH1 0x20 SHL PUSH1 0x20 SHR JUMP JUMPDEST PUSH3 0x3A5 JUMP JUMPDEST PUSH1 0x1 PUSH0 DUP1 DUP5 DUP2 MSTORE PUSH1 0x20 ADD SWAP1 DUP2 MSTORE PUSH1 0x20 ADD PUSH0 KECCAK256 PUSH0 DUP4 PUSH20 0xFFFFFFFFFFFFFFFFFFFFFFFFFFFFFFFFFFFFFFFF AND PUSH20 0xFFFFFFFFFFFFFFFFFFFFFFFFFFFFFFFFFFFFFFFF AND DUP2 MSTORE PUSH1 0x20 ADD SWAP1 DUP2 MSTORE PUSH1 0x20 ADD PUSH0 KECCAK256 PUSH0 PUSH2 0x100 EXP DUP2 SLOAD DUP2 PUSH1 0xFF MUL NOT AND SWAP1 DUP4 ISZERO ISZERO MUL OR SWAP1 SSTORE POP PUSH32 0xA7303245A59FF2AC54E2FE5528BB42911D3E6B94B05E43BC614AAE7BCCF514F3 DUP2 DUP4 PUSH1 0x40 MLOAD PUSH3 0x177 SWAP3 SWAP2 SWAP1 PUSH3 0x37A JUMP JUMPDEST PUSH1 0x40 MLOAD DUP1 SWAP2 SUB SWAP1 LOG1 POP POP JUMP JUMPDEST PUSH0 DUP2 SWAP1 POP SWAP3 SWAP2 POP POP JUMP JUMPDEST PUSH32 0x41444D494E000000000000000000000000000000000000000000000000000000 PUSH0 DUP3 ADD MSTORE POP JUMP JUMPDEST PUSH0 PUSH3 0x1C3 PUSH1 0x5 DUP4 PUSH3 0x183 JUMP JUMPDEST SWAP2 POP PUSH3 0x1D0 DUP3 PUSH3 0x18D JUMP JUMPDEST PUSH1 0x5 DUP3 ADD SWAP1 POP SWAP2 SWAP1 POP JUMP JUMPDEST PUSH0 PUSH3 0x1E7 DUP3 PUSH3 0x1B5 JUMP JUMPDEST SWAP2 POP DUP2 SWAP1 POP SWAP2 SWAP1 POP JUMP JUMPDEST PUSH32 0x61646D696E000000000000000000000000000000000000000000000000000000 PUSH0 DUP3 ADD MSTORE POP JUMP JUMPDEST PUSH0 PUSH3 0x227 PUSH1 0x5 DUP4 PUSH3 0x183 JUMP JUMPDEST SWAP2 POP PUSH3 0x234 DUP3 PUSH3 0x1F1 JUMP JUMPDEST PUSH1 0x5 DUP3 ADD SWAP1 POP SWAP2 SWAP1 POP JUMP JUMPDEST PUSH0 PUSH3 0x24B DUP3 PUSH3 0x219 JUMP JUMPDEST SWAP2 POP DUP2 SWAP1 POP SWAP2 SWAP1 POP JUMP JUMPDEST PUSH32 0x5553455200000000000000000000000000000000000000000000000000000000 PUSH0 DUP3 ADD MSTORE POP JUMP JUMPDEST PUSH0 PUSH3 0x28B PUSH1 0x4 DUP4 PUSH3 0x183 JUMP JUMPDEST SWAP2 POP PUSH3 0x298 DUP3 PUSH3 0x255 JUMP JUMPDEST PUSH1 0x4 DUP3 ADD SWAP1 POP SWAP2 SWAP1 POP JUMP JUMPDEST PUSH0 PUSH3 0x2AF DUP3 PUSH3 0x27D JUMP JUMPDEST SWAP2 POP DUP2 SWAP1 POP SWAP2 SWAP1 POP JUMP JUMPDEST PUSH32 0x7573657200000000000000000000000000000000000000000000000000000000 PUSH0 DUP3 ADD MSTORE POP JUMP JUMPDEST PUSH0 PUSH3 0x2EF PUSH1 0x4 DUP4 PUSH3 0x183 JUMP JUMPDEST SWAP2 POP PUSH3 0x2FC DUP3 PUSH3 0x2B9 JUMP JUMPDEST PUSH1 0x4 DUP3 ADD SWAP1 POP SWAP2 SWAP1 POP JUMP JUMPDEST PUSH0 PUSH3 0x313 DUP3 PUSH3 0x2E1 JUMP JUMPDEST SWAP2 POP DUP2 SWAP1 POP SWAP2 SWAP1 POP JUMP JUMPDEST PUSH0 PUSH20 0xFFFFFFFFFFFFFFFFFFFFFFFFFFFFFFFFFFFFFFFF DUP3 AND SWAP1 POP SWAP2 SWAP1 POP JUMP JUMPDEST PUSH0 PUSH3 0x348 DUP3 PUSH3 0x31D JUMP JUMPDEST SWAP1 POP SWAP2 SWAP1 POP JUMP JUMPDEST PUSH3 0x35A DUP2 PUSH3 0x33C JUMP JUMPDEST DUP3 MSTORE POP POP JUMP JUMPDEST PUSH0 DUP2 SWAP1 POP SWAP2 SWAP1 POP JUMP JUMPDEST PUSH3 0x374 DUP2 PUSH3 0x360 JUMP JUMPDEST DUP3 MSTORE POP POP JUMP JUMPDEST PUSH0 PUSH1 0x40 DUP3 ADD SWAP1 POP PUSH3 0x38F PUSH0 DUP4 ADD DUP6 PUSH3 0x34F JUMP JUMPDEST PUSH3 0x39E PUSH1 0x20 DUP4 ADD DUP5 PUSH3 0x369 JUMP JUMPDEST SWAP4 SWAP3 POP POP POP JUMP JUMPDEST PUSH2 0x8E3 DUP1 PUSH3 0x3B3 PUSH0 CODECOPY PUSH0 RETURN INVALID PUSH1 0x80 PUSH1 0x40 MSTORE CALLVALUE DUP1 ISZERO PUSH2 0xF JUMPI PUSH0 DUP1 REVERT JUMPDEST POP PUSH1 0x4 CALLDATASIZE LT PUSH2 0x55 JUMPI PUSH0 CALLDATALOAD PUSH1 0xE0 SHR DUP1 PUSH4 0xB0E83EB EQ PUSH2 0x59 JUMPI DUP1 PUSH4 0x2F2FF15D EQ PUSH2 0x89 JUMPI DUP1 PUSH4 0xD547741F EQ PUSH2 0xA5 JUMPI DUP1 PUSH4 0xF7D7A5C9 EQ PUSH2 0xC1 JUMPI DUP1 PUSH4 0xF8FC08B9 EQ PUSH2 0xF1 JUMPI JUMPDEST PUSH0 DUP1 REVERT JUMPDEST PUSH2 0x73 PUSH1 0x4 DUP1 CALLDATASIZE SUB DUP2 ADD SWAP1 PUSH2 0x6E SWAP2 SWAP1 PUSH2 0x5B2 JUMP JUMPDEST PUSH2 0x121 JUMP JUMPDEST PUSH1 0x40 MLOAD PUSH2 0x80 SWAP2 SWAP1 PUSH2 0x611 JUMP JUMPDEST PUSH1 0x40 MLOAD DUP1 SWAP2 SUB SWAP1 RETURN JUMPDEST PUSH2 0xA3 PUSH1 0x4 DUP1 CALLDATASIZE SUB DUP2 ADD SWAP1 PUSH2 0x9E SWAP2 SWAP1 PUSH2 0x6AE JUMP JUMPDEST PUSH2 0x148 JUMP JUMPDEST STOP JUMPDEST PUSH2 0xBF PUSH1 0x4 DUP1 CALLDATASIZE SUB DUP2 ADD SWAP1 PUSH2 0xBA SWAP2 SWAP1 PUSH2 0x6AE JUMP JUMPDEST PUSH2 0x213 JUMP JUMPDEST STOP JUMPDEST PUSH2 0xDB PUSH1 0x4 DUP1 CALLDATASIZE SUB DUP2 ADD SWAP1 PUSH2 0xD6 SWAP2 SWAP1 PUSH2 0x5B2 JUMP JUMPDEST PUSH2 0x36F JUMP JUMPDEST PUSH1 0x40 MLOAD PUSH2 0xE8 SWAP2 SWAP1 PUSH2 0x611 JUMP JUMPDEST PUSH1 0x40 MLOAD DUP1 SWAP2 SUB SWAP1 RETURN JUMPDEST PUSH2 0x10B PUSH1 0x4 DUP1 CALLDATASIZE SUB DUP2 ADD SWAP1 PUSH2 0x106 SWAP2 SWAP1 PUSH2 0x6AE JUMP JUMPDEST PUSH2 0x39C JUMP JUMPDEST PUSH1 0x40 MLOAD PUSH2 0x118 SWAP2 SWAP1 PUSH2 0x706 JUMP JUMPDEST PUSH1 0x40 MLOAD DUP1 SWAP2 SUB SWAP1 RETURN JUMPDEST PUSH0 PUSH1 0x1 DUP3 PUSH1 0x40 MLOAD PUSH2 0x132 SWAP2 SWAP1 PUSH2 0x78B JUMP JUMPDEST SWAP1 DUP2 MSTORE PUSH1 0x20 ADD PUSH1 0x40 MLOAD DUP1 SWAP2 SUB SWAP1 KECCAK256 SLOAD SWAP1 POP SWAP2 SWAP1 POP JUMP JUMPDEST PUSH1 0x40 MLOAD PUSH1 0x20 ADD PUSH2 0x157 SWAP1 PUSH2 0x7EB JUMP JUMPDEST PUSH1 0x40 MLOAD PUSH1 0x20 DUP2 DUP4 SUB SUB DUP2 MSTORE SWAP1 PUSH1 0x40 MSTORE DUP1 MLOAD SWAP1 PUSH1 0x20 ADD KECCAK256 PUSH0 DUP1 DUP3 DUP2 MSTORE PUSH1 0x20 ADD SWAP1 DUP2 MSTORE PUSH1 0x20 ADD PUSH0 KECCAK256 PUSH0 CALLER PUSH20 0xFFFFFFFFFFFFFFFFFFFFFFFFFFFFFFFFFFFFFFFF AND PUSH20 0xFFFFFFFFFFFFFFFFFFFFFFFFFFFFFFFFFFFFFFFF AND DUP2 MSTORE PUSH1 0x20 ADD SWAP1 DUP2 MSTORE PUSH1 0x20 ADD PUSH0 KECCAK256 PUSH0 SWAP1 SLOAD SWAP1 PUSH2 0x100 EXP SWAP1 DIV PUSH1 0xFF AND PUSH2 0x204 JUMPI PUSH1 0x40 MLOAD PUSH32 0x8C379A000000000000000000000000000000000000000000000000000000000 DUP2 MSTORE PUSH1 0x4 ADD PUSH2 0x1FB SWAP1 PUSH2 0x859 JUMP JUMPDEST PUSH1 0x40 MLOAD DUP1 SWAP2 SUB SWAP1 REVERT JUMPDEST PUSH2 0x20E DUP4 DUP4 PUSH2 0x3C5 JUMP JUMPDEST POP POP POP JUMP JUMPDEST PUSH1 0x40 MLOAD PUSH1 0x20 ADD PUSH2 0x222 SWAP1 PUSH2 0x7EB JUMP JUMPDEST PUSH1 0x40 MLOAD PUSH1 0x20 DUP2 DUP4 SUB SUB DUP2 MSTORE SWAP1 PUSH1 0x40 MSTORE DUP1 MLOAD SWAP1 PUSH1 0x20 ADD KECCAK256 PUSH0 DUP1 DUP3 DUP2 MSTORE PUSH1 0x20 ADD SWAP1 DUP2 MSTORE PUSH1 0x20 ADD PUSH0 KECCAK256 PUSH0 CALLER PUSH20 0xFFFFFFFFFFFFFFFFFFFFFFFFFFFFFFFFFFFFFFFF AND PUSH20 0xFFFFFFFFFFFFFFFFFFFFFFFFFFFFFFFFFFFFFFFF AND DUP2 MSTORE PUSH1 0x20 ADD SWAP1 DUP2 MSTORE PUSH1 0x20 ADD PUSH0 KECCAK256 PUSH0 SWAP1 SLOAD SWAP1 PUSH2 0x100 EXP SWAP1 DIV PUSH1 0xFF AND PUSH2 0x2CF JUMPI PUSH1 0x40 MLOAD PUSH32 0x8C379A000000000000000000000000000000000000000000000000000000000 DUP2 MSTORE PUSH1 0x4 ADD PUSH2 0x2C6 SWAP1 PUSH2 0x859 JUMP JUMPDEST PUSH1 0x40 MLOAD DUP1 SWAP2 SUB SWAP1 REVERT JUMPDEST PUSH0 DUP1 PUSH0 DUP6 DUP2 MSTORE PUSH1 0x20 ADD SWAP1 DUP2 MSTORE PUSH1 0x20 ADD PUSH0 KECCAK256 PUSH0 DUP5 PUSH20 0xFFFFFFFFFFFFFFFFFFFFFFFFFFFFFFFFFFFFFFFF AND PUSH20 0xFFFFFFFFFFFFFFFFFFFFFFFFFFFFFFFFFFFFFFFF AND DUP2 MSTORE PUSH1 0x20 ADD SWAP1 DUP2 MSTORE PUSH1 0x20 ADD PUSH0 KECCAK256 PUSH0 PUSH2 0x100 EXP DUP2 SLOAD DUP2 PUSH1 0xFF MUL NOT AND SWAP1 DUP4 ISZERO ISZERO MUL OR SWAP1 SSTORE POP PUSH32 0xD2A4C0C5CE589DD4D53BA3B322EC9E98736A0476CEC2F1A1515835650BCA3B9D DUP3 DUP5 PUSH1 0x40 MLOAD PUSH2 0x362 SWAP3 SWAP2 SWAP1 PUSH2 0x886 JUMP JUMPDEST PUSH1 0x40 MLOAD DUP1 SWAP2 SUB SWAP1 LOG1 POP POP POP JUMP JUMPDEST PUSH1 0x1 DUP2 DUP1 MLOAD PUSH1 0x20 DUP2 ADD DUP3 ADD DUP1 MLOAD DUP5 DUP3 MSTORE PUSH1 0x20 DUP4 ADD PUSH1 0x20 DUP6 ADD KECCAK256 DUP2 DUP4 MSTORE DUP1 SWAP6 POP POP POP POP POP POP PUSH0 SWAP2 POP SWAP1 POP SLOAD DUP2 JUMP JUMPDEST PUSH0 PUSH1 0x20 MSTORE DUP2 PUSH0 MSTORE PUSH1 0x40 PUSH0 KECCAK256 PUSH1 0x20 MSTORE DUP1 PUSH0 MSTORE PUSH1 0x40 PUSH0 KECCAK256 PUSH0 SWAP2 POP SWAP2 POP SWAP1 SLOAD SWAP1 PUSH2 0x100 EXP SWAP1 DIV PUSH1 0xFF AND DUP2 JUMP JUMPDEST PUSH1 0x1 PUSH0 DUP1 DUP5 DUP2 MSTORE PUSH1 0x20 ADD SWAP1 DUP2 MSTORE PUSH1 0x20 ADD PUSH0 KECCAK256 PUSH0 DUP4 PUSH20 0xFFFFFFFFFFFFFFFFFFFFFFFFFFFFFFFFFFFFFFFF AND PUSH20 0xFFFFFFFFFFFFFFFFFFFFFFFFFFFFFFFFFFFFFFFF AND DUP2 MSTORE PUSH1 0x20 ADD SWAP1 DUP2 MSTORE PUSH1 0x20 ADD PUSH0 KECCAK256 PUSH0 PUSH2 0x100 EXP DUP2 SLOAD DUP2 PUSH1 0xFF MUL NOT AND SWAP1 DUP4 ISZERO ISZERO MUL OR SWAP1 SSTORE POP PUSH32 0xA7303245A59FF2AC54E2FE5528BB42911D3E6B94B05E43BC614AAE7BCCF514F3 DUP2 DUP4 PUSH1 0x40 MLOAD PUSH2 0x459 SWAP3 SWAP2 SWAP1 PUSH2 0x886 JUMP JUMPDEST PUSH1 0x40 MLOAD DUP1 SWAP2 SUB SWAP1 LOG1 POP POP JUMP JUMPDEST PUSH0 PUSH1 0x40 MLOAD SWAP1 POP SWAP1 JUMP JUMPDEST PUSH0 DUP1 REVERT JUMPDEST PUSH0 DUP1 REVERT JUMPDEST PUSH0 DUP1 REVERT JUMPDEST PUSH0 DUP1 REVERT JUMPDEST PUSH0 PUSH1 0x1F NOT PUSH1 0x1F DUP4 ADD AND SWAP1 POP SWAP2 SWAP1 POP JUMP JUMPDEST PUSH32 0x4E487B7100000000000000000000000000000000000000000000000000000000 PUSH0 MSTORE PUSH1 0x41 PUSH1 0x4 MSTORE PUSH1 0x24 PUSH0 REVERT JUMPDEST PUSH2 0x4C4 DUP3 PUSH2 0x47E JUMP JUMPDEST DUP2 ADD DUP2 DUP2 LT PUSH8 0xFFFFFFFFFFFFFFFF DUP3 GT OR ISZERO PUSH2 0x4E3 JUMPI PUSH2 0x4E2 PUSH2 0x48E JUMP JUMPDEST JUMPDEST DUP1 PUSH1 0x40 MSTORE POP POP POP JUMP JUMPDEST PUSH0 PUSH2 0x4F5 PUSH2 0x465 JUMP JUMPDEST SWAP1 POP PUSH2 0x501 DUP3 DUP3 PUSH2 0x4BB JUMP JUMPDEST SWAP2 SWAP1 POP JUMP JUMPDEST PUSH0 PUSH8 0xFFFFFFFFFFFFFFFF DUP3 GT ISZERO PUSH2 0x520 JUMPI PUSH2 0x51F PUSH2 0x48E JUMP JUMPDEST JUMPDEST PUSH2 0x529 DUP3 PUSH2 0x47E JUMP JUMPDEST SWAP1 POP PUSH1 0x20 DUP2 ADD SWAP1 POP SWAP2 SWAP1 POP JUMP JUMPDEST DUP3 DUP2 DUP4 CALLDATACOPY PUSH0 DUP4 DUP4 ADD MSTORE POP POP POP JUMP JUMPDEST PUSH0 PUSH2 0x556 PUSH2 0x551 DUP5 PUSH2 0x506 JUMP JUMPDEST PUSH2 0x4EC JUMP JUMPDEST SWAP1 POP DUP3 DUP2 MSTORE PUSH1 0x20 DUP2 ADD DUP5 DUP5 DUP5 ADD GT ISZERO PUSH2 0x572 JUMPI PUSH2 0x571 PUSH2 0x47A JUMP JUMPDEST JUMPDEST PUSH2 0x57D DUP5 DUP3 DUP6 PUSH2 0x536 JUMP JUMPDEST POP SWAP4 SWAP3 POP POP POP JUMP JUMPDEST PUSH0 DUP3 PUSH1 0x1F DUP4 ADD SLT PUSH2 0x599 JUMPI PUSH2 0x598 PUSH2 0x476 JUMP JUMPDEST JUMPDEST DUP2 CALLDATALOAD PUSH2 0x5A9 DUP5 DUP3 PUSH1 0x20 DUP7 ADD PUSH2 0x544 JUMP JUMPDEST SWAP2 POP POP SWAP3 SWAP2 POP POP JUMP JUMPDEST PUSH0 PUSH1 0x20 DUP3 DUP5 SUB SLT ISZERO PUSH2 0x5C7 JUMPI PUSH2 0x5C6 PUSH2 0x46E JUMP JUMPDEST JUMPDEST PUSH0 DUP3 ADD CALLDATALOAD PUSH8 0xFFFFFFFFFFFFFFFF DUP2 GT ISZERO PUSH2 0x5E4 JUMPI PUSH2 0x5E3 PUSH2 0x472 JUMP JUMPDEST JUMPDEST PUSH2 0x5F0 DUP5 DUP3 DUP6 ADD PUSH2 0x585 JUMP JUMPDEST SWAP2 POP POP SWAP3 SWAP2 POP POP JUMP JUMPDEST PUSH0 DUP2 SWAP1 POP SWAP2 SWAP1 POP JUMP JUMPDEST PUSH2 0x60B DUP2 PUSH2 0x5F9 JUMP JUMPDEST DUP3 MSTORE POP POP JUMP JUMPDEST PUSH0 PUSH1 0x20 DUP3 ADD SWAP1 POP PUSH2 0x624 PUSH0 DUP4 ADD DUP5 PUSH2 0x602 JUMP JUMPDEST SWAP3 SWAP2 POP POP JUMP JUMPDEST PUSH2 0x633 DUP2 PUSH2 0x5F9 JUMP JUMPDEST DUP2 EQ PUSH2 0x63D JUMPI PUSH0 DUP1 REVERT JUMPDEST POP JUMP JUMPDEST PUSH0 DUP2 CALLDATALOAD SWAP1 POP PUSH2 0x64E DUP2 PUSH2 0x62A JUMP JUMPDEST SWAP3 SWAP2 POP POP JUMP JUMPDEST PUSH0 PUSH20 0xFFFFFFFFFFFFFFFFFFFFFFFFFFFFFFFFFFFFFFFF DUP3 AND SWAP1 POP SWAP2 SWAP1 POP JUMP JUMPDEST PUSH0 PUSH2 0x67D DUP3 PUSH2 0x654 JUMP JUMPDEST SWAP1 POP SWAP2 SWAP1 POP JUMP JUMPDEST PUSH2 0x68D DUP2 PUSH2 0x673 JUMP JUMPDEST DUP2 EQ PUSH2 0x697 JUMPI PUSH0 DUP1 REVERT JUMPDEST POP JUMP JUMPDEST PUSH0 DUP2 CALLDATALOAD SWAP1 POP PUSH2 0x6A8 DUP2 PUSH2 0x684 JUMP JUMPDEST SWAP3 SWAP2 POP POP JUMP JUMPDEST PUSH0 DUP1 PUSH1 0x40 DUP4 DUP6 SUB SLT ISZERO PUSH2 0x6C4 JUMPI PUSH2 0x6C3 PUSH2 0x46E JUMP JUMPDEST JUMPDEST PUSH0 PUSH2 0x6D1 DUP6 DUP3 DUP7 ADD PUSH2 0x640 JUMP JUMPDEST SWAP3 POP POP PUSH1 0x20 PUSH2 0x6E2 DUP6 DUP3 DUP7 ADD PUSH2 0x69A JUMP JUMPDEST SWAP2 POP POP SWAP3 POP SWAP3 SWAP1 POP JUMP JUMPDEST PUSH0 DUP2 ISZERO ISZERO SWAP1 POP SWAP2 SWAP1 POP JUMP JUMPDEST PUSH2 0x700 DUP2 PUSH2 0x6EC JUMP JUMPDEST DUP3 MSTORE POP POP JUMP JUMPDEST PUSH0 PUSH1 0x20 DUP3 ADD SWAP1 POP PUSH2 0x719 PUSH0 DUP4 ADD DUP5 PUSH2 0x6F7 JUMP JUMPDEST SWAP3 SWAP2 POP POP JUMP JUMPDEST PUSH0 DUP2 MLOAD SWAP1 POP SWAP2 SWAP1 POP JUMP JUMPDEST PUSH0 DUP2 SWAP1 POP SWAP3 SWAP2 POP POP JUMP JUMPDEST PUSH0 JUMPDEST DUP4 DUP2 LT ISZERO PUSH2 0x750 JUMPI DUP1 DUP3 ADD MLOAD DUP2 DUP5 ADD MSTORE PUSH1 0x20 DUP2 ADD SWAP1 POP PUSH2 0x735 JUMP JUMPDEST PUSH0 DUP5 DUP5 ADD MSTORE POP POP POP POP JUMP JUMPDEST PUSH0 PUSH2 0x765 DUP3 PUSH2 0x71F JUMP JUMPDEST PUSH2 0x76F DUP2 DUP6 PUSH2 0x729 JUMP JUMPDEST SWAP4 POP PUSH2 0x77F DUP2 DUP6 PUSH1 0x20 DUP7 ADD PUSH2 0x733 JUMP JUMPDEST DUP1 DUP5 ADD SWAP2 POP POP SWAP3 SWAP2 POP POP JUMP JUMPDEST PUSH0 PUSH2 0x796 DUP3 DUP5 PUSH2 0x75B JUMP JUMPDEST SWAP2 POP DUP2 SWAP1 POP SWAP3 SWAP2 POP POP JUMP JUMPDEST PUSH32 0x41444D494E000000000000000000000000000000000000000000000000000000 PUSH0 DUP3 ADD MSTORE POP JUMP JUMPDEST PUSH0 PUSH2 0x7D5 PUSH1 0x5 DUP4 PUSH2 0x729 JUMP JUMPDEST SWAP2 POP PUSH2 0x7E0 DUP3 PUSH2 0x7A1 JUMP JUMPDEST PUSH1 0x5 DUP3 ADD SWAP1 POP SWAP2 SWAP1 POP JUMP JUMPDEST PUSH0 PUSH2 0x7F5 DUP3 PUSH2 0x7C9 JUMP JUMPDEST SWAP2 POP DUP2 SWAP1 POP SWAP2 SWAP1 POP JUMP JUMPDEST PUSH0 DUP3 DUP3 MSTORE PUSH1 0x20 DUP3 ADD SWAP1 POP SWAP3 SWAP2 POP POP JUMP JUMPDEST PUSH32 0x6E6F7420617574686F72697A6564000000000000000000000000000000000000 PUSH0 DUP3 ADD MSTORE POP JUMP JUMPDEST PUSH0 PUSH2 0x843 PUSH1 0xE DUP4 PUSH2 0x7FF JUMP JUMPDEST SWAP2 POP PUSH2 0x84E DUP3 PUSH2 0x80F JUMP JUMPDEST PUSH1 0x20 DUP3 ADD SWAP1 POP SWAP2 SWAP1 POP JUMP JUMPDEST PUSH0 PUSH1 0x20 DUP3 ADD SWAP1 POP DUP2 DUP2 SUB PUSH0 DUP4 ADD MSTORE PUSH2 0x870 DUP2 PUSH2 0x837 JUMP JUMPDEST SWAP1 POP SWAP2 SWAP1 POP JUMP JUMPDEST PUSH2 0x880 DUP2 PUSH2 0x673 JUMP JUMPDEST DUP3 MSTORE POP POP JUMP JUMPDEST PUSH0 PUSH1 0x40 DUP3 ADD SWAP1 POP PUSH2 0x899 PUSH0 DUP4 ADD DUP6 PUSH2 0x877 JUMP JUMPDEST PUSH2 0x8A6 PUSH1 0x20 DUP4 ADD DUP5 PUSH2 0x602 JUMP JUMPDEST SWAP4 SWAP3 POP POP POP JUMP INVALID LOG2 PUSH5 0x6970667358 0x22 SLT KECCAK256 JUMPDEST PUSH14 0x771CC3D253F808522222255E9BBA 0xF8 0xBA PC PUSH27 0x5318714E30F08EA593BA90E64736F6C6343000817003300000000 "
				},
				"gasEstimates": {
					"creation": {
						"codeDepositCost": "455000",
						"executionCost": "infinite",
						"totalCost": "infinite"
					},
					"external": {
						"getRoleBytes32(string)": "infinite",
						"grantRole(bytes32,address)": "infinite",
						"revokeRole(bytes32,address)": "infinite",
						"roleMapping(string)": "infinite",
						"roles(bytes32,address)": "3136"
					},
					"internal": {
						"_grantRole(bytes32,address)": "infinite"
					}
				},
				"methodIdentifiers": {
					"getRoleBytes32(string)": "0b0e83eb",
					"grantRole(bytes32,address)": "2f2ff15d",
					"revokeRole(bytes32,address)": "d547741f",
					"roleMapping(string)": "f7d7a5c9",
					"roles(bytes32,address)": "f8fc08b9"
				}
			},
			"storageLayout": {
				"storage": [
					{
						"astId": 19,
						"contract": "contracts/四W安全性和验证/03AccessControl.sol:AccessControl",
						"label": "roles",
						"offset": 0,
						"slot": "0",
						"type": "t_mapping(t_bytes32,t_mapping(t_address,t_bool))"
					},
					{
						"astId": 39,
						"contract": "contracts/四W安全性和验证/03AccessControl.sol:AccessControl",
						"label": "roleMapping",
						"offset": 0,
						"slot": "1",
						"type": "t_mapping(t_string_memory_ptr,t_bytes32)"
					}
				],
				"types": {
					"t_address": {
						"encoding": "inplace",
						"label": "address",
						"numberOfBytes": "20"
					},
					"t_bool": {
						"encoding": "inplace",
						"label": "bool",
						"numberOfBytes": "1"
					},
					"t_bytes32": {
						"encoding": "inplace",
						"label": "bytes32",
						"numberOfBytes": "32"
					},
					"t_mapping(t_address,t_bool)": {
						"encoding": "mapping",
						"key": "t_address",
						"label": "mapping(address => bool)",
						"numberOfBytes": "32",
						"value": "t_bool"
					},
					"t_mapping(t_bytes32,t_mapping(t_address,t_bool))": {
						"encoding": "mapping",
						"key": "t_bytes32",
						"label": "mapping(bytes32 => mapping(address => bool))",
						"numberOfBytes": "32",
						"value": "t_mapping(t_address,t_bool)"
					},
					"t_mapping(t_string_memory_ptr,t_bytes32)": {
						"encoding": "mapping",
						"key": "t_string_memory_ptr",
						"label": "mapping(string => bytes32)",
						"numberOfBytes": "32",
						"value": "t_bytes32"
					},
					"t_string_memory_ptr": {
						"encoding": "bytes",
						"label": "string",
						"numberOfBytes": "32"
					}
				}
			},
			"userdoc": {
				"kind": "user",
				"methods": {},
				"version": 1
			}
		}
	}
}