{
	"contracts/三W金融支付/CallerReceiver.sol": {
		"Receiver": {
			"abi": [
				{
					"inputs": [],
					"name": "getX",
					"outputs": [
						{
							"internalType": "uint256",
							"name": "",
							"type": "uint256"
						}
					],
					"stateMutability": "view",
					"type": "function"
				},
				{
					"inputs": [],
					"name": "getXAndEther",
					"outputs": [
						{
							"internalType": "uint256",
							"name": "",
							"type": "uint256"
						},
						{
							"internalType": "uint256",
							"name": "",
							"type": "uint256"
						}
					],
					"stateMutability": "view",
					"type": "function"
				},
				{
					"inputs": [
						{
							"internalType": "uint256",
							"name": "_x",
							"type": "uint256"
						}
					],
					"name": "setX",
					"outputs": [
						{
							"internalType": "uint256",
							"name": "",
							"type": "uint256"
						}
					],
					"stateMutability": "nonpayable",
					"type": "function"
				},
				{
					"inputs": [
						{
							"internalType": "uint256",
							"name": "_x",
							"type": "uint256"
						}
					],
					"name": "setXAndSendEther",
					"outputs": [],
					"stateMutability": "payable",
					"type": "function"
				},
				{
					"inputs": [],
					"name": "value",
					"outputs": [
						{
							"internalType": "uint256",
							"name": "",
							"type": "uint256"
						}
					],
					"stateMutability": "view",
					"type": "function"
				},
				{
					"inputs": [],
					"name": "x",
					"outputs": [
						{
							"internalType": "uint256",
							"name": "",
							"type": "uint256"
						}
					],
					"stateMutability": "view",
					"type": "function"
				}
			],
			"devdoc": {
				"kind": "dev",
				"methods": {},
				"version": 1
			},
			"evm": {
				"assembly": "    /* \"contracts/\\xe4\\xb8\\x89W\\xe9\\x87\\x91\\xe8\\x9e\\x8d\\xe6\\x94\\xaf\\xe4\\xbb\\x98/CallerReceiver.sol\":806:1354  contract Receiver {... */\n  mstore(0x40, 0x80)\n    /* \"contracts/\\xe4\\xb8\\x89W\\xe9\\x87\\x91\\xe8\\x9e\\x8d\\xe6\\x94\\xaf\\xe4\\xbb\\x98/CallerReceiver.sol\":875:878  123 */\n  0x7b\n    /* \"contracts/\\xe4\\xb8\\x89W\\xe9\\x87\\x91\\xe8\\x9e\\x8d\\xe6\\x94\\xaf\\xe4\\xbb\\x98/CallerReceiver.sol\":852:878  uint256 public value = 123 */\n  0x01\n  sstore\n    /* \"contracts/\\xe4\\xb8\\x89W\\xe9\\x87\\x91\\xe8\\x9e\\x8d\\xe6\\x94\\xaf\\xe4\\xbb\\x98/CallerReceiver.sol\":806:1354  contract Receiver {... */\n  callvalue\n  dup1\n  iszero\n  tag_1\n  jumpi\n  0x00\n  dup1\n  revert\ntag_1:\n  pop\n  dataSize(sub_0)\n  dup1\n  dataOffset(sub_0)\n  0x00\n  codecopy\n  0x00\n  return\nstop\n\nsub_0: assembly {\n        /* \"contracts/\\xe4\\xb8\\x89W\\xe9\\x87\\x91\\xe8\\x9e\\x8d\\xe6\\x94\\xaf\\xe4\\xbb\\x98/CallerReceiver.sol\":806:1354  contract Receiver {... */\n      mstore(0x40, 0x80)\n      jumpi(tag_1, lt(calldatasize, 0x04))\n      shr(0xe0, calldataload(0x00))\n      dup1\n      0x0c55699c\n      eq\n      tag_2\n      jumpi\n      dup1\n      0x3fa4f245\n      eq\n      tag_3\n      jumpi\n      dup1\n      0x4018d9aa\n      eq\n      tag_4\n      jumpi\n      dup1\n      0x5197c7aa\n      eq\n      tag_5\n      jumpi\n      dup1\n      0x677bf7d8\n      eq\n      tag_6\n      jumpi\n      dup1\n      0x8f52503f\n      eq\n      tag_7\n      jumpi\n    tag_1:\n      0x00\n      dup1\n      revert\n        /* \"contracts/\\xe4\\xb8\\x89W\\xe9\\x87\\x91\\xe8\\x9e\\x8d\\xe6\\x94\\xaf\\xe4\\xbb\\x98/CallerReceiver.sol\":830:846  uint256 public x */\n    tag_2:\n      callvalue\n      dup1\n      iszero\n      tag_8\n      jumpi\n      0x00\n      dup1\n      revert\n    tag_8:\n      pop\n      tag_9\n      tag_10\n      jump\t// in\n    tag_9:\n      mload(0x40)\n      tag_11\n      swap2\n      swap1\n      tag_12\n      jump\t// in\n    tag_11:\n      mload(0x40)\n      dup1\n      swap2\n      sub\n      swap1\n      return\n        /* \"contracts/\\xe4\\xb8\\x89W\\xe9\\x87\\x91\\xe8\\x9e\\x8d\\xe6\\x94\\xaf\\xe4\\xbb\\x98/CallerReceiver.sol\":852:878  uint256 public value = 123 */\n    tag_3:\n      callvalue\n      dup1\n      iszero\n      tag_13\n      jumpi\n      0x00\n      dup1\n      revert\n    tag_13:\n      pop\n      tag_14\n      tag_15\n      jump\t// in\n    tag_14:\n      mload(0x40)\n      tag_16\n      swap2\n      swap1\n      tag_12\n      jump\t// in\n    tag_16:\n      mload(0x40)\n      dup1\n      swap2\n      sub\n      swap1\n      return\n        /* \"contracts/\\xe4\\xb8\\x89W\\xe9\\x87\\x91\\xe8\\x9e\\x8d\\xe6\\x94\\xaf\\xe4\\xbb\\x98/CallerReceiver.sol\":899:993  function setX(uint256 _x) external returns (uint256) {... */\n    tag_4:\n      callvalue\n      dup1\n      iszero\n      tag_17\n      jumpi\n      0x00\n      dup1\n      revert\n    tag_17:\n      pop\n      tag_18\n      0x04\n      dup1\n      calldatasize\n      sub\n      dup2\n      add\n      swap1\n      tag_19\n      swap2\n      swap1\n      tag_20\n      jump\t// in\n    tag_19:\n      tag_21\n      jump\t// in\n    tag_18:\n      mload(0x40)\n      tag_22\n      swap2\n      swap1\n      tag_12\n      jump\t// in\n    tag_22:\n      mload(0x40)\n      dup1\n      swap2\n      sub\n      swap1\n      return\n        /* \"contracts/\\xe4\\xb8\\x89W\\xe9\\x87\\x91\\xe8\\x9e\\x8d\\xe6\\x94\\xaf\\xe4\\xbb\\x98/CallerReceiver.sol\":1013:1086  function getX() external view returns (uint256) {... */\n    tag_5:\n      callvalue\n      dup1\n      iszero\n      tag_23\n      jumpi\n      0x00\n      dup1\n      revert\n    tag_23:\n      pop\n      tag_24\n      tag_25\n      jump\t// in\n    tag_24:\n      mload(0x40)\n      tag_26\n      swap2\n      swap1\n      tag_12\n      jump\t// in\n    tag_26:\n      mload(0x40)\n      dup1\n      swap2\n      sub\n      swap1\n      return\n        /* \"contracts/\\xe4\\xb8\\x89W\\xe9\\x87\\x91\\xe8\\x9e\\x8d\\xe6\\x94\\xaf\\xe4\\xbb\\x98/CallerReceiver.sol\":1253:1352  function getXAndEther() external view returns (uint256, uint256) {... */\n    tag_6:\n      callvalue\n      dup1\n      iszero\n      tag_27\n      jumpi\n      0x00\n      dup1\n      revert\n    tag_27:\n      pop\n      tag_28\n      tag_29\n      jump\t// in\n    tag_28:\n      mload(0x40)\n      tag_30\n      swap3\n      swap2\n      swap1\n      tag_31\n      jump\t// in\n    tag_30:\n      mload(0x40)\n      dup1\n      swap2\n      sub\n      swap1\n      return\n        /* \"contracts/\\xe4\\xb8\\x89W\\xe9\\x87\\x91\\xe8\\x9e\\x8d\\xe6\\x94\\xaf\\xe4\\xbb\\x98/CallerReceiver.sol\":1116:1221  function setXAndSendEther(uint256 _x) external payable {... */\n    tag_7:\n      tag_32\n      0x04\n      dup1\n      calldatasize\n      sub\n      dup2\n      add\n      swap1\n      tag_33\n      swap2\n      swap1\n      tag_20\n      jump\t// in\n    tag_33:\n      tag_34\n      jump\t// in\n    tag_32:\n      stop\n        /* \"contracts/\\xe4\\xb8\\x89W\\xe9\\x87\\x91\\xe8\\x9e\\x8d\\xe6\\x94\\xaf\\xe4\\xbb\\x98/CallerReceiver.sol\":830:846  uint256 public x */\n    tag_10:\n      sload(0x00)\n      dup2\n      jump\t// out\n        /* \"contracts/\\xe4\\xb8\\x89W\\xe9\\x87\\x91\\xe8\\x9e\\x8d\\xe6\\x94\\xaf\\xe4\\xbb\\x98/CallerReceiver.sol\":852:878  uint256 public value = 123 */\n    tag_15:\n      sload(0x01)\n      dup2\n      jump\t// out\n        /* \"contracts/\\xe4\\xb8\\x89W\\xe9\\x87\\x91\\xe8\\x9e\\x8d\\xe6\\x94\\xaf\\xe4\\xbb\\x98/CallerReceiver.sol\":899:993  function setX(uint256 _x) external returns (uint256) {... */\n    tag_21:\n        /* \"contracts/\\xe4\\xb8\\x89W\\xe9\\x87\\x91\\xe8\\x9e\\x8d\\xe6\\x94\\xaf\\xe4\\xbb\\x98/CallerReceiver.sol\":943:950  uint256 */\n      0x00\n        /* \"contracts/\\xe4\\xb8\\x89W\\xe9\\x87\\x91\\xe8\\x9e\\x8d\\xe6\\x94\\xaf\\xe4\\xbb\\x98/CallerReceiver.sol\":966:968  _x */\n      dup2\n        /* \"contracts/\\xe4\\xb8\\x89W\\xe9\\x87\\x91\\xe8\\x9e\\x8d\\xe6\\x94\\xaf\\xe4\\xbb\\x98/CallerReceiver.sol\":962:963  x */\n      0x00\n        /* \"contracts/\\xe4\\xb8\\x89W\\xe9\\x87\\x91\\xe8\\x9e\\x8d\\xe6\\x94\\xaf\\xe4\\xbb\\x98/CallerReceiver.sol\":962:968  x = _x */\n      dup2\n      swap1\n      sstore\n      pop\n        /* \"contracts/\\xe4\\xb8\\x89W\\xe9\\x87\\x91\\xe8\\x9e\\x8d\\xe6\\x94\\xaf\\xe4\\xbb\\x98/CallerReceiver.sol\":985:986  x */\n      sload(0x00)\n        /* \"contracts/\\xe4\\xb8\\x89W\\xe9\\x87\\x91\\xe8\\x9e\\x8d\\xe6\\x94\\xaf\\xe4\\xbb\\x98/CallerReceiver.sol\":978:986  return x */\n      swap1\n      pop\n        /* \"contracts/\\xe4\\xb8\\x89W\\xe9\\x87\\x91\\xe8\\x9e\\x8d\\xe6\\x94\\xaf\\xe4\\xbb\\x98/CallerReceiver.sol\":899:993  function setX(uint256 _x) external returns (uint256) {... */\n      swap2\n      swap1\n      pop\n      jump\t// out\n        /* \"contracts/\\xe4\\xb8\\x89W\\xe9\\x87\\x91\\xe8\\x9e\\x8d\\xe6\\x94\\xaf\\xe4\\xbb\\x98/CallerReceiver.sol\":1013:1086  function getX() external view returns (uint256) {... */\n    tag_25:\n        /* \"contracts/\\xe4\\xb8\\x89W\\xe9\\x87\\x91\\xe8\\x9e\\x8d\\xe6\\x94\\xaf\\xe4\\xbb\\x98/CallerReceiver.sol\":1052:1059  uint256 */\n      0x00\n        /* \"contracts/\\xe4\\xb8\\x89W\\xe9\\x87\\x91\\xe8\\x9e\\x8d\\xe6\\x94\\xaf\\xe4\\xbb\\x98/CallerReceiver.sol\":1078:1079  x */\n      dup1\n      sload\n        /* \"contracts/\\xe4\\xb8\\x89W\\xe9\\x87\\x91\\xe8\\x9e\\x8d\\xe6\\x94\\xaf\\xe4\\xbb\\x98/CallerReceiver.sol\":1071:1079  return x */\n      swap1\n      pop\n        /* \"contracts/\\xe4\\xb8\\x89W\\xe9\\x87\\x91\\xe8\\x9e\\x8d\\xe6\\x94\\xaf\\xe4\\xbb\\x98/CallerReceiver.sol\":1013:1086  function getX() external view returns (uint256) {... */\n      swap1\n      jump\t// out\n        /* \"contracts/\\xe4\\xb8\\x89W\\xe9\\x87\\x91\\xe8\\x9e\\x8d\\xe6\\x94\\xaf\\xe4\\xbb\\x98/CallerReceiver.sol\":1253:1352  function getXAndEther() external view returns (uint256, uint256) {... */\n    tag_29:\n        /* \"contracts/\\xe4\\xb8\\x89W\\xe9\\x87\\x91\\xe8\\x9e\\x8d\\xe6\\x94\\xaf\\xe4\\xbb\\x98/CallerReceiver.sol\":1300:1307  uint256 */\n      0x00\n        /* \"contracts/\\xe4\\xb8\\x89W\\xe9\\x87\\x91\\xe8\\x9e\\x8d\\xe6\\x94\\xaf\\xe4\\xbb\\x98/CallerReceiver.sol\":1309:1316  uint256 */\n      dup1\n        /* \"contracts/\\xe4\\xb8\\x89W\\xe9\\x87\\x91\\xe8\\x9e\\x8d\\xe6\\x94\\xaf\\xe4\\xbb\\x98/CallerReceiver.sol\":1336:1337  x */\n      sload(0x00)\n        /* \"contracts/\\xe4\\xb8\\x89W\\xe9\\x87\\x91\\xe8\\x9e\\x8d\\xe6\\x94\\xaf\\xe4\\xbb\\x98/CallerReceiver.sol\":1339:1344  value */\n      sload(0x01)\n        /* \"contracts/\\xe4\\xb8\\x89W\\xe9\\x87\\x91\\xe8\\x9e\\x8d\\xe6\\x94\\xaf\\xe4\\xbb\\x98/CallerReceiver.sol\":1328:1345  return (x, value) */\n      swap2\n      pop\n      swap2\n      pop\n        /* \"contracts/\\xe4\\xb8\\x89W\\xe9\\x87\\x91\\xe8\\x9e\\x8d\\xe6\\x94\\xaf\\xe4\\xbb\\x98/CallerReceiver.sol\":1253:1352  function getXAndEther() external view returns (uint256, uint256) {... */\n      swap1\n      swap2\n      jump\t// out\n        /* \"contracts/\\xe4\\xb8\\x89W\\xe9\\x87\\x91\\xe8\\x9e\\x8d\\xe6\\x94\\xaf\\xe4\\xbb\\x98/CallerReceiver.sol\":1116:1221  function setXAndSendEther(uint256 _x) external payable {... */\n    tag_34:\n        /* \"contracts/\\xe4\\xb8\\x89W\\xe9\\x87\\x91\\xe8\\x9e\\x8d\\xe6\\x94\\xaf\\xe4\\xbb\\x98/CallerReceiver.sol\":1185:1187  _x */\n      dup1\n        /* \"contracts/\\xe4\\xb8\\x89W\\xe9\\x87\\x91\\xe8\\x9e\\x8d\\xe6\\x94\\xaf\\xe4\\xbb\\x98/CallerReceiver.sol\":1181:1182  x */\n      0x00\n        /* \"contracts/\\xe4\\xb8\\x89W\\xe9\\x87\\x91\\xe8\\x9e\\x8d\\xe6\\x94\\xaf\\xe4\\xbb\\x98/CallerReceiver.sol\":1181:1187  x = _x */\n      dup2\n      swap1\n      sstore\n      pop\n        /* \"contracts/\\xe4\\xb8\\x89W\\xe9\\x87\\x91\\xe8\\x9e\\x8d\\xe6\\x94\\xaf\\xe4\\xbb\\x98/CallerReceiver.sol\":1205:1214  msg.value */\n      callvalue\n        /* \"contracts/\\xe4\\xb8\\x89W\\xe9\\x87\\x91\\xe8\\x9e\\x8d\\xe6\\x94\\xaf\\xe4\\xbb\\x98/CallerReceiver.sol\":1197:1202  value */\n      0x01\n        /* \"contracts/\\xe4\\xb8\\x89W\\xe9\\x87\\x91\\xe8\\x9e\\x8d\\xe6\\x94\\xaf\\xe4\\xbb\\x98/CallerReceiver.sol\":1197:1214  value = msg.value */\n      dup2\n      swap1\n      sstore\n      pop\n        /* \"contracts/\\xe4\\xb8\\x89W\\xe9\\x87\\x91\\xe8\\x9e\\x8d\\xe6\\x94\\xaf\\xe4\\xbb\\x98/CallerReceiver.sol\":1116:1221  function setXAndSendEther(uint256 _x) external payable {... */\n      pop\n      jump\t// out\n        /* \"#utility.yul\":7:84   */\n    tag_39:\n        /* \"#utility.yul\":44:51   */\n      0x00\n        /* \"#utility.yul\":73:78   */\n      dup2\n        /* \"#utility.yul\":62:78   */\n      swap1\n      pop\n        /* \"#utility.yul\":7:84   */\n      swap2\n      swap1\n      pop\n      jump\t// out\n        /* \"#utility.yul\":90:208   */\n    tag_40:\n        /* \"#utility.yul\":177:201   */\n      tag_49\n        /* \"#utility.yul\":195:200   */\n      dup2\n        /* \"#utility.yul\":177:201   */\n      tag_39\n      jump\t// in\n    tag_49:\n        /* \"#utility.yul\":172:175   */\n      dup3\n        /* \"#utility.yul\":165:202   */\n      mstore\n        /* \"#utility.yul\":90:208   */\n      pop\n      pop\n      jump\t// out\n        /* \"#utility.yul\":214:436   */\n    tag_12:\n        /* \"#utility.yul\":307:311   */\n      0x00\n        /* \"#utility.yul\":345:347   */\n      0x20\n        /* \"#utility.yul\":334:343   */\n      dup3\n        /* \"#utility.yul\":330:348   */\n      add\n        /* \"#utility.yul\":322:348   */\n      swap1\n      pop\n        /* \"#utility.yul\":358:429   */\n      tag_51\n        /* \"#utility.yul\":426:427   */\n      0x00\n        /* \"#utility.yul\":415:424   */\n      dup4\n        /* \"#utility.yul\":411:428   */\n      add\n        /* \"#utility.yul\":402:408   */\n      dup5\n        /* \"#utility.yul\":358:429   */\n      tag_40\n      jump\t// in\n    tag_51:\n        /* \"#utility.yul\":214:436   */\n      swap3\n      swap2\n      pop\n      pop\n      jump\t// out\n        /* \"#utility.yul\":523:640   */\n    tag_42:\n        /* \"#utility.yul\":632:633   */\n      0x00\n        /* \"#utility.yul\":629:630   */\n      dup1\n        /* \"#utility.yul\":622:634   */\n      revert\n        /* \"#utility.yul\":769:891   */\n    tag_44:\n        /* \"#utility.yul\":842:866   */\n      tag_56\n        /* \"#utility.yul\":860:865   */\n      dup2\n        /* \"#utility.yul\":842:866   */\n      tag_39\n      jump\t// in\n    tag_56:\n        /* \"#utility.yul\":835:840   */\n      dup2\n        /* \"#utility.yul\":832:867   */\n      eq\n        /* \"#utility.yul\":822:885   */\n      tag_57\n      jumpi\n        /* \"#utility.yul\":881:882   */\n      0x00\n        /* \"#utility.yul\":878:879   */\n      dup1\n        /* \"#utility.yul\":871:883   */\n      revert\n        /* \"#utility.yul\":822:885   */\n    tag_57:\n        /* \"#utility.yul\":769:891   */\n      pop\n      jump\t// out\n        /* \"#utility.yul\":897:1036   */\n    tag_45:\n        /* \"#utility.yul\":943:948   */\n      0x00\n        /* \"#utility.yul\":981:987   */\n      dup2\n        /* \"#utility.yul\":968:988   */\n      calldataload\n        /* \"#utility.yul\":959:988   */\n      swap1\n      pop\n        /* \"#utility.yul\":997:1030   */\n      tag_59\n        /* \"#utility.yul\":1024:1029   */\n      dup2\n        /* \"#utility.yul\":997:1030   */\n      tag_44\n      jump\t// in\n    tag_59:\n        /* \"#utility.yul\":897:1036   */\n      swap3\n      swap2\n      pop\n      pop\n      jump\t// out\n        /* \"#utility.yul\":1042:1371   */\n    tag_20:\n        /* \"#utility.yul\":1101:1107   */\n      0x00\n        /* \"#utility.yul\":1150:1152   */\n      0x20\n        /* \"#utility.yul\":1138:1147   */\n      dup3\n        /* \"#utility.yul\":1129:1136   */\n      dup5\n        /* \"#utility.yul\":1125:1148   */\n      sub\n        /* \"#utility.yul\":1121:1153   */\n      slt\n        /* \"#utility.yul\":1118:1237   */\n      iszero\n      tag_61\n      jumpi\n        /* \"#utility.yul\":1156:1235   */\n      tag_62\n      tag_42\n      jump\t// in\n    tag_62:\n        /* \"#utility.yul\":1118:1237   */\n    tag_61:\n        /* \"#utility.yul\":1276:1277   */\n      0x00\n        /* \"#utility.yul\":1301:1354   */\n      tag_63\n        /* \"#utility.yul\":1346:1353   */\n      dup5\n        /* \"#utility.yul\":1337:1343   */\n      dup3\n        /* \"#utility.yul\":1326:1335   */\n      dup6\n        /* \"#utility.yul\":1322:1344   */\n      add\n        /* \"#utility.yul\":1301:1354   */\n      tag_45\n      jump\t// in\n    tag_63:\n        /* \"#utility.yul\":1291:1354   */\n      swap2\n      pop\n        /* \"#utility.yul\":1247:1364   */\n      pop\n        /* \"#utility.yul\":1042:1371   */\n      swap3\n      swap2\n      pop\n      pop\n      jump\t// out\n        /* \"#utility.yul\":1377:1709   */\n    tag_31:\n        /* \"#utility.yul\":1498:1502   */\n      0x00\n        /* \"#utility.yul\":1536:1538   */\n      0x40\n        /* \"#utility.yul\":1525:1534   */\n      dup3\n        /* \"#utility.yul\":1521:1539   */\n      add\n        /* \"#utility.yul\":1513:1539   */\n      swap1\n      pop\n        /* \"#utility.yul\":1549:1620   */\n      tag_65\n        /* \"#utility.yul\":1617:1618   */\n      0x00\n        /* \"#utility.yul\":1606:1615   */\n      dup4\n        /* \"#utility.yul\":1602:1619   */\n      add\n        /* \"#utility.yul\":1593:1599   */\n      dup6\n        /* \"#utility.yul\":1549:1620   */\n      tag_40\n      jump\t// in\n    tag_65:\n        /* \"#utility.yul\":1630:1702   */\n      tag_66\n        /* \"#utility.yul\":1698:1700   */\n      0x20\n        /* \"#utility.yul\":1687:1696   */\n      dup4\n        /* \"#utility.yul\":1683:1701   */\n      add\n        /* \"#utility.yul\":1674:1680   */\n      dup5\n        /* \"#utility.yul\":1630:1702   */\n      tag_40\n      jump\t// in\n    tag_66:\n        /* \"#utility.yul\":1377:1709   */\n      swap4\n      swap3\n      pop\n      pop\n      pop\n      jump\t// out\n\n    auxdata: 0xa2646970667358221220fdb60dd35cc41288d3a6629edc7c0e94e330cc5052fc0ef2dc425a72347d539864736f6c63430008170033\n}\n",
				"bytecode": {
					"linkReferences": {},
					"object": "6080604052607b600155348015610014575f80fd5b50610282806100225f395ff3fe608060405260043610610054575f3560e01c80630c55699c146100585780633fa4f245146100825780634018d9aa146100ac5780635197c7aa146100e8578063677bf7d8146101125780638f52503f1461013d575b5f80fd5b348015610063575f80fd5b5061006c610159565b60405161007991906101b3565b60405180910390f35b34801561008d575f80fd5b5061009661015e565b6040516100a391906101b3565b60405180910390f35b3480156100b7575f80fd5b506100d260048036038101906100cd91906101fa565b610164565b6040516100df91906101b3565b60405180910390f35b3480156100f3575f80fd5b506100fc610174565b60405161010991906101b3565b60405180910390f35b34801561011d575f80fd5b5061012661017c565b604051610134929190610225565b60405180910390f35b610157600480360381019061015291906101fa565b61018b565b005b5f5481565b60015481565b5f815f819055505f549050919050565b5f8054905090565b5f805f54600154915091509091565b805f819055503460018190555050565b5f819050919050565b6101ad8161019b565b82525050565b5f6020820190506101c65f8301846101a4565b92915050565b5f80fd5b6101d98161019b565b81146101e3575f80fd5b50565b5f813590506101f4816101d0565b92915050565b5f6020828403121561020f5761020e6101cc565b5b5f61021c848285016101e6565b91505092915050565b5f6040820190506102385f8301856101a4565b61024560208301846101a4565b939250505056fea2646970667358221220fdb60dd35cc41288d3a6629edc7c0e94e330cc5052fc0ef2dc425a72347d539864736f6c63430008170033",
					"opcodes": "PUSH1 0x80 PUSH1 0x40 MSTORE PUSH1 0x7B PUSH1 0x1 SSTORE CALLVALUE DUP1 ISZERO PUSH2 0x14 JUMPI PUSH0 DUP1 REVERT JUMPDEST POP PUSH2 0x282 DUP1 PUSH2 0x22 PUSH0 CODECOPY PUSH0 RETURN INVALID PUSH1 0x80 PUSH1 0x40 MSTORE PUSH1 0x4 CALLDATASIZE LT PUSH2 0x54 JUMPI PUSH0 CALLDATALOAD PUSH1 0xE0 SHR DUP1 PUSH4 0xC55699C EQ PUSH2 0x58 JUMPI DUP1 PUSH4 0x3FA4F245 EQ PUSH2 0x82 JUMPI DUP1 PUSH4 0x4018D9AA EQ PUSH2 0xAC JUMPI DUP1 PUSH4 0x5197C7AA EQ PUSH2 0xE8 JUMPI DUP1 PUSH4 0x677BF7D8 EQ PUSH2 0x112 JUMPI DUP1 PUSH4 0x8F52503F EQ PUSH2 0x13D JUMPI JUMPDEST PUSH0 DUP1 REVERT JUMPDEST CALLVALUE DUP1 ISZERO PUSH2 0x63 JUMPI PUSH0 DUP1 REVERT JUMPDEST POP PUSH2 0x6C PUSH2 0x159 JUMP JUMPDEST PUSH1 0x40 MLOAD PUSH2 0x79 SWAP2 SWAP1 PUSH2 0x1B3 JUMP JUMPDEST PUSH1 0x40 MLOAD DUP1 SWAP2 SUB SWAP1 RETURN JUMPDEST CALLVALUE DUP1 ISZERO PUSH2 0x8D JUMPI PUSH0 DUP1 REVERT JUMPDEST POP PUSH2 0x96 PUSH2 0x15E JUMP JUMPDEST PUSH1 0x40 MLOAD PUSH2 0xA3 SWAP2 SWAP1 PUSH2 0x1B3 JUMP JUMPDEST PUSH1 0x40 MLOAD DUP1 SWAP2 SUB SWAP1 RETURN JUMPDEST CALLVALUE DUP1 ISZERO PUSH2 0xB7 JUMPI PUSH0 DUP1 REVERT JUMPDEST POP PUSH2 0xD2 PUSH1 0x4 DUP1 CALLDATASIZE SUB DUP2 ADD SWAP1 PUSH2 0xCD SWAP2 SWAP1 PUSH2 0x1FA JUMP JUMPDEST PUSH2 0x164 JUMP JUMPDEST PUSH1 0x40 MLOAD PUSH2 0xDF SWAP2 SWAP1 PUSH2 0x1B3 JUMP JUMPDEST PUSH1 0x40 MLOAD DUP1 SWAP2 SUB SWAP1 RETURN JUMPDEST CALLVALUE DUP1 ISZERO PUSH2 0xF3 JUMPI PUSH0 DUP1 REVERT JUMPDEST POP PUSH2 0xFC PUSH2 0x174 JUMP JUMPDEST PUSH1 0x40 MLOAD PUSH2 0x109 SWAP2 SWAP1 PUSH2 0x1B3 JUMP JUMPDEST PUSH1 0x40 MLOAD DUP1 SWAP2 SUB SWAP1 RETURN JUMPDEST CALLVALUE DUP1 ISZERO PUSH2 0x11D JUMPI PUSH0 DUP1 REVERT JUMPDEST POP PUSH2 0x126 PUSH2 0x17C JUMP JUMPDEST PUSH1 0x40 MLOAD PUSH2 0x134 SWAP3 SWAP2 SWAP1 PUSH2 0x225 JUMP JUMPDEST PUSH1 0x40 MLOAD DUP1 SWAP2 SUB SWAP1 RETURN JUMPDEST PUSH2 0x157 PUSH1 0x4 DUP1 CALLDATASIZE SUB DUP2 ADD SWAP1 PUSH2 0x152 SWAP2 SWAP1 PUSH2 0x1FA JUMP JUMPDEST PUSH2 0x18B JUMP JUMPDEST STOP JUMPDEST PUSH0 SLOAD DUP2 JUMP JUMPDEST PUSH1 0x1 SLOAD DUP2 JUMP JUMPDEST PUSH0 DUP2 PUSH0 DUP2 SWAP1 SSTORE POP PUSH0 SLOAD SWAP1 POP SWAP2 SWAP1 POP JUMP JUMPDEST PUSH0 DUP1 SLOAD SWAP1 POP SWAP1 JUMP JUMPDEST PUSH0 DUP1 PUSH0 SLOAD PUSH1 0x1 SLOAD SWAP2 POP SWAP2 POP SWAP1 SWAP2 JUMP JUMPDEST DUP1 PUSH0 DUP2 SWAP1 SSTORE POP CALLVALUE PUSH1 0x1 DUP2 SWAP1 SSTORE POP POP JUMP JUMPDEST PUSH0 DUP2 SWAP1 POP SWAP2 SWAP1 POP JUMP JUMPDEST PUSH2 0x1AD DUP2 PUSH2 0x19B JUMP JUMPDEST DUP3 MSTORE POP POP JUMP JUMPDEST PUSH0 PUSH1 0x20 DUP3 ADD SWAP1 POP PUSH2 0x1C6 PUSH0 DUP4 ADD DUP5 PUSH2 0x1A4 JUMP JUMPDEST SWAP3 SWAP2 POP POP JUMP JUMPDEST PUSH0 DUP1 REVERT JUMPDEST PUSH2 0x1D9 DUP2 PUSH2 0x19B JUMP JUMPDEST DUP2 EQ PUSH2 0x1E3 JUMPI PUSH0 DUP1 REVERT JUMPDEST POP JUMP JUMPDEST PUSH0 DUP2 CALLDATALOAD SWAP1 POP PUSH2 0x1F4 DUP2 PUSH2 0x1D0 JUMP JUMPDEST SWAP3 SWAP2 POP POP JUMP JUMPDEST PUSH0 PUSH1 0x20 DUP3 DUP5 SUB SLT ISZERO PUSH2 0x20F JUMPI PUSH2 0x20E PUSH2 0x1CC JUMP JUMPDEST JUMPDEST PUSH0 PUSH2 0x21C DUP5 DUP3 DUP6 ADD PUSH2 0x1E6 JUMP JUMPDEST SWAP2 POP POP SWAP3 SWAP2 POP POP JUMP JUMPDEST PUSH0 PUSH1 0x40 DUP3 ADD SWAP1 POP PUSH2 0x238 PUSH0 DUP4 ADD DUP6 PUSH2 0x1A4 JUMP JUMPDEST PUSH2 0x245 PUSH1 0x20 DUP4 ADD DUP5 PUSH2 0x1A4 JUMP JUMPDEST SWAP4 SWAP3 POP POP POP JUMP INVALID LOG2 PUSH5 0x6970667358 0x22 SLT KECCAK256 REVERT 0xB6 0xD 0xD3 0x5C 0xC4 SLT DUP9 0xD3 0xA6 PUSH3 0x9EDC7C 0xE SWAP5 0xE3 ADDRESS 0xCC POP MSTORE 0xFC 0xE CALLCODE 0xDC TIMESTAMP GAS PUSH19 0x347D539864736F6C6343000817003300000000 "
				},
				"gasEstimates": {
					"creation": {
						"codeDepositCost": "128400",
						"executionCost": "22281",
						"totalCost": "150681"
					},
					"external": {
						"getX()": "2476",
						"getXAndEther()": "infinite",
						"setX(uint256)": "infinite",
						"setXAndSendEther(uint256)": "44691",
						"value()": "2425",
						"x()": "2402"
					}
				},
				"methodIdentifiers": {
					"getX()": "5197c7aa",
					"getXAndEther()": "677bf7d8",
					"setX(uint256)": "4018d9aa",
					"setXAndSendEther(uint256)": "8f52503f",
					"value()": "3fa4f245",
					"x()": "0c55699c"
				}
			},
			"storageLayout": {
				"storage": [
					{
						"astId": 77,
						"contract": "contracts/三W金融支付/CallerReceiver.sol:Receiver",
						"label": "x",
						"offset": 0,
						"slot": "0",
						"type": "t_uint256"
					},
					{
						"astId": 80,
						"contract": "contracts/三W金融支付/CallerReceiver.sol:Receiver",
						"label": "value",
						"offset": 0,
						"slot": "1",
						"type": "t_uint256"
					}
				],
				"types": {
					"t_uint256": {
						"encoding": "inplace",
						"label": "uint256",
						"numberOfBytes": "32"
					}
				}
			},
			"userdoc": {
				"kind": "user",
				"methods": {},
				"version": 1
			}
		}
	}
}