{
	"contracts/review/DataLocations.sol": {
		"DataLoactions": {
			"abi": [
				{
					"inputs": [],
					"name": "examples",
					"outputs": [
						{
							"internalType": "uint256",
							"name": "",
							"type": "uint256"
						}
					],
					"stateMutability": "nonpayable",
					"type": "function"
				}
			],
			"devdoc": {
				"kind": "dev",
				"methods": {},
				"version": 1
			},
			"evm": {
				"assembly": "    /* \"contracts/review/DataLocations.sol\":90:496  contract DataLoactions {... */\n  mstore(0x40, 0x80)\n  callvalue\n  dup1\n  iszero\n  tag_1\n  jumpi\n  0x00\n  dup1\n  revert\ntag_1:\n  pop\n  dataSize(sub_0)\n  dup1\n  dataOffset(sub_0)\n  0x00\n  codecopy\n  0x00\n  return\nstop\n\nsub_0: assembly {\n        /* \"contracts/review/DataLocations.sol\":90:496  contract DataLoactions {... */\n      mstore(0x40, 0x80)\n      callvalue\n      dup1\n      iszero\n      tag_1\n      jumpi\n      0x00\n      dup1\n      revert\n    tag_1:\n      pop\n      jumpi(tag_2, lt(calldatasize, 0x04))\n      shr(0xe0, calldataload(0x00))\n      dup1\n      0x335d00c2\n      eq\n      tag_3\n      jumpi\n    tag_2:\n      0x00\n      dup1\n      revert\n        /* \"contracts/review/DataLocations.sol\":232:494  function examples() external returns (uint) {... */\n    tag_3:\n      tag_4\n      tag_5\n      jump\t// in\n    tag_4:\n      mload(0x40)\n      tag_6\n      swap2\n      swap1\n      tag_7\n      jump\t// in\n    tag_6:\n      mload(0x40)\n      dup1\n      swap2\n      sub\n      swap1\n      return\n    tag_5:\n        /* \"contracts/review/DataLocations.sol\":270:274  uint */\n      0x00\n        /* \"contracts/review/DataLocations.sol\":310:343  MyStruct({foo: 123, text: \"bar\"}) */\n      mload(0x40)\n      dup1\n      0x40\n      add\n      0x40\n      mstore\n      dup1\n        /* \"contracts/review/DataLocations.sol\":325:328  123 */\n      0x7b\n        /* \"contracts/review/DataLocations.sol\":310:343  MyStruct({foo: 123, text: \"bar\"}) */\n      dup2\n      mstore\n      0x20\n      add\n      mload(0x40)\n      dup1\n      0x40\n      add\n      0x40\n      mstore\n      dup1\n      0x03\n      dup2\n      mstore\n      0x20\n      add\n      0x6261720000000000000000000000000000000000000000000000000000000000\n      dup2\n      mstore\n      pop\n      dup2\n      mstore\n      pop\n        /* \"contracts/review/DataLocations.sol\":286:295  myStructs */\n      0x00\n        /* \"contracts/review/DataLocations.sol\":286:307  myStructs[msg.sender] */\n      dup1\n        /* \"contracts/review/DataLocations.sol\":296:306  msg.sender */\n      caller\n        /* \"contracts/review/DataLocations.sol\":286:307  myStructs[msg.sender] */\n      0xffffffffffffffffffffffffffffffffffffffff\n      and\n      0xffffffffffffffffffffffffffffffffffffffff\n      and\n      dup2\n      mstore\n      0x20\n      add\n      swap1\n      dup2\n      mstore\n      0x20\n      add\n      0x00\n      keccak256\n        /* \"contracts/review/DataLocations.sol\":286:343  myStructs[msg.sender] = MyStruct({foo: 123, text: \"bar\"}) */\n      0x00\n      dup3\n      add\n      mload\n      dup2\n      0x00\n      add\n      sstore\n      0x20\n      dup3\n      add\n      mload\n      dup2\n      0x01\n      add\n      swap1\n      dup2\n      tag_9\n      swap2\n      swap1\n      tag_10\n      jump\t// in\n    tag_9:\n      pop\n      swap1\n      pop\n      pop\n        /* \"contracts/review/DataLocations.sol\":362:387  MyStruct storage mystruct */\n      0x00\n        /* \"contracts/review/DataLocations.sol\":390:399  myStructs */\n      dup1\n        /* \"contracts/review/DataLocations.sol\":390:411  myStructs[msg.sender] */\n      0x00\n        /* \"contracts/review/DataLocations.sol\":400:410  msg.sender */\n      caller\n        /* \"contracts/review/DataLocations.sol\":390:411  myStructs[msg.sender] */\n      0xffffffffffffffffffffffffffffffffffffffff\n      and\n      0xffffffffffffffffffffffffffffffffffffffff\n      and\n      dup2\n      mstore\n      0x20\n      add\n      swap1\n      dup2\n      mstore\n      0x20\n      add\n      0x00\n      keccak256\n        /* \"contracts/review/DataLocations.sol\":362:411  MyStruct storage mystruct = myStructs[msg.sender] */\n      swap1\n      pop\n        /* \"contracts/review/DataLocations.sol\":421:442  mystruct.text = \"foo\" */\n      mload(0x40)\n      dup1\n      0x40\n      add\n      0x40\n      mstore\n      dup1\n      0x03\n      dup2\n      mstore\n      0x20\n      add\n      0x666f6f0000000000000000000000000000000000000000000000000000000000\n      dup2\n      mstore\n      pop\n        /* \"contracts/review/DataLocations.sol\":421:429  mystruct */\n      dup2\n        /* \"contracts/review/DataLocations.sol\":421:434  mystruct.text */\n      0x01\n      add\n        /* \"contracts/review/DataLocations.sol\":421:442  mystruct.text = \"foo\" */\n      swap1\n      dup2\n      tag_11\n      swap2\n      swap1\n      tag_10\n      jump\t// in\n    tag_11:\n      pop\n        /* \"contracts/review/DataLocations.sol\":462:471  myStructs */\n      0x00\n        /* \"contracts/review/DataLocations.sol\":462:483  myStructs[msg.sender] */\n      dup1\n        /* \"contracts/review/DataLocations.sol\":472:482  msg.sender */\n      caller\n        /* \"contracts/review/DataLocations.sol\":462:483  myStructs[msg.sender] */\n      0xffffffffffffffffffffffffffffffffffffffff\n      and\n      0xffffffffffffffffffffffffffffffffffffffff\n      and\n      dup2\n      mstore\n      0x20\n      add\n      swap1\n      dup2\n      mstore\n      0x20\n      add\n      0x00\n      keccak256\n        /* \"contracts/review/DataLocations.sol\":462:487  myStructs[msg.sender].foo */\n      0x00\n      add\n      sload\n        /* \"contracts/review/DataLocations.sol\":455:487  return myStructs[msg.sender].foo */\n      swap2\n      pop\n      pop\n        /* \"contracts/review/DataLocations.sol\":232:494  function examples() external returns (uint) {... */\n      swap1\n      jump\t// out\n        /* \"#utility.yul\":7:84   */\n    tag_12:\n        /* \"#utility.yul\":44:51   */\n      0x00\n        /* \"#utility.yul\":73:78   */\n      dup2\n        /* \"#utility.yul\":62:78   */\n      swap1\n      pop\n        /* \"#utility.yul\":7:84   */\n      swap2\n      swap1\n      pop\n      jump\t// out\n        /* \"#utility.yul\":90:208   */\n    tag_13:\n        /* \"#utility.yul\":177:201   */\n      tag_36\n        /* \"#utility.yul\":195:200   */\n      dup2\n        /* \"#utility.yul\":177:201   */\n      tag_12\n      jump\t// in\n    tag_36:\n        /* \"#utility.yul\":172:175   */\n      dup3\n        /* \"#utility.yul\":165:202   */\n      mstore\n        /* \"#utility.yul\":90:208   */\n      pop\n      pop\n      jump\t// out\n        /* \"#utility.yul\":214:436   */\n    tag_7:\n        /* \"#utility.yul\":307:311   */\n      0x00\n        /* \"#utility.yul\":345:347   */\n      0x20\n        /* \"#utility.yul\":334:343   */\n      dup3\n        /* \"#utility.yul\":330:348   */\n      add\n        /* \"#utility.yul\":322:348   */\n      swap1\n      pop\n        /* \"#utility.yul\":358:429   */\n      tag_38\n        /* \"#utility.yul\":426:427   */\n      0x00\n        /* \"#utility.yul\":415:424   */\n      dup4\n        /* \"#utility.yul\":411:428   */\n      add\n        /* \"#utility.yul\":402:408   */\n      dup5\n        /* \"#utility.yul\":358:429   */\n      tag_13\n      jump\t// in\n    tag_38:\n        /* \"#utility.yul\":214:436   */\n      swap3\n      swap2\n      pop\n      pop\n      jump\t// out\n        /* \"#utility.yul\":442:541   */\n    tag_14:\n        /* \"#utility.yul\":494:500   */\n      0x00\n        /* \"#utility.yul\":528:533   */\n      dup2\n        /* \"#utility.yul\":522:534   */\n      mload\n        /* \"#utility.yul\":512:534   */\n      swap1\n      pop\n        /* \"#utility.yul\":442:541   */\n      swap2\n      swap1\n      pop\n      jump\t// out\n        /* \"#utility.yul\":547:727   */\n    tag_15:\n        /* \"#utility.yul\":595:672   */\n      0x4e487b7100000000000000000000000000000000000000000000000000000000\n        /* \"#utility.yul\":592:593   */\n      0x00\n        /* \"#utility.yul\":585:673   */\n      mstore\n        /* \"#utility.yul\":692:696   */\n      0x41\n        /* \"#utility.yul\":689:690   */\n      0x04\n        /* \"#utility.yul\":682:697   */\n      mstore\n        /* \"#utility.yul\":716:720   */\n      0x24\n        /* \"#utility.yul\":713:714   */\n      0x00\n        /* \"#utility.yul\":706:721   */\n      revert\n        /* \"#utility.yul\":733:913   */\n    tag_16:\n        /* \"#utility.yul\":781:858   */\n      0x4e487b7100000000000000000000000000000000000000000000000000000000\n        /* \"#utility.yul\":778:779   */\n      0x00\n        /* \"#utility.yul\":771:859   */\n      mstore\n        /* \"#utility.yul\":878:882   */\n      0x22\n        /* \"#utility.yul\":875:876   */\n      0x04\n        /* \"#utility.yul\":868:883   */\n      mstore\n        /* \"#utility.yul\":902:906   */\n      0x24\n        /* \"#utility.yul\":899:900   */\n      0x00\n        /* \"#utility.yul\":892:907   */\n      revert\n        /* \"#utility.yul\":919:1239   */\n    tag_17:\n        /* \"#utility.yul\":963:969   */\n      0x00\n        /* \"#utility.yul\":1000:1001   */\n      0x02\n        /* \"#utility.yul\":994:998   */\n      dup3\n        /* \"#utility.yul\":990:1002   */\n      div\n        /* \"#utility.yul\":980:1002   */\n      swap1\n      pop\n        /* \"#utility.yul\":1047:1048   */\n      0x01\n        /* \"#utility.yul\":1041:1045   */\n      dup3\n        /* \"#utility.yul\":1037:1049   */\n      and\n        /* \"#utility.yul\":1068:1086   */\n      dup1\n        /* \"#utility.yul\":1058:1139   */\n      tag_43\n      jumpi\n        /* \"#utility.yul\":1124:1128   */\n      0x7f\n        /* \"#utility.yul\":1116:1122   */\n      dup3\n        /* \"#utility.yul\":1112:1129   */\n      and\n        /* \"#utility.yul\":1102:1129   */\n      swap2\n      pop\n        /* \"#utility.yul\":1058:1139   */\n    tag_43:\n        /* \"#utility.yul\":1186:1188   */\n      0x20\n        /* \"#utility.yul\":1178:1184   */\n      dup3\n        /* \"#utility.yul\":1175:1189   */\n      lt\n        /* \"#utility.yul\":1155:1173   */\n      dup2\n        /* \"#utility.yul\":1152:1190   */\n      sub\n        /* \"#utility.yul\":1149:1233   */\n      tag_44\n      jumpi\n        /* \"#utility.yul\":1205:1223   */\n      tag_45\n      tag_16\n      jump\t// in\n    tag_45:\n        /* \"#utility.yul\":1149:1233   */\n    tag_44:\n        /* \"#utility.yul\":970:1239   */\n      pop\n        /* \"#utility.yul\":919:1239   */\n      swap2\n      swap1\n      pop\n      jump\t// out\n        /* \"#utility.yul\":1245:1386   */\n    tag_18:\n        /* \"#utility.yul\":1294:1298   */\n      0x00\n        /* \"#utility.yul\":1317:1320   */\n      dup2\n        /* \"#utility.yul\":1309:1320   */\n      swap1\n      pop\n        /* \"#utility.yul\":1340:1343   */\n      dup2\n        /* \"#utility.yul\":1337:1338   */\n      0x00\n        /* \"#utility.yul\":1330:1344   */\n      mstore\n        /* \"#utility.yul\":1374:1378   */\n      0x20\n        /* \"#utility.yul\":1371:1372   */\n      0x00\n        /* \"#utility.yul\":1361:1379   */\n      keccak256\n        /* \"#utility.yul\":1353:1379   */\n      swap1\n      pop\n        /* \"#utility.yul\":1245:1386   */\n      swap2\n      swap1\n      pop\n      jump\t// out\n        /* \"#utility.yul\":1392:1485   */\n    tag_19:\n        /* \"#utility.yul\":1429:1435   */\n      0x00\n        /* \"#utility.yul\":1476:1478   */\n      0x20\n        /* \"#utility.yul\":1471:1473   */\n      0x1f\n        /* \"#utility.yul\":1464:1469   */\n      dup4\n        /* \"#utility.yul\":1460:1474   */\n      add\n        /* \"#utility.yul\":1456:1479   */\n      div\n        /* \"#utility.yul\":1446:1479   */\n      swap1\n      pop\n        /* \"#utility.yul\":1392:1485   */\n      swap2\n      swap1\n      pop\n      jump\t// out\n        /* \"#utility.yul\":1491:1598   */\n    tag_20:\n        /* \"#utility.yul\":1535:1543   */\n      0x00\n        /* \"#utility.yul\":1585:1590   */\n      dup3\n        /* \"#utility.yul\":1579:1583   */\n      dup3\n        /* \"#utility.yul\":1575:1591   */\n      shl\n        /* \"#utility.yul\":1554:1591   */\n      swap1\n      pop\n        /* \"#utility.yul\":1491:1598   */\n      swap3\n      swap2\n      pop\n      pop\n      jump\t// out\n        /* \"#utility.yul\":1604:1997   */\n    tag_21:\n        /* \"#utility.yul\":1673:1679   */\n      0x00\n        /* \"#utility.yul\":1723:1724   */\n      0x08\n        /* \"#utility.yul\":1711:1721   */\n      dup4\n        /* \"#utility.yul\":1707:1725   */\n      mul\n        /* \"#utility.yul\":1746:1843   */\n      tag_50\n        /* \"#utility.yul\":1776:1842   */\n      0xffffffffffffffffffffffffffffffffffffffffffffffffffffffffffffffff\n        /* \"#utility.yul\":1765:1774   */\n      dup3\n        /* \"#utility.yul\":1746:1843   */\n      tag_20\n      jump\t// in\n    tag_50:\n        /* \"#utility.yul\":1864:1903   */\n      tag_51\n        /* \"#utility.yul\":1894:1902   */\n      dup7\n        /* \"#utility.yul\":1883:1892   */\n      dup4\n        /* \"#utility.yul\":1864:1903   */\n      tag_20\n      jump\t// in\n    tag_51:\n        /* \"#utility.yul\":1852:1903   */\n      swap6\n      pop\n        /* \"#utility.yul\":1936:1940   */\n      dup1\n        /* \"#utility.yul\":1932:1941   */\n      not\n        /* \"#utility.yul\":1925:1930   */\n      dup5\n        /* \"#utility.yul\":1921:1942   */\n      and\n        /* \"#utility.yul\":1912:1942   */\n      swap4\n      pop\n        /* \"#utility.yul\":1985:1989   */\n      dup1\n        /* \"#utility.yul\":1975:1983   */\n      dup7\n        /* \"#utility.yul\":1971:1990   */\n      and\n        /* \"#utility.yul\":1964:1969   */\n      dup5\n        /* \"#utility.yul\":1961:1991   */\n      or\n        /* \"#utility.yul\":1951:1991   */\n      swap3\n      pop\n        /* \"#utility.yul\":1680:1997   */\n      pop\n      pop\n        /* \"#utility.yul\":1604:1997   */\n      swap4\n      swap3\n      pop\n      pop\n      pop\n      jump\t// out\n        /* \"#utility.yul\":2003:2063   */\n    tag_22:\n        /* \"#utility.yul\":2031:2034   */\n      0x00\n        /* \"#utility.yul\":2052:2057   */\n      dup2\n        /* \"#utility.yul\":2045:2057   */\n      swap1\n      pop\n        /* \"#utility.yul\":2003:2063   */\n      swap2\n      swap1\n      pop\n      jump\t// out\n        /* \"#utility.yul\":2069:2211   */\n    tag_23:\n        /* \"#utility.yul\":2119:2128   */\n      0x00\n        /* \"#utility.yul\":2152:2205   */\n      tag_54\n        /* \"#utility.yul\":2170:2204   */\n      tag_55\n        /* \"#utility.yul\":2179:2203   */\n      tag_56\n        /* \"#utility.yul\":2197:2202   */\n      dup5\n        /* \"#utility.yul\":2179:2203   */\n      tag_12\n      jump\t// in\n    tag_56:\n        /* \"#utility.yul\":2170:2204   */\n      tag_22\n      jump\t// in\n    tag_55:\n        /* \"#utility.yul\":2152:2205   */\n      tag_12\n      jump\t// in\n    tag_54:\n        /* \"#utility.yul\":2139:2205   */\n      swap1\n      pop\n        /* \"#utility.yul\":2069:2211   */\n      swap2\n      swap1\n      pop\n      jump\t// out\n        /* \"#utility.yul\":2217:2292   */\n    tag_24:\n        /* \"#utility.yul\":2260:2263   */\n      0x00\n        /* \"#utility.yul\":2281:2286   */\n      dup2\n        /* \"#utility.yul\":2274:2286   */\n      swap1\n      pop\n        /* \"#utility.yul\":2217:2292   */\n      swap2\n      swap1\n      pop\n      jump\t// out\n        /* \"#utility.yul\":2298:2567   */\n    tag_25:\n        /* \"#utility.yul\":2408:2447   */\n      tag_59\n        /* \"#utility.yul\":2439:2446   */\n      dup4\n        /* \"#utility.yul\":2408:2447   */\n      tag_23\n      jump\t// in\n    tag_59:\n        /* \"#utility.yul\":2469:2560   */\n      tag_60\n        /* \"#utility.yul\":2518:2559   */\n      tag_61\n        /* \"#utility.yul\":2542:2558   */\n      dup3\n        /* \"#utility.yul\":2518:2559   */\n      tag_24\n      jump\t// in\n    tag_61:\n        /* \"#utility.yul\":2510:2516   */\n      dup5\n        /* \"#utility.yul\":2503:2507   */\n      dup5\n        /* \"#utility.yul\":2497:2508   */\n      sload\n        /* \"#utility.yul\":2469:2560   */\n      tag_21\n      jump\t// in\n    tag_60:\n        /* \"#utility.yul\":2463:2467   */\n      dup3\n        /* \"#utility.yul\":2456:2561   */\n      sstore\n        /* \"#utility.yul\":2374:2567   */\n      pop\n        /* \"#utility.yul\":2298:2567   */\n      pop\n      pop\n      pop\n      jump\t// out\n        /* \"#utility.yul\":2573:2646   */\n    tag_26:\n        /* \"#utility.yul\":2618:2621   */\n      0x00\n        /* \"#utility.yul\":2573:2646   */\n      swap1\n      jump\t// out\n        /* \"#utility.yul\":2652:2841   */\n    tag_27:\n        /* \"#utility.yul\":2729:2761   */\n      tag_64\n      tag_26\n      jump\t// in\n    tag_64:\n        /* \"#utility.yul\":2770:2835   */\n      tag_65\n        /* \"#utility.yul\":2828:2834   */\n      dup2\n        /* \"#utility.yul\":2820:2826   */\n      dup5\n        /* \"#utility.yul\":2814:2818   */\n      dup5\n        /* \"#utility.yul\":2770:2835   */\n      tag_25\n      jump\t// in\n    tag_65:\n        /* \"#utility.yul\":2705:2841   */\n      pop\n        /* \"#utility.yul\":2652:2841   */\n      pop\n      pop\n      jump\t// out\n        /* \"#utility.yul\":2847:3033   */\n    tag_28:\n        /* \"#utility.yul\":2907:3027   */\n    tag_67:\n        /* \"#utility.yul\":2924:2927   */\n      dup2\n        /* \"#utility.yul\":2917:2922   */\n      dup2\n        /* \"#utility.yul\":2914:2928   */\n      lt\n        /* \"#utility.yul\":2907:3027   */\n      iszero\n      tag_69\n      jumpi\n        /* \"#utility.yul\":2978:3017   */\n      tag_70\n        /* \"#utility.yul\":3015:3016   */\n      0x00\n        /* \"#utility.yul\":3008:3013   */\n      dup3\n        /* \"#utility.yul\":2978:3017   */\n      tag_27\n      jump\t// in\n    tag_70:\n        /* \"#utility.yul\":2951:2952   */\n      0x01\n        /* \"#utility.yul\":2944:2949   */\n      dup2\n        /* \"#utility.yul\":2940:2953   */\n      add\n        /* \"#utility.yul\":2931:2953   */\n      swap1\n      pop\n        /* \"#utility.yul\":2907:3027   */\n      jump(tag_67)\n    tag_69:\n        /* \"#utility.yul\":2847:3033   */\n      pop\n      pop\n      jump\t// out\n        /* \"#utility.yul\":3039:3582   */\n    tag_29:\n        /* \"#utility.yul\":3140:3142   */\n      0x1f\n        /* \"#utility.yul\":3135:3138   */\n      dup3\n        /* \"#utility.yul\":3132:3143   */\n      gt\n        /* \"#utility.yul\":3129:3575   */\n      iszero\n      tag_72\n      jumpi\n        /* \"#utility.yul\":3174:3212   */\n      tag_73\n        /* \"#utility.yul\":3206:3211   */\n      dup2\n        /* \"#utility.yul\":3174:3212   */\n      tag_18\n      jump\t// in\n    tag_73:\n        /* \"#utility.yul\":3258:3287   */\n      tag_74\n        /* \"#utility.yul\":3276:3286   */\n      dup5\n        /* \"#utility.yul\":3258:3287   */\n      tag_19\n      jump\t// in\n    tag_74:\n        /* \"#utility.yul\":3248:3256   */\n      dup2\n        /* \"#utility.yul\":3244:3288   */\n      add\n        /* \"#utility.yul\":3441:3443   */\n      0x20\n        /* \"#utility.yul\":3429:3439   */\n      dup6\n        /* \"#utility.yul\":3426:3444   */\n      lt\n        /* \"#utility.yul\":3423:3472   */\n      iszero\n      tag_75\n      jumpi\n        /* \"#utility.yul\":3462:3470   */\n      dup2\n        /* \"#utility.yul\":3447:3470   */\n      swap1\n      pop\n        /* \"#utility.yul\":3423:3472   */\n    tag_75:\n        /* \"#utility.yul\":3485:3565   */\n      tag_76\n        /* \"#utility.yul\":3541:3563   */\n      tag_77\n        /* \"#utility.yul\":3559:3562   */\n      dup6\n        /* \"#utility.yul\":3541:3563   */\n      tag_19\n      jump\t// in\n    tag_77:\n        /* \"#utility.yul\":3531:3539   */\n      dup4\n        /* \"#utility.yul\":3527:3564   */\n      add\n        /* \"#utility.yul\":3514:3525   */\n      dup3\n        /* \"#utility.yul\":3485:3565   */\n      tag_28\n      jump\t// in\n    tag_76:\n        /* \"#utility.yul\":3144:3575   */\n      pop\n      pop\n        /* \"#utility.yul\":3129:3575   */\n    tag_72:\n        /* \"#utility.yul\":3039:3582   */\n      pop\n      pop\n      pop\n      jump\t// out\n        /* \"#utility.yul\":3588:3705   */\n    tag_30:\n        /* \"#utility.yul\":3642:3650   */\n      0x00\n        /* \"#utility.yul\":3692:3697   */\n      dup3\n        /* \"#utility.yul\":3686:3690   */\n      dup3\n        /* \"#utility.yul\":3682:3698   */\n      shr\n        /* \"#utility.yul\":3661:3698   */\n      swap1\n      pop\n        /* \"#utility.yul\":3588:3705   */\n      swap3\n      swap2\n      pop\n      pop\n      jump\t// out\n        /* \"#utility.yul\":3711:3880   */\n    tag_31:\n        /* \"#utility.yul\":3755:3761   */\n      0x00\n        /* \"#utility.yul\":3788:3839   */\n      tag_80\n        /* \"#utility.yul\":3836:3837   */\n      0x00\n        /* \"#utility.yul\":3832:3838   */\n      not\n        /* \"#utility.yul\":3824:3829   */\n      dup5\n        /* \"#utility.yul\":3821:3822   */\n      0x08\n        /* \"#utility.yul\":3817:3830   */\n      mul\n        /* \"#utility.yul\":3788:3839   */\n      tag_30\n      jump\t// in\n    tag_80:\n        /* \"#utility.yul\":3784:3840   */\n      not\n        /* \"#utility.yul\":3869:3873   */\n      dup1\n        /* \"#utility.yul\":3863:3867   */\n      dup4\n        /* \"#utility.yul\":3859:3874   */\n      and\n        /* \"#utility.yul\":3849:3874   */\n      swap2\n      pop\n        /* \"#utility.yul\":3762:3880   */\n      pop\n        /* \"#utility.yul\":3711:3880   */\n      swap3\n      swap2\n      pop\n      pop\n      jump\t// out\n        /* \"#utility.yul\":3885:4180   */\n    tag_32:\n        /* \"#utility.yul\":3961:3965   */\n      0x00\n        /* \"#utility.yul\":4107:4136   */\n      tag_82\n        /* \"#utility.yul\":4132:4135   */\n      dup4\n        /* \"#utility.yul\":4126:4130   */\n      dup4\n        /* \"#utility.yul\":4107:4136   */\n      tag_31\n      jump\t// in\n    tag_82:\n        /* \"#utility.yul\":4099:4136   */\n      swap2\n      pop\n        /* \"#utility.yul\":4169:4172   */\n      dup3\n        /* \"#utility.yul\":4166:4167   */\n      0x02\n        /* \"#utility.yul\":4162:4173   */\n      mul\n        /* \"#utility.yul\":4156:4160   */\n      dup3\n        /* \"#utility.yul\":4153:4174   */\n      or\n        /* \"#utility.yul\":4145:4174   */\n      swap1\n      pop\n        /* \"#utility.yul\":3885:4180   */\n      swap3\n      swap2\n      pop\n      pop\n      jump\t// out\n        /* \"#utility.yul\":4185:5580   */\n    tag_10:\n        /* \"#utility.yul\":4302:4339   */\n      tag_84\n        /* \"#utility.yul\":4335:4338   */\n      dup3\n        /* \"#utility.yul\":4302:4339   */\n      tag_14\n      jump\t// in\n    tag_84:\n        /* \"#utility.yul\":4404:4422   */\n      0xffffffffffffffff\n        /* \"#utility.yul\":4396:4402   */\n      dup2\n        /* \"#utility.yul\":4393:4423   */\n      gt\n        /* \"#utility.yul\":4390:4446   */\n      iszero\n      tag_85\n      jumpi\n        /* \"#utility.yul\":4426:4444   */\n      tag_86\n      tag_15\n      jump\t// in\n    tag_86:\n        /* \"#utility.yul\":4390:4446   */\n    tag_85:\n        /* \"#utility.yul\":4470:4508   */\n      tag_87\n        /* \"#utility.yul\":4502:4506   */\n      dup3\n        /* \"#utility.yul\":4496:4507   */\n      sload\n        /* \"#utility.yul\":4470:4508   */\n      tag_17\n      jump\t// in\n    tag_87:\n        /* \"#utility.yul\":4555:4622   */\n      tag_88\n        /* \"#utility.yul\":4615:4621   */\n      dup3\n        /* \"#utility.yul\":4607:4613   */\n      dup3\n        /* \"#utility.yul\":4601:4605   */\n      dup6\n        /* \"#utility.yul\":4555:4622   */\n      tag_29\n      jump\t// in\n    tag_88:\n        /* \"#utility.yul\":4649:4650   */\n      0x00\n        /* \"#utility.yul\":4673:4677   */\n      0x20\n        /* \"#utility.yul\":4660:4677   */\n      swap1\n      pop\n        /* \"#utility.yul\":4705:4707   */\n      0x1f\n        /* \"#utility.yul\":4697:4703   */\n      dup4\n        /* \"#utility.yul\":4694:4708   */\n      gt\n        /* \"#utility.yul\":4722:4723   */\n      0x01\n        /* \"#utility.yul\":4717:5335   */\n      dup2\n      eq\n      tag_90\n      jumpi\n        /* \"#utility.yul\":5379:5380   */\n      0x00\n        /* \"#utility.yul\":5396:5402   */\n      dup5\n        /* \"#utility.yul\":5393:5470   */\n      iszero\n      tag_91\n      jumpi\n        /* \"#utility.yul\":5445:5454   */\n      dup3\n        /* \"#utility.yul\":5440:5443   */\n      dup8\n        /* \"#utility.yul\":5436:5455   */\n      add\n        /* \"#utility.yul\":5430:5456   */\n      mload\n        /* \"#utility.yul\":5421:5456   */\n      swap1\n      pop\n        /* \"#utility.yul\":5393:5470   */\n    tag_91:\n        /* \"#utility.yul\":5496:5563   */\n      tag_92\n        /* \"#utility.yul\":5556:5562   */\n      dup6\n        /* \"#utility.yul\":5549:5554   */\n      dup3\n        /* \"#utility.yul\":5496:5563   */\n      tag_32\n      jump\t// in\n    tag_92:\n        /* \"#utility.yul\":5490:5494   */\n      dup7\n        /* \"#utility.yul\":5483:5564   */\n      sstore\n        /* \"#utility.yul\":5352:5574   */\n      pop\n        /* \"#utility.yul\":4687:5574   */\n      jump(tag_89)\n        /* \"#utility.yul\":4717:5335   */\n    tag_90:\n        /* \"#utility.yul\":4769:4773   */\n      0x1f\n        /* \"#utility.yul\":4765:4774   */\n      not\n        /* \"#utility.yul\":4757:4763   */\n      dup5\n        /* \"#utility.yul\":4753:4775   */\n      and\n        /* \"#utility.yul\":4803:4840   */\n      tag_93\n        /* \"#utility.yul\":4835:4839   */\n      dup7\n        /* \"#utility.yul\":4803:4840   */\n      tag_18\n      jump\t// in\n    tag_93:\n        /* \"#utility.yul\":4862:4863   */\n      0x00\n        /* \"#utility.yul\":4876:5084   */\n    tag_94:\n        /* \"#utility.yul\":4890:4897   */\n      dup3\n        /* \"#utility.yul\":4887:4888   */\n      dup2\n        /* \"#utility.yul\":4884:4898   */\n      lt\n        /* \"#utility.yul\":4876:5084   */\n      iszero\n      tag_96\n      jumpi\n        /* \"#utility.yul\":4969:4978   */\n      dup5\n        /* \"#utility.yul\":4964:4967   */\n      dup10\n        /* \"#utility.yul\":4960:4979   */\n      add\n        /* \"#utility.yul\":4954:4980   */\n      mload\n        /* \"#utility.yul\":4946:4952   */\n      dup3\n        /* \"#utility.yul\":4939:4981   */\n      sstore\n        /* \"#utility.yul\":5020:5021   */\n      0x01\n        /* \"#utility.yul\":5012:5018   */\n      dup3\n        /* \"#utility.yul\":5008:5022   */\n      add\n        /* \"#utility.yul\":4998:5022   */\n      swap2\n      pop\n        /* \"#utility.yul\":5067:5069   */\n      0x20\n        /* \"#utility.yul\":5056:5065   */\n      dup6\n        /* \"#utility.yul\":5052:5070   */\n      add\n        /* \"#utility.yul\":5039:5070   */\n      swap5\n      pop\n        /* \"#utility.yul\":4913:4917   */\n      0x20\n        /* \"#utility.yul\":4910:4911   */\n      dup2\n        /* \"#utility.yul\":4906:4918   */\n      add\n        /* \"#utility.yul\":4901:4918   */\n      swap1\n      pop\n        /* \"#utility.yul\":4876:5084   */\n      jump(tag_94)\n    tag_96:\n        /* \"#utility.yul\":5112:5118   */\n      dup7\n        /* \"#utility.yul\":5103:5110   */\n      dup4\n        /* \"#utility.yul\":5100:5119   */\n      lt\n        /* \"#utility.yul\":5097:5276   */\n      iszero\n      tag_97\n      jumpi\n        /* \"#utility.yul\":5170:5179   */\n      dup5\n        /* \"#utility.yul\":5165:5168   */\n      dup10\n        /* \"#utility.yul\":5161:5180   */\n      add\n        /* \"#utility.yul\":5155:5181   */\n      mload\n        /* \"#utility.yul\":5213:5261   */\n      tag_98\n        /* \"#utility.yul\":5255:5259   */\n      0x1f\n        /* \"#utility.yul\":5247:5253   */\n      dup10\n        /* \"#utility.yul\":5243:5260   */\n      and\n        /* \"#utility.yul\":5232:5241   */\n      dup3\n        /* \"#utility.yul\":5213:5261   */\n      tag_31\n      jump\t// in\n    tag_98:\n        /* \"#utility.yul\":5205:5211   */\n      dup4\n        /* \"#utility.yul\":5198:5262   */\n      sstore\n        /* \"#utility.yul\":5120:5276   */\n      pop\n        /* \"#utility.yul\":5097:5276   */\n    tag_97:\n        /* \"#utility.yul\":5322:5323   */\n      0x01\n        /* \"#utility.yul\":5318:5319   */\n      0x02\n        /* \"#utility.yul\":5310:5316   */\n      dup9\n        /* \"#utility.yul\":5306:5320   */\n      mul\n        /* \"#utility.yul\":5302:5324   */\n      add\n        /* \"#utility.yul\":5296:5300   */\n      dup9\n        /* \"#utility.yul\":5289:5325   */\n      sstore\n        /* \"#utility.yul\":4724:5335   */\n      pop\n      pop\n      pop\n        /* \"#utility.yul\":4687:5574   */\n    tag_89:\n      pop\n        /* \"#utility.yul\":4277:5580   */\n      pop\n      pop\n      pop\n        /* \"#utility.yul\":4185:5580   */\n      pop\n      pop\n      jump\t// out\n\n    auxdata: 0xa2646970667358221220d6990e4f7d18a31b7842fda52a0572b38684f4d70990089e313c7c67137f279f64736f6c63430008170033\n}\n",
				"bytecode": {
					"linkReferences": {},
					"object": "608060405234801561000f575f80fd5b506105268061001d5f395ff3fe608060405234801561000f575f80fd5b5060043610610029575f3560e01c8063335d00c21461002d575b5f80fd5b61003561004b565b60405161004291906101d7565b60405180910390f35b5f6040518060400160405280607b81526020016040518060400160405280600381526020017f62617200000000000000000000000000000000000000000000000000000000008152508152505f803373ffffffffffffffffffffffffffffffffffffffff1673ffffffffffffffffffffffffffffffffffffffff1681526020019081526020015f205f820151815f015560208201518160010190816100f09190610421565b509050505f805f3373ffffffffffffffffffffffffffffffffffffffff1673ffffffffffffffffffffffffffffffffffffffff1681526020019081526020015f2090506040518060400160405280600381526020017f666f6f00000000000000000000000000000000000000000000000000000000008152508160010190816101799190610421565b505f803373ffffffffffffffffffffffffffffffffffffffff1673ffffffffffffffffffffffffffffffffffffffff1681526020019081526020015f205f015491505090565b5f819050919050565b6101d1816101bf565b82525050565b5f6020820190506101ea5f8301846101c8565b92915050565b5f81519050919050565b7f4e487b71000000000000000000000000000000000000000000000000000000005f52604160045260245ffd5b7f4e487b71000000000000000000000000000000000000000000000000000000005f52602260045260245ffd5b5f600282049050600182168061026b57607f821691505b60208210810361027e5761027d610227565b5b50919050565b5f819050815f5260205f209050919050565b5f6020601f8301049050919050565b5f82821b905092915050565b5f600883026102e07fffffffffffffffffffffffffffffffffffffffffffffffffffffffffffffffff826102a5565b6102ea86836102a5565b95508019841693508086168417925050509392505050565b5f819050919050565b5f61032561032061031b846101bf565b610302565b6101bf565b9050919050565b5f819050919050565b61033e8361030b565b61035261034a8261032c565b8484546102b1565b825550505050565b5f90565b61036661035a565b610371818484610335565b505050565b5b81811015610394576103895f8261035e565b600181019050610377565b5050565b601f8211156103d9576103aa81610284565b6103b384610296565b810160208510156103c2578190505b6103d66103ce85610296565b830182610376565b50505b505050565b5f82821c905092915050565b5f6103f95f19846008026103de565b1980831691505092915050565b5f61041183836103ea565b9150826002028217905092915050565b61042a826101f0565b67ffffffffffffffff811115610443576104426101fa565b5b61044d8254610254565b610458828285610398565b5f60209050601f831160018114610489575f8415610477578287015190505b6104818582610406565b8655506104e8565b601f19841661049786610284565b5f5b828110156104be57848901518255600182019150602085019450602081019050610499565b868310156104db57848901516104d7601f8916826103ea565b8355505b6001600288020188555050505b50505050505056fea2646970667358221220d6990e4f7d18a31b7842fda52a0572b38684f4d70990089e313c7c67137f279f64736f6c63430008170033",
					"opcodes": "PUSH1 0x80 PUSH1 0x40 MSTORE CALLVALUE DUP1 ISZERO PUSH2 0xF JUMPI PUSH0 DUP1 REVERT JUMPDEST POP PUSH2 0x526 DUP1 PUSH2 0x1D PUSH0 CODECOPY PUSH0 RETURN INVALID PUSH1 0x80 PUSH1 0x40 MSTORE CALLVALUE DUP1 ISZERO PUSH2 0xF JUMPI PUSH0 DUP1 REVERT JUMPDEST POP PUSH1 0x4 CALLDATASIZE LT PUSH2 0x29 JUMPI PUSH0 CALLDATALOAD PUSH1 0xE0 SHR DUP1 PUSH4 0x335D00C2 EQ PUSH2 0x2D JUMPI JUMPDEST PUSH0 DUP1 REVERT JUMPDEST PUSH2 0x35 PUSH2 0x4B JUMP JUMPDEST PUSH1 0x40 MLOAD PUSH2 0x42 SWAP2 SWAP1 PUSH2 0x1D7 JUMP JUMPDEST PUSH1 0x40 MLOAD DUP1 SWAP2 SUB SWAP1 RETURN JUMPDEST PUSH0 PUSH1 0x40 MLOAD DUP1 PUSH1 0x40 ADD PUSH1 0x40 MSTORE DUP1 PUSH1 0x7B DUP2 MSTORE PUSH1 0x20 ADD PUSH1 0x40 MLOAD DUP1 PUSH1 0x40 ADD PUSH1 0x40 MSTORE DUP1 PUSH1 0x3 DUP2 MSTORE PUSH1 0x20 ADD PUSH32 0x6261720000000000000000000000000000000000000000000000000000000000 DUP2 MSTORE POP DUP2 MSTORE POP PUSH0 DUP1 CALLER PUSH20 0xFFFFFFFFFFFFFFFFFFFFFFFFFFFFFFFFFFFFFFFF AND PUSH20 0xFFFFFFFFFFFFFFFFFFFFFFFFFFFFFFFFFFFFFFFF AND DUP2 MSTORE PUSH1 0x20 ADD SWAP1 DUP2 MSTORE PUSH1 0x20 ADD PUSH0 KECCAK256 PUSH0 DUP3 ADD MLOAD DUP2 PUSH0 ADD SSTORE PUSH1 0x20 DUP3 ADD MLOAD DUP2 PUSH1 0x1 ADD SWAP1 DUP2 PUSH2 0xF0 SWAP2 SWAP1 PUSH2 0x421 JUMP JUMPDEST POP SWAP1 POP POP PUSH0 DUP1 PUSH0 CALLER PUSH20 0xFFFFFFFFFFFFFFFFFFFFFFFFFFFFFFFFFFFFFFFF AND PUSH20 0xFFFFFFFFFFFFFFFFFFFFFFFFFFFFFFFFFFFFFFFF AND DUP2 MSTORE PUSH1 0x20 ADD SWAP1 DUP2 MSTORE PUSH1 0x20 ADD PUSH0 KECCAK256 SWAP1 POP PUSH1 0x40 MLOAD DUP1 PUSH1 0x40 ADD PUSH1 0x40 MSTORE DUP1 PUSH1 0x3 DUP2 MSTORE PUSH1 0x20 ADD PUSH32 0x666F6F0000000000000000000000000000000000000000000000000000000000 DUP2 MSTORE POP DUP2 PUSH1 0x1 ADD SWAP1 DUP2 PUSH2 0x179 SWAP2 SWAP1 PUSH2 0x421 JUMP JUMPDEST POP PUSH0 DUP1 CALLER PUSH20 0xFFFFFFFFFFFFFFFFFFFFFFFFFFFFFFFFFFFFFFFF AND PUSH20 0xFFFFFFFFFFFFFFFFFFFFFFFFFFFFFFFFFFFFFFFF AND DUP2 MSTORE PUSH1 0x20 ADD SWAP1 DUP2 MSTORE PUSH1 0x20 ADD PUSH0 KECCAK256 PUSH0 ADD SLOAD SWAP2 POP POP SWAP1 JUMP JUMPDEST PUSH0 DUP2 SWAP1 POP SWAP2 SWAP1 POP JUMP JUMPDEST PUSH2 0x1D1 DUP2 PUSH2 0x1BF JUMP JUMPDEST DUP3 MSTORE POP POP JUMP JUMPDEST PUSH0 PUSH1 0x20 DUP3 ADD SWAP1 POP PUSH2 0x1EA PUSH0 DUP4 ADD DUP5 PUSH2 0x1C8 JUMP JUMPDEST SWAP3 SWAP2 POP POP JUMP JUMPDEST PUSH0 DUP2 MLOAD SWAP1 POP SWAP2 SWAP1 POP JUMP JUMPDEST PUSH32 0x4E487B7100000000000000000000000000000000000000000000000000000000 PUSH0 MSTORE PUSH1 0x41 PUSH1 0x4 MSTORE PUSH1 0x24 PUSH0 REVERT JUMPDEST PUSH32 0x4E487B7100000000000000000000000000000000000000000000000000000000 PUSH0 MSTORE PUSH1 0x22 PUSH1 0x4 MSTORE PUSH1 0x24 PUSH0 REVERT JUMPDEST PUSH0 PUSH1 0x2 DUP3 DIV SWAP1 POP PUSH1 0x1 DUP3 AND DUP1 PUSH2 0x26B JUMPI PUSH1 0x7F DUP3 AND SWAP2 POP JUMPDEST PUSH1 0x20 DUP3 LT DUP2 SUB PUSH2 0x27E JUMPI PUSH2 0x27D PUSH2 0x227 JUMP JUMPDEST JUMPDEST POP SWAP2 SWAP1 POP JUMP JUMPDEST PUSH0 DUP2 SWAP1 POP DUP2 PUSH0 MSTORE PUSH1 0x20 PUSH0 KECCAK256 SWAP1 POP SWAP2 SWAP1 POP JUMP JUMPDEST PUSH0 PUSH1 0x20 PUSH1 0x1F DUP4 ADD DIV SWAP1 POP SWAP2 SWAP1 POP JUMP JUMPDEST PUSH0 DUP3 DUP3 SHL SWAP1 POP SWAP3 SWAP2 POP POP JUMP JUMPDEST PUSH0 PUSH1 0x8 DUP4 MUL PUSH2 0x2E0 PUSH32 0xFFFFFFFFFFFFFFFFFFFFFFFFFFFFFFFFFFFFFFFFFFFFFFFFFFFFFFFFFFFFFFFF DUP3 PUSH2 0x2A5 JUMP JUMPDEST PUSH2 0x2EA DUP7 DUP4 PUSH2 0x2A5 JUMP JUMPDEST SWAP6 POP DUP1 NOT DUP5 AND SWAP4 POP DUP1 DUP7 AND DUP5 OR SWAP3 POP POP POP SWAP4 SWAP3 POP POP POP JUMP JUMPDEST PUSH0 DUP2 SWAP1 POP SWAP2 SWAP1 POP JUMP JUMPDEST PUSH0 PUSH2 0x325 PUSH2 0x320 PUSH2 0x31B DUP5 PUSH2 0x1BF JUMP JUMPDEST PUSH2 0x302 JUMP JUMPDEST PUSH2 0x1BF JUMP JUMPDEST SWAP1 POP SWAP2 SWAP1 POP JUMP JUMPDEST PUSH0 DUP2 SWAP1 POP SWAP2 SWAP1 POP JUMP JUMPDEST PUSH2 0x33E DUP4 PUSH2 0x30B JUMP JUMPDEST PUSH2 0x352 PUSH2 0x34A DUP3 PUSH2 0x32C JUMP JUMPDEST DUP5 DUP5 SLOAD PUSH2 0x2B1 JUMP JUMPDEST DUP3 SSTORE POP POP POP POP JUMP JUMPDEST PUSH0 SWAP1 JUMP JUMPDEST PUSH2 0x366 PUSH2 0x35A JUMP JUMPDEST PUSH2 0x371 DUP2 DUP5 DUP5 PUSH2 0x335 JUMP JUMPDEST POP POP POP JUMP JUMPDEST JUMPDEST DUP2 DUP2 LT ISZERO PUSH2 0x394 JUMPI PUSH2 0x389 PUSH0 DUP3 PUSH2 0x35E JUMP JUMPDEST PUSH1 0x1 DUP2 ADD SWAP1 POP PUSH2 0x377 JUMP JUMPDEST POP POP JUMP JUMPDEST PUSH1 0x1F DUP3 GT ISZERO PUSH2 0x3D9 JUMPI PUSH2 0x3AA DUP2 PUSH2 0x284 JUMP JUMPDEST PUSH2 0x3B3 DUP5 PUSH2 0x296 JUMP JUMPDEST DUP2 ADD PUSH1 0x20 DUP6 LT ISZERO PUSH2 0x3C2 JUMPI DUP2 SWAP1 POP JUMPDEST PUSH2 0x3D6 PUSH2 0x3CE DUP6 PUSH2 0x296 JUMP JUMPDEST DUP4 ADD DUP3 PUSH2 0x376 JUMP JUMPDEST POP POP JUMPDEST POP POP POP JUMP JUMPDEST PUSH0 DUP3 DUP3 SHR SWAP1 POP SWAP3 SWAP2 POP POP JUMP JUMPDEST PUSH0 PUSH2 0x3F9 PUSH0 NOT DUP5 PUSH1 0x8 MUL PUSH2 0x3DE JUMP JUMPDEST NOT DUP1 DUP4 AND SWAP2 POP POP SWAP3 SWAP2 POP POP JUMP JUMPDEST PUSH0 PUSH2 0x411 DUP4 DUP4 PUSH2 0x3EA JUMP JUMPDEST SWAP2 POP DUP3 PUSH1 0x2 MUL DUP3 OR SWAP1 POP SWAP3 SWAP2 POP POP JUMP JUMPDEST PUSH2 0x42A DUP3 PUSH2 0x1F0 JUMP JUMPDEST PUSH8 0xFFFFFFFFFFFFFFFF DUP2 GT ISZERO PUSH2 0x443 JUMPI PUSH2 0x442 PUSH2 0x1FA JUMP JUMPDEST JUMPDEST PUSH2 0x44D DUP3 SLOAD PUSH2 0x254 JUMP JUMPDEST PUSH2 0x458 DUP3 DUP3 DUP6 PUSH2 0x398 JUMP JUMPDEST PUSH0 PUSH1 0x20 SWAP1 POP PUSH1 0x1F DUP4 GT PUSH1 0x1 DUP2 EQ PUSH2 0x489 JUMPI PUSH0 DUP5 ISZERO PUSH2 0x477 JUMPI DUP3 DUP8 ADD MLOAD SWAP1 POP JUMPDEST PUSH2 0x481 DUP6 DUP3 PUSH2 0x406 JUMP JUMPDEST DUP7 SSTORE POP PUSH2 0x4E8 JUMP JUMPDEST PUSH1 0x1F NOT DUP5 AND PUSH2 0x497 DUP7 PUSH2 0x284 JUMP JUMPDEST PUSH0 JUMPDEST DUP3 DUP2 LT ISZERO PUSH2 0x4BE JUMPI DUP5 DUP10 ADD MLOAD DUP3 SSTORE PUSH1 0x1 DUP3 ADD SWAP2 POP PUSH1 0x20 DUP6 ADD SWAP5 POP PUSH1 0x20 DUP2 ADD SWAP1 POP PUSH2 0x499 JUMP JUMPDEST DUP7 DUP4 LT ISZERO PUSH2 0x4DB JUMPI DUP5 DUP10 ADD MLOAD PUSH2 0x4D7 PUSH1 0x1F DUP10 AND DUP3 PUSH2 0x3EA JUMP JUMPDEST DUP4 SSTORE POP JUMPDEST PUSH1 0x1 PUSH1 0x2 DUP9 MUL ADD DUP9 SSTORE POP POP POP JUMPDEST POP POP POP POP POP POP JUMP INVALID LOG2 PUSH5 0x6970667358 0x22 SLT KECCAK256 0xD6 SWAP10 0xE 0x4F PUSH30 0x18A31B7842FDA52A0572B38684F4D70990089E313C7C67137F279F64736F PUSH13 0x63430008170033000000000000 "
				},
				"gasEstimates": {
					"creation": {
						"codeDepositCost": "263600",
						"executionCost": "304",
						"totalCost": "263904"
					},
					"external": {
						"examples()": "infinite"
					}
				},
				"methodIdentifiers": {
					"examples()": "335d00c2"
				}
			},
			"storageLayout": {
				"storage": [
					{
						"astId": 11,
						"contract": "contracts/review/DataLocations.sol:DataLoactions",
						"label": "myStructs",
						"offset": 0,
						"slot": "0",
						"type": "t_mapping(t_address,t_struct(MyStruct)6_storage)"
					}
				],
				"types": {
					"t_address": {
						"encoding": "inplace",
						"label": "address",
						"numberOfBytes": "20"
					},
					"t_mapping(t_address,t_struct(MyStruct)6_storage)": {
						"encoding": "mapping",
						"key": "t_address",
						"label": "mapping(address => struct DataLoactions.MyStruct)",
						"numberOfBytes": "32",
						"value": "t_struct(MyStruct)6_storage"
					},
					"t_string_storage": {
						"encoding": "bytes",
						"label": "string",
						"numberOfBytes": "32"
					},
					"t_struct(MyStruct)6_storage": {
						"encoding": "inplace",
						"label": "struct DataLoactions.MyStruct",
						"members": [
							{
								"astId": 3,
								"contract": "contracts/review/DataLocations.sol:DataLoactions",
								"label": "foo",
								"offset": 0,
								"slot": "0",
								"type": "t_uint256"
							},
							{
								"astId": 5,
								"contract": "contracts/review/DataLocations.sol:DataLoactions",
								"label": "text",
								"offset": 0,
								"slot": "1",
								"type": "t_string_storage"
							}
						],
						"numberOfBytes": "64"
					},
					"t_uint256": {
						"encoding": "inplace",
						"label": "uint256",
						"numberOfBytes": "32"
					}
				}
			},
			"userdoc": {
				"kind": "user",
				"methods": {},
				"version": 1
			}
		}
	}
}