{
	"contracts/0607/Visbility.sol": {
		"Base": {
			"abi": [
				{
					"inputs": [],
					"name": "examples",
					"outputs": [],
					"stateMutability": "view",
					"type": "function"
				},
				{
					"inputs": [],
					"name": "exterFun",
					"outputs": [
						{
							"internalType": "uint256",
							"name": "",
							"type": "uint256"
						}
					],
					"stateMutability": "pure",
					"type": "function"
				},
				{
					"inputs": [],
					"name": "pubFun",
					"outputs": [
						{
							"internalType": "uint256",
							"name": "",
							"type": "uint256"
						}
					],
					"stateMutability": "pure",
					"type": "function"
				},
				{
					"inputs": [],
					"name": "y",
					"outputs": [
						{
							"internalType": "uint256",
							"name": "",
							"type": "uint256"
						}
					],
					"stateMutability": "view",
					"type": "function"
				}
			],
			"devdoc": {
				"kind": "dev",
				"methods": {},
				"version": 1
			},
			"evm": {
				"assembly": "    /* \"contracts/0607/Visbility.sol\":513:1150  contract Base {... */\n  mstore(0x40, 0x80)\n    /* \"contracts/0607/Visbility.sol\":550:551  1 */\n  0x01\n    /* \"contracts/0607/Visbility.sol\":533:551  uint private x = 1 */\n  0x00\n  sstore\n    /* \"contracts/0607/Visbility.sol\":573:574  2 */\n  0x02\n    /* \"contracts/0607/Visbility.sol\":557:574  uint public y = 2 */\n  0x01\n  sstore\n    /* \"contracts/0607/Visbility.sol\":598:599  3 */\n  0x03\n    /* \"contracts/0607/Visbility.sol\":580:599  uint internal z = 3 */\n  0x02\n  sstore\n    /* \"contracts/0607/Visbility.sol\":513:1150  contract Base {... */\n  callvalue\n  dup1\n  iszero\n  tag_1\n  jumpi\n  0x00\n  dup1\n  revert\ntag_1:\n  pop\n  dataSize(sub_0)\n  dup1\n  dataOffset(sub_0)\n  0x00\n  codecopy\n  0x00\n  return\nstop\n\nsub_0: assembly {\n        /* \"contracts/0607/Visbility.sol\":513:1150  contract Base {... */\n      mstore(0x40, 0x80)\n      callvalue\n      dup1\n      iszero\n      tag_1\n      jumpi\n      0x00\n      dup1\n      revert\n    tag_1:\n      pop\n      jumpi(tag_2, lt(calldatasize, 0x04))\n      shr(0xe0, calldataload(0x00))\n      dup1\n      0x2e6e8319\n      eq\n      tag_3\n      jumpi\n      dup1\n      0x335d00c2\n      eq\n      tag_4\n      jumpi\n      dup1\n      0xa56dfe4a\n      eq\n      tag_5\n      jumpi\n      dup1\n      0xeffc6851\n      eq\n      tag_6\n      jumpi\n    tag_2:\n      0x00\n      dup1\n      revert\n        /* \"contracts/0607/Visbility.sol\":843:919  function exterFun() external pure returns (uint) {... */\n    tag_3:\n      tag_7\n      tag_8\n      jump\t// in\n    tag_7:\n      mload(0x40)\n      tag_9\n      swap2\n      swap1\n      tag_10\n      jump\t// in\n    tag_9:\n      mload(0x40)\n      dup1\n      swap2\n      sub\n      swap1\n      return\n        /* \"contracts/0607/Visbility.sol\":925:1148  function examples() external view {... */\n    tag_4:\n      tag_11\n      tag_12\n      jump\t// in\n    tag_11:\n      stop\n        /* \"contracts/0607/Visbility.sol\":557:574  uint public y = 2 */\n    tag_5:\n      tag_13\n      tag_14\n      jump\t// in\n    tag_13:\n      mload(0x40)\n      tag_15\n      swap2\n      swap1\n      tag_10\n      jump\t// in\n    tag_15:\n      mload(0x40)\n      dup1\n      swap2\n      sub\n      swap1\n      return\n        /* \"contracts/0607/Visbility.sol\":685:757  function pubFun() public pure returns (uint) {... */\n    tag_6:\n      tag_16\n      tag_17\n      jump\t// in\n    tag_16:\n      mload(0x40)\n      tag_18\n      swap2\n      swap1\n      tag_10\n      jump\t// in\n    tag_18:\n      mload(0x40)\n      dup1\n      swap2\n      sub\n      swap1\n      return\n        /* \"contracts/0607/Visbility.sol\":843:919  function exterFun() external pure returns (uint) {... */\n    tag_8:\n        /* \"contracts/0607/Visbility.sol\":886:890  uint */\n      0x00\n        /* \"contracts/0607/Visbility.sol\":909:912  400 */\n      0x0190\n        /* \"contracts/0607/Visbility.sol\":902:912  return 400 */\n      swap1\n      pop\n        /* \"contracts/0607/Visbility.sol\":843:919  function exterFun() external pure returns (uint) {... */\n      swap1\n      jump\t// out\n        /* \"contracts/0607/Visbility.sol\":925:1148  function examples() external view {... */\n    tag_12:\n        /* \"contracts/0607/Visbility.sol\":1018:1019  x */\n      sload(0x00)\n        /* \"contracts/0607/Visbility.sol\":1014:1015  y */\n      sload(0x01)\n        /* \"contracts/0607/Visbility.sol\":1010:1011  x */\n      sload(0x00)\n        /* \"contracts/0607/Visbility.sol\":1010:1015  x + y */\n      tag_21\n      swap2\n      swap1\n      tag_22\n      jump\t// in\n    tag_21:\n        /* \"contracts/0607/Visbility.sol\":1010:1019  x + y + x */\n      tag_23\n      swap2\n      swap1\n      tag_22\n      jump\t// in\n    tag_23:\n      pop\n        /* \"contracts/0607/Visbility.sol\":1029:1038  privFun() */\n      tag_24\n        /* \"contracts/0607/Visbility.sol\":1029:1036  privFun */\n      tag_25\n        /* \"contracts/0607/Visbility.sol\":1029:1038  privFun() */\n      jump\t// in\n    tag_24:\n      pop\n        /* \"contracts/0607/Visbility.sol\":1048:1056  pubFun() */\n      tag_26\n        /* \"contracts/0607/Visbility.sol\":1048:1054  pubFun */\n      tag_17\n        /* \"contracts/0607/Visbility.sol\":1048:1056  pubFun() */\n      jump\t// in\n    tag_26:\n      pop\n        /* \"contracts/0607/Visbility.sol\":1066:1076  interFun() */\n      tag_27\n        /* \"contracts/0607/Visbility.sol\":1066:1074  interFun */\n      tag_28\n        /* \"contracts/0607/Visbility.sol\":1066:1076  interFun() */\n      jump\t// in\n    tag_27:\n      pop\n        /* \"contracts/0607/Visbility.sol\":925:1148  function examples() external view {... */\n      jump\t// out\n        /* \"contracts/0607/Visbility.sol\":557:574  uint public y = 2 */\n    tag_14:\n      sload(0x01)\n      dup2\n      jump\t// out\n        /* \"contracts/0607/Visbility.sol\":685:757  function pubFun() public pure returns (uint) {... */\n    tag_17:\n        /* \"contracts/0607/Visbility.sol\":724:728  uint */\n      0x00\n        /* \"contracts/0607/Visbility.sol\":747:750  200 */\n      0xc8\n        /* \"contracts/0607/Visbility.sol\":740:750  return 200 */\n      swap1\n      pop\n        /* \"contracts/0607/Visbility.sol\":685:757  function pubFun() public pure returns (uint) {... */\n      swap1\n      jump\t// out\n        /* \"contracts/0607/Visbility.sol\":606:680  function privFun() private pure returns (uint) {... */\n    tag_25:\n        /* \"contracts/0607/Visbility.sol\":647:651  uint */\n      0x00\n        /* \"contracts/0607/Visbility.sol\":670:673  100 */\n      0x64\n        /* \"contracts/0607/Visbility.sol\":663:673  return 100 */\n      swap1\n      pop\n        /* \"contracts/0607/Visbility.sol\":606:680  function privFun() private pure returns (uint) {... */\n      swap1\n      jump\t// out\n        /* \"contracts/0607/Visbility.sol\":762:838  function interFun() internal pure returns (uint) {... */\n    tag_28:\n        /* \"contracts/0607/Visbility.sol\":805:809  uint */\n      0x00\n        /* \"contracts/0607/Visbility.sol\":828:831  300 */\n      0x012c\n        /* \"contracts/0607/Visbility.sol\":821:831  return 300 */\n      swap1\n      pop\n        /* \"contracts/0607/Visbility.sol\":762:838  function interFun() internal pure returns (uint) {... */\n      swap1\n      jump\t// out\n        /* \"#utility.yul\":7:84   */\n    tag_32:\n        /* \"#utility.yul\":44:51   */\n      0x00\n        /* \"#utility.yul\":73:78   */\n      dup2\n        /* \"#utility.yul\":62:78   */\n      swap1\n      pop\n        /* \"#utility.yul\":7:84   */\n      swap2\n      swap1\n      pop\n      jump\t// out\n        /* \"#utility.yul\":90:208   */\n    tag_33:\n        /* \"#utility.yul\":177:201   */\n      tag_38\n        /* \"#utility.yul\":195:200   */\n      dup2\n        /* \"#utility.yul\":177:201   */\n      tag_32\n      jump\t// in\n    tag_38:\n        /* \"#utility.yul\":172:175   */\n      dup3\n        /* \"#utility.yul\":165:202   */\n      mstore\n        /* \"#utility.yul\":90:208   */\n      pop\n      pop\n      jump\t// out\n        /* \"#utility.yul\":214:436   */\n    tag_10:\n        /* \"#utility.yul\":307:311   */\n      0x00\n        /* \"#utility.yul\":345:347   */\n      0x20\n        /* \"#utility.yul\":334:343   */\n      dup3\n        /* \"#utility.yul\":330:348   */\n      add\n        /* \"#utility.yul\":322:348   */\n      swap1\n      pop\n        /* \"#utility.yul\":358:429   */\n      tag_40\n        /* \"#utility.yul\":426:427   */\n      0x00\n        /* \"#utility.yul\":415:424   */\n      dup4\n        /* \"#utility.yul\":411:428   */\n      add\n        /* \"#utility.yul\":402:408   */\n      dup5\n        /* \"#utility.yul\":358:429   */\n      tag_33\n      jump\t// in\n    tag_40:\n        /* \"#utility.yul\":214:436   */\n      swap3\n      swap2\n      pop\n      pop\n      jump\t// out\n        /* \"#utility.yul\":442:622   */\n    tag_34:\n        /* \"#utility.yul\":490:567   */\n      0x4e487b7100000000000000000000000000000000000000000000000000000000\n        /* \"#utility.yul\":487:488   */\n      0x00\n        /* \"#utility.yul\":480:568   */\n      mstore\n        /* \"#utility.yul\":587:591   */\n      0x11\n        /* \"#utility.yul\":584:585   */\n      0x04\n        /* \"#utility.yul\":577:592   */\n      mstore\n        /* \"#utility.yul\":611:615   */\n      0x24\n        /* \"#utility.yul\":608:609   */\n      0x00\n        /* \"#utility.yul\":601:616   */\n      revert\n        /* \"#utility.yul\":628:819   */\n    tag_22:\n        /* \"#utility.yul\":668:671   */\n      0x00\n        /* \"#utility.yul\":687:707   */\n      tag_43\n        /* \"#utility.yul\":705:706   */\n      dup3\n        /* \"#utility.yul\":687:707   */\n      tag_32\n      jump\t// in\n    tag_43:\n        /* \"#utility.yul\":682:707   */\n      swap2\n      pop\n        /* \"#utility.yul\":721:741   */\n      tag_44\n        /* \"#utility.yul\":739:740   */\n      dup4\n        /* \"#utility.yul\":721:741   */\n      tag_32\n      jump\t// in\n    tag_44:\n        /* \"#utility.yul\":716:741   */\n      swap3\n      pop\n        /* \"#utility.yul\":764:765   */\n      dup3\n        /* \"#utility.yul\":761:762   */\n      dup3\n        /* \"#utility.yul\":757:766   */\n      add\n        /* \"#utility.yul\":750:766   */\n      swap1\n      pop\n        /* \"#utility.yul\":785:788   */\n      dup1\n        /* \"#utility.yul\":782:783   */\n      dup3\n        /* \"#utility.yul\":779:789   */\n      gt\n        /* \"#utility.yul\":776:812   */\n      iszero\n      tag_45\n      jumpi\n        /* \"#utility.yul\":792:810   */\n      tag_46\n      tag_34\n      jump\t// in\n    tag_46:\n        /* \"#utility.yul\":776:812   */\n    tag_45:\n        /* \"#utility.yul\":628:819   */\n      swap3\n      swap2\n      pop\n      pop\n      jump\t// out\n\n    auxdata: 0xa264697066735822122077adda59d8f69f19d67c55c17d6940f7b0cb04c028d750e21c49f77ccc52279d64736f6c63430008170033\n}\n",
				"bytecode": {
					"linkReferences": {},
					"object": "608060405260015f556002600155600360025534801561001d575f80fd5b506101da8061002b5f395ff3fe608060405234801561000f575f80fd5b506004361061004a575f3560e01c80632e6e83191461004e578063335d00c21461006c578063a56dfe4a14610076578063effc685114610094575b5f80fd5b6100566100b2565b604051610063919061012b565b60405180910390f35b6100746100bb565b005b61007e6100f4565b60405161008b919061012b565b60405180910390f35b61009c6100fa565b6040516100a9919061012b565b60405180910390f35b5f610190905090565b5f546001545f546100cc9190610171565b6100d69190610171565b506100df610102565b506100e86100fa565b506100f161010a565b50565b60015481565b5f60c8905090565b5f6064905090565b5f61012c905090565b5f819050919050565b61012581610113565b82525050565b5f60208201905061013e5f83018461011c565b92915050565b7f4e487b71000000000000000000000000000000000000000000000000000000005f52601160045260245ffd5b5f61017b82610113565b915061018683610113565b925082820190508082111561019e5761019d610144565b5b9291505056fea264697066735822122077adda59d8f69f19d67c55c17d6940f7b0cb04c028d750e21c49f77ccc52279d64736f6c63430008170033",
					"opcodes": "PUSH1 0x80 PUSH1 0x40 MSTORE PUSH1 0x1 PUSH0 SSTORE PUSH1 0x2 PUSH1 0x1 SSTORE PUSH1 0x3 PUSH1 0x2 SSTORE CALLVALUE DUP1 ISZERO PUSH2 0x1D JUMPI PUSH0 DUP1 REVERT JUMPDEST POP PUSH2 0x1DA DUP1 PUSH2 0x2B PUSH0 CODECOPY PUSH0 RETURN INVALID PUSH1 0x80 PUSH1 0x40 MSTORE CALLVALUE DUP1 ISZERO PUSH2 0xF JUMPI PUSH0 DUP1 REVERT JUMPDEST POP PUSH1 0x4 CALLDATASIZE LT PUSH2 0x4A JUMPI PUSH0 CALLDATALOAD PUSH1 0xE0 SHR DUP1 PUSH4 0x2E6E8319 EQ PUSH2 0x4E JUMPI DUP1 PUSH4 0x335D00C2 EQ PUSH2 0x6C JUMPI DUP1 PUSH4 0xA56DFE4A EQ PUSH2 0x76 JUMPI DUP1 PUSH4 0xEFFC6851 EQ PUSH2 0x94 JUMPI JUMPDEST PUSH0 DUP1 REVERT JUMPDEST PUSH2 0x56 PUSH2 0xB2 JUMP JUMPDEST PUSH1 0x40 MLOAD PUSH2 0x63 SWAP2 SWAP1 PUSH2 0x12B JUMP JUMPDEST PUSH1 0x40 MLOAD DUP1 SWAP2 SUB SWAP1 RETURN JUMPDEST PUSH2 0x74 PUSH2 0xBB JUMP JUMPDEST STOP JUMPDEST PUSH2 0x7E PUSH2 0xF4 JUMP JUMPDEST PUSH1 0x40 MLOAD PUSH2 0x8B SWAP2 SWAP1 PUSH2 0x12B JUMP JUMPDEST PUSH1 0x40 MLOAD DUP1 SWAP2 SUB SWAP1 RETURN JUMPDEST PUSH2 0x9C PUSH2 0xFA JUMP JUMPDEST PUSH1 0x40 MLOAD PUSH2 0xA9 SWAP2 SWAP1 PUSH2 0x12B JUMP JUMPDEST PUSH1 0x40 MLOAD DUP1 SWAP2 SUB SWAP1 RETURN JUMPDEST PUSH0 PUSH2 0x190 SWAP1 POP SWAP1 JUMP JUMPDEST PUSH0 SLOAD PUSH1 0x1 SLOAD PUSH0 SLOAD PUSH2 0xCC SWAP2 SWAP1 PUSH2 0x171 JUMP JUMPDEST PUSH2 0xD6 SWAP2 SWAP1 PUSH2 0x171 JUMP JUMPDEST POP PUSH2 0xDF PUSH2 0x102 JUMP JUMPDEST POP PUSH2 0xE8 PUSH2 0xFA JUMP JUMPDEST POP PUSH2 0xF1 PUSH2 0x10A JUMP JUMPDEST POP JUMP JUMPDEST PUSH1 0x1 SLOAD DUP2 JUMP JUMPDEST PUSH0 PUSH1 0xC8 SWAP1 POP SWAP1 JUMP JUMPDEST PUSH0 PUSH1 0x64 SWAP1 POP SWAP1 JUMP JUMPDEST PUSH0 PUSH2 0x12C SWAP1 POP SWAP1 JUMP JUMPDEST PUSH0 DUP2 SWAP1 POP SWAP2 SWAP1 POP JUMP JUMPDEST PUSH2 0x125 DUP2 PUSH2 0x113 JUMP JUMPDEST DUP3 MSTORE POP POP JUMP JUMPDEST PUSH0 PUSH1 0x20 DUP3 ADD SWAP1 POP PUSH2 0x13E PUSH0 DUP4 ADD DUP5 PUSH2 0x11C JUMP JUMPDEST SWAP3 SWAP2 POP POP JUMP JUMPDEST PUSH32 0x4E487B7100000000000000000000000000000000000000000000000000000000 PUSH0 MSTORE PUSH1 0x11 PUSH1 0x4 MSTORE PUSH1 0x24 PUSH0 REVERT JUMPDEST PUSH0 PUSH2 0x17B DUP3 PUSH2 0x113 JUMP JUMPDEST SWAP2 POP PUSH2 0x186 DUP4 PUSH2 0x113 JUMP JUMPDEST SWAP3 POP DUP3 DUP3 ADD SWAP1 POP DUP1 DUP3 GT ISZERO PUSH2 0x19E JUMPI PUSH2 0x19D PUSH2 0x144 JUMP JUMPDEST JUMPDEST SWAP3 SWAP2 POP POP JUMP INVALID LOG2 PUSH5 0x6970667358 0x22 SLT KECCAK256 PUSH24 0xADDA59D8F69F19D67C55C17D6940F7B0CB04C028D750E21C 0x49 0xF7 PUSH29 0xCC52279D64736F6C634300081700330000000000000000000000000000 "
				},
				"gasEstimates": {
					"creation": {
						"codeDepositCost": "94800",
						"executionCost": "66456",
						"totalCost": "161256"
					},
					"external": {
						"examples()": "infinite",
						"exterFun()": "310",
						"pubFun()": "376",
						"y()": "2447"
					},
					"internal": {
						"interFun()": "22",
						"privFun()": "22"
					}
				},
				"methodIdentifiers": {
					"examples()": "335d00c2",
					"exterFun()": "2e6e8319",
					"pubFun()": "effc6851",
					"y()": "a56dfe4a"
				}
			},
			"storageLayout": {
				"storage": [
					{
						"astId": 4,
						"contract": "contracts/0607/Visbility.sol:Base",
						"label": "x",
						"offset": 0,
						"slot": "0",
						"type": "t_uint256"
					},
					{
						"astId": 7,
						"contract": "contracts/0607/Visbility.sol:Base",
						"label": "y",
						"offset": 0,
						"slot": "1",
						"type": "t_uint256"
					},
					{
						"astId": 10,
						"contract": "contracts/0607/Visbility.sol:Base",
						"label": "z",
						"offset": 0,
						"slot": "2",
						"type": "t_uint256"
					}
				],
				"types": {
					"t_uint256": {
						"encoding": "inplace",
						"label": "uint256",
						"numberOfBytes": "32"
					}
				}
			},
			"userdoc": {
				"kind": "user",
				"methods": {},
				"version": 1
			}
		}
	}
}