{
	"contracts/三W金融支付/EtherWallet.sol": {
		"EtherWallet": {
			"abi": [
				{
					"inputs": [],
					"stateMutability": "nonpayable",
					"type": "constructor"
				},
				{
					"inputs": [],
					"name": "getBalance",
					"outputs": [
						{
							"internalType": "uint256",
							"name": "",
							"type": "uint256"
						}
					],
					"stateMutability": "view",
					"type": "function"
				},
				{
					"inputs": [],
					"name": "owner",
					"outputs": [
						{
							"internalType": "address payable",
							"name": "",
							"type": "address"
						}
					],
					"stateMutability": "view",
					"type": "function"
				},
				{
					"inputs": [
						{
							"internalType": "uint256",
							"name": "_amount",
							"type": "uint256"
						}
					],
					"name": "withdraw",
					"outputs": [],
					"stateMutability": "payable",
					"type": "function"
				},
				{
					"stateMutability": "payable",
					"type": "receive"
				}
			],
			"devdoc": {
				"kind": "dev",
				"methods": {},
				"version": 1
			},
			"evm": {
				"assembly": "    /* \"contracts/\\xe4\\xb8\\x89W\\xe9\\x87\\x91\\xe8\\x9e\\x8d\\xe6\\x94\\xaf\\xe4\\xbb\\x98/EtherWallet.sol\":57:527  contract EtherWallet {... */\n  mstore(0x40, 0x80)\n    /* \"contracts/\\xe4\\xb8\\x89W\\xe9\\x87\\x91\\xe8\\x9e\\x8d\\xe6\\x94\\xaf\\xe4\\xbb\\x98/EtherWallet.sol\":119:177  constructor() {... */\n  callvalue\n  dup1\n  iszero\n  tag_1\n  jumpi\n  0x00\n  dup1\n  revert\ntag_1:\n  pop\n    /* \"contracts/\\xe4\\xb8\\x89W\\xe9\\x87\\x91\\xe8\\x9e\\x8d\\xe6\\x94\\xaf\\xe4\\xbb\\x98/EtherWallet.sol\":159:169  msg.sender */\n  caller\n    /* \"contracts/\\xe4\\xb8\\x89W\\xe9\\x87\\x91\\xe8\\x9e\\x8d\\xe6\\x94\\xaf\\xe4\\xbb\\x98/EtherWallet.sol\":143:148  owner */\n  0x00\n  dup1\n    /* \"contracts/\\xe4\\xb8\\x89W\\xe9\\x87\\x91\\xe8\\x9e\\x8d\\xe6\\x94\\xaf\\xe4\\xbb\\x98/EtherWallet.sol\":143:170  owner = payable(msg.sender) */\n  0x0100\n  exp\n  dup2\n  sload\n  dup2\n  0xffffffffffffffffffffffffffffffffffffffff\n  mul\n  not\n  and\n  swap1\n  dup4\n  0xffffffffffffffffffffffffffffffffffffffff\n  and\n  mul\n  or\n  swap1\n  sstore\n  pop\n    /* \"contracts/\\xe4\\xb8\\x89W\\xe9\\x87\\x91\\xe8\\x9e\\x8d\\xe6\\x94\\xaf\\xe4\\xbb\\x98/EtherWallet.sol\":57:527  contract EtherWallet {... */\n  dataSize(sub_0)\n  dup1\n  dataOffset(sub_0)\n  0x00\n  codecopy\n  0x00\n  return\nstop\n\nsub_0: assembly {\n        /* \"contracts/\\xe4\\xb8\\x89W\\xe9\\x87\\x91\\xe8\\x9e\\x8d\\xe6\\x94\\xaf\\xe4\\xbb\\x98/EtherWallet.sol\":57:527  contract EtherWallet {... */\n      mstore(0x40, 0x80)\n      jumpi(tag_1, lt(calldatasize, 0x04))\n      shr(0xe0, calldataload(0x00))\n      dup1\n      0x12065fe0\n      eq\n      tag_3\n      jumpi\n      dup1\n      0x2e1a7d4d\n      eq\n      tag_4\n      jumpi\n      dup1\n      0x8da5cb5b\n      eq\n      tag_5\n      jumpi\n      jump(tag_2)\n    tag_1:\n      jumpi(tag_2, calldatasize)\n      stop\n    tag_2:\n      0x00\n      dup1\n      revert\n        /* \"contracts/\\xe4\\xb8\\x89W\\xe9\\x87\\x91\\xe8\\x9e\\x8d\\xe6\\x94\\xaf\\xe4\\xbb\\x98/EtherWallet.sol\":429:525  function getBalance() external view returns (uint) {... */\n    tag_3:\n      callvalue\n      dup1\n      iszero\n      tag_8\n      jumpi\n      0x00\n      dup1\n      revert\n    tag_8:\n      pop\n      tag_9\n      tag_10\n      jump\t// in\n    tag_9:\n      mload(0x40)\n      tag_11\n      swap2\n      swap1\n      tag_12\n      jump\t// in\n    tag_11:\n      mload(0x40)\n      dup1\n      swap2\n      sub\n      swap1\n      return\n        /* \"contracts/\\xe4\\xb8\\x89W\\xe9\\x87\\x91\\xe8\\x9e\\x8d\\xe6\\x94\\xaf\\xe4\\xbb\\x98/EtherWallet.sol\":241:406  function withdraw(uint _amount) external payable {... */\n    tag_4:\n      tag_13\n      0x04\n      dup1\n      calldatasize\n      sub\n      dup2\n      add\n      swap1\n      tag_14\n      swap2\n      swap1\n      tag_15\n      jump\t// in\n    tag_14:\n      tag_16\n      jump\t// in\n    tag_13:\n      stop\n        /* \"contracts/\\xe4\\xb8\\x89W\\xe9\\x87\\x91\\xe8\\x9e\\x8d\\xe6\\x94\\xaf\\xe4\\xbb\\x98/EtherWallet.sol\":84:112  address payable public owner */\n    tag_5:\n      callvalue\n      dup1\n      iszero\n      tag_17\n      jumpi\n      0x00\n      dup1\n      revert\n    tag_17:\n      pop\n      tag_18\n      tag_19\n      jump\t// in\n    tag_18:\n      mload(0x40)\n      tag_20\n      swap2\n      swap1\n      tag_21\n      jump\t// in\n    tag_20:\n      mload(0x40)\n      dup1\n      swap2\n      sub\n      swap1\n      return\n        /* \"contracts/\\xe4\\xb8\\x89W\\xe9\\x87\\x91\\xe8\\x9e\\x8d\\xe6\\x94\\xaf\\xe4\\xbb\\x98/EtherWallet.sol\":429:525  function getBalance() external view returns (uint) {... */\n    tag_10:\n        /* \"contracts/\\xe4\\xb8\\x89W\\xe9\\x87\\x91\\xe8\\x9e\\x8d\\xe6\\x94\\xaf\\xe4\\xbb\\x98/EtherWallet.sol\":474:478  uint */\n      0x00\n        /* \"contracts/\\xe4\\xb8\\x89W\\xe9\\x87\\x91\\xe8\\x9e\\x8d\\xe6\\x94\\xaf\\xe4\\xbb\\x98/EtherWallet.sol\":497:518  address(this).balance */\n      selfbalance\n        /* \"contracts/\\xe4\\xb8\\x89W\\xe9\\x87\\x91\\xe8\\x9e\\x8d\\xe6\\x94\\xaf\\xe4\\xbb\\x98/EtherWallet.sol\":490:518  return address(this).balance */\n      swap1\n      pop\n        /* \"contracts/\\xe4\\xb8\\x89W\\xe9\\x87\\x91\\xe8\\x9e\\x8d\\xe6\\x94\\xaf\\xe4\\xbb\\x98/EtherWallet.sol\":429:525  function getBalance() external view returns (uint) {... */\n      swap1\n      jump\t// out\n        /* \"contracts/\\xe4\\xb8\\x89W\\xe9\\x87\\x91\\xe8\\x9e\\x8d\\xe6\\x94\\xaf\\xe4\\xbb\\x98/EtherWallet.sol\":241:406  function withdraw(uint _amount) external payable {... */\n    tag_16:\n        /* \"contracts/\\xe4\\xb8\\x89W\\xe9\\x87\\x91\\xe8\\x9e\\x8d\\xe6\\x94\\xaf\\xe4\\xbb\\x98/EtherWallet.sol\":322:327  owner */\n      0x00\n      dup1\n      sload\n      swap1\n      0x0100\n      exp\n      swap1\n      div\n      0xffffffffffffffffffffffffffffffffffffffff\n      and\n        /* \"contracts/\\xe4\\xb8\\x89W\\xe9\\x87\\x91\\xe8\\x9e\\x8d\\xe6\\x94\\xaf\\xe4\\xbb\\x98/EtherWallet.sol\":308:327  msg.sender == owner */\n      0xffffffffffffffffffffffffffffffffffffffff\n      and\n        /* \"contracts/\\xe4\\xb8\\x89W\\xe9\\x87\\x91\\xe8\\x9e\\x8d\\xe6\\x94\\xaf\\xe4\\xbb\\x98/EtherWallet.sol\":308:318  msg.sender */\n      caller\n        /* \"contracts/\\xe4\\xb8\\x89W\\xe9\\x87\\x91\\xe8\\x9e\\x8d\\xe6\\x94\\xaf\\xe4\\xbb\\x98/EtherWallet.sol\":308:327  msg.sender == owner */\n      0xffffffffffffffffffffffffffffffffffffffff\n      and\n      eq\n        /* \"contracts/\\xe4\\xb8\\x89W\\xe9\\x87\\x91\\xe8\\x9e\\x8d\\xe6\\x94\\xaf\\xe4\\xbb\\x98/EtherWallet.sol\":300:352  require(msg.sender == owner, \" caller is not owner\") */\n      tag_24\n      jumpi\n      mload(0x40)\n      0x08c379a000000000000000000000000000000000000000000000000000000000\n      dup2\n      mstore\n      0x04\n      add\n      tag_25\n      swap1\n      tag_26\n      jump\t// in\n    tag_25:\n      mload(0x40)\n      dup1\n      swap2\n      sub\n      swap1\n      revert\n    tag_24:\n        /* \"contracts/\\xe4\\xb8\\x89W\\xe9\\x87\\x91\\xe8\\x9e\\x8d\\xe6\\x94\\xaf\\xe4\\xbb\\x98/EtherWallet.sol\":370:380  msg.sender */\n      caller\n        /* \"contracts/\\xe4\\xb8\\x89W\\xe9\\x87\\x91\\xe8\\x9e\\x8d\\xe6\\x94\\xaf\\xe4\\xbb\\x98/EtherWallet.sol\":362:390  payable(msg.sender).transfer */\n      0xffffffffffffffffffffffffffffffffffffffff\n      and\n        /* \"contracts/\\xe4\\xb8\\x89W\\xe9\\x87\\x91\\xe8\\x9e\\x8d\\xe6\\x94\\xaf\\xe4\\xbb\\x98/EtherWallet.sol\":362:399  payable(msg.sender).transfer(_amount) */\n      0x08fc\n        /* \"contracts/\\xe4\\xb8\\x89W\\xe9\\x87\\x91\\xe8\\x9e\\x8d\\xe6\\x94\\xaf\\xe4\\xbb\\x98/EtherWallet.sol\":391:398  _amount */\n      dup3\n        /* \"contracts/\\xe4\\xb8\\x89W\\xe9\\x87\\x91\\xe8\\x9e\\x8d\\xe6\\x94\\xaf\\xe4\\xbb\\x98/EtherWallet.sol\":362:399  payable(msg.sender).transfer(_amount) */\n      swap1\n      dup2\n      iszero\n      mul\n      swap1\n      mload(0x40)\n      0x00\n      mload(0x40)\n      dup1\n      dup4\n      sub\n      dup2\n      dup6\n      dup9\n      dup9\n      call\n      swap4\n      pop\n      pop\n      pop\n      pop\n      iszero\n      dup1\n      iszero\n      tag_28\n      jumpi\n      returndatasize\n      0x00\n      dup1\n      returndatacopy\n      revert(0x00, returndatasize)\n    tag_28:\n      pop\n        /* \"contracts/\\xe4\\xb8\\x89W\\xe9\\x87\\x91\\xe8\\x9e\\x8d\\xe6\\x94\\xaf\\xe4\\xbb\\x98/EtherWallet.sol\":241:406  function withdraw(uint _amount) external payable {... */\n      pop\n      jump\t// out\n        /* \"contracts/\\xe4\\xb8\\x89W\\xe9\\x87\\x91\\xe8\\x9e\\x8d\\xe6\\x94\\xaf\\xe4\\xbb\\x98/EtherWallet.sol\":84:112  address payable public owner */\n    tag_19:\n      0x00\n      dup1\n      sload\n      swap1\n      0x0100\n      exp\n      swap1\n      div\n      0xffffffffffffffffffffffffffffffffffffffff\n      and\n      dup2\n      jump\t// out\n        /* \"#utility.yul\":7:84   */\n    tag_29:\n        /* \"#utility.yul\":44:51   */\n      0x00\n        /* \"#utility.yul\":73:78   */\n      dup2\n        /* \"#utility.yul\":62:78   */\n      swap1\n      pop\n        /* \"#utility.yul\":7:84   */\n      swap2\n      swap1\n      pop\n      jump\t// out\n        /* \"#utility.yul\":90:208   */\n    tag_30:\n        /* \"#utility.yul\":177:201   */\n      tag_45\n        /* \"#utility.yul\":195:200   */\n      dup2\n        /* \"#utility.yul\":177:201   */\n      tag_29\n      jump\t// in\n    tag_45:\n        /* \"#utility.yul\":172:175   */\n      dup3\n        /* \"#utility.yul\":165:202   */\n      mstore\n        /* \"#utility.yul\":90:208   */\n      pop\n      pop\n      jump\t// out\n        /* \"#utility.yul\":214:436   */\n    tag_12:\n        /* \"#utility.yul\":307:311   */\n      0x00\n        /* \"#utility.yul\":345:347   */\n      0x20\n        /* \"#utility.yul\":334:343   */\n      dup3\n        /* \"#utility.yul\":330:348   */\n      add\n        /* \"#utility.yul\":322:348   */\n      swap1\n      pop\n        /* \"#utility.yul\":358:429   */\n      tag_47\n        /* \"#utility.yul\":426:427   */\n      0x00\n        /* \"#utility.yul\":415:424   */\n      dup4\n        /* \"#utility.yul\":411:428   */\n      add\n        /* \"#utility.yul\":402:408   */\n      dup5\n        /* \"#utility.yul\":358:429   */\n      tag_30\n      jump\t// in\n    tag_47:\n        /* \"#utility.yul\":214:436   */\n      swap3\n      swap2\n      pop\n      pop\n      jump\t// out\n        /* \"#utility.yul\":523:640   */\n    tag_32:\n        /* \"#utility.yul\":632:633   */\n      0x00\n        /* \"#utility.yul\":629:630   */\n      dup1\n        /* \"#utility.yul\":622:634   */\n      revert\n        /* \"#utility.yul\":769:891   */\n    tag_34:\n        /* \"#utility.yul\":842:866   */\n      tag_52\n        /* \"#utility.yul\":860:865   */\n      dup2\n        /* \"#utility.yul\":842:866   */\n      tag_29\n      jump\t// in\n    tag_52:\n        /* \"#utility.yul\":835:840   */\n      dup2\n        /* \"#utility.yul\":832:867   */\n      eq\n        /* \"#utility.yul\":822:885   */\n      tag_53\n      jumpi\n        /* \"#utility.yul\":881:882   */\n      0x00\n        /* \"#utility.yul\":878:879   */\n      dup1\n        /* \"#utility.yul\":871:883   */\n      revert\n        /* \"#utility.yul\":822:885   */\n    tag_53:\n        /* \"#utility.yul\":769:891   */\n      pop\n      jump\t// out\n        /* \"#utility.yul\":897:1036   */\n    tag_35:\n        /* \"#utility.yul\":943:948   */\n      0x00\n        /* \"#utility.yul\":981:987   */\n      dup2\n        /* \"#utility.yul\":968:988   */\n      calldataload\n        /* \"#utility.yul\":959:988   */\n      swap1\n      pop\n        /* \"#utility.yul\":997:1030   */\n      tag_55\n        /* \"#utility.yul\":1024:1029   */\n      dup2\n        /* \"#utility.yul\":997:1030   */\n      tag_34\n      jump\t// in\n    tag_55:\n        /* \"#utility.yul\":897:1036   */\n      swap3\n      swap2\n      pop\n      pop\n      jump\t// out\n        /* \"#utility.yul\":1042:1371   */\n    tag_15:\n        /* \"#utility.yul\":1101:1107   */\n      0x00\n        /* \"#utility.yul\":1150:1152   */\n      0x20\n        /* \"#utility.yul\":1138:1147   */\n      dup3\n        /* \"#utility.yul\":1129:1136   */\n      dup5\n        /* \"#utility.yul\":1125:1148   */\n      sub\n        /* \"#utility.yul\":1121:1153   */\n      slt\n        /* \"#utility.yul\":1118:1237   */\n      iszero\n      tag_57\n      jumpi\n        /* \"#utility.yul\":1156:1235   */\n      tag_58\n      tag_32\n      jump\t// in\n    tag_58:\n        /* \"#utility.yul\":1118:1237   */\n    tag_57:\n        /* \"#utility.yul\":1276:1277   */\n      0x00\n        /* \"#utility.yul\":1301:1354   */\n      tag_59\n        /* \"#utility.yul\":1346:1353   */\n      dup5\n        /* \"#utility.yul\":1337:1343   */\n      dup3\n        /* \"#utility.yul\":1326:1335   */\n      dup6\n        /* \"#utility.yul\":1322:1344   */\n      add\n        /* \"#utility.yul\":1301:1354   */\n      tag_35\n      jump\t// in\n    tag_59:\n        /* \"#utility.yul\":1291:1354   */\n      swap2\n      pop\n        /* \"#utility.yul\":1247:1364   */\n      pop\n        /* \"#utility.yul\":1042:1371   */\n      swap3\n      swap2\n      pop\n      pop\n      jump\t// out\n        /* \"#utility.yul\":1377:1503   */\n    tag_36:\n        /* \"#utility.yul\":1414:1421   */\n      0x00\n        /* \"#utility.yul\":1454:1496   */\n      0xffffffffffffffffffffffffffffffffffffffff\n        /* \"#utility.yul\":1447:1452   */\n      dup3\n        /* \"#utility.yul\":1443:1497   */\n      and\n        /* \"#utility.yul\":1432:1497   */\n      swap1\n      pop\n        /* \"#utility.yul\":1377:1503   */\n      swap2\n      swap1\n      pop\n      jump\t// out\n        /* \"#utility.yul\":1509:1613   */\n    tag_37:\n        /* \"#utility.yul\":1554:1561   */\n      0x00\n        /* \"#utility.yul\":1583:1607   */\n      tag_62\n        /* \"#utility.yul\":1601:1606   */\n      dup3\n        /* \"#utility.yul\":1583:1607   */\n      tag_36\n      jump\t// in\n    tag_62:\n        /* \"#utility.yul\":1572:1607   */\n      swap1\n      pop\n        /* \"#utility.yul\":1509:1613   */\n      swap2\n      swap1\n      pop\n      jump\t// out\n        /* \"#utility.yul\":1619:1761   */\n    tag_38:\n        /* \"#utility.yul\":1722:1754   */\n      tag_64\n        /* \"#utility.yul\":1748:1753   */\n      dup2\n        /* \"#utility.yul\":1722:1754   */\n      tag_37\n      jump\t// in\n    tag_64:\n        /* \"#utility.yul\":1717:1720   */\n      dup3\n        /* \"#utility.yul\":1710:1755   */\n      mstore\n        /* \"#utility.yul\":1619:1761   */\n      pop\n      pop\n      jump\t// out\n        /* \"#utility.yul\":1767:2021   */\n    tag_21:\n        /* \"#utility.yul\":1876:1880   */\n      0x00\n        /* \"#utility.yul\":1914:1916   */\n      0x20\n        /* \"#utility.yul\":1903:1912   */\n      dup3\n        /* \"#utility.yul\":1899:1917   */\n      add\n        /* \"#utility.yul\":1891:1917   */\n      swap1\n      pop\n        /* \"#utility.yul\":1927:2014   */\n      tag_66\n        /* \"#utility.yul\":2011:2012   */\n      0x00\n        /* \"#utility.yul\":2000:2009   */\n      dup4\n        /* \"#utility.yul\":1996:2013   */\n      add\n        /* \"#utility.yul\":1987:1993   */\n      dup5\n        /* \"#utility.yul\":1927:2014   */\n      tag_38\n      jump\t// in\n    tag_66:\n        /* \"#utility.yul\":1767:2021   */\n      swap3\n      swap2\n      pop\n      pop\n      jump\t// out\n        /* \"#utility.yul\":2027:2196   */\n    tag_39:\n        /* \"#utility.yul\":2111:2122   */\n      0x00\n        /* \"#utility.yul\":2145:2151   */\n      dup3\n        /* \"#utility.yul\":2140:2143   */\n      dup3\n        /* \"#utility.yul\":2133:2152   */\n      mstore\n        /* \"#utility.yul\":2185:2189   */\n      0x20\n        /* \"#utility.yul\":2180:2183   */\n      dup3\n        /* \"#utility.yul\":2176:2190   */\n      add\n        /* \"#utility.yul\":2161:2190   */\n      swap1\n      pop\n        /* \"#utility.yul\":2027:2196   */\n      swap3\n      swap2\n      pop\n      pop\n      jump\t// out\n        /* \"#utility.yul\":2202:2372   */\n    tag_40:\n        /* \"#utility.yul\":2342:2364   */\n      0x2063616c6c6572206973206e6f74206f776e6572000000000000000000000000\n        /* \"#utility.yul\":2338:2339   */\n      0x00\n        /* \"#utility.yul\":2330:2336   */\n      dup3\n        /* \"#utility.yul\":2326:2340   */\n      add\n        /* \"#utility.yul\":2319:2365   */\n      mstore\n        /* \"#utility.yul\":2202:2372   */\n      pop\n      jump\t// out\n        /* \"#utility.yul\":2378:2744   */\n    tag_41:\n        /* \"#utility.yul\":2520:2523   */\n      0x00\n        /* \"#utility.yul\":2541:2608   */\n      tag_70\n        /* \"#utility.yul\":2605:2607   */\n      0x14\n        /* \"#utility.yul\":2600:2603   */\n      dup4\n        /* \"#utility.yul\":2541:2608   */\n      tag_39\n      jump\t// in\n    tag_70:\n        /* \"#utility.yul\":2534:2608   */\n      swap2\n      pop\n        /* \"#utility.yul\":2617:2710   */\n      tag_71\n        /* \"#utility.yul\":2706:2709   */\n      dup3\n        /* \"#utility.yul\":2617:2710   */\n      tag_40\n      jump\t// in\n    tag_71:\n        /* \"#utility.yul\":2735:2737   */\n      0x20\n        /* \"#utility.yul\":2730:2733   */\n      dup3\n        /* \"#utility.yul\":2726:2738   */\n      add\n        /* \"#utility.yul\":2719:2738   */\n      swap1\n      pop\n        /* \"#utility.yul\":2378:2744   */\n      swap2\n      swap1\n      pop\n      jump\t// out\n        /* \"#utility.yul\":2750:3169   */\n    tag_26:\n        /* \"#utility.yul\":2916:2920   */\n      0x00\n        /* \"#utility.yul\":2954:2956   */\n      0x20\n        /* \"#utility.yul\":2943:2952   */\n      dup3\n        /* \"#utility.yul\":2939:2957   */\n      add\n        /* \"#utility.yul\":2931:2957   */\n      swap1\n      pop\n        /* \"#utility.yul\":3003:3012   */\n      dup2\n        /* \"#utility.yul\":2997:3001   */\n      dup2\n        /* \"#utility.yul\":2993:3013   */\n      sub\n        /* \"#utility.yul\":2989:2990   */\n      0x00\n        /* \"#utility.yul\":2978:2987   */\n      dup4\n        /* \"#utility.yul\":2974:2991   */\n      add\n        /* \"#utility.yul\":2967:3014   */\n      mstore\n        /* \"#utility.yul\":3031:3162   */\n      tag_73\n        /* \"#utility.yul\":3157:3161   */\n      dup2\n        /* \"#utility.yul\":3031:3162   */\n      tag_41\n      jump\t// in\n    tag_73:\n        /* \"#utility.yul\":3023:3162   */\n      swap1\n      pop\n        /* \"#utility.yul\":2750:3169   */\n      swap2\n      swap1\n      pop\n      jump\t// out\n\n    auxdata: 0xa2646970667358221220bf93b002673191a01885720a6b55e79de8dfaa1042db28878fec82140897ba9764736f6c63430008170033\n}\n",
				"bytecode": {
					"linkReferences": {},
					"object": "608060405234801561000f575f80fd5b50335f806101000a81548173ffffffffffffffffffffffffffffffffffffffff021916908373ffffffffffffffffffffffffffffffffffffffff1602179055506103408061005c5f395ff3fe608060405260043610610037575f3560e01c806312065fe0146100425780632e1a7d4d1461006c5780638da5cb5b146100885761003e565b3661003e57005b5f80fd5b34801561004d575f80fd5b506100566100b2565b60405161006391906101c8565b60405180910390f35b6100866004803603810190610081919061020f565b6100b9565b005b348015610093575f80fd5b5061009c61018d565b6040516100a99190610279565b60405180910390f35b5f47905090565b5f8054906101000a900473ffffffffffffffffffffffffffffffffffffffff1673ffffffffffffffffffffffffffffffffffffffff163373ffffffffffffffffffffffffffffffffffffffff1614610146576040517f08c379a000000000000000000000000000000000000000000000000000000000815260040161013d906102ec565b60405180910390fd5b3373ffffffffffffffffffffffffffffffffffffffff166108fc8290811502906040515f60405180830381858888f19350505050158015610189573d5f803e3d5ffd5b5050565b5f8054906101000a900473ffffffffffffffffffffffffffffffffffffffff1681565b5f819050919050565b6101c2816101b0565b82525050565b5f6020820190506101db5f8301846101b9565b92915050565b5f80fd5b6101ee816101b0565b81146101f8575f80fd5b50565b5f81359050610209816101e5565b92915050565b5f60208284031215610224576102236101e1565b5b5f610231848285016101fb565b91505092915050565b5f73ffffffffffffffffffffffffffffffffffffffff82169050919050565b5f6102638261023a565b9050919050565b61027381610259565b82525050565b5f60208201905061028c5f83018461026a565b92915050565b5f82825260208201905092915050565b7f2063616c6c6572206973206e6f74206f776e65720000000000000000000000005f82015250565b5f6102d6601483610292565b91506102e1826102a2565b602082019050919050565b5f6020820190508181035f830152610303816102ca565b905091905056fea2646970667358221220bf93b002673191a01885720a6b55e79de8dfaa1042db28878fec82140897ba9764736f6c63430008170033",
					"opcodes": "PUSH1 0x80 PUSH1 0x40 MSTORE CALLVALUE DUP1 ISZERO PUSH2 0xF JUMPI PUSH0 DUP1 REVERT JUMPDEST POP CALLER PUSH0 DUP1 PUSH2 0x100 EXP DUP2 SLOAD DUP2 PUSH20 0xFFFFFFFFFFFFFFFFFFFFFFFFFFFFFFFFFFFFFFFF MUL NOT AND SWAP1 DUP4 PUSH20 0xFFFFFFFFFFFFFFFFFFFFFFFFFFFFFFFFFFFFFFFF AND MUL OR SWAP1 SSTORE POP PUSH2 0x340 DUP1 PUSH2 0x5C PUSH0 CODECOPY PUSH0 RETURN INVALID PUSH1 0x80 PUSH1 0x40 MSTORE PUSH1 0x4 CALLDATASIZE LT PUSH2 0x37 JUMPI PUSH0 CALLDATALOAD PUSH1 0xE0 SHR DUP1 PUSH4 0x12065FE0 EQ PUSH2 0x42 JUMPI DUP1 PUSH4 0x2E1A7D4D EQ PUSH2 0x6C JUMPI DUP1 PUSH4 0x8DA5CB5B EQ PUSH2 0x88 JUMPI PUSH2 0x3E JUMP JUMPDEST CALLDATASIZE PUSH2 0x3E JUMPI STOP JUMPDEST PUSH0 DUP1 REVERT JUMPDEST CALLVALUE DUP1 ISZERO PUSH2 0x4D JUMPI PUSH0 DUP1 REVERT JUMPDEST POP PUSH2 0x56 PUSH2 0xB2 JUMP JUMPDEST PUSH1 0x40 MLOAD PUSH2 0x63 SWAP2 SWAP1 PUSH2 0x1C8 JUMP JUMPDEST PUSH1 0x40 MLOAD DUP1 SWAP2 SUB SWAP1 RETURN JUMPDEST PUSH2 0x86 PUSH1 0x4 DUP1 CALLDATASIZE SUB DUP2 ADD SWAP1 PUSH2 0x81 SWAP2 SWAP1 PUSH2 0x20F JUMP JUMPDEST PUSH2 0xB9 JUMP JUMPDEST STOP JUMPDEST CALLVALUE DUP1 ISZERO PUSH2 0x93 JUMPI PUSH0 DUP1 REVERT JUMPDEST POP PUSH2 0x9C PUSH2 0x18D JUMP JUMPDEST PUSH1 0x40 MLOAD PUSH2 0xA9 SWAP2 SWAP1 PUSH2 0x279 JUMP JUMPDEST PUSH1 0x40 MLOAD DUP1 SWAP2 SUB SWAP1 RETURN JUMPDEST PUSH0 SELFBALANCE SWAP1 POP SWAP1 JUMP JUMPDEST PUSH0 DUP1 SLOAD SWAP1 PUSH2 0x100 EXP SWAP1 DIV PUSH20 0xFFFFFFFFFFFFFFFFFFFFFFFFFFFFFFFFFFFFFFFF AND PUSH20 0xFFFFFFFFFFFFFFFFFFFFFFFFFFFFFFFFFFFFFFFF AND CALLER PUSH20 0xFFFFFFFFFFFFFFFFFFFFFFFFFFFFFFFFFFFFFFFF AND EQ PUSH2 0x146 JUMPI PUSH1 0x40 MLOAD PUSH32 0x8C379A000000000000000000000000000000000000000000000000000000000 DUP2 MSTORE PUSH1 0x4 ADD PUSH2 0x13D SWAP1 PUSH2 0x2EC JUMP JUMPDEST PUSH1 0x40 MLOAD DUP1 SWAP2 SUB SWAP1 REVERT JUMPDEST CALLER PUSH20 0xFFFFFFFFFFFFFFFFFFFFFFFFFFFFFFFFFFFFFFFF AND PUSH2 0x8FC DUP3 SWAP1 DUP2 ISZERO MUL SWAP1 PUSH1 0x40 MLOAD PUSH0 PUSH1 0x40 MLOAD DUP1 DUP4 SUB DUP2 DUP6 DUP9 DUP9 CALL SWAP4 POP POP POP POP ISZERO DUP1 ISZERO PUSH2 0x189 JUMPI RETURNDATASIZE PUSH0 DUP1 RETURNDATACOPY RETURNDATASIZE PUSH0 REVERT JUMPDEST POP POP JUMP JUMPDEST PUSH0 DUP1 SLOAD SWAP1 PUSH2 0x100 EXP SWAP1 DIV PUSH20 0xFFFFFFFFFFFFFFFFFFFFFFFFFFFFFFFFFFFFFFFF AND DUP2 JUMP JUMPDEST PUSH0 DUP2 SWAP1 POP SWAP2 SWAP1 POP JUMP JUMPDEST PUSH2 0x1C2 DUP2 PUSH2 0x1B0 JUMP JUMPDEST DUP3 MSTORE POP POP JUMP JUMPDEST PUSH0 PUSH1 0x20 DUP3 ADD SWAP1 POP PUSH2 0x1DB PUSH0 DUP4 ADD DUP5 PUSH2 0x1B9 JUMP JUMPDEST SWAP3 SWAP2 POP POP JUMP JUMPDEST PUSH0 DUP1 REVERT JUMPDEST PUSH2 0x1EE DUP2 PUSH2 0x1B0 JUMP JUMPDEST DUP2 EQ PUSH2 0x1F8 JUMPI PUSH0 DUP1 REVERT JUMPDEST POP JUMP JUMPDEST PUSH0 DUP2 CALLDATALOAD SWAP1 POP PUSH2 0x209 DUP2 PUSH2 0x1E5 JUMP JUMPDEST SWAP3 SWAP2 POP POP JUMP JUMPDEST PUSH0 PUSH1 0x20 DUP3 DUP5 SUB SLT ISZERO PUSH2 0x224 JUMPI PUSH2 0x223 PUSH2 0x1E1 JUMP JUMPDEST JUMPDEST PUSH0 PUSH2 0x231 DUP5 DUP3 DUP6 ADD PUSH2 0x1FB JUMP JUMPDEST SWAP2 POP POP SWAP3 SWAP2 POP POP JUMP JUMPDEST PUSH0 PUSH20 0xFFFFFFFFFFFFFFFFFFFFFFFFFFFFFFFFFFFFFFFF DUP3 AND SWAP1 POP SWAP2 SWAP1 POP JUMP JUMPDEST PUSH0 PUSH2 0x263 DUP3 PUSH2 0x23A JUMP JUMPDEST SWAP1 POP SWAP2 SWAP1 POP JUMP JUMPDEST PUSH2 0x273 DUP2 PUSH2 0x259 JUMP JUMPDEST DUP3 MSTORE POP POP JUMP JUMPDEST PUSH0 PUSH1 0x20 DUP3 ADD SWAP1 POP PUSH2 0x28C PUSH0 DUP4 ADD DUP5 PUSH2 0x26A JUMP JUMPDEST SWAP3 SWAP2 POP POP JUMP JUMPDEST PUSH0 DUP3 DUP3 MSTORE PUSH1 0x20 DUP3 ADD SWAP1 POP SWAP3 SWAP2 POP POP JUMP JUMPDEST PUSH32 0x2063616C6C6572206973206E6F74206F776E6572000000000000000000000000 PUSH0 DUP3 ADD MSTORE POP JUMP JUMPDEST PUSH0 PUSH2 0x2D6 PUSH1 0x14 DUP4 PUSH2 0x292 JUMP JUMPDEST SWAP2 POP PUSH2 0x2E1 DUP3 PUSH2 0x2A2 JUMP JUMPDEST PUSH1 0x20 DUP3 ADD SWAP1 POP SWAP2 SWAP1 POP JUMP JUMPDEST PUSH0 PUSH1 0x20 DUP3 ADD SWAP1 POP DUP2 DUP2 SUB PUSH0 DUP4 ADD MSTORE PUSH2 0x303 DUP2 PUSH2 0x2CA JUMP JUMPDEST SWAP1 POP SWAP2 SWAP1 POP JUMP INVALID LOG2 PUSH5 0x6970667358 0x22 SLT KECCAK256 0xBF SWAP4 0xB0 MUL PUSH8 0x3191A01885720A6B SSTORE 0xE7 SWAP14 0xE8 0xDF 0xAA LT TIMESTAMP 0xDB 0x28 DUP8 DUP16 0xEC DUP3 EQ ADDMOD SWAP8 0xBA SWAP8 PUSH5 0x736F6C6343 STOP ADDMOD OR STOP CALLER "
				},
				"gasEstimates": {
					"creation": {
						"codeDepositCost": "166400",
						"executionCost": "24471",
						"totalCost": "190871"
					},
					"external": {
						"getBalance()": "312",
						"owner()": "2527",
						"withdraw(uint256)": "infinite"
					}
				},
				"methodIdentifiers": {
					"getBalance()": "12065fe0",
					"owner()": "8da5cb5b",
					"withdraw(uint256)": "2e1a7d4d"
				}
			},
			"storageLayout": {
				"storage": [
					{
						"astId": 3,
						"contract": "contracts/三W金融支付/EtherWallet.sol:EtherWallet",
						"label": "owner",
						"offset": 0,
						"slot": "0",
						"type": "t_address_payable"
					}
				],
				"types": {
					"t_address_payable": {
						"encoding": "inplace",
						"label": "address payable",
						"numberOfBytes": "20"
					}
				}
			},
			"userdoc": {
				"kind": "user",
				"methods": {},
				"version": 1
			}
		}
	}
}