{
	"contracts/三W高级合约交互/0609Call.sol": {
		"Call": {
			"abi": [
				{
					"inputs": [
						{
							"internalType": "address",
							"name": "_target",
							"type": "address"
						}
					],
					"name": "callFoo",
					"outputs": [],
					"stateMutability": "payable",
					"type": "function"
				},
				{
					"inputs": [
						{
							"internalType": "address",
							"name": "_target",
							"type": "address"
						}
					],
					"name": "callNotExist",
					"outputs": [],
					"stateMutability": "nonpayable",
					"type": "function"
				},
				{
					"inputs": [],
					"name": "i",
					"outputs": [
						{
							"internalType": "bytes",
							"name": "",
							"type": "bytes"
						}
					],
					"stateMutability": "view",
					"type": "function"
				}
			],
			"devdoc": {
				"kind": "dev",
				"methods": {},
				"version": 1
			},
			"evm": {
				"assembly": "    /* \"contracts/\\xe4\\xb8\\x89W\\xe9\\xab\\x98\\xe7\\xba\\xa7\\xe5\\x90\\x88\\xe7\\xba\\xa6\\xe4\\xba\\xa4\\xe4\\xba\\x92/0609Call.sol\":578:1186  contract Call {... */\n  mstore(0x40, 0x80)\n  callvalue\n  dup1\n  iszero\n  tag_1\n  jumpi\n  0x00\n  dup1\n  revert\ntag_1:\n  pop\n  dataSize(sub_0)\n  dup1\n  dataOffset(sub_0)\n  0x00\n  codecopy\n  0x00\n  return\nstop\n\nsub_0: assembly {\n        /* \"contracts/\\xe4\\xb8\\x89W\\xe9\\xab\\x98\\xe7\\xba\\xa7\\xe5\\x90\\x88\\xe7\\xba\\xa6\\xe4\\xba\\xa4\\xe4\\xba\\x92/0609Call.sol\":578:1186  contract Call {... */\n      mstore(0x40, 0x80)\n      jumpi(tag_1, lt(calldatasize, 0x04))\n      shr(0xe0, calldataload(0x00))\n      dup1\n      0x6bc19a22\n      eq\n      tag_2\n      jumpi\n      dup1\n      0xe5aa3d58\n      eq\n      tag_3\n      jumpi\n      dup1\n      0xedcbe76c\n      eq\n      tag_4\n      jumpi\n    tag_1:\n      0x00\n      dup1\n      revert\n        /* \"contracts/\\xe4\\xb8\\x89W\\xe9\\xab\\x98\\xe7\\xba\\xa7\\xe5\\x90\\x88\\xe7\\xba\\xa6\\xe4\\xba\\xa4\\xe4\\xba\\x92/0609Call.sol\":1012:1184  function callNotExist(address _target) external {... */\n    tag_2:\n      callvalue\n      dup1\n      iszero\n      tag_5\n      jumpi\n      0x00\n      dup1\n      revert\n    tag_5:\n      pop\n      tag_6\n      0x04\n      dup1\n      calldatasize\n      sub\n      dup2\n      add\n      swap1\n      tag_7\n      swap2\n      swap1\n      tag_8\n      jump\t// in\n    tag_7:\n      tag_9\n      jump\t// in\n    tag_6:\n      stop\n        /* \"contracts/\\xe4\\xb8\\x89W\\xe9\\xab\\x98\\xe7\\xba\\xa7\\xe5\\x90\\x88\\xe7\\xba\\xa6\\xe4\\xba\\xa4\\xe4\\xba\\x92/0609Call.sol\":598:612  bytes public i */\n    tag_3:\n      callvalue\n      dup1\n      iszero\n      tag_10\n      jumpi\n      0x00\n      dup1\n      revert\n    tag_10:\n      pop\n      tag_11\n      tag_12\n      jump\t// in\n    tag_11:\n      mload(0x40)\n      tag_13\n      swap2\n      swap1\n      tag_14\n      jump\t// in\n    tag_13:\n      mload(0x40)\n      dup1\n      swap2\n      sub\n      swap1\n      return\n        /* \"contracts/\\xe4\\xb8\\x89W\\xe9\\xab\\x98\\xe7\\xba\\xa7\\xe5\\x90\\x88\\xe7\\xba\\xa6\\xe4\\xba\\xa4\\xe4\\xba\\x92/0609Call.sol\":642:954  function callFoo(address _target) external payable {... */\n    tag_4:\n      tag_15\n      0x04\n      dup1\n      calldatasize\n      sub\n      dup2\n      add\n      swap1\n      tag_16\n      swap2\n      swap1\n      tag_8\n      jump\t// in\n    tag_16:\n      tag_17\n      jump\t// in\n    tag_15:\n      stop\n        /* \"contracts/\\xe4\\xb8\\x89W\\xe9\\xab\\x98\\xe7\\xba\\xa7\\xe5\\x90\\x88\\xe7\\xba\\xa6\\xe4\\xba\\xa4\\xe4\\xba\\x92/0609Call.sol\":1012:1184  function callNotExist(address _target) external {... */\n    tag_9:\n        /* \"contracts/\\xe4\\xb8\\x89W\\xe9\\xab\\x98\\xe7\\xba\\xa7\\xe5\\x90\\x88\\xe7\\xba\\xa6\\xe4\\xba\\xa4\\xe4\\xba\\x92/0609Call.sol\":1071:1077  bool b */\n      0x00\n        /* \"contracts/\\xe4\\xb8\\x89W\\xe9\\xab\\x98\\xe7\\xba\\xa7\\xe5\\x90\\x88\\xe7\\xba\\xa6\\xe4\\xba\\xa4\\xe4\\xba\\x92/0609Call.sol\":1083:1090  _target */\n      dup2\n        /* \"contracts/\\xe4\\xb8\\x89W\\xe9\\xab\\x98\\xe7\\xba\\xa7\\xe5\\x90\\x88\\xe7\\xba\\xa6\\xe4\\xba\\xa4\\xe4\\xba\\x92/0609Call.sol\":1083:1095  _target.call */\n      0xffffffffffffffffffffffffffffffffffffffff\n      and\n        /* \"contracts/\\xe4\\xb8\\x89W\\xe9\\xab\\x98\\xe7\\xba\\xa7\\xe5\\x90\\x88\\xe7\\xba\\xa6\\xe4\\xba\\xa4\\xe4\\xba\\x92/0609Call.sol\":1096:1137  abi.encodeWithSignature(\"callNotExist()\") */\n      add(0x24, mload(0x40))\n      mload(0x40)\n      0x20\n      dup2\n      dup4\n      sub\n      sub\n      dup2\n      mstore\n      swap1\n      0x40\n      mstore\n      and(not(0xffffffffffffffffffffffffffffffffffffffffffffffffffffffff), 0x44365aa800000000000000000000000000000000000000000000000000000000)\n      0x20\n      dup3\n      add\n      dup1\n      mload\n      0xffffffffffffffffffffffffffffffffffffffffffffffffffffffff\n      dup4\n      dup2\n      dup4\n      and\n      or\n      dup4\n      mstore\n      pop\n      pop\n      pop\n      pop\n        /* \"contracts/\\xe4\\xb8\\x89W\\xe9\\xab\\x98\\xe7\\xba\\xa7\\xe5\\x90\\x88\\xe7\\xba\\xa6\\xe4\\xba\\xa4\\xe4\\xba\\x92/0609Call.sol\":1083:1138  _target.call(abi.encodeWithSignature(\"callNotExist()\")) */\n      mload(0x40)\n      tag_19\n      swap2\n      swap1\n      tag_20\n      jump\t// in\n    tag_19:\n      0x00\n      mload(0x40)\n      dup1\n      dup4\n      sub\n      dup2\n      0x00\n      dup7\n      gas\n      call\n      swap2\n      pop\n      pop\n      returndatasize\n      dup1\n      0x00\n      dup2\n      eq\n      tag_23\n      jumpi\n      mload(0x40)\n      swap2\n      pop\n      and(add(returndatasize, 0x3f), not(0x1f))\n      dup3\n      add\n      0x40\n      mstore\n      returndatasize\n      dup3\n      mstore\n      returndatasize\n      0x00\n      0x20\n      dup5\n      add\n      returndatacopy\n      jump(tag_22)\n    tag_23:\n      0x60\n      swap2\n      pop\n    tag_22:\n      pop\n        /* \"contracts/\\xe4\\xb8\\x89W\\xe9\\xab\\x98\\xe7\\xba\\xa7\\xe5\\x90\\x88\\xe7\\xba\\xa6\\xe4\\xba\\xa4\\xe4\\xba\\x92/0609Call.sol\":1070:1138  (bool b, ) = _target.call(abi.encodeWithSignature(\"callNotExist()\")) */\n      pop\n      swap1\n      pop\n        /* \"contracts/\\xe4\\xb8\\x89W\\xe9\\xab\\x98\\xe7\\xba\\xa7\\xe5\\x90\\x88\\xe7\\xba\\xa6\\xe4\\xba\\xa4\\xe4\\xba\\x92/0609Call.sol\":1156:1157  b */\n      dup1\n        /* \"contracts/\\xe4\\xb8\\x89W\\xe9\\xab\\x98\\xe7\\xba\\xa7\\xe5\\x90\\x88\\xe7\\xba\\xa6\\xe4\\xba\\xa4\\xe4\\xba\\x92/0609Call.sol\":1148:1177  require(b, \"call foo failed\") */\n      tag_24\n      jumpi\n      mload(0x40)\n      0x08c379a000000000000000000000000000000000000000000000000000000000\n      dup2\n      mstore\n      0x04\n      add\n      tag_25\n      swap1\n      tag_26\n      jump\t// in\n    tag_25:\n      mload(0x40)\n      dup1\n      swap2\n      sub\n      swap1\n      revert\n    tag_24:\n        /* \"contracts/\\xe4\\xb8\\x89W\\xe9\\xab\\x98\\xe7\\xba\\xa7\\xe5\\x90\\x88\\xe7\\xba\\xa6\\xe4\\xba\\xa4\\xe4\\xba\\x92/0609Call.sol\":1060:1184  {... */\n      pop\n        /* \"contracts/\\xe4\\xb8\\x89W\\xe9\\xab\\x98\\xe7\\xba\\xa7\\xe5\\x90\\x88\\xe7\\xba\\xa6\\xe4\\xba\\xa4\\xe4\\xba\\x92/0609Call.sol\":1012:1184  function callNotExist(address _target) external {... */\n      pop\n      jump\t// out\n        /* \"contracts/\\xe4\\xb8\\x89W\\xe9\\xab\\x98\\xe7\\xba\\xa7\\xe5\\x90\\x88\\xe7\\xba\\xa6\\xe4\\xba\\xa4\\xe4\\xba\\x92/0609Call.sol\":598:612  bytes public i */\n    tag_12:\n      0x00\n      dup1\n      sload\n      tag_27\n      swap1\n      tag_28\n      jump\t// in\n    tag_27:\n      dup1\n      0x1f\n      add\n      0x20\n      dup1\n      swap2\n      div\n      mul\n      0x20\n      add\n      mload(0x40)\n      swap1\n      dup2\n      add\n      0x40\n      mstore\n      dup1\n      swap3\n      swap2\n      swap1\n      dup2\n      dup2\n      mstore\n      0x20\n      add\n      dup3\n      dup1\n      sload\n      tag_29\n      swap1\n      tag_28\n      jump\t// in\n    tag_29:\n      dup1\n      iszero\n      tag_30\n      jumpi\n      dup1\n      0x1f\n      lt\n      tag_31\n      jumpi\n      0x0100\n      dup1\n      dup4\n      sload\n      div\n      mul\n      dup4\n      mstore\n      swap2\n      0x20\n      add\n      swap2\n      jump(tag_30)\n    tag_31:\n      dup3\n      add\n      swap2\n      swap1\n      0x00\n      mstore\n      keccak256(0x00, 0x20)\n      swap1\n    tag_32:\n      dup2\n      sload\n      dup2\n      mstore\n      swap1\n      0x01\n      add\n      swap1\n      0x20\n      add\n      dup1\n      dup4\n      gt\n      tag_32\n      jumpi\n      dup3\n      swap1\n      sub\n      0x1f\n      and\n      dup3\n      add\n      swap2\n    tag_30:\n      pop\n      pop\n      pop\n      pop\n      pop\n      dup2\n      jump\t// out\n        /* \"contracts/\\xe4\\xb8\\x89W\\xe9\\xab\\x98\\xe7\\xba\\xa7\\xe5\\x90\\x88\\xe7\\xba\\xa6\\xe4\\xba\\xa4\\xe4\\xba\\x92/0609Call.sol\":642:954  function callFoo(address _target) external payable {... */\n    tag_17:\n        /* \"contracts/\\xe4\\xb8\\x89W\\xe9\\xab\\x98\\xe7\\xba\\xa7\\xe5\\x90\\x88\\xe7\\xba\\xa6\\xe4\\xba\\xa4\\xe4\\xba\\x92/0609Call.sol\":754:760  bool b */\n      0x00\n        /* \"contracts/\\xe4\\xb8\\x89W\\xe9\\xab\\x98\\xe7\\xba\\xa7\\xe5\\x90\\x88\\xe7\\xba\\xa6\\xe4\\xba\\xa4\\xe4\\xba\\x92/0609Call.sol\":762:777  bytes memory _i */\n      dup1\n        /* \"contracts/\\xe4\\xb8\\x89W\\xe9\\xab\\x98\\xe7\\xba\\xa7\\xe5\\x90\\x88\\xe7\\xba\\xa6\\xe4\\xba\\xa4\\xe4\\xba\\x92/0609Call.sol\":781:788  _target */\n      dup3\n        /* \"contracts/\\xe4\\xb8\\x89W\\xe9\\xab\\x98\\xe7\\xba\\xa7\\xe5\\x90\\x88\\xe7\\xba\\xa6\\xe4\\xba\\xa4\\xe4\\xba\\x92/0609Call.sol\":781:793  _target.call */\n      0xffffffffffffffffffffffffffffffffffffffff\n      and\n        /* \"contracts/\\xe4\\xb8\\x89W\\xe9\\xab\\x98\\xe7\\xba\\xa7\\xe5\\x90\\x88\\xe7\\xba\\xa6\\xe4\\xba\\xa4\\xe4\\xba\\x92/0609Call.sol\":801:804  111 */\n      0x6f\n        /* \"contracts/\\xe4\\xb8\\x89W\\xe9\\xab\\x98\\xe7\\xba\\xa7\\xe5\\x90\\x88\\xe7\\xba\\xa6\\xe4\\xba\\xa4\\xe4\\xba\\x92/0609Call.sol\":866:869  123 */\n      0x7b\n        /* \"contracts/\\xe4\\xb8\\x89W\\xe9\\xab\\x98\\xe7\\xba\\xa7\\xe5\\x90\\x88\\xe7\\xba\\xa6\\xe4\\xba\\xa4\\xe4\\xba\\x92/0609Call.sol\":819:882  abi.encodeWithSignature(\"foo(uint256,string)\", 123, \"call foo\") */\n      add(0x24, mload(0x40))\n      tag_34\n      swap2\n      swap1\n      tag_35\n      jump\t// in\n    tag_34:\n      mload(0x40)\n      0x20\n      dup2\n      dup4\n      sub\n      sub\n      dup2\n      mstore\n      swap1\n      0x40\n      mstore\n      and(not(0xffffffffffffffffffffffffffffffffffffffffffffffffffffffff), 0xc5d1c99500000000000000000000000000000000000000000000000000000000)\n      0x20\n      dup3\n      add\n      dup1\n      mload\n      0xffffffffffffffffffffffffffffffffffffffffffffffffffffffff\n      dup4\n      dup2\n      dup4\n      and\n      or\n      dup4\n      mstore\n      pop\n      pop\n      pop\n      pop\n        /* \"contracts/\\xe4\\xb8\\x89W\\xe9\\xab\\x98\\xe7\\xba\\xa7\\xe5\\x90\\x88\\xe7\\xba\\xa6\\xe4\\xba\\xa4\\xe4\\xba\\x92/0609Call.sol\":781:892  _target.call{value: 111}(... */\n      mload(0x40)\n      tag_36\n      swap2\n      swap1\n      tag_20\n      jump\t// in\n    tag_36:\n      0x00\n      mload(0x40)\n      dup1\n      dup4\n      sub\n      dup2\n      dup6\n      dup8\n      gas\n      call\n      swap3\n      pop\n      pop\n      pop\n      returndatasize\n      dup1\n      0x00\n      dup2\n      eq\n      tag_39\n      jumpi\n      mload(0x40)\n      swap2\n      pop\n      and(add(returndatasize, 0x3f), not(0x1f))\n      dup3\n      add\n      0x40\n      mstore\n      returndatasize\n      dup3\n      mstore\n      returndatasize\n      0x00\n      0x20\n      dup5\n      add\n      returndatacopy\n      jump(tag_38)\n    tag_39:\n      0x60\n      swap2\n      pop\n    tag_38:\n      pop\n        /* \"contracts/\\xe4\\xb8\\x89W\\xe9\\xab\\x98\\xe7\\xba\\xa7\\xe5\\x90\\x88\\xe7\\xba\\xa6\\xe4\\xba\\xa4\\xe4\\xba\\x92/0609Call.sol\":753:892  (bool b, bytes memory _i) = _target.call{value: 111}(... */\n      swap2\n      pop\n      swap2\n      pop\n        /* \"contracts/\\xe4\\xb8\\x89W\\xe9\\xab\\x98\\xe7\\xba\\xa7\\xe5\\x90\\x88\\xe7\\xba\\xa6\\xe4\\xba\\xa4\\xe4\\xba\\x92/0609Call.sol\":910:911  b */\n      dup2\n        /* \"contracts/\\xe4\\xb8\\x89W\\xe9\\xab\\x98\\xe7\\xba\\xa7\\xe5\\x90\\x88\\xe7\\xba\\xa6\\xe4\\xba\\xa4\\xe4\\xba\\x92/0609Call.sol\":902:931  require(b, \"call foo failed\") */\n      tag_40\n      jumpi\n      mload(0x40)\n      0x08c379a000000000000000000000000000000000000000000000000000000000\n      dup2\n      mstore\n      0x04\n      add\n      tag_41\n      swap1\n      tag_26\n      jump\t// in\n    tag_41:\n      mload(0x40)\n      dup1\n      swap2\n      sub\n      swap1\n      revert\n    tag_40:\n        /* \"contracts/\\xe4\\xb8\\x89W\\xe9\\xab\\x98\\xe7\\xba\\xa7\\xe5\\x90\\x88\\xe7\\xba\\xa6\\xe4\\xba\\xa4\\xe4\\xba\\x92/0609Call.sol\":945:947  _i */\n      dup1\n        /* \"contracts/\\xe4\\xb8\\x89W\\xe9\\xab\\x98\\xe7\\xba\\xa7\\xe5\\x90\\x88\\xe7\\xba\\xa6\\xe4\\xba\\xa4\\xe4\\xba\\x92/0609Call.sol\":941:942  i */\n      0x00\n        /* \"contracts/\\xe4\\xb8\\x89W\\xe9\\xab\\x98\\xe7\\xba\\xa7\\xe5\\x90\\x88\\xe7\\xba\\xa6\\xe4\\xba\\xa4\\xe4\\xba\\x92/0609Call.sol\":941:947  i = _i */\n      swap1\n      dup2\n      tag_42\n      swap2\n      swap1\n      tag_43\n      jump\t// in\n    tag_42:\n      pop\n        /* \"contracts/\\xe4\\xb8\\x89W\\xe9\\xab\\x98\\xe7\\xba\\xa7\\xe5\\x90\\x88\\xe7\\xba\\xa6\\xe4\\xba\\xa4\\xe4\\xba\\x92/0609Call.sol\":693:954  {... */\n      pop\n      pop\n        /* \"contracts/\\xe4\\xb8\\x89W\\xe9\\xab\\x98\\xe7\\xba\\xa7\\xe5\\x90\\x88\\xe7\\xba\\xa6\\xe4\\xba\\xa4\\xe4\\xba\\x92/0609Call.sol\":642:954  function callFoo(address _target) external payable {... */\n      pop\n      jump\t// out\n        /* \"#utility.yul\":88:205   */\n    tag_45:\n        /* \"#utility.yul\":197:198   */\n      0x00\n        /* \"#utility.yul\":194:195   */\n      dup1\n        /* \"#utility.yul\":187:199   */\n      revert\n        /* \"#utility.yul\":334:460   */\n    tag_47:\n        /* \"#utility.yul\":371:378   */\n      0x00\n        /* \"#utility.yul\":411:453   */\n      0xffffffffffffffffffffffffffffffffffffffff\n        /* \"#utility.yul\":404:409   */\n      dup3\n        /* \"#utility.yul\":400:454   */\n      and\n        /* \"#utility.yul\":389:454   */\n      swap1\n      pop\n        /* \"#utility.yul\":334:460   */\n      swap2\n      swap1\n      pop\n      jump\t// out\n        /* \"#utility.yul\":466:562   */\n    tag_48:\n        /* \"#utility.yul\":503:510   */\n      0x00\n        /* \"#utility.yul\":532:556   */\n      tag_91\n        /* \"#utility.yul\":550:555   */\n      dup3\n        /* \"#utility.yul\":532:556   */\n      tag_47\n      jump\t// in\n    tag_91:\n        /* \"#utility.yul\":521:556   */\n      swap1\n      pop\n        /* \"#utility.yul\":466:562   */\n      swap2\n      swap1\n      pop\n      jump\t// out\n        /* \"#utility.yul\":568:690   */\n    tag_49:\n        /* \"#utility.yul\":641:665   */\n      tag_93\n        /* \"#utility.yul\":659:664   */\n      dup2\n        /* \"#utility.yul\":641:665   */\n      tag_48\n      jump\t// in\n    tag_93:\n        /* \"#utility.yul\":634:639   */\n      dup2\n        /* \"#utility.yul\":631:666   */\n      eq\n        /* \"#utility.yul\":621:684   */\n      tag_94\n      jumpi\n        /* \"#utility.yul\":680:681   */\n      0x00\n        /* \"#utility.yul\":677:678   */\n      dup1\n        /* \"#utility.yul\":670:682   */\n      revert\n        /* \"#utility.yul\":621:684   */\n    tag_94:\n        /* \"#utility.yul\":568:690   */\n      pop\n      jump\t// out\n        /* \"#utility.yul\":696:835   */\n    tag_50:\n        /* \"#utility.yul\":742:747   */\n      0x00\n        /* \"#utility.yul\":780:786   */\n      dup2\n        /* \"#utility.yul\":767:787   */\n      calldataload\n        /* \"#utility.yul\":758:787   */\n      swap1\n      pop\n        /* \"#utility.yul\":796:829   */\n      tag_96\n        /* \"#utility.yul\":823:828   */\n      dup2\n        /* \"#utility.yul\":796:829   */\n      tag_49\n      jump\t// in\n    tag_96:\n        /* \"#utility.yul\":696:835   */\n      swap3\n      swap2\n      pop\n      pop\n      jump\t// out\n        /* \"#utility.yul\":841:1170   */\n    tag_8:\n        /* \"#utility.yul\":900:906   */\n      0x00\n        /* \"#utility.yul\":949:951   */\n      0x20\n        /* \"#utility.yul\":937:946   */\n      dup3\n        /* \"#utility.yul\":928:935   */\n      dup5\n        /* \"#utility.yul\":924:947   */\n      sub\n        /* \"#utility.yul\":920:952   */\n      slt\n        /* \"#utility.yul\":917:1036   */\n      iszero\n      tag_98\n      jumpi\n        /* \"#utility.yul\":955:1034   */\n      tag_99\n      tag_45\n      jump\t// in\n    tag_99:\n        /* \"#utility.yul\":917:1036   */\n    tag_98:\n        /* \"#utility.yul\":1075:1076   */\n      0x00\n        /* \"#utility.yul\":1100:1153   */\n      tag_100\n        /* \"#utility.yul\":1145:1152   */\n      dup5\n        /* \"#utility.yul\":1136:1142   */\n      dup3\n        /* \"#utility.yul\":1125:1134   */\n      dup6\n        /* \"#utility.yul\":1121:1143   */\n      add\n        /* \"#utility.yul\":1100:1153   */\n      tag_50\n      jump\t// in\n    tag_100:\n        /* \"#utility.yul\":1090:1153   */\n      swap2\n      pop\n        /* \"#utility.yul\":1046:1163   */\n      pop\n        /* \"#utility.yul\":841:1170   */\n      swap3\n      swap2\n      pop\n      pop\n      jump\t// out\n        /* \"#utility.yul\":1176:1274   */\n    tag_51:\n        /* \"#utility.yul\":1227:1233   */\n      0x00\n        /* \"#utility.yul\":1261:1266   */\n      dup2\n        /* \"#utility.yul\":1255:1267   */\n      mload\n        /* \"#utility.yul\":1245:1267   */\n      swap1\n      pop\n        /* \"#utility.yul\":1176:1274   */\n      swap2\n      swap1\n      pop\n      jump\t// out\n        /* \"#utility.yul\":1280:1448   */\n    tag_52:\n        /* \"#utility.yul\":1363:1374   */\n      0x00\n        /* \"#utility.yul\":1397:1403   */\n      dup3\n        /* \"#utility.yul\":1392:1395   */\n      dup3\n        /* \"#utility.yul\":1385:1404   */\n      mstore\n        /* \"#utility.yul\":1437:1441   */\n      0x20\n        /* \"#utility.yul\":1432:1435   */\n      dup3\n        /* \"#utility.yul\":1428:1442   */\n      add\n        /* \"#utility.yul\":1413:1442   */\n      swap1\n      pop\n        /* \"#utility.yul\":1280:1448   */\n      swap3\n      swap2\n      pop\n      pop\n      jump\t// out\n        /* \"#utility.yul\":1454:1700   */\n    tag_53:\n        /* \"#utility.yul\":1535:1536   */\n      0x00\n        /* \"#utility.yul\":1545:1658   */\n    tag_104:\n        /* \"#utility.yul\":1559:1565   */\n      dup4\n        /* \"#utility.yul\":1556:1557   */\n      dup2\n        /* \"#utility.yul\":1553:1566   */\n      lt\n        /* \"#utility.yul\":1545:1658   */\n      iszero\n      tag_106\n      jumpi\n        /* \"#utility.yul\":1644:1645   */\n      dup1\n        /* \"#utility.yul\":1639:1642   */\n      dup3\n        /* \"#utility.yul\":1635:1646   */\n      add\n        /* \"#utility.yul\":1629:1647   */\n      mload\n        /* \"#utility.yul\":1625:1626   */\n      dup2\n        /* \"#utility.yul\":1620:1623   */\n      dup5\n        /* \"#utility.yul\":1616:1627   */\n      add\n        /* \"#utility.yul\":1609:1648   */\n      mstore\n        /* \"#utility.yul\":1581:1583   */\n      0x20\n        /* \"#utility.yul\":1578:1579   */\n      dup2\n        /* \"#utility.yul\":1574:1584   */\n      add\n        /* \"#utility.yul\":1569:1584   */\n      swap1\n      pop\n        /* \"#utility.yul\":1545:1658   */\n      jump(tag_104)\n    tag_106:\n        /* \"#utility.yul\":1692:1693   */\n      0x00\n        /* \"#utility.yul\":1683:1689   */\n      dup5\n        /* \"#utility.yul\":1678:1681   */\n      dup5\n        /* \"#utility.yul\":1674:1690   */\n      add\n        /* \"#utility.yul\":1667:1694   */\n      mstore\n        /* \"#utility.yul\":1516:1700   */\n      pop\n        /* \"#utility.yul\":1454:1700   */\n      pop\n      pop\n      pop\n      jump\t// out\n        /* \"#utility.yul\":1706:1808   */\n    tag_54:\n        /* \"#utility.yul\":1747:1753   */\n      0x00\n        /* \"#utility.yul\":1798:1800   */\n      0x1f\n        /* \"#utility.yul\":1794:1801   */\n      not\n        /* \"#utility.yul\":1789:1791   */\n      0x1f\n        /* \"#utility.yul\":1782:1787   */\n      dup4\n        /* \"#utility.yul\":1778:1792   */\n      add\n        /* \"#utility.yul\":1774:1802   */\n      and\n        /* \"#utility.yul\":1764:1802   */\n      swap1\n      pop\n        /* \"#utility.yul\":1706:1808   */\n      swap2\n      swap1\n      pop\n      jump\t// out\n        /* \"#utility.yul\":1814:2187   */\n    tag_55:\n        /* \"#utility.yul\":1900:1903   */\n      0x00\n        /* \"#utility.yul\":1928:1966   */\n      tag_109\n        /* \"#utility.yul\":1960:1965   */\n      dup3\n        /* \"#utility.yul\":1928:1966   */\n      tag_51\n      jump\t// in\n    tag_109:\n        /* \"#utility.yul\":1982:2052   */\n      tag_110\n        /* \"#utility.yul\":2045:2051   */\n      dup2\n        /* \"#utility.yul\":2040:2043   */\n      dup6\n        /* \"#utility.yul\":1982:2052   */\n      tag_52\n      jump\t// in\n    tag_110:\n        /* \"#utility.yul\":1975:2052   */\n      swap4\n      pop\n        /* \"#utility.yul\":2061:2126   */\n      tag_111\n        /* \"#utility.yul\":2119:2125   */\n      dup2\n        /* \"#utility.yul\":2114:2117   */\n      dup6\n        /* \"#utility.yul\":2107:2111   */\n      0x20\n        /* \"#utility.yul\":2100:2105   */\n      dup7\n        /* \"#utility.yul\":2096:2112   */\n      add\n        /* \"#utility.yul\":2061:2126   */\n      tag_53\n      jump\t// in\n    tag_111:\n        /* \"#utility.yul\":2151:2180   */\n      tag_112\n        /* \"#utility.yul\":2173:2179   */\n      dup2\n        /* \"#utility.yul\":2151:2180   */\n      tag_54\n      jump\t// in\n    tag_112:\n        /* \"#utility.yul\":2146:2149   */\n      dup5\n        /* \"#utility.yul\":2142:2181   */\n      add\n        /* \"#utility.yul\":2135:2181   */\n      swap2\n      pop\n        /* \"#utility.yul\":1904:2187   */\n      pop\n        /* \"#utility.yul\":1814:2187   */\n      swap3\n      swap2\n      pop\n      pop\n      jump\t// out\n        /* \"#utility.yul\":2193:2502   */\n    tag_14:\n        /* \"#utility.yul\":2304:2308   */\n      0x00\n        /* \"#utility.yul\":2342:2344   */\n      0x20\n        /* \"#utility.yul\":2331:2340   */\n      dup3\n        /* \"#utility.yul\":2327:2345   */\n      add\n        /* \"#utility.yul\":2319:2345   */\n      swap1\n      pop\n        /* \"#utility.yul\":2391:2400   */\n      dup2\n        /* \"#utility.yul\":2385:2389   */\n      dup2\n        /* \"#utility.yul\":2381:2401   */\n      sub\n        /* \"#utility.yul\":2377:2378   */\n      0x00\n        /* \"#utility.yul\":2366:2375   */\n      dup4\n        /* \"#utility.yul\":2362:2379   */\n      add\n        /* \"#utility.yul\":2355:2402   */\n      mstore\n        /* \"#utility.yul\":2419:2495   */\n      tag_114\n        /* \"#utility.yul\":2490:2494   */\n      dup2\n        /* \"#utility.yul\":2481:2487   */\n      dup5\n        /* \"#utility.yul\":2419:2495   */\n      tag_55\n      jump\t// in\n    tag_114:\n        /* \"#utility.yul\":2411:2495   */\n      swap1\n      pop\n        /* \"#utility.yul\":2193:2502   */\n      swap3\n      swap2\n      pop\n      pop\n      jump\t// out\n        /* \"#utility.yul\":2508:2655   */\n    tag_56:\n        /* \"#utility.yul\":2609:2620   */\n      0x00\n        /* \"#utility.yul\":2646:2649   */\n      dup2\n        /* \"#utility.yul\":2631:2649   */\n      swap1\n      pop\n        /* \"#utility.yul\":2508:2655   */\n      swap3\n      swap2\n      pop\n      pop\n      jump\t// out\n        /* \"#utility.yul\":2661:3047   */\n    tag_57:\n        /* \"#utility.yul\":2765:2768   */\n      0x00\n        /* \"#utility.yul\":2793:2831   */\n      tag_117\n        /* \"#utility.yul\":2825:2830   */\n      dup3\n        /* \"#utility.yul\":2793:2831   */\n      tag_51\n      jump\t// in\n    tag_117:\n        /* \"#utility.yul\":2847:2935   */\n      tag_118\n        /* \"#utility.yul\":2928:2934   */\n      dup2\n        /* \"#utility.yul\":2923:2926   */\n      dup6\n        /* \"#utility.yul\":2847:2935   */\n      tag_56\n      jump\t// in\n    tag_118:\n        /* \"#utility.yul\":2840:2935   */\n      swap4\n      pop\n        /* \"#utility.yul\":2944:3009   */\n      tag_119\n        /* \"#utility.yul\":3002:3008   */\n      dup2\n        /* \"#utility.yul\":2997:3000   */\n      dup6\n        /* \"#utility.yul\":2990:2994   */\n      0x20\n        /* \"#utility.yul\":2983:2988   */\n      dup7\n        /* \"#utility.yul\":2979:2995   */\n      add\n        /* \"#utility.yul\":2944:3009   */\n      tag_53\n      jump\t// in\n    tag_119:\n        /* \"#utility.yul\":3034:3040   */\n      dup1\n        /* \"#utility.yul\":3029:3032   */\n      dup5\n        /* \"#utility.yul\":3025:3041   */\n      add\n        /* \"#utility.yul\":3018:3041   */\n      swap2\n      pop\n        /* \"#utility.yul\":2769:3047   */\n      pop\n        /* \"#utility.yul\":2661:3047   */\n      swap3\n      swap2\n      pop\n      pop\n      jump\t// out\n        /* \"#utility.yul\":3053:3324   */\n    tag_20:\n        /* \"#utility.yul\":3183:3186   */\n      0x00\n        /* \"#utility.yul\":3205:3298   */\n      tag_121\n        /* \"#utility.yul\":3294:3297   */\n      dup3\n        /* \"#utility.yul\":3285:3291   */\n      dup5\n        /* \"#utility.yul\":3205:3298   */\n      tag_57\n      jump\t// in\n    tag_121:\n        /* \"#utility.yul\":3198:3298   */\n      swap2\n      pop\n        /* \"#utility.yul\":3315:3318   */\n      dup2\n        /* \"#utility.yul\":3308:3318   */\n      swap1\n      pop\n        /* \"#utility.yul\":3053:3324   */\n      swap3\n      swap2\n      pop\n      pop\n      jump\t// out\n        /* \"#utility.yul\":3330:3499   */\n    tag_58:\n        /* \"#utility.yul\":3414:3425   */\n      0x00\n        /* \"#utility.yul\":3448:3454   */\n      dup3\n        /* \"#utility.yul\":3443:3446   */\n      dup3\n        /* \"#utility.yul\":3436:3455   */\n      mstore\n        /* \"#utility.yul\":3488:3492   */\n      0x20\n        /* \"#utility.yul\":3483:3486   */\n      dup3\n        /* \"#utility.yul\":3479:3493   */\n      add\n        /* \"#utility.yul\":3464:3493   */\n      swap1\n      pop\n        /* \"#utility.yul\":3330:3499   */\n      swap3\n      swap2\n      pop\n      pop\n      jump\t// out\n        /* \"#utility.yul\":3505:3670   */\n    tag_59:\n        /* \"#utility.yul\":3645:3662   */\n      0x63616c6c20666f6f206661696c65640000000000000000000000000000000000\n        /* \"#utility.yul\":3641:3642   */\n      0x00\n        /* \"#utility.yul\":3633:3639   */\n      dup3\n        /* \"#utility.yul\":3629:3643   */\n      add\n        /* \"#utility.yul\":3622:3663   */\n      mstore\n        /* \"#utility.yul\":3505:3670   */\n      pop\n      jump\t// out\n        /* \"#utility.yul\":3676:4042   */\n    tag_60:\n        /* \"#utility.yul\":3818:3821   */\n      0x00\n        /* \"#utility.yul\":3839:3906   */\n      tag_125\n        /* \"#utility.yul\":3903:3905   */\n      0x0f\n        /* \"#utility.yul\":3898:3901   */\n      dup4\n        /* \"#utility.yul\":3839:3906   */\n      tag_58\n      jump\t// in\n    tag_125:\n        /* \"#utility.yul\":3832:3906   */\n      swap2\n      pop\n        /* \"#utility.yul\":3915:4008   */\n      tag_126\n        /* \"#utility.yul\":4004:4007   */\n      dup3\n        /* \"#utility.yul\":3915:4008   */\n      tag_59\n      jump\t// in\n    tag_126:\n        /* \"#utility.yul\":4033:4035   */\n      0x20\n        /* \"#utility.yul\":4028:4031   */\n      dup3\n        /* \"#utility.yul\":4024:4036   */\n      add\n        /* \"#utility.yul\":4017:4036   */\n      swap1\n      pop\n        /* \"#utility.yul\":3676:4042   */\n      swap2\n      swap1\n      pop\n      jump\t// out\n        /* \"#utility.yul\":4048:4467   */\n    tag_26:\n        /* \"#utility.yul\":4214:4218   */\n      0x00\n        /* \"#utility.yul\":4252:4254   */\n      0x20\n        /* \"#utility.yul\":4241:4250   */\n      dup3\n        /* \"#utility.yul\":4237:4255   */\n      add\n        /* \"#utility.yul\":4229:4255   */\n      swap1\n      pop\n        /* \"#utility.yul\":4301:4310   */\n      dup2\n        /* \"#utility.yul\":4295:4299   */\n      dup2\n        /* \"#utility.yul\":4291:4311   */\n      sub\n        /* \"#utility.yul\":4287:4288   */\n      0x00\n        /* \"#utility.yul\":4276:4285   */\n      dup4\n        /* \"#utility.yul\":4272:4289   */\n      add\n        /* \"#utility.yul\":4265:4312   */\n      mstore\n        /* \"#utility.yul\":4329:4460   */\n      tag_128\n        /* \"#utility.yul\":4455:4459   */\n      dup2\n        /* \"#utility.yul\":4329:4460   */\n      tag_60\n      jump\t// in\n    tag_128:\n        /* \"#utility.yul\":4321:4460   */\n      swap1\n      pop\n        /* \"#utility.yul\":4048:4467   */\n      swap2\n      swap1\n      pop\n      jump\t// out\n        /* \"#utility.yul\":4473:4653   */\n    tag_61:\n        /* \"#utility.yul\":4521:4598   */\n      0x4e487b7100000000000000000000000000000000000000000000000000000000\n        /* \"#utility.yul\":4518:4519   */\n      0x00\n        /* \"#utility.yul\":4511:4599   */\n      mstore\n        /* \"#utility.yul\":4618:4622   */\n      0x22\n        /* \"#utility.yul\":4615:4616   */\n      0x04\n        /* \"#utility.yul\":4608:4623   */\n      mstore\n        /* \"#utility.yul\":4642:4646   */\n      0x24\n        /* \"#utility.yul\":4639:4640   */\n      0x00\n        /* \"#utility.yul\":4632:4647   */\n      revert\n        /* \"#utility.yul\":4659:4979   */\n    tag_28:\n        /* \"#utility.yul\":4703:4709   */\n      0x00\n        /* \"#utility.yul\":4740:4741   */\n      0x02\n        /* \"#utility.yul\":4734:4738   */\n      dup3\n        /* \"#utility.yul\":4730:4742   */\n      div\n        /* \"#utility.yul\":4720:4742   */\n      swap1\n      pop\n        /* \"#utility.yul\":4787:4788   */\n      0x01\n        /* \"#utility.yul\":4781:4785   */\n      dup3\n        /* \"#utility.yul\":4777:4789   */\n      and\n        /* \"#utility.yul\":4808:4826   */\n      dup1\n        /* \"#utility.yul\":4798:4879   */\n      tag_131\n      jumpi\n        /* \"#utility.yul\":4864:4868   */\n      0x7f\n        /* \"#utility.yul\":4856:4862   */\n      dup3\n        /* \"#utility.yul\":4852:4869   */\n      and\n        /* \"#utility.yul\":4842:4869   */\n      swap2\n      pop\n        /* \"#utility.yul\":4798:4879   */\n    tag_131:\n        /* \"#utility.yul\":4926:4928   */\n      0x20\n        /* \"#utility.yul\":4918:4924   */\n      dup3\n        /* \"#utility.yul\":4915:4929   */\n      lt\n        /* \"#utility.yul\":4895:4913   */\n      dup2\n        /* \"#utility.yul\":4892:4930   */\n      sub\n        /* \"#utility.yul\":4889:4973   */\n      tag_132\n      jumpi\n        /* \"#utility.yul\":4945:4963   */\n      tag_133\n      tag_61\n      jump\t// in\n    tag_133:\n        /* \"#utility.yul\":4889:4973   */\n    tag_132:\n        /* \"#utility.yul\":4710:4979   */\n      pop\n        /* \"#utility.yul\":4659:4979   */\n      swap2\n      swap1\n      pop\n      jump\t// out\n        /* \"#utility.yul\":4985:5072   */\n    tag_62:\n        /* \"#utility.yul\":5032:5039   */\n      0x00\n        /* \"#utility.yul\":5061:5066   */\n      dup2\n        /* \"#utility.yul\":5050:5066   */\n      swap1\n      pop\n        /* \"#utility.yul\":4985:5072   */\n      swap2\n      swap1\n      pop\n      jump\t// out\n        /* \"#utility.yul\":5078:5164   */\n    tag_63:\n        /* \"#utility.yul\":5113:5120   */\n      0x00\n        /* \"#utility.yul\":5153:5157   */\n      0xff\n        /* \"#utility.yul\":5146:5151   */\n      dup3\n        /* \"#utility.yul\":5142:5158   */\n      and\n        /* \"#utility.yul\":5131:5158   */\n      swap1\n      pop\n        /* \"#utility.yul\":5078:5164   */\n      swap2\n      swap1\n      pop\n      jump\t// out\n        /* \"#utility.yul\":5170:5230   */\n    tag_64:\n        /* \"#utility.yul\":5198:5201   */\n      0x00\n        /* \"#utility.yul\":5219:5224   */\n      dup2\n        /* \"#utility.yul\":5212:5224   */\n      swap1\n      pop\n        /* \"#utility.yul\":5170:5230   */\n      swap2\n      swap1\n      pop\n      jump\t// out\n        /* \"#utility.yul\":5236:5394   */\n    tag_65:\n        /* \"#utility.yul\":5294:5303   */\n      0x00\n        /* \"#utility.yul\":5327:5388   */\n      tag_138\n        /* \"#utility.yul\":5343:5387   */\n      tag_139\n        /* \"#utility.yul\":5352:5386   */\n      tag_140\n        /* \"#utility.yul\":5380:5385   */\n      dup5\n        /* \"#utility.yul\":5352:5386   */\n      tag_62\n      jump\t// in\n    tag_140:\n        /* \"#utility.yul\":5343:5387   */\n      tag_64\n      jump\t// in\n    tag_139:\n        /* \"#utility.yul\":5327:5388   */\n      tag_63\n      jump\t// in\n    tag_138:\n        /* \"#utility.yul\":5314:5388   */\n      swap1\n      pop\n        /* \"#utility.yul\":5236:5394   */\n      swap2\n      swap1\n      pop\n      jump\t// out\n        /* \"#utility.yul\":5400:5547   */\n    tag_66:\n        /* \"#utility.yul\":5495:5540   */\n      tag_142\n        /* \"#utility.yul\":5534:5539   */\n      dup2\n        /* \"#utility.yul\":5495:5540   */\n      tag_65\n      jump\t// in\n    tag_142:\n        /* \"#utility.yul\":5490:5493   */\n      dup3\n        /* \"#utility.yul\":5483:5541   */\n      mstore\n        /* \"#utility.yul\":5400:5547   */\n      pop\n      pop\n      jump\t// out\n        /* \"#utility.yul\":5553:5711   */\n    tag_67:\n        /* \"#utility.yul\":5693:5703   */\n      0x63616c6c20666f6f000000000000000000000000000000000000000000000000\n        /* \"#utility.yul\":5689:5690   */\n      0x00\n        /* \"#utility.yul\":5681:5687   */\n      dup3\n        /* \"#utility.yul\":5677:5691   */\n      add\n        /* \"#utility.yul\":5670:5704   */\n      mstore\n        /* \"#utility.yul\":5553:5711   */\n      pop\n      jump\t// out\n        /* \"#utility.yul\":5717:6082   */\n    tag_68:\n        /* \"#utility.yul\":5859:5862   */\n      0x00\n        /* \"#utility.yul\":5880:5946   */\n      tag_145\n        /* \"#utility.yul\":5944:5945   */\n      0x08\n        /* \"#utility.yul\":5939:5942   */\n      dup4\n        /* \"#utility.yul\":5880:5946   */\n      tag_58\n      jump\t// in\n    tag_145:\n        /* \"#utility.yul\":5873:5946   */\n      swap2\n      pop\n        /* \"#utility.yul\":5955:6048   */\n      tag_146\n        /* \"#utility.yul\":6044:6047   */\n      dup3\n        /* \"#utility.yul\":5955:6048   */\n      tag_67\n      jump\t// in\n    tag_146:\n        /* \"#utility.yul\":6073:6075   */\n      0x20\n        /* \"#utility.yul\":6068:6071   */\n      dup3\n        /* \"#utility.yul\":6064:6076   */\n      add\n        /* \"#utility.yul\":6057:6076   */\n      swap1\n      pop\n        /* \"#utility.yul\":5717:6082   */\n      swap2\n      swap1\n      pop\n      jump\t// out\n        /* \"#utility.yul\":6088:6633   */\n    tag_35:\n        /* \"#utility.yul\":6290:6294   */\n      0x00\n        /* \"#utility.yul\":6328:6330   */\n      0x40\n        /* \"#utility.yul\":6317:6326   */\n      dup3\n        /* \"#utility.yul\":6313:6331   */\n      add\n        /* \"#utility.yul\":6305:6331   */\n      swap1\n      pop\n        /* \"#utility.yul\":6341:6420   */\n      tag_148\n        /* \"#utility.yul\":6417:6418   */\n      0x00\n        /* \"#utility.yul\":6406:6415   */\n      dup4\n        /* \"#utility.yul\":6402:6419   */\n      add\n        /* \"#utility.yul\":6393:6399   */\n      dup5\n        /* \"#utility.yul\":6341:6420   */\n      tag_66\n      jump\t// in\n    tag_148:\n        /* \"#utility.yul\":6467:6476   */\n      dup2\n        /* \"#utility.yul\":6461:6465   */\n      dup2\n        /* \"#utility.yul\":6457:6477   */\n      sub\n        /* \"#utility.yul\":6452:6454   */\n      0x20\n        /* \"#utility.yul\":6441:6450   */\n      dup4\n        /* \"#utility.yul\":6437:6455   */\n      add\n        /* \"#utility.yul\":6430:6478   */\n      mstore\n        /* \"#utility.yul\":6495:6626   */\n      tag_149\n        /* \"#utility.yul\":6621:6625   */\n      dup2\n        /* \"#utility.yul\":6495:6626   */\n      tag_68\n      jump\t// in\n    tag_149:\n        /* \"#utility.yul\":6487:6626   */\n      swap1\n      pop\n        /* \"#utility.yul\":6088:6633   */\n      swap3\n      swap2\n      pop\n      pop\n      jump\t// out\n        /* \"#utility.yul\":6639:6819   */\n    tag_69:\n        /* \"#utility.yul\":6687:6764   */\n      0x4e487b7100000000000000000000000000000000000000000000000000000000\n        /* \"#utility.yul\":6684:6685   */\n      0x00\n        /* \"#utility.yul\":6677:6765   */\n      mstore\n        /* \"#utility.yul\":6784:6788   */\n      0x41\n        /* \"#utility.yul\":6781:6782   */\n      0x04\n        /* \"#utility.yul\":6774:6789   */\n      mstore\n        /* \"#utility.yul\":6808:6812   */\n      0x24\n        /* \"#utility.yul\":6805:6806   */\n      0x00\n        /* \"#utility.yul\":6798:6813   */\n      revert\n        /* \"#utility.yul\":6825:6965   */\n    tag_70:\n        /* \"#utility.yul\":6873:6877   */\n      0x00\n        /* \"#utility.yul\":6896:6899   */\n      dup2\n        /* \"#utility.yul\":6888:6899   */\n      swap1\n      pop\n        /* \"#utility.yul\":6919:6922   */\n      dup2\n        /* \"#utility.yul\":6916:6917   */\n      0x00\n        /* \"#utility.yul\":6909:6923   */\n      mstore\n        /* \"#utility.yul\":6953:6957   */\n      0x20\n        /* \"#utility.yul\":6950:6951   */\n      0x00\n        /* \"#utility.yul\":6940:6958   */\n      keccak256\n        /* \"#utility.yul\":6932:6958   */\n      swap1\n      pop\n        /* \"#utility.yul\":6825:6965   */\n      swap2\n      swap1\n      pop\n      jump\t// out\n        /* \"#utility.yul\":6971:7064   */\n    tag_71:\n        /* \"#utility.yul\":7008:7014   */\n      0x00\n        /* \"#utility.yul\":7055:7057   */\n      0x20\n        /* \"#utility.yul\":7050:7052   */\n      0x1f\n        /* \"#utility.yul\":7043:7048   */\n      dup4\n        /* \"#utility.yul\":7039:7053   */\n      add\n        /* \"#utility.yul\":7035:7058   */\n      div\n        /* \"#utility.yul\":7025:7058   */\n      swap1\n      pop\n        /* \"#utility.yul\":6971:7064   */\n      swap2\n      swap1\n      pop\n      jump\t// out\n        /* \"#utility.yul\":7070:7177   */\n    tag_72:\n        /* \"#utility.yul\":7114:7122   */\n      0x00\n        /* \"#utility.yul\":7164:7169   */\n      dup3\n        /* \"#utility.yul\":7158:7162   */\n      dup3\n        /* \"#utility.yul\":7154:7170   */\n      shl\n        /* \"#utility.yul\":7133:7170   */\n      swap1\n      pop\n        /* \"#utility.yul\":7070:7177   */\n      swap3\n      swap2\n      pop\n      pop\n      jump\t// out\n        /* \"#utility.yul\":7183:7576   */\n    tag_73:\n        /* \"#utility.yul\":7252:7258   */\n      0x00\n        /* \"#utility.yul\":7302:7303   */\n      0x08\n        /* \"#utility.yul\":7290:7300   */\n      dup4\n        /* \"#utility.yul\":7286:7304   */\n      mul\n        /* \"#utility.yul\":7325:7422   */\n      tag_155\n        /* \"#utility.yul\":7355:7421   */\n      0xffffffffffffffffffffffffffffffffffffffffffffffffffffffffffffffff\n        /* \"#utility.yul\":7344:7353   */\n      dup3\n        /* \"#utility.yul\":7325:7422   */\n      tag_72\n      jump\t// in\n    tag_155:\n        /* \"#utility.yul\":7443:7482   */\n      tag_156\n        /* \"#utility.yul\":7473:7481   */\n      dup7\n        /* \"#utility.yul\":7462:7471   */\n      dup4\n        /* \"#utility.yul\":7443:7482   */\n      tag_72\n      jump\t// in\n    tag_156:\n        /* \"#utility.yul\":7431:7482   */\n      swap6\n      pop\n        /* \"#utility.yul\":7515:7519   */\n      dup1\n        /* \"#utility.yul\":7511:7520   */\n      not\n        /* \"#utility.yul\":7504:7509   */\n      dup5\n        /* \"#utility.yul\":7500:7521   */\n      and\n        /* \"#utility.yul\":7491:7521   */\n      swap4\n      pop\n        /* \"#utility.yul\":7564:7568   */\n      dup1\n        /* \"#utility.yul\":7554:7562   */\n      dup7\n        /* \"#utility.yul\":7550:7569   */\n      and\n        /* \"#utility.yul\":7543:7548   */\n      dup5\n        /* \"#utility.yul\":7540:7570   */\n      or\n        /* \"#utility.yul\":7530:7570   */\n      swap3\n      pop\n        /* \"#utility.yul\":7259:7576   */\n      pop\n      pop\n        /* \"#utility.yul\":7183:7576   */\n      swap4\n      swap3\n      pop\n      pop\n      pop\n      jump\t// out\n        /* \"#utility.yul\":7582:7659   */\n    tag_74:\n        /* \"#utility.yul\":7619:7626   */\n      0x00\n        /* \"#utility.yul\":7648:7653   */\n      dup2\n        /* \"#utility.yul\":7637:7653   */\n      swap1\n      pop\n        /* \"#utility.yul\":7582:7659   */\n      swap2\n      swap1\n      pop\n      jump\t// out\n        /* \"#utility.yul\":7665:7807   */\n    tag_75:\n        /* \"#utility.yul\":7715:7724   */\n      0x00\n        /* \"#utility.yul\":7748:7801   */\n      tag_159\n        /* \"#utility.yul\":7766:7800   */\n      tag_160\n        /* \"#utility.yul\":7775:7799   */\n      tag_161\n        /* \"#utility.yul\":7793:7798   */\n      dup5\n        /* \"#utility.yul\":7775:7799   */\n      tag_74\n      jump\t// in\n    tag_161:\n        /* \"#utility.yul\":7766:7800   */\n      tag_64\n      jump\t// in\n    tag_160:\n        /* \"#utility.yul\":7748:7801   */\n      tag_74\n      jump\t// in\n    tag_159:\n        /* \"#utility.yul\":7735:7801   */\n      swap1\n      pop\n        /* \"#utility.yul\":7665:7807   */\n      swap2\n      swap1\n      pop\n      jump\t// out\n        /* \"#utility.yul\":7813:7888   */\n    tag_76:\n        /* \"#utility.yul\":7856:7859   */\n      0x00\n        /* \"#utility.yul\":7877:7882   */\n      dup2\n        /* \"#utility.yul\":7870:7882   */\n      swap1\n      pop\n        /* \"#utility.yul\":7813:7888   */\n      swap2\n      swap1\n      pop\n      jump\t// out\n        /* \"#utility.yul\":7894:8163   */\n    tag_77:\n        /* \"#utility.yul\":8004:8043   */\n      tag_164\n        /* \"#utility.yul\":8035:8042   */\n      dup4\n        /* \"#utility.yul\":8004:8043   */\n      tag_75\n      jump\t// in\n    tag_164:\n        /* \"#utility.yul\":8065:8156   */\n      tag_165\n        /* \"#utility.yul\":8114:8155   */\n      tag_166\n        /* \"#utility.yul\":8138:8154   */\n      dup3\n        /* \"#utility.yul\":8114:8155   */\n      tag_76\n      jump\t// in\n    tag_166:\n        /* \"#utility.yul\":8106:8112   */\n      dup5\n        /* \"#utility.yul\":8099:8103   */\n      dup5\n        /* \"#utility.yul\":8093:8104   */\n      sload\n        /* \"#utility.yul\":8065:8156   */\n      tag_73\n      jump\t// in\n    tag_165:\n        /* \"#utility.yul\":8059:8063   */\n      dup3\n        /* \"#utility.yul\":8052:8157   */\n      sstore\n        /* \"#utility.yul\":7970:8163   */\n      pop\n        /* \"#utility.yul\":7894:8163   */\n      pop\n      pop\n      pop\n      jump\t// out\n        /* \"#utility.yul\":8169:8242   */\n    tag_78:\n        /* \"#utility.yul\":8214:8217   */\n      0x00\n        /* \"#utility.yul\":8169:8242   */\n      swap1\n      jump\t// out\n        /* \"#utility.yul\":8248:8437   */\n    tag_79:\n        /* \"#utility.yul\":8325:8357   */\n      tag_169\n      tag_78\n      jump\t// in\n    tag_169:\n        /* \"#utility.yul\":8366:8431   */\n      tag_170\n        /* \"#utility.yul\":8424:8430   */\n      dup2\n        /* \"#utility.yul\":8416:8422   */\n      dup5\n        /* \"#utility.yul\":8410:8414   */\n      dup5\n        /* \"#utility.yul\":8366:8431   */\n      tag_77\n      jump\t// in\n    tag_170:\n        /* \"#utility.yul\":8301:8437   */\n      pop\n        /* \"#utility.yul\":8248:8437   */\n      pop\n      pop\n      jump\t// out\n        /* \"#utility.yul\":8443:8629   */\n    tag_80:\n        /* \"#utility.yul\":8503:8623   */\n    tag_172:\n        /* \"#utility.yul\":8520:8523   */\n      dup2\n        /* \"#utility.yul\":8513:8518   */\n      dup2\n        /* \"#utility.yul\":8510:8524   */\n      lt\n        /* \"#utility.yul\":8503:8623   */\n      iszero\n      tag_174\n      jumpi\n        /* \"#utility.yul\":8574:8613   */\n      tag_175\n        /* \"#utility.yul\":8611:8612   */\n      0x00\n        /* \"#utility.yul\":8604:8609   */\n      dup3\n        /* \"#utility.yul\":8574:8613   */\n      tag_79\n      jump\t// in\n    tag_175:\n        /* \"#utility.yul\":8547:8548   */\n      0x01\n        /* \"#utility.yul\":8540:8545   */\n      dup2\n        /* \"#utility.yul\":8536:8549   */\n      add\n        /* \"#utility.yul\":8527:8549   */\n      swap1\n      pop\n        /* \"#utility.yul\":8503:8623   */\n      jump(tag_172)\n    tag_174:\n        /* \"#utility.yul\":8443:8629   */\n      pop\n      pop\n      jump\t// out\n        /* \"#utility.yul\":8635:9176   */\n    tag_81:\n        /* \"#utility.yul\":8735:8737   */\n      0x1f\n        /* \"#utility.yul\":8730:8733   */\n      dup3\n        /* \"#utility.yul\":8727:8738   */\n      gt\n        /* \"#utility.yul\":8724:9169   */\n      iszero\n      tag_177\n      jumpi\n        /* \"#utility.yul\":8769:8806   */\n      tag_178\n        /* \"#utility.yul\":8800:8805   */\n      dup2\n        /* \"#utility.yul\":8769:8806   */\n      tag_70\n      jump\t// in\n    tag_178:\n        /* \"#utility.yul\":8852:8881   */\n      tag_179\n        /* \"#utility.yul\":8870:8880   */\n      dup5\n        /* \"#utility.yul\":8852:8881   */\n      tag_71\n      jump\t// in\n    tag_179:\n        /* \"#utility.yul\":8842:8850   */\n      dup2\n        /* \"#utility.yul\":8838:8882   */\n      add\n        /* \"#utility.yul\":9035:9037   */\n      0x20\n        /* \"#utility.yul\":9023:9033   */\n      dup6\n        /* \"#utility.yul\":9020:9038   */\n      lt\n        /* \"#utility.yul\":9017:9066   */\n      iszero\n      tag_180\n      jumpi\n        /* \"#utility.yul\":9056:9064   */\n      dup2\n        /* \"#utility.yul\":9041:9064   */\n      swap1\n      pop\n        /* \"#utility.yul\":9017:9066   */\n    tag_180:\n        /* \"#utility.yul\":9079:9159   */\n      tag_181\n        /* \"#utility.yul\":9135:9157   */\n      tag_182\n        /* \"#utility.yul\":9153:9156   */\n      dup6\n        /* \"#utility.yul\":9135:9157   */\n      tag_71\n      jump\t// in\n    tag_182:\n        /* \"#utility.yul\":9125:9133   */\n      dup4\n        /* \"#utility.yul\":9121:9158   */\n      add\n        /* \"#utility.yul\":9108:9119   */\n      dup3\n        /* \"#utility.yul\":9079:9159   */\n      tag_80\n      jump\t// in\n    tag_181:\n        /* \"#utility.yul\":8739:9169   */\n      pop\n      pop\n        /* \"#utility.yul\":8724:9169   */\n    tag_177:\n        /* \"#utility.yul\":8635:9176   */\n      pop\n      pop\n      pop\n      jump\t// out\n        /* \"#utility.yul\":9182:9299   */\n    tag_82:\n        /* \"#utility.yul\":9236:9244   */\n      0x00\n        /* \"#utility.yul\":9286:9291   */\n      dup3\n        /* \"#utility.yul\":9280:9284   */\n      dup3\n        /* \"#utility.yul\":9276:9292   */\n      shr\n        /* \"#utility.yul\":9255:9292   */\n      swap1\n      pop\n        /* \"#utility.yul\":9182:9299   */\n      swap3\n      swap2\n      pop\n      pop\n      jump\t// out\n        /* \"#utility.yul\":9305:9474   */\n    tag_83:\n        /* \"#utility.yul\":9349:9355   */\n      0x00\n        /* \"#utility.yul\":9382:9433   */\n      tag_185\n        /* \"#utility.yul\":9430:9431   */\n      0x00\n        /* \"#utility.yul\":9426:9432   */\n      not\n        /* \"#utility.yul\":9418:9423   */\n      dup5\n        /* \"#utility.yul\":9415:9416   */\n      0x08\n        /* \"#utility.yul\":9411:9424   */\n      mul\n        /* \"#utility.yul\":9382:9433   */\n      tag_82\n      jump\t// in\n    tag_185:\n        /* \"#utility.yul\":9378:9434   */\n      not\n        /* \"#utility.yul\":9463:9467   */\n      dup1\n        /* \"#utility.yul\":9457:9461   */\n      dup4\n        /* \"#utility.yul\":9453:9468   */\n      and\n        /* \"#utility.yul\":9443:9468   */\n      swap2\n      pop\n        /* \"#utility.yul\":9356:9474   */\n      pop\n        /* \"#utility.yul\":9305:9474   */\n      swap3\n      swap2\n      pop\n      pop\n      jump\t// out\n        /* \"#utility.yul\":9479:9774   */\n    tag_84:\n        /* \"#utility.yul\":9555:9559   */\n      0x00\n        /* \"#utility.yul\":9701:9730   */\n      tag_187\n        /* \"#utility.yul\":9726:9729   */\n      dup4\n        /* \"#utility.yul\":9720:9724   */\n      dup4\n        /* \"#utility.yul\":9701:9730   */\n      tag_83\n      jump\t// in\n    tag_187:\n        /* \"#utility.yul\":9693:9730   */\n      swap2\n      pop\n        /* \"#utility.yul\":9763:9766   */\n      dup3\n        /* \"#utility.yul\":9760:9761   */\n      0x02\n        /* \"#utility.yul\":9756:9767   */\n      mul\n        /* \"#utility.yul\":9750:9754   */\n      dup3\n        /* \"#utility.yul\":9747:9768   */\n      or\n        /* \"#utility.yul\":9739:9768   */\n      swap1\n      pop\n        /* \"#utility.yul\":9479:9774   */\n      swap3\n      swap2\n      pop\n      pop\n      jump\t// out\n        /* \"#utility.yul\":9779:11169   */\n    tag_43:\n        /* \"#utility.yul\":9894:9930   */\n      tag_189\n        /* \"#utility.yul\":9926:9929   */\n      dup3\n        /* \"#utility.yul\":9894:9930   */\n      tag_51\n      jump\t// in\n    tag_189:\n        /* \"#utility.yul\":9995:10013   */\n      0xffffffffffffffff\n        /* \"#utility.yul\":9987:9993   */\n      dup2\n        /* \"#utility.yul\":9984:10014   */\n      gt\n        /* \"#utility.yul\":9981:10037   */\n      iszero\n      tag_190\n      jumpi\n        /* \"#utility.yul\":10017:10035   */\n      tag_191\n      tag_69\n      jump\t// in\n    tag_191:\n        /* \"#utility.yul\":9981:10037   */\n    tag_190:\n        /* \"#utility.yul\":10061:10099   */\n      tag_192\n        /* \"#utility.yul\":10093:10097   */\n      dup3\n        /* \"#utility.yul\":10087:10098   */\n      sload\n        /* \"#utility.yul\":10061:10099   */\n      tag_28\n      jump\t// in\n    tag_192:\n        /* \"#utility.yul\":10146:10212   */\n      tag_193\n        /* \"#utility.yul\":10205:10211   */\n      dup3\n        /* \"#utility.yul\":10197:10203   */\n      dup3\n        /* \"#utility.yul\":10191:10195   */\n      dup6\n        /* \"#utility.yul\":10146:10212   */\n      tag_81\n      jump\t// in\n    tag_193:\n        /* \"#utility.yul\":10239:10240   */\n      0x00\n        /* \"#utility.yul\":10263:10267   */\n      0x20\n        /* \"#utility.yul\":10250:10267   */\n      swap1\n      pop\n        /* \"#utility.yul\":10295:10297   */\n      0x1f\n        /* \"#utility.yul\":10287:10293   */\n      dup4\n        /* \"#utility.yul\":10284:10298   */\n      gt\n        /* \"#utility.yul\":10312:10313   */\n      0x01\n        /* \"#utility.yul\":10307:10924   */\n      dup2\n      eq\n      tag_195\n      jumpi\n        /* \"#utility.yul\":10968:10969   */\n      0x00\n        /* \"#utility.yul\":10985:10991   */\n      dup5\n        /* \"#utility.yul\":10982:11059   */\n      iszero\n      tag_196\n      jumpi\n        /* \"#utility.yul\":11034:11043   */\n      dup3\n        /* \"#utility.yul\":11029:11032   */\n      dup8\n        /* \"#utility.yul\":11025:11044   */\n      add\n        /* \"#utility.yul\":11019:11045   */\n      mload\n        /* \"#utility.yul\":11010:11045   */\n      swap1\n      pop\n        /* \"#utility.yul\":10982:11059   */\n    tag_196:\n        /* \"#utility.yul\":11085:11152   */\n      tag_197\n        /* \"#utility.yul\":11145:11151   */\n      dup6\n        /* \"#utility.yul\":11138:11143   */\n      dup3\n        /* \"#utility.yul\":11085:11152   */\n      tag_84\n      jump\t// in\n    tag_197:\n        /* \"#utility.yul\":11079:11083   */\n      dup7\n        /* \"#utility.yul\":11072:11153   */\n      sstore\n        /* \"#utility.yul\":10941:11163   */\n      pop\n        /* \"#utility.yul\":10277:11163   */\n      jump(tag_194)\n        /* \"#utility.yul\":10307:10924   */\n    tag_195:\n        /* \"#utility.yul\":10359:10363   */\n      0x1f\n        /* \"#utility.yul\":10355:10364   */\n      not\n        /* \"#utility.yul\":10347:10353   */\n      dup5\n        /* \"#utility.yul\":10343:10365   */\n      and\n        /* \"#utility.yul\":10393:10429   */\n      tag_198\n        /* \"#utility.yul\":10424:10428   */\n      dup7\n        /* \"#utility.yul\":10393:10429   */\n      tag_70\n      jump\t// in\n    tag_198:\n        /* \"#utility.yul\":10451:10452   */\n      0x00\n        /* \"#utility.yul\":10465:10673   */\n    tag_199:\n        /* \"#utility.yul\":10479:10486   */\n      dup3\n        /* \"#utility.yul\":10476:10477   */\n      dup2\n        /* \"#utility.yul\":10473:10487   */\n      lt\n        /* \"#utility.yul\":10465:10673   */\n      iszero\n      tag_201\n      jumpi\n        /* \"#utility.yul\":10558:10567   */\n      dup5\n        /* \"#utility.yul\":10553:10556   */\n      dup10\n        /* \"#utility.yul\":10549:10568   */\n      add\n        /* \"#utility.yul\":10543:10569   */\n      mload\n        /* \"#utility.yul\":10535:10541   */\n      dup3\n        /* \"#utility.yul\":10528:10570   */\n      sstore\n        /* \"#utility.yul\":10609:10610   */\n      0x01\n        /* \"#utility.yul\":10601:10607   */\n      dup3\n        /* \"#utility.yul\":10597:10611   */\n      add\n        /* \"#utility.yul\":10587:10611   */\n      swap2\n      pop\n        /* \"#utility.yul\":10656:10658   */\n      0x20\n        /* \"#utility.yul\":10645:10654   */\n      dup6\n        /* \"#utility.yul\":10641:10659   */\n      add\n        /* \"#utility.yul\":10628:10659   */\n      swap5\n      pop\n        /* \"#utility.yul\":10502:10506   */\n      0x20\n        /* \"#utility.yul\":10499:10500   */\n      dup2\n        /* \"#utility.yul\":10495:10507   */\n      add\n        /* \"#utility.yul\":10490:10507   */\n      swap1\n      pop\n        /* \"#utility.yul\":10465:10673   */\n      jump(tag_199)\n    tag_201:\n        /* \"#utility.yul\":10701:10707   */\n      dup7\n        /* \"#utility.yul\":10692:10699   */\n      dup4\n        /* \"#utility.yul\":10689:10708   */\n      lt\n        /* \"#utility.yul\":10686:10865   */\n      iszero\n      tag_202\n      jumpi\n        /* \"#utility.yul\":10759:10768   */\n      dup5\n        /* \"#utility.yul\":10754:10757   */\n      dup10\n        /* \"#utility.yul\":10750:10769   */\n      add\n        /* \"#utility.yul\":10744:10770   */\n      mload\n        /* \"#utility.yul\":10802:10850   */\n      tag_203\n        /* \"#utility.yul\":10844:10848   */\n      0x1f\n        /* \"#utility.yul\":10836:10842   */\n      dup10\n        /* \"#utility.yul\":10832:10849   */\n      and\n        /* \"#utility.yul\":10821:10830   */\n      dup3\n        /* \"#utility.yul\":10802:10850   */\n      tag_83\n      jump\t// in\n    tag_203:\n        /* \"#utility.yul\":10794:10800   */\n      dup4\n        /* \"#utility.yul\":10787:10851   */\n      sstore\n        /* \"#utility.yul\":10709:10865   */\n      pop\n        /* \"#utility.yul\":10686:10865   */\n    tag_202:\n        /* \"#utility.yul\":10911:10912   */\n      0x01\n        /* \"#utility.yul\":10907:10908   */\n      0x02\n        /* \"#utility.yul\":10899:10905   */\n      dup9\n        /* \"#utility.yul\":10895:10909   */\n      mul\n        /* \"#utility.yul\":10891:10913   */\n      add\n        /* \"#utility.yul\":10885:10889   */\n      dup9\n        /* \"#utility.yul\":10878:10914   */\n      sstore\n        /* \"#utility.yul\":10314:10924   */\n      pop\n      pop\n      pop\n        /* \"#utility.yul\":10277:11163   */\n    tag_194:\n      pop\n        /* \"#utility.yul\":9869:11169   */\n      pop\n      pop\n      pop\n        /* \"#utility.yul\":9779:11169   */\n      pop\n      pop\n      jump\t// out\n\n    auxdata: 0xa264697066735822122008ce9f85e2caee514767fcad7b8397e07a98145782b440d39ca04a755bd1eba764736f6c63430008170033\n}\n",
				"bytecode": {
					"linkReferences": {},
					"object": "608060405234801561000f575f80fd5b506109988061001d5f395ff3fe608060405260043610610033575f3560e01c80636bc19a2214610037578063e5aa3d581461005f578063edcbe76c14610089575b5f80fd5b348015610042575f80fd5b5061005d6004803603810190610058919061040b565b6100a5565b005b34801561006a575f80fd5b506100736101d3565b60405161008091906104c0565b60405180910390f35b6100a3600480360381019061009e919061040b565b61025e565b005b5f8173ffffffffffffffffffffffffffffffffffffffff166040516024016040516020818303038152906040527f44365aa8000000000000000000000000000000000000000000000000000000007bffffffffffffffffffffffffffffffffffffffffffffffffffffffff19166020820180517bffffffffffffffffffffffffffffffffffffffffffffffffffffffff838183161783525050505060405161014d919061051a565b5f604051808303815f865af19150503d805f8114610186576040519150601f19603f3d011682016040523d82523d5f602084013e61018b565b606091505b50509050806101cf576040517f08c379a00000000000000000000000000000000000000000000000000000000081526004016101c69061058a565b60405180910390fd5b5050565b5f80546101df906105d5565b80601f016020809104026020016040519081016040528092919081815260200182805461020b906105d5565b80156102565780601f1061022d57610100808354040283529160200191610256565b820191905f5260205f20905b81548152906001019060200180831161023957829003601f168201915b505050505081565b5f808273ffffffffffffffffffffffffffffffffffffffff16606f607b60405160240161028b919061069d565b6040516020818303038152906040527fc5d1c995000000000000000000000000000000000000000000000000000000007bffffffffffffffffffffffffffffffffffffffffffffffffffffffff19166020820180517bffffffffffffffffffffffffffffffffffffffffffffffffffffffff8381831617835250505050604051610315919061051a565b5f6040518083038185875af1925050503d805f811461034f576040519150601f19603f3d011682016040523d82523d5f602084013e610354565b606091505b509150915081610399576040517f08c379a00000000000000000000000000000000000000000000000000000000081526004016103909061058a565b60405180910390fd5b805f90816103a79190610893565b50505050565b5f80fd5b5f73ffffffffffffffffffffffffffffffffffffffff82169050919050565b5f6103da826103b1565b9050919050565b6103ea816103d0565b81146103f4575f80fd5b50565b5f81359050610405816103e1565b92915050565b5f602082840312156104205761041f6103ad565b5b5f61042d848285016103f7565b91505092915050565b5f81519050919050565b5f82825260208201905092915050565b5f5b8381101561046d578082015181840152602081019050610452565b5f8484015250505050565b5f601f19601f8301169050919050565b5f61049282610436565b61049c8185610440565b93506104ac818560208601610450565b6104b581610478565b840191505092915050565b5f6020820190508181035f8301526104d88184610488565b905092915050565b5f81905092915050565b5f6104f482610436565b6104fe81856104e0565b935061050e818560208601610450565b80840191505092915050565b5f61052582846104ea565b915081905092915050565b5f82825260208201905092915050565b7f63616c6c20666f6f206661696c656400000000000000000000000000000000005f82015250565b5f610574600f83610530565b915061057f82610540565b602082019050919050565b5f6020820190508181035f8301526105a181610568565b9050919050565b7f4e487b71000000000000000000000000000000000000000000000000000000005f52602260045260245ffd5b5f60028204905060018216806105ec57607f821691505b6020821081036105ff576105fe6105a8565b5b50919050565b5f819050919050565b5f60ff82169050919050565b5f819050919050565b5f61063d61063861063384610605565b61061a565b61060e565b9050919050565b61064d81610623565b82525050565b7f63616c6c20666f6f0000000000000000000000000000000000000000000000005f82015250565b5f610687600883610530565b915061069282610653565b602082019050919050565b5f6040820190506106b05f830184610644565b81810360208301526106c18161067b565b905092915050565b7f4e487b71000000000000000000000000000000000000000000000000000000005f52604160045260245ffd5b5f819050815f5260205f209050919050565b5f6020601f8301049050919050565b5f82821b905092915050565b5f600883026107527fffffffffffffffffffffffffffffffffffffffffffffffffffffffffffffffff82610717565b61075c8683610717565b95508019841693508086168417925050509392505050565b5f819050919050565b5f61079761079261078d84610774565b61061a565b610774565b9050919050565b5f819050919050565b6107b08361077d565b6107c46107bc8261079e565b848454610723565b825550505050565b5f90565b6107d86107cc565b6107e38184846107a7565b505050565b5b81811015610806576107fb5f826107d0565b6001810190506107e9565b5050565b601f82111561084b5761081c816106f6565b61082584610708565b81016020851015610834578190505b61084861084085610708565b8301826107e8565b50505b505050565b5f82821c905092915050565b5f61086b5f1984600802610850565b1980831691505092915050565b5f610883838361085c565b9150826002028217905092915050565b61089c82610436565b67ffffffffffffffff8111156108b5576108b46106c9565b5b6108bf82546105d5565b6108ca82828561080a565b5f60209050601f8311600181146108fb575f84156108e9578287015190505b6108f38582610878565b86555061095a565b601f198416610909866106f6565b5f5b828110156109305784890151825560018201915060208501945060208101905061090b565b8683101561094d5784890151610949601f89168261085c565b8355505b6001600288020188555050505b50505050505056fea264697066735822122008ce9f85e2caee514767fcad7b8397e07a98145782b440d39ca04a755bd1eba764736f6c63430008170033",
					"opcodes": "PUSH1 0x80 PUSH1 0x40 MSTORE CALLVALUE DUP1 ISZERO PUSH2 0xF JUMPI PUSH0 DUP1 REVERT JUMPDEST POP PUSH2 0x998 DUP1 PUSH2 0x1D PUSH0 CODECOPY PUSH0 RETURN INVALID PUSH1 0x80 PUSH1 0x40 MSTORE PUSH1 0x4 CALLDATASIZE LT PUSH2 0x33 JUMPI PUSH0 CALLDATALOAD PUSH1 0xE0 SHR DUP1 PUSH4 0x6BC19A22 EQ PUSH2 0x37 JUMPI DUP1 PUSH4 0xE5AA3D58 EQ PUSH2 0x5F JUMPI DUP1 PUSH4 0xEDCBE76C EQ PUSH2 0x89 JUMPI JUMPDEST PUSH0 DUP1 REVERT JUMPDEST CALLVALUE DUP1 ISZERO PUSH2 0x42 JUMPI PUSH0 DUP1 REVERT JUMPDEST POP PUSH2 0x5D PUSH1 0x4 DUP1 CALLDATASIZE SUB DUP2 ADD SWAP1 PUSH2 0x58 SWAP2 SWAP1 PUSH2 0x40B JUMP JUMPDEST PUSH2 0xA5 JUMP JUMPDEST STOP JUMPDEST CALLVALUE DUP1 ISZERO PUSH2 0x6A JUMPI PUSH0 DUP1 REVERT JUMPDEST POP PUSH2 0x73 PUSH2 0x1D3 JUMP JUMPDEST PUSH1 0x40 MLOAD PUSH2 0x80 SWAP2 SWAP1 PUSH2 0x4C0 JUMP JUMPDEST PUSH1 0x40 MLOAD DUP1 SWAP2 SUB SWAP1 RETURN JUMPDEST PUSH2 0xA3 PUSH1 0x4 DUP1 CALLDATASIZE SUB DUP2 ADD SWAP1 PUSH2 0x9E SWAP2 SWAP1 PUSH2 0x40B JUMP JUMPDEST PUSH2 0x25E JUMP JUMPDEST STOP JUMPDEST PUSH0 DUP2 PUSH20 0xFFFFFFFFFFFFFFFFFFFFFFFFFFFFFFFFFFFFFFFF AND PUSH1 0x40 MLOAD PUSH1 0x24 ADD PUSH1 0x40 MLOAD PUSH1 0x20 DUP2 DUP4 SUB SUB DUP2 MSTORE SWAP1 PUSH1 0x40 MSTORE PUSH32 0x44365AA800000000000000000000000000000000000000000000000000000000 PUSH28 0xFFFFFFFFFFFFFFFFFFFFFFFFFFFFFFFFFFFFFFFFFFFFFFFFFFFFFFFF NOT AND PUSH1 0x20 DUP3 ADD DUP1 MLOAD PUSH28 0xFFFFFFFFFFFFFFFFFFFFFFFFFFFFFFFFFFFFFFFFFFFFFFFFFFFFFFFF DUP4 DUP2 DUP4 AND OR DUP4 MSTORE POP POP POP POP PUSH1 0x40 MLOAD PUSH2 0x14D SWAP2 SWAP1 PUSH2 0x51A JUMP JUMPDEST PUSH0 PUSH1 0x40 MLOAD DUP1 DUP4 SUB DUP2 PUSH0 DUP7 GAS CALL SWAP2 POP POP RETURNDATASIZE DUP1 PUSH0 DUP2 EQ PUSH2 0x186 JUMPI PUSH1 0x40 MLOAD SWAP2 POP PUSH1 0x1F NOT PUSH1 0x3F RETURNDATASIZE ADD AND DUP3 ADD PUSH1 0x40 MSTORE RETURNDATASIZE DUP3 MSTORE RETURNDATASIZE PUSH0 PUSH1 0x20 DUP5 ADD RETURNDATACOPY PUSH2 0x18B JUMP JUMPDEST PUSH1 0x60 SWAP2 POP JUMPDEST POP POP SWAP1 POP DUP1 PUSH2 0x1CF JUMPI PUSH1 0x40 MLOAD PUSH32 0x8C379A000000000000000000000000000000000000000000000000000000000 DUP2 MSTORE PUSH1 0x4 ADD PUSH2 0x1C6 SWAP1 PUSH2 0x58A JUMP JUMPDEST PUSH1 0x40 MLOAD DUP1 SWAP2 SUB SWAP1 REVERT JUMPDEST POP POP JUMP JUMPDEST PUSH0 DUP1 SLOAD PUSH2 0x1DF SWAP1 PUSH2 0x5D5 JUMP JUMPDEST DUP1 PUSH1 0x1F ADD PUSH1 0x20 DUP1 SWAP2 DIV MUL PUSH1 0x20 ADD PUSH1 0x40 MLOAD SWAP1 DUP2 ADD PUSH1 0x40 MSTORE DUP1 SWAP3 SWAP2 SWAP1 DUP2 DUP2 MSTORE PUSH1 0x20 ADD DUP3 DUP1 SLOAD PUSH2 0x20B SWAP1 PUSH2 0x5D5 JUMP JUMPDEST DUP1 ISZERO PUSH2 0x256 JUMPI DUP1 PUSH1 0x1F LT PUSH2 0x22D JUMPI PUSH2 0x100 DUP1 DUP4 SLOAD DIV MUL DUP4 MSTORE SWAP2 PUSH1 0x20 ADD SWAP2 PUSH2 0x256 JUMP JUMPDEST DUP3 ADD SWAP2 SWAP1 PUSH0 MSTORE PUSH1 0x20 PUSH0 KECCAK256 SWAP1 JUMPDEST DUP2 SLOAD DUP2 MSTORE SWAP1 PUSH1 0x1 ADD SWAP1 PUSH1 0x20 ADD DUP1 DUP4 GT PUSH2 0x239 JUMPI DUP3 SWAP1 SUB PUSH1 0x1F AND DUP3 ADD SWAP2 JUMPDEST POP POP POP POP POP DUP2 JUMP JUMPDEST PUSH0 DUP1 DUP3 PUSH20 0xFFFFFFFFFFFFFFFFFFFFFFFFFFFFFFFFFFFFFFFF AND PUSH1 0x6F PUSH1 0x7B PUSH1 0x40 MLOAD PUSH1 0x24 ADD PUSH2 0x28B SWAP2 SWAP1 PUSH2 0x69D JUMP JUMPDEST PUSH1 0x40 MLOAD PUSH1 0x20 DUP2 DUP4 SUB SUB DUP2 MSTORE SWAP1 PUSH1 0x40 MSTORE PUSH32 0xC5D1C99500000000000000000000000000000000000000000000000000000000 PUSH28 0xFFFFFFFFFFFFFFFFFFFFFFFFFFFFFFFFFFFFFFFFFFFFFFFFFFFFFFFF NOT AND PUSH1 0x20 DUP3 ADD DUP1 MLOAD PUSH28 0xFFFFFFFFFFFFFFFFFFFFFFFFFFFFFFFFFFFFFFFFFFFFFFFFFFFFFFFF DUP4 DUP2 DUP4 AND OR DUP4 MSTORE POP POP POP POP PUSH1 0x40 MLOAD PUSH2 0x315 SWAP2 SWAP1 PUSH2 0x51A JUMP JUMPDEST PUSH0 PUSH1 0x40 MLOAD DUP1 DUP4 SUB DUP2 DUP6 DUP8 GAS CALL SWAP3 POP POP POP RETURNDATASIZE DUP1 PUSH0 DUP2 EQ PUSH2 0x34F JUMPI PUSH1 0x40 MLOAD SWAP2 POP PUSH1 0x1F NOT PUSH1 0x3F RETURNDATASIZE ADD AND DUP3 ADD PUSH1 0x40 MSTORE RETURNDATASIZE DUP3 MSTORE RETURNDATASIZE PUSH0 PUSH1 0x20 DUP5 ADD RETURNDATACOPY PUSH2 0x354 JUMP JUMPDEST PUSH1 0x60 SWAP2 POP JUMPDEST POP SWAP2 POP SWAP2 POP DUP2 PUSH2 0x399 JUMPI PUSH1 0x40 MLOAD PUSH32 0x8C379A000000000000000000000000000000000000000000000000000000000 DUP2 MSTORE PUSH1 0x4 ADD PUSH2 0x390 SWAP1 PUSH2 0x58A JUMP JUMPDEST PUSH1 0x40 MLOAD DUP1 SWAP2 SUB SWAP1 REVERT JUMPDEST DUP1 PUSH0 SWAP1 DUP2 PUSH2 0x3A7 SWAP2 SWAP1 PUSH2 0x893 JUMP JUMPDEST POP POP POP POP JUMP JUMPDEST PUSH0 DUP1 REVERT JUMPDEST PUSH0 PUSH20 0xFFFFFFFFFFFFFFFFFFFFFFFFFFFFFFFFFFFFFFFF DUP3 AND SWAP1 POP SWAP2 SWAP1 POP JUMP JUMPDEST PUSH0 PUSH2 0x3DA DUP3 PUSH2 0x3B1 JUMP JUMPDEST SWAP1 POP SWAP2 SWAP1 POP JUMP JUMPDEST PUSH2 0x3EA DUP2 PUSH2 0x3D0 JUMP JUMPDEST DUP2 EQ PUSH2 0x3F4 JUMPI PUSH0 DUP1 REVERT JUMPDEST POP JUMP JUMPDEST PUSH0 DUP2 CALLDATALOAD SWAP1 POP PUSH2 0x405 DUP2 PUSH2 0x3E1 JUMP JUMPDEST SWAP3 SWAP2 POP POP JUMP JUMPDEST PUSH0 PUSH1 0x20 DUP3 DUP5 SUB SLT ISZERO PUSH2 0x420 JUMPI PUSH2 0x41F PUSH2 0x3AD JUMP JUMPDEST JUMPDEST PUSH0 PUSH2 0x42D DUP5 DUP3 DUP6 ADD PUSH2 0x3F7 JUMP JUMPDEST SWAP2 POP POP SWAP3 SWAP2 POP POP JUMP JUMPDEST PUSH0 DUP2 MLOAD SWAP1 POP SWAP2 SWAP1 POP JUMP JUMPDEST PUSH0 DUP3 DUP3 MSTORE PUSH1 0x20 DUP3 ADD SWAP1 POP SWAP3 SWAP2 POP POP JUMP JUMPDEST PUSH0 JUMPDEST DUP4 DUP2 LT ISZERO PUSH2 0x46D JUMPI DUP1 DUP3 ADD MLOAD DUP2 DUP5 ADD MSTORE PUSH1 0x20 DUP2 ADD SWAP1 POP PUSH2 0x452 JUMP JUMPDEST PUSH0 DUP5 DUP5 ADD MSTORE POP POP POP POP JUMP JUMPDEST PUSH0 PUSH1 0x1F NOT PUSH1 0x1F DUP4 ADD AND SWAP1 POP SWAP2 SWAP1 POP JUMP JUMPDEST PUSH0 PUSH2 0x492 DUP3 PUSH2 0x436 JUMP JUMPDEST PUSH2 0x49C DUP2 DUP6 PUSH2 0x440 JUMP JUMPDEST SWAP4 POP PUSH2 0x4AC DUP2 DUP6 PUSH1 0x20 DUP7 ADD PUSH2 0x450 JUMP JUMPDEST PUSH2 0x4B5 DUP2 PUSH2 0x478 JUMP JUMPDEST DUP5 ADD SWAP2 POP POP SWAP3 SWAP2 POP POP JUMP JUMPDEST PUSH0 PUSH1 0x20 DUP3 ADD SWAP1 POP DUP2 DUP2 SUB PUSH0 DUP4 ADD MSTORE PUSH2 0x4D8 DUP2 DUP5 PUSH2 0x488 JUMP JUMPDEST SWAP1 POP SWAP3 SWAP2 POP POP JUMP JUMPDEST PUSH0 DUP2 SWAP1 POP SWAP3 SWAP2 POP POP JUMP JUMPDEST PUSH0 PUSH2 0x4F4 DUP3 PUSH2 0x436 JUMP JUMPDEST PUSH2 0x4FE DUP2 DUP6 PUSH2 0x4E0 JUMP JUMPDEST SWAP4 POP PUSH2 0x50E DUP2 DUP6 PUSH1 0x20 DUP7 ADD PUSH2 0x450 JUMP JUMPDEST DUP1 DUP5 ADD SWAP2 POP POP SWAP3 SWAP2 POP POP JUMP JUMPDEST PUSH0 PUSH2 0x525 DUP3 DUP5 PUSH2 0x4EA JUMP JUMPDEST SWAP2 POP DUP2 SWAP1 POP SWAP3 SWAP2 POP POP JUMP JUMPDEST PUSH0 DUP3 DUP3 MSTORE PUSH1 0x20 DUP3 ADD SWAP1 POP SWAP3 SWAP2 POP POP JUMP JUMPDEST PUSH32 0x63616C6C20666F6F206661696C65640000000000000000000000000000000000 PUSH0 DUP3 ADD MSTORE POP JUMP JUMPDEST PUSH0 PUSH2 0x574 PUSH1 0xF DUP4 PUSH2 0x530 JUMP JUMPDEST SWAP2 POP PUSH2 0x57F DUP3 PUSH2 0x540 JUMP JUMPDEST PUSH1 0x20 DUP3 ADD SWAP1 POP SWAP2 SWAP1 POP JUMP JUMPDEST PUSH0 PUSH1 0x20 DUP3 ADD SWAP1 POP DUP2 DUP2 SUB PUSH0 DUP4 ADD MSTORE PUSH2 0x5A1 DUP2 PUSH2 0x568 JUMP JUMPDEST SWAP1 POP SWAP2 SWAP1 POP JUMP JUMPDEST PUSH32 0x4E487B7100000000000000000000000000000000000000000000000000000000 PUSH0 MSTORE PUSH1 0x22 PUSH1 0x4 MSTORE PUSH1 0x24 PUSH0 REVERT JUMPDEST PUSH0 PUSH1 0x2 DUP3 DIV SWAP1 POP PUSH1 0x1 DUP3 AND DUP1 PUSH2 0x5EC JUMPI PUSH1 0x7F DUP3 AND SWAP2 POP JUMPDEST PUSH1 0x20 DUP3 LT DUP2 SUB PUSH2 0x5FF JUMPI PUSH2 0x5FE PUSH2 0x5A8 JUMP JUMPDEST JUMPDEST POP SWAP2 SWAP1 POP JUMP JUMPDEST PUSH0 DUP2 SWAP1 POP SWAP2 SWAP1 POP JUMP JUMPDEST PUSH0 PUSH1 0xFF DUP3 AND SWAP1 POP SWAP2 SWAP1 POP JUMP JUMPDEST PUSH0 DUP2 SWAP1 POP SWAP2 SWAP1 POP JUMP JUMPDEST PUSH0 PUSH2 0x63D PUSH2 0x638 PUSH2 0x633 DUP5 PUSH2 0x605 JUMP JUMPDEST PUSH2 0x61A JUMP JUMPDEST PUSH2 0x60E JUMP JUMPDEST SWAP1 POP SWAP2 SWAP1 POP JUMP JUMPDEST PUSH2 0x64D DUP2 PUSH2 0x623 JUMP JUMPDEST DUP3 MSTORE POP POP JUMP JUMPDEST PUSH32 0x63616C6C20666F6F000000000000000000000000000000000000000000000000 PUSH0 DUP3 ADD MSTORE POP JUMP JUMPDEST PUSH0 PUSH2 0x687 PUSH1 0x8 DUP4 PUSH2 0x530 JUMP JUMPDEST SWAP2 POP PUSH2 0x692 DUP3 PUSH2 0x653 JUMP JUMPDEST PUSH1 0x20 DUP3 ADD SWAP1 POP SWAP2 SWAP1 POP JUMP JUMPDEST PUSH0 PUSH1 0x40 DUP3 ADD SWAP1 POP PUSH2 0x6B0 PUSH0 DUP4 ADD DUP5 PUSH2 0x644 JUMP JUMPDEST DUP2 DUP2 SUB PUSH1 0x20 DUP4 ADD MSTORE PUSH2 0x6C1 DUP2 PUSH2 0x67B JUMP JUMPDEST SWAP1 POP SWAP3 SWAP2 POP POP JUMP JUMPDEST PUSH32 0x4E487B7100000000000000000000000000000000000000000000000000000000 PUSH0 MSTORE PUSH1 0x41 PUSH1 0x4 MSTORE PUSH1 0x24 PUSH0 REVERT JUMPDEST PUSH0 DUP2 SWAP1 POP DUP2 PUSH0 MSTORE PUSH1 0x20 PUSH0 KECCAK256 SWAP1 POP SWAP2 SWAP1 POP JUMP JUMPDEST PUSH0 PUSH1 0x20 PUSH1 0x1F DUP4 ADD DIV SWAP1 POP SWAP2 SWAP1 POP JUMP JUMPDEST PUSH0 DUP3 DUP3 SHL SWAP1 POP SWAP3 SWAP2 POP POP JUMP JUMPDEST PUSH0 PUSH1 0x8 DUP4 MUL PUSH2 0x752 PUSH32 0xFFFFFFFFFFFFFFFFFFFFFFFFFFFFFFFFFFFFFFFFFFFFFFFFFFFFFFFFFFFFFFFF DUP3 PUSH2 0x717 JUMP JUMPDEST PUSH2 0x75C DUP7 DUP4 PUSH2 0x717 JUMP JUMPDEST SWAP6 POP DUP1 NOT DUP5 AND SWAP4 POP DUP1 DUP7 AND DUP5 OR SWAP3 POP POP POP SWAP4 SWAP3 POP POP POP JUMP JUMPDEST PUSH0 DUP2 SWAP1 POP SWAP2 SWAP1 POP JUMP JUMPDEST PUSH0 PUSH2 0x797 PUSH2 0x792 PUSH2 0x78D DUP5 PUSH2 0x774 JUMP JUMPDEST PUSH2 0x61A JUMP JUMPDEST PUSH2 0x774 JUMP JUMPDEST SWAP1 POP SWAP2 SWAP1 POP JUMP JUMPDEST PUSH0 DUP2 SWAP1 POP SWAP2 SWAP1 POP JUMP JUMPDEST PUSH2 0x7B0 DUP4 PUSH2 0x77D JUMP JUMPDEST PUSH2 0x7C4 PUSH2 0x7BC DUP3 PUSH2 0x79E JUMP JUMPDEST DUP5 DUP5 SLOAD PUSH2 0x723 JUMP JUMPDEST DUP3 SSTORE POP POP POP POP JUMP JUMPDEST PUSH0 SWAP1 JUMP JUMPDEST PUSH2 0x7D8 PUSH2 0x7CC JUMP JUMPDEST PUSH2 0x7E3 DUP2 DUP5 DUP5 PUSH2 0x7A7 JUMP JUMPDEST POP POP POP JUMP JUMPDEST JUMPDEST DUP2 DUP2 LT ISZERO PUSH2 0x806 JUMPI PUSH2 0x7FB PUSH0 DUP3 PUSH2 0x7D0 JUMP JUMPDEST PUSH1 0x1 DUP2 ADD SWAP1 POP PUSH2 0x7E9 JUMP JUMPDEST POP POP JUMP JUMPDEST PUSH1 0x1F DUP3 GT ISZERO PUSH2 0x84B JUMPI PUSH2 0x81C DUP2 PUSH2 0x6F6 JUMP JUMPDEST PUSH2 0x825 DUP5 PUSH2 0x708 JUMP JUMPDEST DUP2 ADD PUSH1 0x20 DUP6 LT ISZERO PUSH2 0x834 JUMPI DUP2 SWAP1 POP JUMPDEST PUSH2 0x848 PUSH2 0x840 DUP6 PUSH2 0x708 JUMP JUMPDEST DUP4 ADD DUP3 PUSH2 0x7E8 JUMP JUMPDEST POP POP JUMPDEST POP POP POP JUMP JUMPDEST PUSH0 DUP3 DUP3 SHR SWAP1 POP SWAP3 SWAP2 POP POP JUMP JUMPDEST PUSH0 PUSH2 0x86B PUSH0 NOT DUP5 PUSH1 0x8 MUL PUSH2 0x850 JUMP JUMPDEST NOT DUP1 DUP4 AND SWAP2 POP POP SWAP3 SWAP2 POP POP JUMP JUMPDEST PUSH0 PUSH2 0x883 DUP4 DUP4 PUSH2 0x85C JUMP JUMPDEST SWAP2 POP DUP3 PUSH1 0x2 MUL DUP3 OR SWAP1 POP SWAP3 SWAP2 POP POP JUMP JUMPDEST PUSH2 0x89C DUP3 PUSH2 0x436 JUMP JUMPDEST PUSH8 0xFFFFFFFFFFFFFFFF DUP2 GT ISZERO PUSH2 0x8B5 JUMPI PUSH2 0x8B4 PUSH2 0x6C9 JUMP JUMPDEST JUMPDEST PUSH2 0x8BF DUP3 SLOAD PUSH2 0x5D5 JUMP JUMPDEST PUSH2 0x8CA DUP3 DUP3 DUP6 PUSH2 0x80A JUMP JUMPDEST PUSH0 PUSH1 0x20 SWAP1 POP PUSH1 0x1F DUP4 GT PUSH1 0x1 DUP2 EQ PUSH2 0x8FB JUMPI PUSH0 DUP5 ISZERO PUSH2 0x8E9 JUMPI DUP3 DUP8 ADD MLOAD SWAP1 POP JUMPDEST PUSH2 0x8F3 DUP6 DUP3 PUSH2 0x878 JUMP JUMPDEST DUP7 SSTORE POP PUSH2 0x95A JUMP JUMPDEST PUSH1 0x1F NOT DUP5 AND PUSH2 0x909 DUP7 PUSH2 0x6F6 JUMP JUMPDEST PUSH0 JUMPDEST DUP3 DUP2 LT ISZERO PUSH2 0x930 JUMPI DUP5 DUP10 ADD MLOAD DUP3 SSTORE PUSH1 0x1 DUP3 ADD SWAP2 POP PUSH1 0x20 DUP6 ADD SWAP5 POP PUSH1 0x20 DUP2 ADD SWAP1 POP PUSH2 0x90B JUMP JUMPDEST DUP7 DUP4 LT ISZERO PUSH2 0x94D JUMPI DUP5 DUP10 ADD MLOAD PUSH2 0x949 PUSH1 0x1F DUP10 AND DUP3 PUSH2 0x85C JUMP JUMPDEST DUP4 SSTORE POP JUMPDEST PUSH1 0x1 PUSH1 0x2 DUP9 MUL ADD DUP9 SSTORE POP POP POP JUMPDEST POP POP POP POP POP POP JUMP INVALID LOG2 PUSH5 0x6970667358 0x22 SLT KECCAK256 ADDMOD 0xCE SWAP16 DUP6 0xE2 0xCA 0xEE MLOAD SELFBALANCE PUSH8 0xFCAD7B8397E07A98 EQ JUMPI DUP3 0xB4 BLOCKHASH 0xD3 SWAP13 LOG0 0x4A PUSH22 0x5BD1EBA764736F6C6343000817003300000000000000 "
				},
				"gasEstimates": {
					"creation": {
						"codeDepositCost": "491200",
						"executionCost": "522",
						"totalCost": "491722"
					},
					"external": {
						"callFoo(address)": "infinite",
						"callNotExist(address)": "infinite",
						"i()": "infinite"
					}
				},
				"methodIdentifiers": {
					"callFoo(address)": "edcbe76c",
					"callNotExist(address)": "6bc19a22",
					"i()": "e5aa3d58"
				}
			},
			"storageLayout": {
				"storage": [
					{
						"astId": 56,
						"contract": "contracts/三W高级合约交互/0609Call.sol:Call",
						"label": "i",
						"offset": 0,
						"slot": "0",
						"type": "t_bytes_storage"
					}
				],
				"types": {
					"t_bytes_storage": {
						"encoding": "bytes",
						"label": "bytes",
						"numberOfBytes": "32"
					}
				}
			},
			"userdoc": {
				"kind": "user",
				"methods": {},
				"version": 1
			}
		}
	}
}