{
	"data": {
		"bytecode": {
			"linkReferences": {},
			"object": "608060405234801561000f575f80fd5b506105598061001d5f395ff3fe60806040526004361061003e575f3560e01c806327a9f474146100425780634a2ad99f1461005e5780637c94c8ca1461009a578063a35d7e3d146100d6575b5f80fd5b61005c60048036038101906100579190610399565b610113565b005b348015610069575f80fd5b50610084600480360381019061007f9190610399565b61017f565b60405161009191906103e6565b60405180910390f35b3480156100a5575f80fd5b506100c060048036038101906100bb9190610429565b610201565b6040516100cd91906103e6565b60405180910390f35b3480156100e1575f80fd5b506100fc60048036038101906100f79190610454565b610276565b60405161010a92919061047f565b60405180910390f35b8173ffffffffffffffffffffffffffffffffffffffff16638f52503f34836040518363ffffffff1660e01b815260040161014d91906103e6565b5f604051808303818588803b158015610164575f80fd5b505af1158015610176573d5f803e3d5ffd5b50505050505050565b5f8273ffffffffffffffffffffffffffffffffffffffff16634018d9aa836040518263ffffffff1660e01b81526004016101b991906103e6565b6020604051808303815f875af11580156101d5573d5f803e3d5ffd5b505050506040513d601f19601f820116820180604052508101906101f991906104ba565b905092915050565b5f8173ffffffffffffffffffffffffffffffffffffffff16635197c7aa6040518163ffffffff1660e01b8152600401602060405180830381865afa15801561024b573d5f803e3d5ffd5b505050506040513d601f19601f8201168201806040525081019061026f91906104ba565b9050919050565b5f805f808473ffffffffffffffffffffffffffffffffffffffff1663677bf7d86040518163ffffffff1660e01b81526004016040805180830381865afa1580156102c2573d5f803e3d5ffd5b505050506040513d601f19601f820116820180604052508101906102e691906104e5565b915091508181935093505050915091565b5f80fd5b5f73ffffffffffffffffffffffffffffffffffffffff82169050919050565b5f610324826102fb565b9050919050565b5f6103358261031a565b9050919050565b6103458161032b565b811461034f575f80fd5b50565b5f813590506103608161033c565b92915050565b5f819050919050565b61037881610366565b8114610382575f80fd5b50565b5f813590506103938161036f565b92915050565b5f80604083850312156103af576103ae6102f7565b5b5f6103bc85828601610352565b92505060206103cd85828601610385565b9150509250929050565b6103e081610366565b82525050565b5f6020820190506103f95f8301846103d7565b92915050565b6104088161031a565b8114610412575f80fd5b50565b5f81359050610423816103ff565b92915050565b5f6020828403121561043e5761043d6102f7565b5b5f61044b84828501610415565b91505092915050565b5f60208284031215610469576104686102f7565b5b5f61047684828501610352565b91505092915050565b5f6040820190506104925f8301856103d7565b61049f60208301846103d7565b9392505050565b5f815190506104b48161036f565b92915050565b5f602082840312156104cf576104ce6102f7565b5b5f6104dc848285016104a6565b91505092915050565b5f80604083850312156104fb576104fa6102f7565b5b5f610508858286016104a6565b9250506020610519858286016104a6565b915050925092905056fea2646970667358221220a5fc7ee4e86dd2d4947347de07741cb46ddb482d13e336b49499defc8c21ae0064736f6c63430008170033",
			"opcodes": "PUSH1 0x80 PUSH1 0x40 MSTORE CALLVALUE DUP1 ISZERO PUSH2 0xF JUMPI PUSH0 DUP1 REVERT JUMPDEST POP PUSH2 0x559 DUP1 PUSH2 0x1D PUSH0 CODECOPY PUSH0 RETURN INVALID PUSH1 0x80 PUSH1 0x40 MSTORE PUSH1 0x4 CALLDATASIZE LT PUSH2 0x3E JUMPI PUSH0 CALLDATALOAD PUSH1 0xE0 SHR DUP1 PUSH4 0x27A9F474 EQ PUSH2 0x42 JUMPI DUP1 PUSH4 0x4A2AD99F EQ PUSH2 0x5E JUMPI DUP1 PUSH4 0x7C94C8CA EQ PUSH2 0x9A JUMPI DUP1 PUSH4 0xA35D7E3D EQ PUSH2 0xD6 JUMPI JUMPDEST PUSH0 DUP1 REVERT JUMPDEST PUSH2 0x5C PUSH1 0x4 DUP1 CALLDATASIZE SUB DUP2 ADD SWAP1 PUSH2 0x57 SWAP2 SWAP1 PUSH2 0x399 JUMP JUMPDEST PUSH2 0x113 JUMP JUMPDEST STOP JUMPDEST CALLVALUE DUP1 ISZERO PUSH2 0x69 JUMPI PUSH0 DUP1 REVERT JUMPDEST POP PUSH2 0x84 PUSH1 0x4 DUP1 CALLDATASIZE SUB DUP2 ADD SWAP1 PUSH2 0x7F SWAP2 SWAP1 PUSH2 0x399 JUMP JUMPDEST PUSH2 0x17F JUMP JUMPDEST PUSH1 0x40 MLOAD PUSH2 0x91 SWAP2 SWAP1 PUSH2 0x3E6 JUMP JUMPDEST PUSH1 0x40 MLOAD DUP1 SWAP2 SUB SWAP1 RETURN JUMPDEST CALLVALUE DUP1 ISZERO PUSH2 0xA5 JUMPI PUSH0 DUP1 REVERT JUMPDEST POP PUSH2 0xC0 PUSH1 0x4 DUP1 CALLDATASIZE SUB DUP2 ADD SWAP1 PUSH2 0xBB SWAP2 SWAP1 PUSH2 0x429 JUMP JUMPDEST PUSH2 0x201 JUMP JUMPDEST PUSH1 0x40 MLOAD PUSH2 0xCD SWAP2 SWAP1 PUSH2 0x3E6 JUMP JUMPDEST PUSH1 0x40 MLOAD DUP1 SWAP2 SUB SWAP1 RETURN JUMPDEST CALLVALUE DUP1 ISZERO PUSH2 0xE1 JUMPI PUSH0 DUP1 REVERT JUMPDEST POP PUSH2 0xFC PUSH1 0x4 DUP1 CALLDATASIZE SUB DUP2 ADD SWAP1 PUSH2 0xF7 SWAP2 SWAP1 PUSH2 0x454 JUMP JUMPDEST PUSH2 0x276 JUMP JUMPDEST PUSH1 0x40 MLOAD PUSH2 0x10A SWAP3 SWAP2 SWAP1 PUSH2 0x47F JUMP JUMPDEST PUSH1 0x40 MLOAD DUP1 SWAP2 SUB SWAP1 RETURN JUMPDEST DUP2 PUSH20 0xFFFFFFFFFFFFFFFFFFFFFFFFFFFFFFFFFFFFFFFF AND PUSH4 0x8F52503F CALLVALUE DUP4 PUSH1 0x40 MLOAD DUP4 PUSH4 0xFFFFFFFF AND PUSH1 0xE0 SHL DUP2 MSTORE PUSH1 0x4 ADD PUSH2 0x14D SWAP2 SWAP1 PUSH2 0x3E6 JUMP JUMPDEST PUSH0 PUSH1 0x40 MLOAD DUP1 DUP4 SUB DUP2 DUP6 DUP9 DUP1 EXTCODESIZE ISZERO DUP1 ISZERO PUSH2 0x164 JUMPI PUSH0 DUP1 REVERT JUMPDEST POP GAS CALL ISZERO DUP1 ISZERO PUSH2 0x176 JUMPI RETURNDATASIZE PUSH0 DUP1 RETURNDATACOPY RETURNDATASIZE PUSH0 REVERT JUMPDEST POP POP POP POP POP POP POP JUMP JUMPDEST PUSH0 DUP3 PUSH20 0xFFFFFFFFFFFFFFFFFFFFFFFFFFFFFFFFFFFFFFFF AND PUSH4 0x4018D9AA DUP4 PUSH1 0x40 MLOAD DUP3 PUSH4 0xFFFFFFFF AND PUSH1 0xE0 SHL DUP2 MSTORE PUSH1 0x4 ADD PUSH2 0x1B9 SWAP2 SWAP1 PUSH2 0x3E6 JUMP JUMPDEST PUSH1 0x20 PUSH1 0x40 MLOAD DUP1 DUP4 SUB DUP2 PUSH0 DUP8 GAS CALL ISZERO DUP1 ISZERO PUSH2 0x1D5 JUMPI RETURNDATASIZE PUSH0 DUP1 RETURNDATACOPY RETURNDATASIZE PUSH0 REVERT JUMPDEST POP POP POP POP PUSH1 0x40 MLOAD RETURNDATASIZE PUSH1 0x1F NOT PUSH1 0x1F DUP3 ADD AND DUP3 ADD DUP1 PUSH1 0x40 MSTORE POP DUP2 ADD SWAP1 PUSH2 0x1F9 SWAP2 SWAP1 PUSH2 0x4BA JUMP JUMPDEST SWAP1 POP SWAP3 SWAP2 POP POP JUMP JUMPDEST PUSH0 DUP2 PUSH20 0xFFFFFFFFFFFFFFFFFFFFFFFFFFFFFFFFFFFFFFFF AND PUSH4 0x5197C7AA PUSH1 0x40 MLOAD DUP2 PUSH4 0xFFFFFFFF AND PUSH1 0xE0 SHL DUP2 MSTORE PUSH1 0x4 ADD PUSH1 0x20 PUSH1 0x40 MLOAD DUP1 DUP4 SUB DUP2 DUP7 GAS STATICCALL ISZERO DUP1 ISZERO PUSH2 0x24B JUMPI RETURNDATASIZE PUSH0 DUP1 RETURNDATACOPY RETURNDATASIZE PUSH0 REVERT JUMPDEST POP POP POP POP PUSH1 0x40 MLOAD RETURNDATASIZE PUSH1 0x1F NOT PUSH1 0x1F DUP3 ADD AND DUP3 ADD DUP1 PUSH1 0x40 MSTORE POP DUP2 ADD SWAP1 PUSH2 0x26F SWAP2 SWAP1 PUSH2 0x4BA JUMP JUMPDEST SWAP1 POP SWAP2 SWAP1 POP JUMP JUMPDEST PUSH0 DUP1 PUSH0 DUP1 DUP5 PUSH20 0xFFFFFFFFFFFFFFFFFFFFFFFFFFFFFFFFFFFFFFFF AND PUSH4 0x677BF7D8 PUSH1 0x40 MLOAD DUP2 PUSH4 0xFFFFFFFF AND PUSH1 0xE0 SHL DUP2 MSTORE PUSH1 0x4 ADD PUSH1 0x40 DUP1 MLOAD DUP1 DUP4 SUB DUP2 DUP7 GAS STATICCALL ISZERO DUP1 ISZERO PUSH2 0x2C2 JUMPI RETURNDATASIZE PUSH0 DUP1 RETURNDATACOPY RETURNDATASIZE PUSH0 REVERT JUMPDEST POP POP POP POP PUSH1 0x40 MLOAD RETURNDATASIZE PUSH1 0x1F NOT PUSH1 0x1F DUP3 ADD AND DUP3 ADD DUP1 PUSH1 0x40 MSTORE POP DUP2 ADD SWAP1 PUSH2 0x2E6 SWAP2 SWAP1 PUSH2 0x4E5 JUMP JUMPDEST SWAP2 POP SWAP2 POP DUP2 DUP2 SWAP4 POP SWAP4 POP POP POP SWAP2 POP SWAP2 JUMP JUMPDEST PUSH0 DUP1 REVERT JUMPDEST PUSH0 PUSH20 0xFFFFFFFFFFFFFFFFFFFFFFFFFFFFFFFFFFFFFFFF DUP3 AND SWAP1 POP SWAP2 SWAP1 POP JUMP JUMPDEST PUSH0 PUSH2 0x324 DUP3 PUSH2 0x2FB JUMP JUMPDEST SWAP1 POP SWAP2 SWAP1 POP JUMP JUMPDEST PUSH0 PUSH2 0x335 DUP3 PUSH2 0x31A JUMP JUMPDEST SWAP1 POP SWAP2 SWAP1 POP JUMP JUMPDEST PUSH2 0x345 DUP2 PUSH2 0x32B JUMP JUMPDEST DUP2 EQ PUSH2 0x34F JUMPI PUSH0 DUP1 REVERT JUMPDEST POP JUMP JUMPDEST PUSH0 DUP2 CALLDATALOAD SWAP1 POP PUSH2 0x360 DUP2 PUSH2 0x33C JUMP JUMPDEST SWAP3 SWAP2 POP POP JUMP JUMPDEST PUSH0 DUP2 SWAP1 POP SWAP2 SWAP1 POP JUMP JUMPDEST PUSH2 0x378 DUP2 PUSH2 0x366 JUMP JUMPDEST DUP2 EQ PUSH2 0x382 JUMPI PUSH0 DUP1 REVERT JUMPDEST POP JUMP JUMPDEST PUSH0 DUP2 CALLDATALOAD SWAP1 POP PUSH2 0x393 DUP2 PUSH2 0x36F JUMP JUMPDEST SWAP3 SWAP2 POP POP JUMP JUMPDEST PUSH0 DUP1 PUSH1 0x40 DUP4 DUP6 SUB SLT ISZERO PUSH2 0x3AF JUMPI PUSH2 0x3AE PUSH2 0x2F7 JUMP JUMPDEST JUMPDEST PUSH0 PUSH2 0x3BC DUP6 DUP3 DUP7 ADD PUSH2 0x352 JUMP JUMPDEST SWAP3 POP POP PUSH1 0x20 PUSH2 0x3CD DUP6 DUP3 DUP7 ADD PUSH2 0x385 JUMP JUMPDEST SWAP2 POP POP SWAP3 POP SWAP3 SWAP1 POP JUMP JUMPDEST PUSH2 0x3E0 DUP2 PUSH2 0x366 JUMP JUMPDEST DUP3 MSTORE POP POP JUMP JUMPDEST PUSH0 PUSH1 0x20 DUP3 ADD SWAP1 POP PUSH2 0x3F9 PUSH0 DUP4 ADD DUP5 PUSH2 0x3D7 JUMP JUMPDEST SWAP3 SWAP2 POP POP JUMP JUMPDEST PUSH2 0x408 DUP2 PUSH2 0x31A JUMP JUMPDEST DUP2 EQ PUSH2 0x412 JUMPI PUSH0 DUP1 REVERT JUMPDEST POP JUMP JUMPDEST PUSH0 DUP2 CALLDATALOAD SWAP1 POP PUSH2 0x423 DUP2 PUSH2 0x3FF JUMP JUMPDEST SWAP3 SWAP2 POP POP JUMP JUMPDEST PUSH0 PUSH1 0x20 DUP3 DUP5 SUB SLT ISZERO PUSH2 0x43E JUMPI PUSH2 0x43D PUSH2 0x2F7 JUMP JUMPDEST JUMPDEST PUSH0 PUSH2 0x44B DUP5 DUP3 DUP6 ADD PUSH2 0x415 JUMP JUMPDEST SWAP2 POP POP SWAP3 SWAP2 POP POP JUMP JUMPDEST PUSH0 PUSH1 0x20 DUP3 DUP5 SUB SLT ISZERO PUSH2 0x469 JUMPI PUSH2 0x468 PUSH2 0x2F7 JUMP JUMPDEST JUMPDEST PUSH0 PUSH2 0x476 DUP5 DUP3 DUP6 ADD PUSH2 0x352 JUMP JUMPDEST SWAP2 POP POP SWAP3 SWAP2 POP POP JUMP JUMPDEST PUSH0 PUSH1 0x40 DUP3 ADD SWAP1 POP PUSH2 0x492 PUSH0 DUP4 ADD DUP6 PUSH2 0x3D7 JUMP JUMPDEST PUSH2 0x49F PUSH1 0x20 DUP4 ADD DUP5 PUSH2 0x3D7 JUMP JUMPDEST SWAP4 SWAP3 POP POP POP JUMP JUMPDEST PUSH0 DUP2 MLOAD SWAP1 POP PUSH2 0x4B4 DUP2 PUSH2 0x36F JUMP JUMPDEST SWAP3 SWAP2 POP POP JUMP JUMPDEST PUSH0 PUSH1 0x20 DUP3 DUP5 SUB SLT ISZERO PUSH2 0x4CF JUMPI PUSH2 0x4CE PUSH2 0x2F7 JUMP JUMPDEST JUMPDEST PUSH0 PUSH2 0x4DC DUP5 DUP3 DUP6 ADD PUSH2 0x4A6 JUMP JUMPDEST SWAP2 POP POP SWAP3 SWAP2 POP POP JUMP JUMPDEST PUSH0 DUP1 PUSH1 0x40 DUP4 DUP6 SUB SLT ISZERO PUSH2 0x4FB JUMPI PUSH2 0x4FA PUSH2 0x2F7 JUMP JUMPDEST JUMPDEST PUSH0 PUSH2 0x508 DUP6 DUP3 DUP7 ADD PUSH2 0x4A6 JUMP JUMPDEST SWAP3 POP POP PUSH1 0x20 PUSH2 0x519 DUP6 DUP3 DUP7 ADD PUSH2 0x4A6 JUMP JUMPDEST SWAP2 POP POP SWAP3 POP SWAP3 SWAP1 POP JUMP INVALID LOG2 PUSH5 0x6970667358 0x22 SLT KECCAK256 0xA5 0xFC PUSH31 0xE4E86DD2D4947347DE07741CB46DDB482D13E336B49499DEFC8C21AE006473 PUSH16 0x6C634300081700330000000000000000 "
		},
		"gasEstimates": {
			"creation": {
				"codeDepositCost": "273800",
				"executionCost": "310",
				"totalCost": "274110"
			},
			"external": {
				"getX(address)": "infinite",
				"getXAndEther(address)": "infinite",
				"setX(address,uint256)": "infinite",
				"setXAndSendEther(address,uint256)": "infinite"
			}
		},
		"methodIdentifiers": {
			"getX(address)": "7c94c8ca",
			"getXAndEther(address)": "a35d7e3d",
			"setX(address,uint256)": "4a2ad99f",
			"setXAndSendEther(address,uint256)": "27a9f474"
		}
	},
	"abi": [
		{
			"inputs": [
				{
					"internalType": "address",
					"name": "_to",
					"type": "address"
				}
			],
			"name": "getX",
			"outputs": [
				{
					"internalType": "uint256",
					"name": "x",
					"type": "uint256"
				}
			],
			"stateMutability": "view",
			"type": "function"
		},
		{
			"inputs": [
				{
					"internalType": "contract Receiver",
					"name": "_to",
					"type": "address"
				}
			],
			"name": "getXAndEther",
			"outputs": [
				{
					"internalType": "uint256",
					"name": "",
					"type": "uint256"
				},
				{
					"internalType": "uint256",
					"name": "",
					"type": "uint256"
				}
			],
			"stateMutability": "view",
			"type": "function"
		},
		{
			"inputs": [
				{
					"internalType": "contract Receiver",
					"name": "_to",
					"type": "address"
				},
				{
					"internalType": "uint256",
					"name": "_x",
					"type": "uint256"
				}
			],
			"name": "setX",
			"outputs": [
				{
					"internalType": "uint256",
					"name": "",
					"type": "uint256"
				}
			],
			"stateMutability": "nonpayable",
			"type": "function"
		},
		{
			"inputs": [
				{
					"internalType": "contract Receiver",
					"name": "_to",
					"type": "address"
				},
				{
					"internalType": "uint256",
					"name": "_x",
					"type": "uint256"
				}
			],
			"name": "setXAndSendEther",
			"outputs": [],
			"stateMutability": "payable",
			"type": "function"
		}
	]
}