{
	"data": {
		"bytecode": {
			"linkReferences": {},
			"object": "608060405260015f556002600155600360025534801561001d575f80fd5b506102148061002b5f395ff3fe608060405234801561000f575f80fd5b5060043610610055575f3560e01c80632e6e831914610059578063335d00c214610077578063a56dfe4a14610081578063c3be8e2c1461009f578063effc6851146100a9575b5f80fd5b6100616100c7565b60405161006e9190610165565b60405180910390f35b61007f6100d0565b005b610089610109565b6040516100969190610165565b60405180910390f35b6100a761010f565b005b6100b1610134565b6040516100be9190610165565b60405180910390f35b5f610190905090565b5f546001545f546100e191906101ab565b6100eb91906101ab565b506100f461013c565b506100fd610134565b50610106610144565b50565b60015481565b60025460015461011f91906101ab565b50610128610134565b50610131610144565b50565b5f60c8905090565b5f6064905090565b5f61012c905090565b5f819050919050565b61015f8161014d565b82525050565b5f6020820190506101785f830184610156565b92915050565b7f4e487b71000000000000000000000000000000000000000000000000000000005f52601160045260245ffd5b5f6101b58261014d565b91506101c08361014d565b92508282019050808211156101d8576101d761017e565b5b9291505056fea264697066735822122073500b0dfe298e0fd353bf935fa4f87974d1d775292f39dfe80acd1ec2a1539564736f6c63430008170033",
			"opcodes": "PUSH1 0x80 PUSH1 0x40 MSTORE PUSH1 0x1 PUSH0 SSTORE PUSH1 0x2 PUSH1 0x1 SSTORE PUSH1 0x3 PUSH1 0x2 SSTORE CALLVALUE DUP1 ISZERO PUSH2 0x1D JUMPI PUSH0 DUP1 REVERT JUMPDEST POP PUSH2 0x214 DUP1 PUSH2 0x2B PUSH0 CODECOPY PUSH0 RETURN INVALID PUSH1 0x80 PUSH1 0x40 MSTORE CALLVALUE DUP1 ISZERO PUSH2 0xF JUMPI PUSH0 DUP1 REVERT JUMPDEST POP PUSH1 0x4 CALLDATASIZE LT PUSH2 0x55 JUMPI PUSH0 CALLDATALOAD PUSH1 0xE0 SHR DUP1 PUSH4 0x2E6E8319 EQ PUSH2 0x59 JUMPI DUP1 PUSH4 0x335D00C2 EQ PUSH2 0x77 JUMPI DUP1 PUSH4 0xA56DFE4A EQ PUSH2 0x81 JUMPI DUP1 PUSH4 0xC3BE8E2C EQ PUSH2 0x9F JUMPI DUP1 PUSH4 0xEFFC6851 EQ PUSH2 0xA9 JUMPI JUMPDEST PUSH0 DUP1 REVERT JUMPDEST PUSH2 0x61 PUSH2 0xC7 JUMP JUMPDEST PUSH1 0x40 MLOAD PUSH2 0x6E SWAP2 SWAP1 PUSH2 0x165 JUMP JUMPDEST PUSH1 0x40 MLOAD DUP1 SWAP2 SUB SWAP1 RETURN JUMPDEST PUSH2 0x7F PUSH2 0xD0 JUMP JUMPDEST STOP JUMPDEST PUSH2 0x89 PUSH2 0x109 JUMP JUMPDEST PUSH1 0x40 MLOAD PUSH2 0x96 SWAP2 SWAP1 PUSH2 0x165 JUMP JUMPDEST PUSH1 0x40 MLOAD DUP1 SWAP2 SUB SWAP1 RETURN JUMPDEST PUSH2 0xA7 PUSH2 0x10F JUMP JUMPDEST STOP JUMPDEST PUSH2 0xB1 PUSH2 0x134 JUMP JUMPDEST PUSH1 0x40 MLOAD PUSH2 0xBE SWAP2 SWAP1 PUSH2 0x165 JUMP JUMPDEST PUSH1 0x40 MLOAD DUP1 SWAP2 SUB SWAP1 RETURN JUMPDEST PUSH0 PUSH2 0x190 SWAP1 POP SWAP1 JUMP JUMPDEST PUSH0 SLOAD PUSH1 0x1 SLOAD PUSH0 SLOAD PUSH2 0xE1 SWAP2 SWAP1 PUSH2 0x1AB JUMP JUMPDEST PUSH2 0xEB SWAP2 SWAP1 PUSH2 0x1AB JUMP JUMPDEST POP PUSH2 0xF4 PUSH2 0x13C JUMP JUMPDEST POP PUSH2 0xFD PUSH2 0x134 JUMP JUMPDEST POP PUSH2 0x106 PUSH2 0x144 JUMP JUMPDEST POP JUMP JUMPDEST PUSH1 0x1 SLOAD DUP2 JUMP JUMPDEST PUSH1 0x2 SLOAD PUSH1 0x1 SLOAD PUSH2 0x11F SWAP2 SWAP1 PUSH2 0x1AB JUMP JUMPDEST POP PUSH2 0x128 PUSH2 0x134 JUMP JUMPDEST POP PUSH2 0x131 PUSH2 0x144 JUMP JUMPDEST POP JUMP JUMPDEST PUSH0 PUSH1 0xC8 SWAP1 POP SWAP1 JUMP JUMPDEST PUSH0 PUSH1 0x64 SWAP1 POP SWAP1 JUMP JUMPDEST PUSH0 PUSH2 0x12C SWAP1 POP SWAP1 JUMP JUMPDEST PUSH0 DUP2 SWAP1 POP SWAP2 SWAP1 POP JUMP JUMPDEST PUSH2 0x15F DUP2 PUSH2 0x14D JUMP JUMPDEST DUP3 MSTORE POP POP JUMP JUMPDEST PUSH0 PUSH1 0x20 DUP3 ADD SWAP1 POP PUSH2 0x178 PUSH0 DUP4 ADD DUP5 PUSH2 0x156 JUMP JUMPDEST SWAP3 SWAP2 POP POP JUMP JUMPDEST PUSH32 0x4E487B7100000000000000000000000000000000000000000000000000000000 PUSH0 MSTORE PUSH1 0x11 PUSH1 0x4 MSTORE PUSH1 0x24 PUSH0 REVERT JUMPDEST PUSH0 PUSH2 0x1B5 DUP3 PUSH2 0x14D JUMP JUMPDEST SWAP2 POP PUSH2 0x1C0 DUP4 PUSH2 0x14D JUMP JUMPDEST SWAP3 POP DUP3 DUP3 ADD SWAP1 POP DUP1 DUP3 GT ISZERO PUSH2 0x1D8 JUMPI PUSH2 0x1D7 PUSH2 0x17E JUMP JUMPDEST JUMPDEST SWAP3 SWAP2 POP POP JUMP INVALID LOG2 PUSH5 0x6970667358 0x22 SLT KECCAK256 PUSH20 0x500B0DFE298E0FD353BF935FA4F87974D1D77529 0x2F CODECOPY 0xDF 0xE8 EXP 0xCD 0x1E 0xC2 LOG1 MSTORE8 SWAP6 PUSH5 0x736F6C6343 STOP ADDMOD OR STOP CALLER "
		},
		"gasEstimates": {
			"creation": {
				"codeDepositCost": "106400",
				"executionCost": "66468",
				"totalCost": "172868"
			},
			"external": {
				"examples()": "infinite",
				"examples2()": "infinite",
				"exterFun()": "310",
				"pubFun()": "398",
				"y()": "2447"
			}
		},
		"methodIdentifiers": {
			"examples()": "335d00c2",
			"examples2()": "c3be8e2c",
			"exterFun()": "2e6e8319",
			"pubFun()": "effc6851",
			"y()": "a56dfe4a"
		}
	},
	"abi": [
		{
			"inputs": [],
			"name": "examples",
			"outputs": [],
			"stateMutability": "view",
			"type": "function"
		},
		{
			"inputs": [],
			"name": "examples2",
			"outputs": [],
			"stateMutability": "view",
			"type": "function"
		},
		{
			"inputs": [],
			"name": "exterFun",
			"outputs": [
				{
					"internalType": "uint256",
					"name": "",
					"type": "uint256"
				}
			],
			"stateMutability": "pure",
			"type": "function"
		},
		{
			"inputs": [],
			"name": "pubFun",
			"outputs": [
				{
					"internalType": "uint256",
					"name": "",
					"type": "uint256"
				}
			],
			"stateMutability": "pure",
			"type": "function"
		},
		{
			"inputs": [],
			"name": "y",
			"outputs": [
				{
					"internalType": "uint256",
					"name": "",
					"type": "uint256"
				}
			],
			"stateMutability": "view",
			"type": "function"
		}
	]
}